0158576870999992022010100004+28120+112780FM-12+011999999V0202641N0005199999999004300199+00651+00381103041ADDAA106999999AA224000091AJ199999999999999AY101121AY201121IA2999+00649KA1240M+01041KA2240N+00071MA1999999101541MD1210121-0211MW1101OD141200321322REMSYN004BUFR
0152576870999992022010103004+28120+112780FM-12+011999999V0202141N0008199999999006600199+00821+00161103131ADDAA106999999AA212999999AA324999999AY101031AY201031IA2999+00649KA1240M+01041KA2240N+00481MA1999999101631MD1210091-0111MW1101OD141200321322REMSYN004BUFR
0158576870999992022010106004+28120+112780FM-12+011999999V0203081N0012199999999008400199+01071+00071102821ADDAA106999999AA224000091AJ199999999999999AY101061AY201061IA2999+00649KA1240M+01081KA2240N+00641MA1999999101331MD1710301-0051MW1001OD141200321322REMSYN004BUFR
0152576870999992022010109004+28120+112780FM-12+011999999V0201591N0017199999999009000199+01021+00161102791ADDAA106999999AA212999999AA324999999AY101031AY201031IA2999+00649KA1240M+01121KA2240N+00641MA1999999101301MD1710031-0051MW1001OD141200371133REMSYN004BUFR
0158576870999992022010112004+28120+112780FM-12+011999999V0203011N0004199999999005800199+00621+00261102911ADDAA106999999AA224000091AJ199999999999999AY101061AY201061IA2999+00399KA1240M+01121KA2240N+00631MA1999999101411MD1210111-0061MW1101OD141200371133REMSYN004BUFR
0136576870999992022010115004+28120+112780FM-12+011999999V0200391N0003199999999004100199+00451+00251102931ADDAA106999999AA212999999AA324999999IA2999+00229KA1240M+01121KA2240N+00451MA1999999101431MD1210021-0121MW1101OD141200371133REMSYN004BUFR
0152576870999992022010118004+28120+112780FM-12+011999999V0201041N0013199999999003400199+00411+00251102901ADDAA106999999AA212999999AA324999999AY101999AY201999IA2999+00129KA1240M+01121KA2240N+00371MA1999999101411MD1710021-0071MW1101OD141200371133REMSYN004BUFR
0136576870999992022010121004+28120+112780FM-12+011999999V0201131N0015199999999002000199+00301+00191102831ADDAA106999999AA212999999AA324999999IA2999+00049KA1240M+01121KA2240N+00291MA1999999101331MD1710081-0091MW1101OD141200271155REMSYN004BUFR
0158576870999992022010200004+28120+112780FM-12+011999999V0200491N0006199999999001300199+00271+00241102981ADDAA106999999AA224000091AJ199999999999999AY101121AY201121IA2999+00009KA1240M+01121KA2240N+00261MA1999999101471MD1210141-0071MW1101OD141200221084REMSYN004BUFR
0152576870999992022010203004+28120+112780FM-12+011999999V0201341N0031199999999006200199+00851+00391102991ADDAA106999999AA212999999AA324999999AY101031AY201031IA2999+00009KA1240M+01121KA2240N+00261MA1999999101491MD1210021-0141MW1101OD141200411122REMSYN004BUFR
0158576870999992022010206004+28120+112780FM-12+011999999V0200981N0012199999999012300199+01351+00301102611ADDAA106999999AA224000091AJ199999999999999AY101061AY201061IA2999+00009KA1240M+01401KA2240N+00261MA1999999101131MD1710361-0201MW1001OD141200411144REMSYN004BUFR
0152576870999992022010209004+28120+112780FM-12+011999999V0201281N0009199999999014400199+01271+00201102481ADDAA106999999AA212999999AA324999999AY101031AY201031IA2999+00009KA1240M+01401KA2240N+00261MA1999999100991MD1710141-0311MW1001OD141200411144REMSYN004BUFR
0158576870999992022010212004+28120+112780FM-12+011999999V0202951N0009199999999010300199+00961+00341102531ADDAA106999999AA224000091AJ199999999999999AY101061AY201061IA2999+00089KA1240M+01401KA2240N+00261MA1999999101031MD1210041-0381MW1001OD141200411144REMSYN004BUFR
0136576870999992022010215004+28120+112780FM-12+011999999V0203251N0016199999999008900199+00871+00481102541ADDAA106999999AA212999999AA324999999IA2999+00839KA1240M+01401KA2240N+00261MA1999999101061MD1210031-0371MW1001OD141200411144REMSYN004BUFR
0152576870999992022010218004+28120+112780FM-12+011999999V0203601N0001199999999009900199+00871+00431102491ADDAA106999999AA212999999AA324999999AY101999AY201999IA2999+00809KA1240M+01401KA2240N+00261MA1999999101021MD1710041-0391MW1001OD141200341150REMSYN004BUFR
0136576870999992022010221004+28120+112780FM-12+011999999V0201101N0015199999999009500199+00861+00221102391ADDAA106999999AA212999999AA324999999IA2999+00589KA1240M+01401KA2240N+00261MA1999999100921MD1710101-0411MW1001OD141200271107REMSYN004BUFR
0158576870999992022010300004+28120+112780FM-12+011999999V0201071N0005199999999005700199+00661+00361102521ADDAA106999999AA224000091AJ199999999999999AY101121AY201121IA2999+00469KA1240M+01401KA2240N+00281MA1999999101031MD1210111-0441MW1101OD141200261079REMSYN004BUFR
0152576870999992022010303004+28120+112780FM-12+011999999V0201281N0017199999999009600199+01101+00321102551ADDAA106999999AA212999999AA324999999AY101031AY201031IA2999+00469KA1240M+01401KA2240N+00631MA1999999101071MD1210041-0421MW1001OD141200281131REMSYN004BUFR
0158576870999992022010306004+28120+112780FM-12+011999999V0201381N0004199999999010300199+01161+00341102231ADDAA106999999AA224000091AJ199999999999999AY101061AY201061IA2999+00469KA1240M+01381KA2240N+00631MA1999999100761MD1710311-0371MW1001OD141200351143REMSYN004BUFR
0152576870999992022010309004+28120+112780FM-12+011999999V0203121N0007199999999010600199+01151+00461102151ADDAA106999999AA212999999AA324999999AY101031AY201031IA2999+00469KA1240M+01271KA2240N+00631MA1999999100681MD1710081-0311MW1001OD141200351143REMSYN004BUFR
0158576870999992022010312004+28120+112780FM-12+011999999V0202821N0013199999999008400199+01021+00531102261ADDAA106999999AA224000091AJ199999999999999AY101061AY201061IA2999+00609KA1240M+01171KA2240N+00631MA1999999100781MD1210101-0251MW1001OD141200351143REMSYN004BUFR
0136576870999992022010315004+28120+112780FM-12+011999999V0202961N0022199999999009000199+01051+00441102311ADDAA106999999AA212999999AA324999999IA2999+00879KA1240M+01171KA2240N+00631MA1999999100841MD1210061-0221MW1001OD141200381291REMSYN004BUFR
0160576870999992022010318004+28120+112780FM-12+011999999V0203091N0025199999999005000199+01021+00581102331ADDAA106999999AA212999999AA324999999AY101999AY201999IA2999+00839KA1240M+01171KA2240N+00631MA1999999100861MD1210021-0161MW1101OC100571OD141200571324REMSYN004BUFR
0144576870999992022010321004+28120+112780FM-12+011999999V0203171N0028199999999004000199+00971+00581102221ADDAA106999999AA212999999AA324999999IA2999+00839KA1240M+01171KA2240N+00631MA1999999100751MD1710111-0171MW1101OC100631OD141200631322REMSYN004BUFR
0166576870999992022010400004+28120+112780FM-12+011999999V0202911N0016199999999003400199+00901+00611102261ADDAA106999999AA224000091AJ199999999999999AY101121AY201121IA2999+00819KA1240M+01171KA2240N+00661MA1999999100791MD1210041-0241MW1101OC100631OD141200631322REMSYN004BUFR
0160576870999992022010403004+28120+112780FM-12+011999999V0203151N0027199999999004400199+01101+00611102291ADDAA106999999AA212999999AA324999999AY101031AY201031IA2999+00819KA1240M+01171KA2240N+00901MA1999999100821MD1210031-0251MW1101OC100631OD141200631322REMSYN004BUFR
0166576870999992022010406004+28120+112780FM-12+011999999V0203211N0030199999999003800199+01101+00631101951ADDAA106999999AA224000091AJ199999999999999AY101061AY201061IA2999+00819KA1240M+01171KA2240N+00901MA1999999100491MD1710331-0271MW1101OC100631OD141200631322REMSYN004BUFR
0160576870999992022010409004+28120+112780FM-12+011999999V0203151N0051199999999002700199+01001+00701101941ADDAA106999999AA212999999AA324999999AY101031AY201031IA2999+00819KA1240M+01141KA2240N+00901MA1999999100471MD1710021-0211MW1101OC100781OD141200781315REMSYN004BUFR
0166576870999992022010412004+28120+112780FM-12+011999999V0203101N0049199999999002100199+00871+00731102071ADDAA106999999AA224000091AJ199999999999999AY101061AY201061IA2999+00879KA1240M+01141KA2240N+00881MA1999999100601MD1210131-0181MW1101OC100881OD141200881310REMSYN004BUFR
0144576870999992022010415004+28120+112780FM-12+011999999V0203141N0039199999999001300199+00751+00661102101ADDAA106999999AA212999999AA324999999IA2999+00819KA1240M+01141KA2240N+00751MA1999999100631MD1210031-0211MW1601OC101031OD141201031314REMSYN004BUFR
0160576870999992022010418004+28120+112780FM-12+011999999V0203341N0076199999999001800199+00671+00591102161ADDAA106000231AA212000231AA324000231AY101999AY201999IA2999+00739KA1240M+01141KA2240N+00671MA1999999100681MD1210051-0181MW1211OC101491OD141201491324REMSYN004BUFR
0144576870999992022010421004+28120+112780FM-12+011999999V0203211N0061199999999002200199+00571+00501102281ADDAA106005531AA212005531AA324005531IA2999+00669KA1240M+01141KA2240N+00571MA1999999100801MD1210121+0051MW1211OC101491OD141201491324REMSYN004BUFR
0166576870999992022010500004+28120+112780FM-12+011999999V0203311N0041199999999001200199+00521+00471102421ADDAA106005331AA224005531AJ100013100006099AY101121AY201121IA2999+00639KA1240M+01141KA2240N+00531MA1999999100931MD1210131+0141MW1101OC101491OD141201491324REMSYN004BUFR
0160576870999992022010503004+28120+112780FM-12+011999999V0203351N0044199999999002500199+00551+00441102681ADDAA106999999AA212005531AA324005531AY101031AY201031IA2999+00639KA1240M+01141KA2240N+00511MA1999999101181MD1210251+0361MW1101OC101491OD141201491324REMSYN004BUFR
0166576870999992022010506004+28120+112780FM-12+011999999V0203251N0041199999999003200199+00601+00421102441ADDAA106999999AA224005531AJ100013100005099AY101061AY201061IA2999+00639KA1240M+01091KA2240N+00511MA1999999100951MD1710231+0461MW1101OC101481OD141201481309REMSYN004BUFR
0160576870999992022010509004+28120+112780FM-12+011999999V0203591N0039199999999004900199+00571+00341102601ADDAA106999999AA212999999AA324005531AY101031AY201031IA2999+00639KA1240M+00991KA2240N+00511MA1999999101101MD1210151+0631MW1101OC101031OD141201031329REMSYN004BUFR
0166576870999992022010512004+28120+112780FM-12+011999999V0203271N0025199999999004000199+00511+00311102701ADDAA106999999AA224005531AJ100009100000099AY101061AY201061IA2999+00579KA1240M+00881KA2240N+00511MA1999999101201MD1210101+0601MW1101OC101031OD141201031329REMSYN004BUFR
0144576870999992022010515004+28120+112780FM-12+011999999V0203351N0038199999999004600199+00521+00311102771ADDAA106999999AA212999999AA324005531IA2999+00559KA1240M+00751KA2240N+00511MA1999999101271MD1210071+0641MW1101OC100891OD141200891341REMSYN004BUFR
0160576870999992022010518004+28120+112780FM-12+011999999V0203451N0038199999999004100199+00521+00331102841ADDAA106999999AA212999999AA324005331AY101999AY201999IA2999+00539KA1240M+00681KA2240N+00511MA1999999101341MD1210071+0661MW1101OC100821OD141200821327REMSYN004BUFR
0144576870999992022010521004+28120+112780FM-12+011999999V0203541N0032199999999004200199+00501+00331102821ADDAA106999999AA212999999AA324999999IA2999+00539KA1240M+00611KA2240N+00501MA1999999101321MD1710021+0521MW1101OC100931OD141200931335REMSYN004BUFR
0166576870999992022010600004+28120+112780FM-12+011999999V0203341N0044199999999003900199+00451+00331102941ADDAA106999999AA224000091AJ199999999999999AY101121AY201121IA2999+00519KA1240M+00611KA2240N+00451MA1999999101431MD1210111+0501MW1101OC100931OD141200931335REMSYN004BUFR
0160576870999992022010603004+28120+112780FM-12+011999999V0203341N0034199999999003700199+00471+00381103051ADDAA106999999AA212999999AA324999999AY101031AY201031IA2999+00519KA1240M+00611KA2240N+00451MA1999999101541MD1210111+0361MW1101OC100931OD141200931335REMSYN004BUFR
0166576870999992022010606004+28120+112780FM-12+011999999V0203341N0045199999999003400199+00471+00401102811ADDAA106000531AA224000531AJ100003100001099AY101061AY201061IA2999+00519KA1240M+00611KA2240N+00451MA1999999101301MD1710241+0351MW1601OC100981OD141200981329REMSYN004BUFR
0160576870999992022010609004+28120+112780FM-12+011999999V0203251N0048199999999003600199+00471+00421102841ADDAA106004131AA212004131AA324004131AY101031AY201031IA2999+00519KA1240M+00571KA2240N+00451MA1999999101331MD1210031+0231MW1621OC100981OD141200981329REMSYN004BUFR
0166576870999992022010612004+28120+112780FM-12+011999999V0203281N0042199999999004800199+00501+00441103021ADDAA106011931AA224012431AJ100013100012099AY151061AY201061IA2999+00519KA1240M+00541KA2240N+00451MA1999999101511MD1210181+0311MW1601OC100981OD141200981329REMSYN004BUFR
0144576870999992022010615004+28120+112780FM-12+011999999V0203311N0043199999999002700199+00501+00461103111ADDAA106008431AA212012531AA324012531IA2999+00539KA1240M+00541KA2240N+00451MA1999999101601MD1210091+0331MW1101OC100981OD141200981329REMSYN004BUFR
0144576870999992022010621004+28120+112780FM-12+011999999V0203351N0029199999999002200199+00471+00441103011ADDAA106999999AA212008431AA324012531IA2999+00539KA1240M+00511KA2240N+00451MA1999999101501MD1710111+0181MW1101OC100941OD141200941331REMSYN004BUFR
0166576870999992022010700004+28120+112780FM-12+011999999V0203401N0026199999999001700199+00471+00441103111ADDAA106999999AA224012531AJ100003100000099AY101121AY201121IA2999+00549KA1240M+00511KA2240N+00451MA1999999101601MD1210101+0171MW1101OC100941OD141200941331REMSYN004BUFR
0160576870999992022010703004+28120+112780FM-12+011999999V0203181N0034199999999001700199+00511+00481103141ADDAA106999999AA212999999AA324012531AY101031AY201031IA2999+00549KA1240M+00511KA2240N+00461MA1999999101631MD1210031+0091MW1101OC100821OD141200821325REMSYN004BUFR
0166576870999992022010706004+28120+112780FM-12+011999999V0203351N0023199999999004100199+00601+00471102911ADDAA106999999AA224012031AJ100009100000099AY101061AY201061IA2999+00549KA1240M+00601KA2240N+00461MA1999999101411MD1710221+0111MW1101OC100821OD141200821325REMSYN004BUFR
0160576870999992022010709004+28120+112780FM-12+011999999V0203211N0035199999999004900199+00601+00441102851ADDAA106999999AA212999999AA324008431AY101031AY201031IA2999+00549KA1240M+00611KA2240N+00461MA1999999101351MD1710061+0021MW1101OC100791OD141200791328REMSYN004BUFR
0166576870999992022010712004+28120+112780FM-12+011999999V0203111N0021199999999002100199+00551+00491102951ADDAA106001431AA224001531AJ100003100001099AY151061AY201061IA2999+00559KA1240M+00611KA2240N+00461MA1999999101441MD1210091-0071MW1601OC100731OD141200731356REMSYN004BUFR
0144576870999992022010715004+28120+112780FM-12+011999999V0203131N0031199999999002000199+00551+00511102961ADDAA106003531AA212003531AA324003531IA2999+00619KA1240M+00611KA2240N+00461MA1999999101451MD1210011-0151MW1501OC100721OD141200721328REMSYN004BUFR
0160576870999992022010718004+28120+112780FM-12+011999999V0203181N0037199999999001600199+00551+00511102871ADDAA106003431AA212004831AA324004831AY151999AY201999IA2999+00619KA1240M+00611KA2240N+00461MA1999999101371MD1710081-0241MW1601OC100721OD141200721328REMSYN004BUFR
0144576870999992022010721004+28120+112780FM-12+011999999V0203071N0025199999999001500199+00521+00491102721ADDAA106002831AA212006331AA324006331IA2999+00609KA1240M+00611KA2240N+00461MA1999999101221MD1710151-0281MW1601OC100721OD141200721328REMSYN004BUFR
0166576870999992022010800004+28120+112780FM-12+011999999V0203271N0024199999999000300199+00521+00501102751ADDAA106001731AA224006531AJ100013100005099AY141121AY201121IA2999+00609KA1240M+00611KA2240N+00471MA1999999101251MD1210031-0351MW1451OC100601OD141200601319REMSYN004BUFR
0160576870999992022010803004+28120+112780FM-12+011999999V0203181N0036199999999001300199+00521+00501102841ADDAA106000331AA212003131AA324006631AY151031AY201031IA2999+00609KA1240M+00611KA2240N+00511MA1999999101341MD1210091-0291MW1601OC100601OD141200601319REMSYN004BUFR
0166576870999992022010806004+28120+112780FM-12+011999999V0202951N0027199999999002900199+00561+00521102571ADDAA106002731AA224009231AJ100003100004099AY151061AY201061IA2999+00609KA1240M+00611KA2240N+00531MA1999999101071MD1710271-0341MW1601OC100601OD141200601319REMSYN004BUFR
0160576870999992022010809004+28120+112780FM-12+011999999V0203221N0030199999999002200199+00551+00501102551ADDAA106003531AA212003831AA324010131AY101031AY201031IA2999+00609KA1240M+00591KA2240N+00531MA1999999101051MD1710021-0301MW1201OC100691OD141200691312REMSYN004BUFR
0166576870999992022010812004+28120+112780FM-12+011999999V0203291N0027199999999001800199+00551+00501102681ADDAA106001031AA224008831AJ100003100004099AY101061AY201061IA2999+00619KA1240M+00561KA2240N+00531MA1999999101181MD1210131-0261MW1101OC100691OD141200691312REMSYN004BUFR
0144576870999992022010815004+28120+112780FM-12+011999999V0203241N0037199999999001600199+00471+00441102711ADDAA106000131AA212003631AA324006731IA2999+00569KA1240M+00561KA2240N+00481MA1999999101211MD1210031-0241MW1101OC100801OD141200801316REMSYN004BUFR
0160576870999992022010818004+28120+112780FM-12+011999999V0203291N0020199999999001700199+00471+00431102621ADDAA106999999AA212001031AA324005431AY101999AY201999IA2999+00559KA1240M+00561KA2240N+00471MA1999999101121MD1710091-0251MW1101OC100801OD141200801316REMSYN004BUFR
0144576870999992022010821004+28120+112780FM-12+011999999V0203231N0024199999999003700199+00471+00351102531ADDAA106999999AA212000131AA324003931IA2999+00529KA1240M+00561KA2240N+00461MA1999999101031MD1710091-0191MW1101OC100801OD141200801316REMSYN004BUFR
0166576870999992022010900004+28120+112780FM-12+011999999V0203201N0016199999999002900199+00471+00381102611ADDAA106999999AA224003731AJ100009100000099AY101121AY201121IA2999+00519KA1240M+00561KA2240N+00461MA1999999101111MD1210081-0141MW1101OC100801OD141200801316REMSYN004BUFR
0160576870999992022010903004+28120+112780FM-12+011999999V0203301N0014199999999004300199+00701+00441102661ADDAA106999999AA212999999AA324003631AY101031AY201031IA2999+00519KA1240M+00691KA2240N+00461MA1999999101161MD1210051-0181MW1101OC100601OD141200601338REMSYN004BUFR
0166576870999992022010906004+28120+112780FM-12+011999999V0203261N0013199999999008300199+00861+00421102331ADDAA106999999AA224001031AJ100009100000099AY101061AY201061IA2999+00519KA1240M+00871KA2240N+00461MA1999999100841MD1710321-0231MW1001OC100581OD141200581323REMSYN004BUFR
0152576870999992022010909004+28120+112780FM-12+011999999V0200551N0013199999999009900199+00851+00411102271ADDAA106999999AA212999999AA324000131AY101031AY201031IA2999+00519KA1240M+00911KA2240N+00461MA1999999100781MD1710061-0271MW1001OD141200461324REMSYN004BUFR
0158576870999992022010912004+28120+112780FM-12+011999999V0201291N0012199999999005400199+00751+00491102291ADDAA106999999AA224000091AJ199999999999999AY101061AY201061IA2999+00559KA1240M+00911KA2240N+00461MA1999999100801MD1210021-0381MW1101OD141200431329REMSYN004BUFR
0136576870999992022010915004+28120+112780FM-12+011999999V0203041N0006199999999004100199+00701+00541102241ADDAA106999999AA212999999AA324999999IA2999+00729KA1240M+00911KA2240N+00461MA1999999100751MD1710051-0461MW1101OD141200431329REMSYN004BUFR
0152576870999992022010918004+28120+112780FM-12+011999999V0202791N0011199999999003100199+00661+00561102181ADDAA106999999AA212999999AA324999999AY101999AY201999IA2999+00719KA1240M+00911KA2240N+00461MA1999999100701MD1710051-0421MW1101OD141200421025REMSYN004BUFR
0136576870999992022010921004+28120+112780FM-12+011999999V0203601N0001199999999003900199+00671+00561102061ADDAA106999999AA212999999AA324999999IA2999+00719KA1240M+00911KA2240N+00471MA1999999100581MD1710121-0451MW1101OD141200251315REMSYN004BUFR
0158576870999992022011000004+28120+112780FM-12+011999999V0203191N0003199999999004100199+00701+00571102231ADDAA106999999AA224000091AJ199999999999999AY101121AY201121IA2999+00719KA1240M+00911KA2240N+00481MA1999999100741MD1210161-0371MW1101OD141200251315REMSYN004BUFR
0160576870999992022011003004+28120+112780FM-12+011999999V0203301N0030199999999002900199+00701+00621102471ADDAA106000731AA212000731AA324000731AY101031AY201031IA2999+00719KA1240M+00911KA2240N+00651MA1999999100981MD1210241-0181MW1601OC100501OD141200501325REMSYN004BUFR
0166576870999992022011006004+28120+112780FM-12+011999999V0203411N0024199999999003600199+00721+00621102341ADDAA106002031AA224002031AJ100003100002099AY101061AY201061IA2999+00719KA1240M+00911KA2240N+00651MA1999999100851MD1710131+0011MW1501OC100831OD141200831340REMSYN004BUFR
0160576870999992022011009004+28120+112780FM-12+011999999V0203301N0037199999999004500199+00751+00601102431ADDAA106001431AA212002131AA324002131AY101031AY201031IA2999+00719KA1240M+00851KA2240N+00651MA1999999100941MD1210091+0161MW1101OC100831OD141200831340REMSYN004BUFR
0166576870999992022011012004+28120+112780FM-12+011999999V0203491N0034199999999007900199+00771+00481102731ADDAA106000131AA224002131AJ100003100002099AY101061AY201061IA2999+00699KA1240M+00781KA2240N+00651MA1999999101241MD1210301+0441MW1001OC100831OD141200831340REMSYN004BUFR
0144576870999992022011015004+28120+112780FM-12+011999999V0203221N0012199999999004300199+00651+00481102921ADDAA106999999AA212001431AA324002131IA2999+00459KA1240M+00781KA2240N+00641MA1999999101421MD1210181+0671MW1101OC100831OD141200831340REMSYN004BUFR
0160576870999992022011018004+28120+112780FM-12+011999999V0203291N0048199999999003300199+00561+00441102901ADDAA106999999AA212000131AA324002131AY101999AY201999IA2999+00359KA1240M+00781KA2240N+00511MA1999999101401MD1710021+0701MW1101OC100741OD141200741341REMSYN004BUFR
0144576870999992022011021004+28120+112780FM-12+011999999V0203321N0035199999999001700199+00471+00411102871ADDAA106999999AA212999999AA324002131IA2999+00319KA1240M+00781KA2240N+00471MA1999999101371MD1710031+0791MW1101OC100911OD141200911335REMSYN004BUFR
0166576870999992022011100004+28120+112780FM-12+011999999V0203171N0017199999999000900199+00461+00431102981ADDAA106999999AA224002131AJ100009100000099AY101121AY201121IA2999+00309KA1240M+00781KA2240N+00461MA1999999101481MD1210111+0741MW1101OC100911OD141200911335REMSYN004BUFR
0160576870999992022011103004+28120+112780FM-12+011999999V0203241N0042199999999003500199+00651+00421103041ADDAA106999999AA212999999AA324001431AY101031AY201031IA2999+00309KA1240M+00781KA2240N+00461MA1999999101541MD1210061+0561MW1101OC100911OD141200911335REMSYN004BUFR
0166576870999992022011106004+28120+112780FM-12+011999999V0200011N0014199999999005100199+00951+00351102661ADDAA106999999AA224000131AJ100009100000099AY101061AY201061IA2999+00309KA1240M+00951KA2240N+00461MA1999999101171MD1710371+0321MW1101OC100911OD141200911335REMSYN004BUFR
0160576870999992022011109004+28120+112780FM-12+011999999V0203411N0011199999999005500199+00951+00321102551ADDAA106999999AA212999999AA324999999AY101031AY201031IA2999+00309KA1240M+01051KA2240N+00461MA1999999101061MD1710111+0121MW1051OC100751OD141200751330REMSYN004BUFR
0166576870999992022011112004+28120+112780FM-12+011999999V0202881N0017199999999002500199+00501+00381102601ADDAA106999999AA224000091AJ199999999999999AY101061AY201061IA2999+00449KA1240M+01051KA2240N+00461MA1999999101101MD1210041-0141MW1101OC100621OD141200621314REMSYN004BUFR
0144576870999992022011115004+28120+112780FM-12+011999999V0202861N0012199999999001400199+00351+00301102661ADDAA106999999AA212999999AA324999999IA2999+00259KA1240M+01051KA2240N+00341MA1999999101161MD1210061-0261MW1101OC100591OD141200591322REMSYN004BUFR
0152576870999992022011118004+28120+112780FM-12+011999999V0202841N0013199999999000200199+00221+00201102531ADDAA106999999AA212999999AA324999999AY101999AY201999IA2999+00159KA1240M+01051KA2240N+00211MA1999999101031MD1710131-0371MW1461OD141200441084REMSYN004BUFR
0136576870999992022011121004+28120+112780FM-12+011999999V0203601N0001199999999000100199+00021+00001102381ADDAA106999999AA212999999AA324999999IA2999+00049KA1240M+01051KA2240N+00031MA1999999100881MD1710151-0491MW1461OD141200361340REMSYN004BUFR
0158576870999992022011200004+28120+112780FM-12+011999999V0202511N0008199999999000200199+00001-00031102471ADDAA106999999AA224000091AJ199999999999999AY101121AY201121IA2999+00009KA1240M+01051KA2240N-00041MA1999999100961MD1210081-0521MW1461OD141200241298REMSYN004BUFR
0152576870999992022011203004+28120+112780FM-12+011999999V0201141N0022199999999009000199+00751+00221102581ADDAA106999999AA212999999AA324999999AY101031AY201031IA2999+00009KA1240M+01051KA2240N-00041MA1999999101081MD1210121-0461MW1001OD141200331107REMSYN004BUFR
0158576870999992022011206004+28120+112780FM-12+011999999V0202151N0014199999999012100199+01071+00231102351ADDAA106999999AA224000091AJ199999999999999AY101061AY201061IA2999+00009KA1240M+01121KA2240N-00041MA1999999100861MD1710221-0311MW1001OD141200471135REMSYN004BUFR
0152576870999992022011209004+28120+112780FM-12+011999999V0202311N0019199999999010000199+00961+00291102411ADDAA106999999AA212999999AA324999999AY101031AY201031IA2999+00009KA1240M+01121KA2240N-00041MA1999999100911MD1210051-0151MW1001OD141200471135REMSYN004BUFR
0158576870999992022011212004+28120+112780FM-12+011999999V0200261N0006199999999008600199+00861+00441102561ADDAA106999999AA224000091AJ199999999999999AY101061AY201061IA2999+00059KA1240M+01121KA2240N-00041MA1999999101051MD1210141-0051MW1001OD141200471135REMSYN004BUFR
0136576870999992022011215004+28120+112780FM-12+011999999V0202831N0014199999999007100199+00761+00491102771ADDAA106999999AA212999999AA324999999IA2999+00719KA1240M+01121KA2240N-00041MA1999999101281MD1210231+0121MW1101OD141200471135REMSYN004BUFR
0160576870999992022011218004+28120+112780FM-12+011999999V0203321N0032199999999003800199+00661+00481102831ADDAA106999999AA212999999AA324999999AY101999AY201999IA2999+00579KA1240M+01121KA2240N-00041MA1999999101341MD1210061+0311MW1101OC100831OD141200831336REMSYN004BUFR
0144576870999992022011221004+28120+112780FM-12+011999999V0203301N0040199999999002600199+00551+00411102881ADDAA106999999AA212999999AA324999999IA2999+00429KA1240M+01121KA2240N-00041MA1999999101391MD1210051+0511MW1101OC100831OD141200831336REMSYN004BUFR
0166576870999992022011300004+28120+112780FM-12+011999999V0203231N0036199999999002600199+00471+00321103041ADDAA106999999AA224000091AJ199999999999999AY101121AY201121IA2999+00369KA1240M+01121KA2240N+00011MA1999999101541MD1210151+0581MW1101OC100921OD141200921333REMSYN004BUFR
0160576870999992022011303004+28120+112780FM-12+011999999V0203291N0050199999999003300199+00671+00311103191ADDAA106999999AA212999999AA324999999AY101031AY201031IA2999+00369KA1240M+01121KA2240N+00471MA1999999101691MD1210151+0611MW1101OC100921OD141200921333REMSYN004BUFR
0166576870999992022011306004+28120+112780FM-12+011999999V0203291N0043199999999006600199+01071+00251102781ADDAA106999999AA224000091AJ199999999999999AY101061AY201061IA2999+00369KA1240M+01081KA2240N+00471MA1999999101291MD1710401+0431MW1051OC100921OD141200921333REMSYN004BUFR
0160576870999992022011309004+28120+112780FM-12+011999999V0203381N0030199999999007400199+00901+00131102661ADDAA106999999AA212999999AA324999999AY101031AY201031IA2999+00369KA1240M+01111KA2240N+00471MA1999999101171MD1710121+0261MW1051OC100951OD141200951341REMSYN004BUFR
0166576870999992022011312004+28120+112780FM-12+011999999V0202921N0025199999999005800199+00801+00151102721ADDAA106999999AA224000091AJ199999999999999AY101061AY201061IA2999+00369KA1240M+01111KA2240N+00471MA1999999101221MD1210051+0171MW1051OC100951OD141200951341REMSYN004BUFR
0144576870999992022011315004+28120+112780FM-12+011999999V0203161N0025199999999006100199+00671+00001102671ADDAA106999999AA212999999AA324999999IA2999+00609KA1240M+01111KA2240N+00471MA1999999101181MD1710041-0101MW1051OC100951OD141200951341REMSYN004BUFR
0160576870999992022011318004+28120+112780FM-12+011999999V0203141N0027199999999005300199+00601+00051102481ADDAA106999999AA212999999AA324999999AY101999AY201999IA2999+00569KA1240M+01111KA2240N+00471MA1999999101001MD1710181-0341MW1101OC100951OD141200951341REMSYN004BUFR
0144576870999992022011321004+28120+112780FM-12+011999999V0202841N0005199999999004400199+00551+00171102321ADDAA106000131AA212000131AA324000131IA2999+00549KA1240M+01111KA2240N+00471MA1999999100831MD1710171-0561MW1101OC100631OD141200631333REMSYN004BUFR
0166576870999992022011400004+28120+112780FM-12+011999999V0201751N0005199999999002700199+00511+00381102381ADDAA106000331AA224000331AJ100003100000099AY101121AY201121IA2999+00549KA1240M+01111KA2240N+00481MA1999999100891MD1210061-0651MW1601OC100591OD141200591315REMSYN004BUFR
0160576870999992022011403004+28120+112780FM-12+011999999V0203221N0007199999999006900199+00521+00281102541ADDAA106000731AA212000831AA324000831AY101031AY201031IA2999+00549KA1240M+01111KA2240N+00471MA1999999101041MD1210151-0651MW1101OC100551OD141200551325REMSYN004BUFR
0158576870999992022011406004+28120+112780FM-12+011999999V0203251N0019199999999003300199+00521+00351102301ADDAA106000531AA224000831AJ100003100001099AY101061AY201061IA2999+00549KA1240M+01111KA2240N+00471MA1999999100801MD1710241-0491MW1101OD141200471330REMSYN004BUFR
0152576870999992022011409004+28120+112780FM-12+011999999V0200881N0003199999999005700199+00601+00261102181ADDAA106999999AA212000731AA324000831AY101031AY201031IA2999+00569KA1240M+00891KA2240N+00471MA1999999100691MD1710111-0481MW1101OD141200471330REMSYN004BUFR
0158576870999992022011412004+28120+112780FM-12+011999999V0200571N0008199999999007400199+00551+00111102331ADDAA106999999AA224000831AJ100003100001099AY101061AY201061IA2999+00559KA1240M+00781KA2240N+00471MA1999999100831MD1210141-0391MW1001OD141200471330REMSYN004BUFR
0136576870999992022011415004+28120+112780FM-12+011999999V0202801N0008199999999005100199+00521+00291102481ADDAA106999999AA212999999AA324000831IA2999+00529KA1240M+00681KA2240N+00471MA1999999100981MD1210151-0201MW1101OD141200471330REMSYN004BUFR
0152576870999992022011418004+28120+112780FM-12+011999999V0203031N0007199999999003500199+00521+00381102391ADDAA106999999AA212999999AA324000831AY101999AY201999IA2999+00529KA1240M+00611KA2240N+00471MA1999999100891MD1710091-0111MW1101OD141200281147REMSYN004BUFR
0136576870999992022011421004+28120+112780FM-12+011999999V0202861N0009199999999003600199+00521+00351102371ADDAA106999999AA212999999AA324000731IA2999+00529KA1240M+00611KA2240N+00471MA1999999100871MD1710021+0041MW1101OD141200281147REMSYN004BUFR
0158576870999992022011500004+28120+112780FM-12+011999999V0202741N0009199999999003700199+00551+00381102501ADDAA106999999AA224000531AJ100009100000099AY101121AY201121IA2999+00529KA1240M+00611KA2240N+00471MA1999999101001MD1210131+0111MW1101OD141200331322REMSYN004BUFR
0152576870999992022011503004+28120+112780FM-12+011999999V0203081N0016199999999004000199+00671+00401102561ADDAA106999999AA212999999AA324999999AY101031AY201031IA2999+00579KA1240M+00671KA2240N+00501MA1999999101061MD1210061+0021MW1101OD141200431310REMSYN004BUFR
0166576870999992022011506004+28120+112780FM-12+011999999V0203281N0024199999999004800199+00721+00381102301ADDAA106999999AA224000091AJ199999999999999AY101061AY201061IA2999+00579KA1240M+00781KA2240N+00511MA1999999100811MD1710251+0011MW1101OC100571OD141200571328REMSYN004BUFR
0160576870999992022011509004+28120+112780FM-12+011999999V0203281N0018199999999004000199+00671+00391102351ADDAA106999999AA212999999AA324999999AY101031AY201031IA2999+00589KA1240M+00781KA2240N+00511MA1999999100861MD1210051+0171MW1101OC100571OD141200571328REMSYN004BUFR
0185576870999992022011512004+28120+112780FM-12+011999999V0203351N0016199999999003500199+00651+00441102521ADDAA106999999AA224999999AJ199999999999999AY151061AY201061IA2999+00629KA1240M+00781KA2240N+00511MA1999999101021MD1210161+0191MW1211OC100571OD141200571328REMSYN004BUFREQDQ01  00002PRCP24
0144576870999992022011515004+28120+112780FM-12+011999999V0203061N0026199999999001400199+00571+00521102661ADDAA106000331AA212000331AA324000331IA2999+00659KA1240M+00781KA2240N+00521MA1999999101161MD1210141+0181MW1501OC100571OD141200571328REMSYN004BUFR
0160576870999992022011518004+28120+112780FM-12+011999999V0203021N0018199999999002200199+00571+00491102641ADDAA106000631AA212000631AA324000631AY101999AY201999IA2999+00639KA1240M+00781KA2240N+00521MA1999999101141MD1710021+0251MW1101OC100511OD141200511313REMSYN004BUFR
0144576870999992022011521004+28120+112780FM-12+011999999V0203261N0022199999999002600199+00551+00431102551ADDAA106000331AA212000631AA324000631IA2999+00619KA1240M+00781KA2240N+00521MA1999999101051MD1710091+0181MW1101OC100511OD141200511332REMSYN004BUFR
0166576870999992022011600004+28120+112780FM-12+011999999V0203251N0035199999999001500199+00501+00441102781ADDAA106000731AA224001331AJ100003100001099AY151121AY201121IA2999+00579KA1240M+00781KA2240N+00501MA1999999101281MD1210231+0281MW1601OC100601OD141200601329REMSYN004BUFR
0160576870999992022011603004+28120+112780FM-12+011999999V0203221N0034199999999002000199+00571+00481102811ADDAA106001831AA212002131AA324002431AY151031AY201031IA2999+00579KA1240M+00781KA2240N+00491MA1999999101311MD1210031+0251MW1601OC100601OD141200601329REMSYN004BUFR
0166576870999992022011606004+28120+112780FM-12+011999999V0203101N0031199999999002100199+00611+00521102641ADDAA106001631AA224002931AJ100003100002099AY101061AY201061IA2999+00579KA1240M+00721KA2240N+00491MA1999999101141MD1710171+0331MW1601OC100601OD141200601329REMSYN004BUFR
0160576870999992022011609004+28120+112780FM-12+011999999V0203321N0026199999999001300199+00621+00571102661ADDAA106002131AA212003931AA324004531AY151031AY201031IA2999+00579KA1240M+00681KA2240N+00491MA1999999101161MD1210021+0301MW1601OC100601OD141200601329REMSYN004BUFR
0166576870999992022011612004+28120+112780FM-12+011999999V0203001N0019199999999001500199+00651+00581102811ADDAA106003131AA224006031AJ100003100005099AY101061AY201061IA2999+00589KA1240M+00651KA2240N+00491MA1999999101311MD1210151+0291MW1601OC100591OD141200591324REMSYN004BUFR
0144576870999992022011615004+28120+112780FM-12+011999999V0202691N0008199999999000900199+00621+00571102841ADDAA106004031AA212006131AA324008231IA2999+00679KA1240M+00651KA2240N+00491MA1999999101341MD1210031+0181MW1601OC100591OD141200591324REMSYN004BUFR
0160576870999992022011618004+28120+112780FM-12+011999999V0203311N0028199999999001100199+00611+00571102741ADDAA106006031AA212009131AA324011431AY101999AY201999IA2999+00659KA1240M+00651KA2240N+00491MA1999999101241MD1710101+0101MW1601OC100531OD141200531328REMSYN004BUFR
0136576870999992022011621004+28120+112780FM-12+011999999V0203081N0021199999999000500199+00611+00571102631ADDAA106005831AA212009831AA324013731IA2999+00649KA1240M+00651KA2240N+00491MA1999999101131MD1710111+0081MW1601OD141200451328REMSYN004BUFR
0158576870999992022011700004+28120+112780FM-12+011999999V0203291N0031199999999000900199+00621+00591102841ADDAA106003931AA224014631AJ100013100010099AY151121AY201121IA2999+00649KA1240M+00651KA2240N+00491MA1999999101341MD1210211+0061MW1601OD141200461331REMSYN004BUFR
0152576870999992022011703004+28120+112780FM-12+011999999V0200411N0017199999999002300199+00761+00671102911ADDAA106003831AA212009631AA324015731AY151031AY201031IA2999+00649KA1240M+00761KA2240N+00571MA1999999101411MD1210071+0101MW1601OD141200491325REMSYN004BUFR
0158576870999992022011706004+28120+112780FM-12+011999999V0203241N0013199999999002300199+00811+00721102731ADDAA106002331AA224015331AJ100013100006099AY101061AY201061IA2999+00649KA1240M+00821KA2240N+00611MA1999999101241MD1710171+0101MW1601OD141200491325REMSYN004BUFR
0152576870999992022011709004+28120+112780FM-12+011999999V0203211N0022199999999001600199+00801+00701102711ADDAA106000131AA212003931AA324013731AY101031AY201031IA2999+00669KA1240M+00831KA2240N+00611MA1999999101221MD1710021+0061MW1601OD141200491325REMSYN004BUFR
0158576870999992022011712004+28120+112780FM-12+011999999V0202661N0010199999999000800199+00771+00711102821ADDAA106999999AA224012231AJ100003100002099AY101061AY201061IA2999+00679KA1240M+00831KA2240N+00611MA1999999101321MD1210101+0011MW1101OD141200491325REMSYN004BUFR
0136576870999992022011715004+28120+112780FM-12+011999999V0203141N0013199999999001600199+00771+00671102821ADDAA106999999AA212000131AA324009731IA2999+00759KA1240M+00831KA2240N+00611MA1999999101331MD1210011-0011MW1101OD141200391300REMSYN004BUFR
0152576870999992022011718004+28120+112780FM-12+011999999V0202921N0023199999999002600199+00801+00631102741ADDAA106999999AA212999999AA324006231AY101999AY201999IA2999+00739KA1240M+00831KA2240N+00611MA1999999101251MD1710081+0011MW1101OD141200481313REMSYN004BUFR
0144576870999992022011721004+28120+112780FM-12+011999999V0203211N0030199999999003100199+00771+00581102661ADDAA106999999AA212999999AA324003931IA2999+00719KA1240M+00831KA2240N+00611MA1999999101171MD1710081+0041MW1101OC100651OD141200651314REMSYN004BUFR
0166576870999992022011800004+28120+112780FM-12+011999999V0203301N0037199999999001900199+00671+00551102731ADDAA106999999AA224002331AJ100009100000099AY101121AY201121IA2999+00689KA1240M+00831KA2240N+00631MA1999999101241MD1210071-0101MW1101OC100651OD141200651314REMSYN004BUFR
0160576870999992022011803004+28120+112780FM-12+011999999V0203231N0047199999999002200199+00721+00531102831ADDAA106999999AA212999999AA324000131AY101031AY201031IA2999+00689KA1240M+00831KA2240N+00631MA1999999101341MD1210101-0071MW1101OC100731OD141200731324REMSYN004BUFR
0166576870999992022011806004+28120+112780FM-12+011999999V0203331N0035199999999003800199+01061+00521102521ADDAA106999999AA224000091AJ199999999999999AY101061AY201061IA2999+00689KA1240M+01081KA2240N+00631MA1999999101041MD1710301-0201MW1101OC100731OD141200731324REMSYN004BUFR
0160576870999992022011809004+28120+112780FM-12+011999999V0200771N0009199999999003800199+01051+00601102421ADDAA106999999AA212999999AA324999999AY101031AY201031IA2999+00689KA1240M+01161KA2240N+00631MA1999999100941MD1710101-0281MW1101OC100731OD141200731324REMSYN004BUFR
0166576870999992022011812004+28120+112780FM-12+011999999V0202691N0013199999999001700199+00671+00561102461ADDAA106999999AA224000091AJ199999999999999AY101061AY201061IA2999+00529KA1240M+01161KA2240N+00631MA1999999100971MD1210031-0351MW1101OC100731OD141200731324REMSYN004BUFR
0144576870999992022011815004+28120+112780FM-12+011999999V0202721N0011199999999001100199+00551+00511102561ADDAA106999999AA212999999AA324999999IA2999+00339KA1240M+01161KA2240N+00531MA1999999101071MD1210101-0261MW1281OC100661OD141200661334REMSYN004BUFR
0160576870999992022011818004+28120+112780FM-12+011999999V0201081N0009199999999000300199+00501+00431102461ADDAA106999999AA212999999AA324999999AY141999AY201999IA2999+00239KA1240M+01161KA2240N+00451MA1999999100971MD1710101-0281MW1451OC100541OD141200541323REMSYN004BUFR
0136576870999992022011821004+28120+112780FM-12+011999999V0201181N0017199999999000000199+00401+00371102381ADDAA106999999AA212999999AA324999999IA2999+00199KA1240M+01161KA2240N+00271MA1999999100891MD1710081-0281MW1441OD141200311148REMSYN004BUFR
0158576870999992022011900004+28120+112780FM-12+011999999V0201301N0020199999999000100199+00421+00391102521ADDAA106999999AA224000091AJ199999999999999AY101121AY201121IA2999+00199KA1240M+01161KA2240N+00271MA1999999101021MD1210131-0221MW1461OD141200341127REMSYN004BUFR
0152576870999992022011903004+28120+112780FM-12+011999999V0201291N0023199999999000100199+00661+00651102581ADDAA106999999AA212999999AA324999999AY101031AY201031IA2999+00199KA1240M+01161KA2240N+00271MA1999999101081MD1210061-0261MW1461OD141200391129REMSYN004BUFR
0158576870999992022011906004+28120+112780FM-12+011999999V0201191N0019199999999002500199+00971+00921102341ADDAA106999999AA224000091AJ199999999999999AY101061AY201061IA2999+00199KA1240M+01161KA2240N+00271MA1999999100851MD1710231-0191MW1101OD141200391129REMSYN004BUFR
0152576870999992022011909004+28120+112780FM-12+011999999V0201131N0014199999999005100199+01171+00821102221ADDAA106999999AA212999999AA324999999AY101031AY201031IA2999+00449KA1240M+01201KA2240N+00271MA1999999100741MD1710111-0201MW1101OD141200391129REMSYN004BUFR
0158576870999992022011912004+28120+112780FM-12+011999999V0203011N0007199999999002500199+00871+00771102271ADDAA106999999AA224000091AJ199999999999999AY101061AY201061IA2999+00539KA1240M+01201KA2240N+00271MA1999999100781MD1210041-0191MW1101OD141200391129REMSYN004BUFR
0136576870999992022011915004+28120+112780FM-12+011999999V0202991N0013199999999002200199+00621+00561102331ADDAA106999999AA212999999AA324999999IA2999+00519KA1240M+01201KA2240N+00271MA1999999100841MD1210061-0231MW1101OD141200361111REMSYN004BUFR
0152576870999992022011918004+28120+112780FM-12+011999999V0202461N0020199999999001800199+00651+00611102291ADDAA106999999AA212999999AA324999999AY101999AY201999IA2999+00459KA1240M+01201KA2240N+00271MA1999999100811MD1710031-0161MW1101OD141200361111REMSYN004BUFR
0144576870999992022011921004+28120+112780FM-12+011999999V0203041N0037199999999000200199+00701+00651102221ADDAA106999999AA212999999AA324999999IA2999+00439KA1240M+01201KA2240N+00381MA1999999100751MD1710061-0141MW1451OC100591OD141200591311REMSYN004BUFR
0166576870999992022012000004+28120+112780FM-12+011999999V0200141N0016199999999000200199+00661+00631102351ADDAA106999999AA224000091AJ199999999999999AY141121AY201121IA2999+00439KA1240M+01201KA2240N+00421MA1999999100871MD1210121-0151MW1451OC100761OD141200761315REMSYN004BUFR
0160576870999992022012003004+28120+112780FM-12+011999999V0203211N0049199999999000300199+00661+00631102511ADDAA106999999AA212999999AA324999999AY101031AY201031IA2999+00439KA1240M+01201KA2240N+00581MA1999999101021MD1210151-0061MW1461OC100851OD141200851322REMSYN004BUFR
0166576870999992022012006004+28120+112780FM-12+011999999V0203261N0028199999999001900199+00801+00661102181ADDAA106999999AA224000091AJ199999999999999AY101061AY201061IA2999+00439KA1240M+01201KA2240N+00581MA1999999100701MD1710321-0151MW1101OC100941OD141200941323REMSYN004BUFR
0160576870999992022012009004+28120+112780FM-12+011999999V0203351N0040199999999002200199+00771+00591102151ADDAA106999999AA212999999AA324999999AY101031AY201031IA2999+00639KA1240M+01161KA2240N+00581MA1999999100671MD1710031-0071MW1101OC100941OD141200941323REMSYN004BUFR
0166576870999992022012012004+28120+112780FM-12+011999999V0200851N0018199999999001100199+00671+00611102111ADDAA106001531AA224001531AJ100003100002099AY101061AY201061IA2999+00729KA1240M+00881KA2240N+00581MA1999999100621MD1710051-0161MW1601OC100941OD141200941323REMSYN004BUFR
0144576870999992022012015004+28120+112780FM-12+011999999V0203021N0028199999999001100199+00671+00601102261ADDAA106002331AA212002331AA324002331IA2999+00719KA1240M+00831KA2240N+00581MA1999999100771MD1210151-0071MW1101OC100941OD141200941323REMSYN004BUFR
0160576870999992022012018004+28120+112780FM-12+011999999V0203161N0018199999999000900199+00651+00591102251ADDAA106001231AA212002731AA324002731AY151999AY201999IA2999+00679KA1240M+00831KA2240N+00631MA1999999100761MD1710011-0051MW1601OC100851OD141200851321REMSYN004BUFR
0144576870999992022012021004+28120+112780FM-12+011999999V0203091N0037199999999000800199+00671+00611102121ADDAA106000731AA212003031AA324003031IA2999+00679KA1240M+00831KA2240N+00651MA1999999100641MD1710121-0111MW1601OC100851OD141200851321REMSYN004BUFR
0166576870999992022012100004+28120+112780FM-12+011999999V0203211N0034199999999000700199+00701+00651102261ADDAA106001331AA224004031AJ100003100003099AY151121AY241121IA2999+00679KA1240M+00831KA2240N+00651MA1999999100771MD1210131-0101MW1601OC100851OD141200851321REMSYN004BUFR
0160576870999992022012103004+28120+112780FM-12+011999999V0203181N0031199999999000700199+00671+00651102311ADDAA106001531AA212002231AA324004531AY101031AY201031IA2999+00679KA1240M+00831KA2240N+00651MA1999999100821MD1210051-0201MW1101OC100661OD141200661322REMSYN004BUFR
0166576870999992022012106004+28120+112780FM-12+011999999V0203281N0035199999999000200199+00621+00591102061ADDAA106000531AA224004531AJ100003100002099AY141061AY201061IA2999+00689KA1240M+00831KA2240N+00621MA1999999100571MD1710251-0131MW1451OC100781OD141200781327REMSYN004BUFR
0160576870999992022012109004+28120+112780FM-12+011999999V0203201N0047199999999000400199+00551+00521101991ADDAA106999999AA212001531AA324004531AY141031AY201031IA2999+00689KA1240M+00781KA2240N+00551MA1999999100501MD1710071-0171MW1541OC100851OD141200851320REMSYN004BUFR
0166576870999992022012112004+28120+112780FM-12+011999999V0203081N0028199999999003900199+00521+00491102031ADDAA106000431AA224003431AJ100003100001099AY151061AY201061IA2999+00619KA1240M+00701KA2240N+00511MA1999999100541MD1210041-0081MW1601OC100861OD141200861314REMSYN004BUFR
0144576870999992022012115004+28120+112780FM-12+011999999V0203311N0046199999999007800199+00471+00441102021ADDAA106000531AA212000531AA324002731IA2999+00569KA1240M+00701KA2240N+00481MA1999999100531MD1710011-0241MW1001OC100921OD141200921325REMSYN004BUFR
0160576870999992022012118004+28120+112780FM-12+011999999V0203071N0044199999999007000199+00421+00371102021ADDAA106003731AA212004131AA324005931AY101999AY201999IA2999+00519KA1240M+00701KA2240N+00431MA1999999100531MD1410001-0231MW1601OC100921OD141200921325REMSYN004BUFR
0144576870999992022012121004+28120+112780FM-12+011999999V0203171N0039199999999010800199+00401+00361101881ADDAA106003731AA212004231AA324005731IA2999+00499KA1240M+00701KA2240N+00401MA1999999100391MD1710141-0251MW1001OC100921OD141200921325REMSYN004BUFR
0166576870999992022012200004+28120+112780FM-12+011999999V0203141N0044199999999003400199+00351+00311101911ADDAA106000331AA224004931AJ100003100004099AY101121AY201121IA2999+00459KA1240M+00701KA2240N+00351MA1999999100411MD1210021-0361MW1601OC100921OD141200921325REMSYN004BUFR
0160576870999992022012203004+28120+112780FM-12+011999999V0203141N0044199999999003400199+00371+00331101951ADDAA106003631AA212007331AA324007831AY101031AY201031IA2999+00459KA1240M+00681KA2240N+00331MA1999999100451MD1210041-0371MW1621OC100881OD141200881320REMSYN004BUFR
0166576870999992022012206004+28120+112780FM-12+011999999V0203161N0061199999999002100199+00321+00281101691ADDAA106004131AA224008531AJ100003100004099AY101061AY201061IA2999+00459KA1240M+00621KA2240N+00321MA1999999100191MD1710261-0381MW1101OC101021OD141201021313REMSYN004BUFR
0160576870999992022012209004+28120+112780FM-12+011999999V0203091N0032199999999003900199+00311+00271101711ADDAA106000831AA212004431AA324008631AY101031AY201031IA2999+00459KA1240M+00551KA2240N+00311MA1999999100211MD1210021-0291MW1101OC101021OD141201021313REMSYN004BUFR
0166576870999992022012212004+28120+112780FM-12+011999999V0203231N0060199999999007100199+00301+00231101801ADDAA106004731AA224012831AJ100013100009099AY101061AY201061IA2999+00379KA1240M+00521KA2240N+00291MA1999999100301MD1210091-0241MW1601OC101021OD141201021313REMSYN004BUFR
0144576870999992022012215004+28120+112780FM-12+011999999V0203031N0040199999999009500199+00311+00251101901ADDAA106007431AA212008231AA324015531IA2999+00369KA1240M+00481KA2240N+00291MA1999999100401MD1210101-0131MW1231OC101151OD141201151322REMSYN004BUFR
0160576870999992022012218004+28120+112780FM-12+011999999V0203261N0033199999999004900199+00271+00211101801ADDAA106003031AA212007731AA324012131AY101999AY201999IA2999+00359KA1240M+00431KA2240N+00261MA1999999100301MD1710101-0231MW1601OC101151OD141201151322REMSYN004BUFR
0144576870999992022012221004+28120+112780FM-12+011999999V0203151N0043199999999003500199+00251+00191101801ADDAA106008131AA212015531AA324019931IA2999+00309KA1240M+00401KA2240N+00251MA1999999100301MD1410001-0091MW1621OC101211OD141201211330REMSYN004BUFR
0166576870999992022012300004+28120+112780FM-12+011999999V0203231N0039199999999009100199+00251+00171102051ADDAA106010731AA224022531AJ100013100014099AY151121AY201121IA2999+00299KA1240M+00381KA2240N+00241MA1999999100541MD1210241+0131MW1601OC101211OD141201211330REMSYN004BUFR
0160576870999992022012303004+28120+112780FM-12+011999999V0203271N0058199999999008100199+00261+00191102171ADDAA106003931AA212012031AA324020231AY101031AY201031IA2999+00299KA1240M+00371KA2240N+00231MA1999999100661MD1210121+0211MW1001OC101211OD141201211330REMSYN004BUFR
0166576870999992022012306004+28120+112780FM-12+011999999V0203291N0046199999999004600199+00271+00211102071ADDAA106001131AA224019531AJ100013100012099AY101061AY201061IA2999+00299KA1240M+00331KA2240N+00231MA1999999100561MD1710101+0371MW1101OC101211OD141201211330REMSYN004BUFR
0160576870999992022012309004+28120+112780FM-12+011999999V0203311N0044199999999007900199+00271+00181102161ADDAA106999999AA212003931AA324019431AY101031AY201031IA2999+00299KA1240M+00311KA2240N+00231MA1999999100651MD1210091+0441MW1001OC101071OD141201071328REMSYN004BUFR
0166576870999992022012312004+28120+112780FM-12+011999999V0203351N0038199999999010000199+00271+00181102331ADDAA106999999AA224014831AJ100003100001099AY101061AY201061IA2999+00309KA1240M+00311KA2240N+00231MA1999999100821MD1210171+0521MW1001OC101071OD141201071328REMSYN004BUFR
0144576870999992022012315004+28120+112780FM-12+011999999V0203321N0041199999999010900199+00301+00181102411ADDAA106999999AA212999999AA324012031IA2999+00339KA1240M+00311KA2240N+00231MA1999999100901MD1210081+0501MW1001OC101071OD141201071328REMSYN004BUFR
0160576870999992022012318004+28120+112780FM-12+011999999V0203241N0035199999999003400199+00251+00191102431ADDAA106999999AA212999999AA324011831AY101999AY201999IA2999+00329KA1240M+00301KA2240N+00231MA1999999100921MD1210021+0621MW1101OC100971OD141200971336REMSYN004BUFR
0144576870999992022012321004+28120+112780FM-12+011999999V0203241N0042199999999003100199+00221+00171102291ADDAA106999999AA212999999AA324003931IA2999+00319KA1240M+00301KA2240N+00231MA1999999100781MD1710141+0481MW1101OC100931OD141200931332REMSYN004BUFR
0166576870999992022012400004+28120+112780FM-12+011999999V0203231N0028199999999002600199+00221+00191102401ADDAA106999999AA224001131AJ100009100000099AY101121AY201121IA2999+00309KA1240M+00301KA2240N+00221MA1999999100891MD1210111+0351MW1101OC100911OD141200911335REMSYN004BUFR
0160576870999992022012403004+28120+112780FM-12+011999999V0203241N0046199999999003200199+00271+00181102541ADDAA106999999AA212999999AA324999999AY101031AY201031IA2999+00309KA1240M+00301KA2240N+00221MA1999999101031MD1210141+0371MW1101OC100911OD141200911335REMSYN004BUFR
0166576870999992022012406004+28120+112780FM-12+011999999V0203331N0028199999999002000199+00261+00191102291ADDAA106001231AA224001231AJ100003100001099AY101061AY201061IA2999+00309KA1240M+00301KA2240N+00221MA1999999100781MD1710251+0221MW1621OC100911OD141200911335REMSYN004BUFR
0160576870999992022012409004+28120+112780FM-12+011999999V0203361N0036199999999002600199+00271+00201102301ADDAA106001931AA212001931AA324001931AY101031AY201031IA2999+00309KA1240M+00301KA2240N+00221MA1999999100791MD1210011+0141MW1501OC100911OD141200911335REMSYN004BUFR
0166576870999992022012412004+28120+112780FM-12+011999999V0203281N0038199999999002100199+00271+00211102401ADDAA106001231AA224002431AJ100003100002099AY101061AY201061IA2999+00339KA1240M+00301KA2240N+00221MA1999999100891MD1210101+0071MW1101OC100911OD141200911335REMSYN004BUFR
0144576870999992022012415004+28120+112780FM-12+011999999V0203271N0043199999999002600199+00301+00221102531ADDAA106000531AA212002431AA324002431IA2999+00349KA1240M+00301KA2240N+00221MA1999999101021MD1210131+0121MW1101OC100901OD141200901337REMSYN004BUFR
0160576870999992022012418004+28120+112780FM-12+011999999V0203281N0024199999999002300199+00301+00231102471ADDAA106999999AA212001231AA324002431AY101999AY201999IA2999+00349KA1240M+00291KA2240N+00221MA1999999100961MD1710061+0041MW1101OC100841OD141200841319REMSYN004BUFR
0144576870999992022012421004+28120+112780FM-12+011999999V0203391N0022199999999001000199+00301+00251102311ADDAA106999999AA212000531AA324002431IA2999+00349KA1240M+00291KA2240N+00221MA1999999100801MD1710161+0021MW1101OC100841OD141200841319REMSYN004BUFR
0166576870999992022012500004+28120+112780FM-12+011999999V0203291N0025199999999002400199+00301+00261102411ADDAA106001631AA224004031AJ100003100002099AY151121AY201121IA2999+00349KA1240M+00301KA2240N+00231MA1999999100901MD1210101+0011MW1601OC100841OD141200841319REMSYN004BUFR
0160576870999992022012503004+28120+112780FM-12+011999999V0203271N0032199999999001900199+00311+00271102511ADDAA106003931AA212003931AA324006331AY151031AY201031IA2999+00359KA1240M+00321KA2240N+00251MA1999999101001MD1210101-0031MW1601OC100721OD141200721328REMSYN004BUFR
0166576870999992022012506004+28120+112780FM-12+011999999V0203301N0034199999999004300199+00321+00271102281ADDAA106006431AA224009231AJ100013100008099AY151061AY201061IA2999+00369KA1240M+00341KA2240N+00261MA1999999100771MD1710231-0011MW1211OC100671OD141200671334REMSYN004BUFR
0160576870999992022012509004+28120+112780FM-12+011999999V0203311N0028199999999004700199+00351+00291102221ADDAA106005131AA212009031AA324009531AY151031AY201031IA2999+00379KA1240M+00361KA2240N+00271MA1999999100711MD1710061-0081MW1601OC100671OD141200671334REMSYN004BUFR
0166576870999992022012512004+28120+112780FM-12+011999999V0203231N0033199999999003600199+00321+00271102351ADDAA106001331AA224009331AJ100013100008099AY101061AY201061IA2999+00389KA1240M+00361KA2240N+00271MA1999999100841MD1210131-0051MW1101OC100681OD141200681323REMSYN004BUFR
0144576870999992022012515004+28120+112780FM-12+011999999V0203171N0042199999999002900199+00301+00251102371ADDAA106000531AA212005631AA324009531IA2999+00379KA1240M+00361KA2240N+00291MA1999999100861MD1210021-0161MW1101OC100781OD141200781320REMSYN004BUFR
0160576870999992022012518004+28120+112780FM-12+011999999V0203141N0029199999999002000199+00301+00261102291ADDAA106000331AA212001631AA324009631AY101999AY201999IA2999+00379KA1240M+00361KA2240N+00281MA1999999100781MD1710081-0181MW1101OC100781OD141200781320REMSYN004BUFR
0144576870999992022012521004+28120+112780FM-12+011999999V0203231N0037199999999003900199+00301+00251102171ADDAA106000631AA212001131AA324010131IA2999+00369KA1240M+00361KA2240N+00281MA1999999100661MD1710121-0141MW1201OC100781OD141200781320REMSYN004BUFR
0166576870999992022012600004+28120+112780FM-12+011999999V0203001N0024199999999002800199+00301+00261102271ADDAA106000731AA224008731AJ100003100001099AY161121AY201121IA2999+00369KA1240M+00361KA2240N+00281MA1999999100761MD1210101-0141MW1501OC100781OD141200781320REMSYN004BUFR
0160576870999992022012603004+28120+112780FM-12+011999999V0203211N0031199999999003600199+00361+00321102341ADDAA106000731AA212001331AA324006931AY101031AY201031IA2999+00369KA1240M+00361KA2240N+00281MA1999999100831MD1210071-0171MW1101OC100671OD141200671319REMSYN004BUFR
0166576870999992022012606004+28120+112780FM-12+011999999V0203021N0034199999999006400199+00401+00351102131ADDAA106000831AA224003131AJ100003100002099AY101061AY201061IA2999+00369KA1240M+00391KA2240N+00281MA1999999100631MD1710201-0141MW1211OC100831OD141200831305REMSYN004BUFR
0160576870999992022012609004+28120+112780FM-12+011999999V0203301N0030199999999005300199+00371+00321102101ADDAA106001231AA212001931AA324003031AY151031AY201031IA2999+00369KA1240M+00411KA2240N+00281MA1999999100601MD1710031-0111MW1621OC100831OD141200831305REMSYN004BUFR
0166576870999992022012612004+28120+112780FM-12+011999999V0203101N0039199999999003800199+00361+00321102301ADDAA106003131AA224004931AJ100003100004099AY151061AY201061IA2999+00379KA1240M+00411KA2240N+00281MA1999999100791MD1210191-0051MW1621OC100831OD141200831305REMSYN004BUFR
0144576870999992022012615004+28120+112780FM-12+011999999V0203481N0043199999999004200199+00371+00331102491ADDAA106005231AA212006431AA324007731IA2999+00419KA1240M+00411KA2240N+00281MA1999999100981MD1210191+0121MW1601OC100851OD141200851310REMSYN004BUFR
0160576870999992022012618004+28120+112780FM-12+011999999V0203381N0043199999999002700199+00361+00321102411ADDAA106005231AA212008331AA324009831AY101999AY201999IA2999+00409KA1240M+00411KA2240N+00281MA1999999100901MD1710081+0121MW1101OC100981OD141200981328REMSYN004BUFR
0144576870999992022012621004+28120+112780FM-12+011999999V0203351N0054199999999004900199+00321+00271102421ADDAA106002431AA212007631AA324009531IA2999+00379KA1240M+00411KA2240N+00281MA1999999100911MD1210011+0251MW1601OC101071OD141201071327REMSYN004BUFR
0166576870999992022012700004+28120+112780FM-12+011999999V0203311N0049199999999004500199+00311+00251102591ADDAA106007031AA224016131AJ100013100012099AY151121AY201121IA2999+00359KA1240M+00411KA2240N+00291MA1999999101081MD1210171+0321MW1211OC101101OD141201101335REMSYN004BUFR
0166576870999992022012703004+28120+112780FM-12+011999999V0203341N0055199999999003900199+00301+00241102711ADDAA106006831AA224015631AJ100013100009099AY101031AY201031IA2999+00359KA1240M+00411KA2240N+00291MA1999999101201MD1210121+0371MW1211OC101131OD141201131332REMSYN004BUFR
0166576870999992022012706004+28120+112780FM-12+011999999V0203201N0045199999999007500199+00311+00211102601ADDAA106000431AA224015731AJ100013100007099AY101061AY201061IA2999+00359KA1240M+00411KA2240N+00291MA1999999101091MD1710111+0461MW1001OC101171OD141201171318REMSYN004BUFR
0166576870999992022012709004+28120+112780FM-12+011999999V0203301N0037199999999005600199+00271+00211102591ADDAA106000631AA224015031AJ100013100007099AY151031AY201031IA2999+00359KA1240M+00381KA2240N+00281MA1999999101081MD1710011+0481MW1601OC101171OD141201171318REMSYN004BUFR
0166576870999992022012712004+28120+112780FM-12+011999999V0203391N0041199999999005700199+00271+00201102721ADDAA106002031AA224014631AJ100003100002099AY151061AY201061IA2999+00329KA1240M+00371KA2240N+00271MA1999999101201MD1210121+0411MW1601OC101171OD141201171318REMSYN004BUFR
0150576870999992022012715004+28120+112780FM-12+011999999V0203351N0040199999999003000199+00251+00181102801ADDAA106007231AA224017031AJ100013100008099IA2999+00299KA1240M+00371KA2240N+00251MA1999999101281MD1210081+0301MW1621OC101171OD141201171318REMSYN004BUFR
0230576870999992022012718004+28120+112780FM-12+011999999V0203391N0036199999999003500199+00251+00191102711ADDAA106010131AA224019531AJ100013100012099AY161999AY261999GA1999+000001999GE19AGL   +99999+99999GF108991999999000001999999IA2999+00299KA1240M+00371KA2240N+00241MA1999999101191MD1710091+0291MW1621OC101131OD141201131318REMSYN004BUFR
0192576870999992022012721004+28120+112780FM-12+011999999V0203331N0059199999999006200199+00201+00141102611ADDAA106011231AA224025831AJ100023100018099AY161999AY261999GF108991999999999999999999IA2999+00249KA1240M+00331KA2240N+00201MA1999999101091MD1710101+0181MW1601OC101211OD141201211337REMSYN004BUFR
0166576870999992022012800004+28120+112780FM-12+011999999V0203261N0041199999999004300199+00171+00111102711ADDAA106013331AA224025831AJ100023100023099AY101121AY201121IA2999+00229KA1240M+00311KA2240N+00171MA1999999101191MD1210101+0111MW1621OC101211OD141201211337REMSYN004BUFR
0166576870999992022012803004+28120+112780FM-12+011999999V0203191N0074199999999003200199+00151+00081102811ADDAA106012131AA224031131AJ100023100023099AY101031AY201031IA2999+00229KA1240M+00311KA2240N+00151MA1999999101291MD1210101+0091MW1621OC101251OD141201251332REMSYN004BUFR
0166576870999992022012806004+28120+112780FM-12+011999999V0203251N0047199999999004500199+00151+00081102591ADDAA106011631AA224037031AJ100023100025099AY171061AY251061IA2999+00229KA1240M+00311KA2240N+00141MA1999999101071MD1710221-0021MW1601OC101251OD141201251332REMSYN004BUFR
0166576870999992022012809004+28120+112780FM-12+011999999V0203181N0037199999999003100199+00121+00061102571ADDAA106009931AA224040431AJ100023100022099AY151031AY201031IA2999+00219KA1240M+00281KA2240N+00121MA1999999101051MD1710021-0031MW1621OC101251OD141201251332REMSYN004BUFR
0166576870999992022012812004+28120+112780FM-12+011999999V0203261N0055199999999004000199+00121+00051102721ADDAA106006331AA224041331AJ100023100018099AY101061AY201061IA2999+00179KA1240M+00271KA2240N+00121MA1999999101201MD1210151+0001MW1601OC101251OD141201251332REMSYN004BUFR
0192576870999992022012815004+28120+112780FM-12+011999999V0203251N0039199999999003000199+00071+00011102781ADDAA106008231AA224041431AJ100023100018099AY161999AY261999GF108991999999999999999999IA2999+00129KA1240M+00251KA2240N+00071MA1999999101251MD1210051-0031MW1601OC101231OD141201231327REMSYN004BUFR
0192576870999992022012818004+28120+112780FM-12+011999999V0203241N0038199999999002000199+00071+00041102671ADDAA106010031AA224041231AJ100023100016099AY171999AY261999GF108991999999999999999999IA2999+00079KA1240M+00251KA2240N+00061MA1999999101151MD1710101-0041MW1681OC101031OD141201031320REMSYN004BUFR
0150576870999992022012821004+28120+112780FM-12+011999999V0203291N0034199999999001500199+00011-00031102521ADDAA106009031AA224039231AJ100023100017099IA2999+00009KA1240M+00201KA2240N+00011MA1999999100991MD1710161-0101MW1701OC101031OD141201031320REMSYN004BUFR
0166576870999992022012900004+28120+112780FM-12+011999999V0203341N0043199999999001600199+00001-00041102601ADDAA106006131AA224034031AJ100023100016099AY101121AY201121IA2999+00009KA1240M+00171KA2240N+00001MA1999999101071MD1210081-0121MW1701OC101031OD141201031320REMSYN004BUFR
0166576870999992022012903004+28120+112780FM-12+011999999V0203341N0039199999999002300199+00021-00021102661ADDAA106002631AA224029731AJ100013100012099AY101031AY201031IA2999+00009KA1240M+00161KA2240N+00001MA1999999101131MD1210061-0161MW1221OC100961OD141200961334REMSYN004BUFR
0166576870999992022012906004+28120+112780FM-12+011999999V0203171N0047199999999002800199+00061+00001102431ADDAA106001531AA224023931AJ100013100008099AY101061AY201061IA2999+00009KA1240M+00151KA2240N+00001MA1999999100911MD1710221-0161MW1101OC100961OD141200961334REMSYN004BUFR
0166576870999992022012909004+28120+112780FM-12+011999999V0203221N0025199999999003200199+00101+00021102351ADDAA106000731AA224020531AJ100003100003099AY101031AY201031IA2999+00009KA1240M+00131KA2240N+00001MA1999999100831MD1710081-0221MW1221OC100931OD141200931326REMSYN004BUFR
0166576870999992022012912004+28120+112780FM-12+011999999V0203371N0038199999999004400199+00111+00011102571ADDAA106000231AA224017831AJ100003100002099AY101061AY201061IA2999+00009KA1240M+00121KA2240N+00001MA1999999101041MD1210211-0161MW1101OC100931OD141200931326REMSYN004BUFR
0176576870999992022012915004+28120+112780FM-12+011999999V0203141N0026199999999004800199+00121-00011102741ADDAA106999999AA224012331AJ100003100001099GF108991999999999999999999IA2999+00009KA1240M+00121KA2240N+00001MA1999999101211MD1210171-0041MW1101OC100841OD141200841338REMSYN004BUFR
0192576870999992022012918004+28120+112780FM-12+011999999V0203411N0022199999999008300199+00111-00101102761ADDAA106999999AA224007831AJ100003100000099AY101999AY201999GF108991999999999999999999IA2999+00009KA1240M+00121KA2240N+00001MA1999999101231MD1210021+0081MW1001OC100841OD141200841338REMSYN004BUFR
0176576870999992022012921004+28120+112780FM-12+011999999V0202991N0017199999999004000199+00061-00051102651ADDAA106999999AA224003331AJ100009100000099GF108991999999999999999999IA2999+00099KA1240M+00121KA2240N+00001MA1999999101121MD1710111+0131MW1101OC100841OD141200841338REMSYN004BUFR
0166576870999992022013000004+28120+112780FM-12+011999999V0200701N0011199999999004000199+00061-00031102741ADDAA106999999AA224001731AJ100009100000099AY101121AY201121IA2999+00099KA1240M+00121KA2240N+00001MA1999999101211MD1210091+0141MW1101OC100661OD141200661304REMSYN004BUFR
0160576870999992022013003004+28120+112780FM-12+011999999V0202931N0029199999999006500199+00271+00041102891ADDAA106999999AA212999999AA324000731AY101031AY201031IA2999+00099KA1240M+00281KA2240N+00021MA1999999101371MD1210161+0241MW1101OC100661OD141200661304REMSYN004BUFR
0166576870999992022013006004+28120+112780FM-12+011999999V0200381N0024199999999011000199+00411-00071102691ADDAA106999999AA224000231AJ100009100000099AY101061AY201061IA2999+00099KA1240M+00431KA2240N+00041MA1999999101171MD1710201+0261MW1001OC100511OD141200511348REMSYN004BUFR
0152576870999992022013009004+28120+112780FM-12+011999999V0203211N0012199999999010300199+00411+00031102661ADDAA106999999AA212999999AA324999999AY101031AY201031IA2999+00099KA1240M+00471KA2240N+00041MA1999999101141MD1710031+0311MW1001OD141200481006REMSYN004BUFR
0158576870999992022013012004+28120+112780FM-12+011999999V0203001N0006199999999010000199+00351+00051102801ADDAA106999999AA224000091AJ199999999999999AY101061AY201061IA2999+00169KA1240M+00471KA2240N+00041MA1999999101281MD1210141+0241MW1001OD141200481006REMSYN004BUFR
0136576870999992022013015004+28120+112780FM-12+011999999V0200551N0012199999999007200199+00321+00011102831ADDAA106999999AA212999999AA324999999IA2999+00349KA1240M+00471KA2240N+00041MA1999999101311MD1210031+0101MW1101OD141200481006REMSYN004BUFR
0152576870999992022013018004+28120+112780FM-12+011999999V0202591N0017199999999008300199+00311+00101102901ADDAA106999999AA212999999AA324999999AY101999AY201999IA2999+00309KA1240M+00471KA2240N+00041MA1999999101391MD1210081+0161MW1001OD141200461356REMSYN004BUFR
0136576870999992022013021004+28120+112780FM-12+011999999V0200491N0019199999999006200199+00301+00111102631ADDAA106999999AA212999999AA324999999IA2999+00309KA1240M+00471KA2240N+00041MA1999999101121MD1710271+0001MW1101OD141200451310REMSYN004BUFR
0185576870999992022013100004+28120+112780FM-12+011999999V0202641N0005199999999004500199+00301+00161102771ADDAA106999999AA224999999AJ199999999999999AY101121AY201121IA2999+00299KA1240M+00471KA2240N+00061MA1999999101251MD1210131+0041MW1211OC100531OD141200531028REMSYN004BUFREQDQ01  00002PRCP24
0160576870999992022013103004+28120+112780FM-12+011999999V0203141N0033199999999001200199+00061+00001102961ADDAA106002831AA212002831AA324002831AY161031AY201031IA2999+00179KA1240M+00471KA2240N+00061MA1999999101441MD1210191+0071MW1701OC100651OD141200651336REMSYN004BUFR
0166576870999992022013106004+28120+112780FM-12+011999999V0203251N0030199999999003700199+00171+00121102761ADDAA106005231AA224005231AJ100013100005099AY101061AY201061IA2999+00019KA1240M+00471KA2240N+00031MA1999999101241MD1710201+0071MW1101OC100651OD141200651336REMSYN004BUFR
0160576870999992022013109004+28120+112780FM-12+011999999V0203281N0015199999999006800199+00301+00191102721ADDAA106002431AA212005231AA324005231AY101031AY201031IA2999+00019KA1240M+00411KA2240N+00031MA1999999101201MD1710041+0061MW1101OC100651OD141200651336REMSYN004BUFR
0166576870999992022013112004+28120+112780FM-12+011999999V0203211N0015199999999002300199+00301+00201102751ADDAA106999999AA224005231AJ100013100005099AY101061AY201061IA2999+00019KA1240M+00341KA2240N+00031MA1999999101231MD1210031-0051MW1101OC100651OD141200651336REMSYN004BUFR
0144576870999992022013115004+28120+112780FM-12+011999999V0203361N0021199999999002200199+00311+00241102801ADDAA106999999AA212002431AA324005231IA2999+00019KA1240M+00331KA2240N+00031MA1999999101281MD1210051-0031MW1601OC100581OD141200581311REMSYN004BUFR
0160576870999992022013118004+28120+112780FM-12+011999999V0203371N0026199999999001700199+00301+00231102801ADDAA106001131AA212001131AA324006331AY151999AY201999IA2999+00339KA1240M+00321KA2240N+00031MA1999999101281MD1410001-0111MW1601OC100741OD141200741349REMSYN004BUFR
0144576870999992022013121004+28120+112780FM-12+011999999V0203261N0026199999999001500199+00271+00221102761ADDAA106003031AA212003031AA324008231IA2999+00319KA1240M+00321KA2240N+00031MA1999999101241MD1710041+0121MW1601OC100741OD141200741349REMSYN004BUFR
0166576870999992022020100004+28120+112780FM-12+011999999V0203041N0009199999999001300199+00301+00231102851ADDAA106002231AA224008531AJ100003100003099AY101121AY201121IA2999+00319KA1240M+00311KA2240N+00031MA1999999101331MD1210091+0081MW1101OC100741OD141200741349REMSYN004BUFR
0160576870999992022020103004+28120+112780FM-12+011999999V0203461N0015199999999003600199+00421+00291102881ADDAA106000331AA212003331AA324005731AY101031AY201031IA2999+00319KA1240M+00421KA2240N+00031MA1999999101371MD1210041-0071MW1101OC100741OD141200741349REMSYN004BUFR
0166576870999992022020106004+28120+112780FM-12+011999999V0203221N0022199999999002800199+00421+00321102721ADDAA106000131AA224003431AJ100003100002099AY101061AY201061IA2999+00319KA1240M+00471KA2240N+00181MA1999999101211MD1710161-0031MW1601OC100651OD141200651332REMSYN004BUFR
0152576870999992022020109004+28120+112780FM-12+011999999V0203591N0018199999999004900199+00421+00311102661ADDAA106001231AA212001531AA324004531AY101031AY201031IA2999+00329KA1240M+00471KA2240N+00261MA1999999101151MD1710061-0051MW1101OD141200421317REMSYN004BUFR
0166576870999992022020112004+28120+112780FM-12+011999999V0200071N0011199999999008800199+00411+00261102701ADDAA106001131AA224004531AJ100003100001099AY101061AY201061IA2999+00369KA1240M+00471KA2240N+00261MA1999999101191MD1210041-0041MW1001OC100521OD141200521023REMSYN004BUFR
0176576870999992022020115004+28120+112780FM-12+011999999V0203051N0029199999999002700199+00411+00351102851ADDAA106000831AA224005331AJ100003100002099GF108991999999999999999999IA2999+00429KA1240M+00471KA2240N+00261MA1999999101341MD1210151+0061MW1211OC100521OD141200521023REMSYN004BUFR
0192576870999992022020118004+28120+112780FM-12+011999999V0203461N0027199999999002700199+00351+00261102791ADDAA106002931AA224006331AJ100003100004099AY161999AY201999GF108991999999999999999999IA2999+00319KA1240M+00471KA2240N+00261MA1999999101281MD1710061+0001MW1501OC100691OD141200691347REMSYN004BUFR
0176576870999992022020121004+28120+112780FM-12+011999999V0203341N0057199999999002400199+00171+00111102831ADDAA106003231AA224005531AJ100003100004099GF108991999999999999999999IA2999+00269KA1240M+00471KA2240N+00181MA1999999101311MD1210031+0071MW1601OC101231OD141201231345REMSYN004BUFR
0166576870999992022020200004+28120+112780FM-12+011999999V0203241N0062199999999005400199+00121+00051103021ADDAA106001231AA224005331AJ100003100004099AY101121AY201121IA2999+00209KA1240M+00471KA2240N+00121MA1999999101501MD1210191+0171MW1101OC101281OD141201281338REMSYN004BUFR
0166576870999992022020203004+28120+112780FM-12+011999999V0203111N0046199999999007300199+00111+00021103121ADDAA106000131AA224005331AJ100003100003099AY101031AY201031IA2999+00209KA1240M+00471KA2240N+00101MA1999999101601MD1210101+0231MW1001OC101281OD141201281338REMSYN004BUFR
0166576870999992022020206004+28120+112780FM-12+011999999V0203171N0042199999999004100199+00071+00011102891ADDAA106000431AA224005631AJ100003100002099AY101061AY201061IA2999+00139KA1240M+00441KA2240N+00081MA1999999101371MD1710231+0161MW1701OC101281OD141201281338REMSYN004BUFR
0166576870999992022020209004+28120+112780FM-12+011999999V0203201N0029199999999004600199+00121+00071102871ADDAA106001631AA224005731AJ100003100002099AY101031AY201031IA2999+00069KA1240M+00431KA2240N+00051MA1999999101341MD1710031+0191MW1681OC101281OD141201281338REMSYN004BUFR
0166576870999992022020212004+28120+112780FM-12+011999999V0203321N0030199999999003000199+00161+00121102901ADDAA106001431AA224005931AJ100003100002099AY101061AY201061IA2999+00069KA1240M+00421KA2240N+00051MA1999999101371MD1210031+0181MW1101OC101151OD141201151335REMSYN004BUFR
0192576870999992022020215004+28120+112780FM-12+011999999V0203141N0023199999999003700199+00211+00141102971ADDAA106000231AA224005131AJ100003100002099AY101999AY201999GF108991999999999999999999IA2999+00069KA1240M+00421KA2240N+00051MA1999999101441MD1210071+0101MW1101OC100921OD141200921329REMSYN004BUFR
0192576870999992022020218004+28120+112780FM-12+011999999V0203311N0030199999999006100199+00171+00081102841ADDAA106999999AA224003031AJ100003100001099AY101999AY201999GF108991999999999999999999IA2999+00069KA1240M+00381KA2240N+00051MA1999999101311MD1710131+0031MW1101OC100811OD141200811334REMSYN004BUFR
0192576870999992022020221004+28120+112780FM-12+011999999V0203281N0032199999999006900199+00151+00051102741ADDAA106999999AA224001931AJ100003100000099AY101999AY201999GF108991999999999999999999IA2999+00199KA1240M+00211KA2240N+00051MA1999999101221MD1710091-0091MW1101OC100641OD141200641320REMSYN004BUFR
0166576870999992022020300004+28120+112780FM-12+011999999V0203421N0026199999999008500199+00171+00031102761ADDAA106999999AA224001831AJ100009100000099AY101121AY201121IA2999+00199KA1240M+00211KA2240N+00051MA1999999101241MD1210021-0261MW1001OC100641OD141200641320REMSYN004BUFR
0166576870999992022020303004+28120+112780FM-12+011999999V0203261N0026199999999011000199+00361+00151102861ADDAA106999999AA224001831AJ100009100000099AY101031AY201031IA2999+00199KA1240M+00361KA2240N+00051MA1999999101341MD1210101-0261MW1001OC100731OD141200731317REMSYN004BUFR
0166576870999992022020306004+28120+112780FM-12+011999999V0203351N0034199999999010500199+00511+00071102661ADDAA106999999AA224001431AJ100009100000099AY101061AY201061IA2999+00199KA1240M+00521KA2240N+00051MA1999999101151MD1710191-0221MW1001OC100731OD141200731317REMSYN004BUFR
0166576870999992022020309004+28120+112780FM-12+011999999V0200481N0029199999999011500199+00521+00101102601ADDAA106999999AA224000231AJ100009100000099AY101031AY201031IA2999+00199KA1240M+00601KA2240N+00101MA1999999101091MD1710061-0251MW1001OC100731OD141200731317REMSYN004BUFR
0166576870999992022020312004+28120+112780FM-12+011999999V0203181N0009199999999011200199+00451+00141102751ADDAA106999999AA224000091AJ199999999999999AY101061AY201061IA2999+00249KA1240M+00601KA2240N+00151MA1999999101231MD1210141-0141MW1001OC100731OD141200731317REMSYN004BUFR
0144576870999992022020315004+28120+112780FM-12+011999999V0202801N0012199999999003200199+00301+00211102861ADDAA106999999AA212999999AA324999999IA2999+00189KA1240M+00601KA2240N+00151MA1999999101341MD1210111-0101MW1101OC100711OD141200711337REMSYN004BUFR
0160576870999992022020318004+28120+112780FM-12+011999999V0202591N0017199999999001600199+00111+00071102921ADDAA106999999AA212999999AA324999999AY101999AY201999IA2999+00029KA1240M+00601KA2240N+00101MA1999999101401MD1210061+0091MW1281OC100651OD141200651331REMSYN004BUFR
0136576870999992022020321004+28120+112780FM-12+011999999V0202461N0019199999999002300199+00151+00111102851ADDAA106999999AA212999999AA324999999IA2999+00029KA1240M+00601KA2240N+00101MA1999999101331MD1710071+0111MW1101OD141200431062REMSYN004BUFR
0158576870999992022020400004+28120+112780FM-12+011999999V0203101N0014199999999004000199+00171+00111102991ADDAA106999999AA224000091AJ199999999999999AY101121AY201121IA2999+00029KA1240M+00601KA2240N+00101MA1999999101471MD1210141+0231MW1101OD141200271244REMSYN004BUFR
0160576870999992022020403004+28120+112780FM-12+011999999V0200011N0021199999999011200199+00721+00041103161ADDAA106999999AA212999999AA324999999AY101031AY201031IA2999+00029KA1240M+00721KA2240N+00101MA1999999101651MD1210181+0311MW1001OC100561OD141200561322REMSYN004BUFR
0166576870999992022020406004+28120+112780FM-12+011999999V0200221N0020199999999024000199+00901-00031102921ADDAA106999999AA224000091AJ199999999999999AY101061AY201061IA2999+00169KA1240M+00921KA2240N+00101MA1999999101411MD1710241+0261MW1001OC100841OD141200841081REMSYN004BUFR
0160576870999992022020409004+28120+112780FM-12+011999999V0200011N0026199999999020900199+00851+00101102871ADDAA106999999AA212999999AA324999999AY101031AY201031IA2999+00169KA1240M+00921KA2240N+00101MA1999999101361MD1710051+0271MW1001OC100841OD141200841081REMSYN004BUFR
0166576870999992022020412004+28120+112780FM-12+011999999V0203101N0004199999999013500199+00461+00161103001ADDAA106999999AA224000091AJ199999999999999AY101061AY201061IA2999+00249KA1240M+00921KA2240N+00101MA1999999101481MD1210121+0251MW1001OC100841OD141200841081REMSYN004BUFR
0144576870999992022020415004+28120+112780FM-12+011999999V0203521N0003199999999004600199+00361+00211103021ADDAA106999999AA212999999AA324999999IA2999+00239KA1240M+00921KA2240N+00101MA1999999101511MD1210031+0171MW1101OC100841OD141200841081REMSYN004BUFR
0160576870999992022020418004+28120+112780FM-12+011999999V0202651N0008199999999003400199+00221+00171103021ADDAA106999999AA212999999AA324999999AY101999AY201999IA2999+00169KA1240M+00921KA2240N+00111MA1999999101511MD1410001+0111MW1101OC100711OD141200711339REMSYN004BUFR
0144576870999992022020421004+28120+112780FM-12+011999999V0202521N0009199999999003200199+00151+00081102961ADDAA106999999AA212999999AA324999999IA2999+00059KA1240M+00921KA2240N+00141MA1999999101451MD1710061+0121MW1101OC100601OD141200601018REMSYN004BUFR
0158576870999992022020500004+28120+112780FM-12+011999999V0202601N0016199999999000500199+00021-00021103141ADDAA106999999AA224000091AJ199999999999999AY141121AY201121IA2999-00029KA1240M+00921KA2240N-00031MA1999999101621MD1210171+0151MW1451OD141200211303REMSYN004BUFR
0160576870999992022020503004+28120+112780FM-12+011999999V0200821N0040199999999021400199+00821-00081103191ADDAA106999999AA212999999AA324999999AY101031AY201031IA2999-00029KA1240M+00921KA2240N-00031MA1999999101681MD1210061+0031MW1001OC100861OD141200861123REMSYN004BUFR
0166576870999992022020506004+28120+112780FM-12+011999999V0200601N0025199999999030000199+00851-00131102941ADDAA106999999AA224000091AJ199999999999999AY101061AY201061IA2999-00029KA1240M+00991KA2240N-00031MA1999999101431MD1710251+0021MW1001OC100861OD141200861123REMSYN004BUFR
0160576870999992022020509004+28120+112780FM-12+011999999V0201501N0027199999999030000199+00851-00051102851ADDAA106999999AA212999999AA324999999AY101031AY201031IA2999-00029KA1240M+00991KA2240N-00031MA1999999101341MD1710091-0021MW1001OC100861OD141200861123REMSYN004BUFR
0166576870999992022020512004+28120+112780FM-12+011999999V0202711N0004199999999016700199+00551+00121102951ADDAA106999999AA224000091AJ199999999999999AY101061AY201061IA2999+00039KA1240M+00991KA2240N-00031MA1999999101431MD1210091-0051MW1001OC100861OD141200861123REMSYN004BUFR
0144576870999992022020515004+28120+112780FM-12+011999999V0202551N0016199999999007200199+00351+00221102961ADDAA106999999AA212999999AA324999999IA2999+00399KA1240M+00991KA2240N-00031MA1999999101461MD1210031-0051MW1001OC100781OD141200781122REMSYN004BUFR
0160576870999992022020518004+28120+112780FM-12+011999999V0202421N0006199999999010300199+00421+00171102881ADDAA106999999AA212999999AA324999999AY101999AY201999IA2999+00399KA1240M+00991KA2240N-00031MA1999999101381MD1710081-0131MW1001OC100531OD141200531151REMSYN004BUFR
0144576870999992022020521004+28120+112780FM-12+011999999V0202751N0010199999999011900199+00451+00261102891ADDAA106999999AA212999999AA324999999IA2999+00399KA1240M+00991KA2240N-00031MA1999999101391MD1210011-0061MW1001OC100521OD141200521154REMSYN004BUFR
0184576870999992022020600004+28120+112780FM-12+011999999V0203111N0016199999999010400199+00471+00301102841ADDAA106999999AA224000091AJ199999999999999AY101121AY201121GF108991999999999999999999IA2999+00399KA1240M+00991KA2240N+00021MA1999999101331MD1710061-0291MW1001OD141200261327REMSYN004BUFR
0166576870999992022020606004+28120+112780FM-12+011999999V0200051N0016199999999008800199+00621+00321102581ADDAA106000131AA224000131AJ100003100000099AY151061AY201061IA2999+00479KA1240M+00961KA2240N+00351MA1999999101081MD1710311-0351MW1601OC100591OD141200591025REMSYN004BUFR
0166576870999992022020612004+28120+112780FM-12+011999999V0200301N0023199999999005200199+00471+00381102351ADDAA106000331AA224000431AJ100003100000099AY101061AY201061IA2999+00519KA1240M+00661KA2240N+00351MA1999999100851MD1710071-0581MW1101OC100591OD141200591025REMSYN004BUFR
0166576870999992022020615004+28120+112780FM-12+011999999V0203391N0038199999999003100199+00421+00361102411ADDAA106005831AA224006131AJ100013100006099AY161999AY261999IA2999+00499KA1240M+00661KA2240N+00351MA1999999100911MD1210061-0551MW1601OC100641OD141200641335REMSYN004BUFR
0192576870999992022020618004+28120+112780FM-12+011999999V0203071N0035199999999004300199+00221+00161102291ADDAA106007931AA224008331AJ100013100008099AY161999AY261999GF108991999999999999999999IA2999+00349KA1240M+00661KA2240N+00221MA1999999100791MD1710121-0591MW1601OC100951OD141200951335REMSYN004BUFR
0150576870999992022020621004+28120+112780FM-12+011999999V0203081N0032199999999001900199+00001-00061102281ADDAA106016031AA224022131AJ100023100022099IA2999+00019KA1240M+00661KA2240N+00001MA1999999100771MD1710021-0621MW1701OC101191OD141201191315REMSYN004BUFR
0166576870999992022020700004+28120+112780FM-12+011999999V0203171N0065199999999003700199+00011-00051102521ADDAA106017831AA224026131AJ100033100026099AY101121AY201121IA2999+00019KA1240M+00661KA2240N+00001MA1999999101001MD1210231-0331MW1701OC101191OD141201191315REMSYN004BUFR
0166576870999992022020703004+28120+112780FM-12+011999999V0203281N0039199999999003900199+00021-00041102701ADDAA106004931AA224027031AJ100023100021099AY101031AY201031IA2999+00019KA1240M+00661KA2240N+00001MA1999999101181MD1210181-0211MW1221OC101191OD141201191315REMSYN004BUFR
0166576870999992022020706004+28120+112780FM-12+011999999V0203321N0039199999999006100199+00061-00031102671ADDAA106000931AA224026931AJ100023100019099AY101061AY201061IA2999+00019KA1240M+00621KA2240N+00001MA1999999101151MD1710031+0071MW1101OC101191OD141201191315REMSYN004BUFR
0166576870999992022020709004+28120+112780FM-12+011999999V0203461N0037199999999007800199+00101-00061102751ADDAA106999999AA224026731AJ100003100005099AY101031AY201031IA2999+00039KA1240M+00531KA2240N+00001MA1999999101221MD1210071+0301MW1001OC101141OD141201141328REMSYN004BUFR
0166576870999992022020712004+28120+112780FM-12+011999999V0203491N0018199999999011600199+00071-00081102891ADDAA106999999AA224026631AJ100003100001099AY101061AY201061IA2999+00039KA1240M+00481KA2240N+00001MA1999999101361MD1210141+0511MW1001OC101141OD141201141328REMSYN004BUFR
0150576870999992022020715004+28120+112780FM-12+011999999V0203321N0020199999999013200199+00071-00141103041ADDAA106999999AA224020931AJ100009100000099IA2999+00049KA1240M+00421KA2240N+00001MA1999999101511MD1210151+0601MW1001OC101021OD141201021338REMSYN004BUFR
0192576870999992022020718004+28120+112780FM-12+011999999V0203311N0018199999999011700199+00101-00101103011ADDAA106999999AA224018731AJ100029100020099AY101999AY201999GF108991999999999999999999IA2999+00049KA1240M+00221KA2240N+00001MA1999999101481MD1710031+0691MW1001OC100951OD141200951336REMSYN004BUFR
0192576870999992022020721004+28120+112780FM-12+011999999V0203551N0040199999999010500199+00101-00131102961ADDAA106999999AA224004931AJ100019100010099AY101999AY201999GF108991999999999999999999IA2999+00039KA1240M+00091KA2240N+00001MA1999999101431MD1710051+0661MW1001OC100921OD141200921344REMSYN004BUFR
0166576870999992022020800004+28120+112780FM-12+011999999V0200071N0026199999999011300199+00101-00141103051ADDAA106999999AA224000931AJ100009100000099AY101121AY201121IA2999+00029KA1240M+00101KA2240N+00011MA1999999101521MD1210091+0521MW1001OC100911OD141200911339REMSYN004BUFR
0166576870999992022020803004+28120+112780FM-12+011999999V0203221N0024199999999010700199+00201-00071103111ADDAA106999999AA224000091AJ199999999999999AY101031AY201031IA2999+00029KA1240M+00201KA2240N+00021MA1999999101581MD1210061+0401MW1001OC100911OD141200911339REMSYN004BUFR
0166576870999992022020806004+28120+112780FM-12+011999999V0203251N0027199999999005200199+00151-00011102871ADDAA106000431AA224000431AJ100003100000099AY101061AY201061IA2999+00029KA1240M+00201KA2240N+00061MA1999999101341MD1710241+0191MW1701OC100911OD141200911339REMSYN004BUFR
0166576870999992022020809004+28120+112780FM-12+011999999V0203341N0026199999999005700199+00111-00021102831ADDAA106001231AA224001231AJ100003100001099AY101031AY201031IA2999+00029KA1240M+00201KA2240N+00071MA1999999101301MD1710041+0081MW1101OC100771OD141200771328REMSYN004BUFR
0166576870999992022020812004+28120+112780FM-12+011999999V0203261N0020199999999005100199+00101+00001102831ADDAA106001031AA224001431AJ100003100001099AY101061AY201061IA2999+00099KA1240M+00201KA2240N+00071MA1999999101301MD1410001-0061MW1101OC100651OD141200651328REMSYN004BUFR
0150576870999992022020815004+28120+112780FM-12+011999999V0203151N0027199999999003800199+00071+00021102881ADDAA106999999AA224001231AJ100003100001099IA2999+00189KA1240M+00201KA2240N+00071MA1999999101351MD1210051-0161MW1101OC100651OD141200651323REMSYN004BUFR
0166576870999992022020818004+28120+112780FM-12+011999999V0203171N0027199999999004300199+00051-00011102811ADDAA106002331AA224003531AJ100003100003099AY161999AY251999IA2999+00029KA1240M+00201KA2240N+00051MA1999999101281MD1710071-0201MW1681OC100651OD141200651323REMSYN004BUFR
0150576870999992022020821004+28120+112780FM-12+011999999V0203291N0031199999999007300199+00021-00021102741ADDAA106006631AA224007831AJ100013100007099IA2999+00009KA1240M+00201KA2240N+00011MA1999999101211MD1710071-0221MW1001OC100771OD141200771297REMSYN004BUFR
0166576870999992022020900004+28120+112780FM-12+011999999V0203291N0025199999999004000199+00021-00011102871ADDAA106004331AA224007831AJ100013100007099AY101121AY201121IA2999+00009KA1240M+00201KA2240N+00011MA1999999101341MD1210131-0181MW1101OC100771OD141200771297REMSYN004BUFR
0166576870999992022020903004+28120+112780FM-12+011999999V0203001N0019199999999003600199+00171+00101102941ADDAA106999999AA224007831AJ100013100007099AY101031AY201031IA2999+00009KA1240M+00201KA2240N+00011MA1999999101411MD1210071-0171MW1101OC100771OD141200771297REMSYN004BUFR
0166576870999992022020906004+28120+112780FM-12+011999999V0203321N0016199999999006200199+00271+00081102671ADDAA106999999AA224007431AJ100003100004099AY101061AY201061IA2999+00009KA1240M+00271KA2240N+00011MA1999999101151MD1710261-0191MW1101OC100771OD141200771297REMSYN004BUFR
0166576870999992022020909004+28120+112780FM-12+011999999V0200971N0014199999999011200199+00311+00101102521ADDAA106999999AA224006831AJ100009100000099AY101031AY201031IA2999+00019KA1240M+00331KA2240N+00011MA1999999101001MD1710151-0301MW1001OC100711OD141200711321REMSYN004BUFR
0166576870999992022020912004+28120+112780FM-12+011999999V0203181N0014199999999008300199+00251+00081102581ADDAA106999999AA224006631AJ100009100000099AY101061AY201061IA2999+00019KA1240M+00331KA2240N+00011MA1999999101061MD1210061-0241MW1001OC100531OD141200531323REMSYN004BUFR
0144576870999992022020915004+28120+112780FM-12+011999999V0202991N0009199999999010600199+00211+00061102691ADDAA106999999AA212999999AA324006631IA2999+00289KA1240M+00331KA2240N+00011MA1999999101171MD1210111-0181MW1001OC100531OD141200531323REMSYN004BUFR
0152576870999992022020918004+28120+112780FM-12+011999999V0202651N0005199999999004900199+00201+00101102541ADDAA106999999AA212999999AA324004331AY101999AY201999IA2999+00279KA1240M+00331KA2240N+00011MA1999999101021MD1710151-0261MW1101OD141200491335REMSYN004BUFR
0136576870999992022020921004+28120+112780FM-12+011999999V0202611N0013199999999002000199+00201+00141102451ADDAA106000431AA212000431AA324000431IA2999+00279KA1240M+00331KA2240N+00021MA1999999100941MD1710081-0271MW1101OD141200261101REMSYN004BUFR
0158576870999992022021000004+28120+112780FM-12+011999999V0203001N0010199999999002100199+00221+00191102521ADDAA106000431AA224000431AJ100003100000099AY101121AY201121IA2999+00279KA1240M+00331KA2240N+00031MA1999999101001MD1210061-0341MW1101OD141200261101REMSYN004BUFR
0152576870999992022021003004+28120+112780FM-12+011999999V0200521N0013199999999010400199+00451+00151102491ADDAA106999999AA212000431AA324000431AY101031AY201031IA2999+00279KA1240M+00461KA2240N+00171MA1999999100981MD1710021-0431MW1001OD141200261101REMSYN004BUFR
0158576870999992022021006004+28120+112780FM-12+011999999V0203271N0014199999999005200199+00401+00311102151ADDAA106001131AA224001531AJ100003100002099AY151061AY201061IA2999+00279KA1240M+00461KA2240N+00201MA1999999100641MD1710341-0511MW1601OD141200341322REMSYN004BUFR
0152576870999992022021009004+28120+112780FM-12+011999999V0203201N0025199999999004300199+00351+00281102101ADDAA106002531AA212002531AA324002931AY101031AY201031IA2999+00299KA1240M+00461KA2240N+00201MA1999999100591MD1710051-0411MW1211OD141200371316REMSYN004BUFR
0158576870999992022021012004+28120+112780FM-12+011999999V0203101N0018199999999002900199+00351+00311102151ADDAA106002431AA224003931AJ100003100004099AY101061AY201061IA2999+00379KA1240M+00461KA2240N+00201MA1999999100641MD1210051-0421MW1601OD141200371336REMSYN004BUFR
0144576870999992022021015004+28120+112780FM-12+011999999V0203271N0013199999999002400199+00371+00331102271ADDAA106001431AA212003931AA324004331IA2999+00429KA1240M+00461KA2240N+00201MA1999999100771MD1210131-0401MW1601OC100541OD141200541333REMSYN004BUFR
0160576870999992022021018004+28120+112780FM-12+011999999V0203301N0026199999999002200199+00371+00331102261ADDAA106000631AA212003031AA324004531AY101999AY201999IA2999+00429KA1240M+00461KA2240N+00201MA1999999100761MD1710011-0261MW1601OC100541OD141200541333REMSYN004BUFR
0144576870999992022021021004+28120+112780FM-12+011999999V0203191N0029199999999001900199+00321+00291102231ADDAA106000731AA212002131AA324004631IA2999+00409KA1240M+00461KA2240N+00201MA1999999100721MD1710041-0221MW1601OC100541OD141200541333REMSYN004BUFR
0166576870999992022021100004+28120+112780FM-12+011999999V0203121N0032199999999002300199+00321+00291102381ADDAA106000831AA224004931AJ100003100001099AY161121AY201121IA2999+00389KA1240M+00461KA2240N+00231MA1999999100871MD1210151-0131MW1501OC100581OD141200581327REMSYN004BUFR
0160576870999992022021103004+28120+112780FM-12+011999999V0203251N0033199999999003800199+00421+00301102531ADDAA106000331AA212001031AA324004931AY101031AY201031IA2999+00389KA1240M+00451KA2240N+00331MA1999999101021MD1210151+0041MW1101OC100611OD141200611319REMSYN004BUFR
0166576870999992022021106004+28120+112780FM-12+011999999V0203261N0023199999999005100199+00521+00281102301ADDAA106999999AA224003831AJ100003100001099AY101061AY201061IA2999+00389KA1240M+00531KA2240N+00331MA1999999100801MD1710221+0161MW1101OC100611OD141200611319REMSYN004BUFR
0160576870999992022021109004+28120+112780FM-12+011999999V0203231N0017199999999005600199+00571+00301102261ADDAA106999999AA212000331AA324002431AY101031AY201031IA2999+00389KA1240M+00581KA2240N+00331MA1999999100761MD1710041+0171MW1101OC100611OD141200611319REMSYN004BUFR
0166576870999992022021112004+28120+112780FM-12+011999999V0203271N0023199999999005000199+00521+00311102421ADDAA106999999AA224001431AJ100009100000099AY101061AY201061IA2999+00399KA1240M+00581KA2240N+00331MA1999999100921MD1210161+0281MW1101OC100611OD141200611319REMSYN004BUFR
0144576870999992022021115004+28120+112780FM-12+011999999V0203371N0017199999999005400199+00511+00331102551ADDAA106999999AA212999999AA324001031IA2999+00509KA1240M+00581KA2240N+00331MA1999999101051MD1210131+0281MW1101OC100541OD141200541317REMSYN004BUFR
0160576870999992022021118004+28120+112780FM-12+011999999V0203011N0017199999999003000199+00351+00251102501ADDAA106999999AA212999999AA324000831AY101999AY201999IA2999+00219KA1240M+00581KA2240N+00331MA1999999101001MD1710051+0241MW1101OC100531OD141200531334REMSYN004BUFR
0136576870999992022021121004+28120+112780FM-12+011999999V0202671N0013199999999001800199+00321+00291102431ADDAA106999999AA212999999AA324000331IA2999+00219KA1240M+00581KA2240N+00301MA1999999100931MD1710071+0211MW1101OD141200431344REMSYN004BUFR
0166576870999992022021200004+28120+112780FM-12+011999999V0203331N0036199999999004300199+00471+00321102511ADDAA106999999AA224000091AJ199999999999999AY101121AY201121IA2999+00219KA1240M+00581KA2240N+00301MA1999999101011MD1210081+0141MW1101OC100601OD141200601333REMSYN004BUFR
0160576870999992022021203004+28120+112780FM-12+011999999V0203241N0031199999999003600199+00511+00381102591ADDAA106999999AA212999999AA324999999AY101031AY201031IA2999+00219KA1240M+00581KA2240N+00301MA1999999101091MD1210081+0071MW1101OC100801OD141200801332REMSYN004BUFR
0166576870999992022021206004+28120+112780FM-12+011999999V0203311N0037199999999005000199+00621+00341102311ADDAA106999999AA224000091AJ199999999999999AY101061AY201061IA2999+00219KA1240M+00631KA2240N+00301MA1999999100811MD1710281+0011MW1101OC100801OD141200801332REMSYN004BUFR
0160576870999992022021209004+28120+112780FM-12+011999999V0200051N0023199999999006000199+00651+00301102251ADDAA106000631AA212000631AA324000631AY101031AY201031IA2999+00409KA1240M+00641KA2240N+00301MA1999999100751MD1710061-0011MW1101OC100801OD141200801332REMSYN004BUFR
0166576870999992022021212004+28120+112780FM-12+011999999V0203221N0025199999999005700199+00571+00341102371ADDAA106000631AA224000631AJ100003100001099AY101061AY201061IA2999+00479KA1240M+00641KA2240N+00301MA1999999100871MD1210121-0051MW1101OC100801OD141200801332REMSYN004BUFR
0144576870999992022021215004+28120+112780FM-12+011999999V0200021N0023199999999006500199+00601+00271102361ADDAA106999999AA212000631AA324000631IA2999+00519KA1240M+00641KA2240N+00301MA1999999100861MD1710011-0191MW1101OC100661OD141200661347REMSYN004BUFR
0160576870999992022021218004+28120+112780FM-12+011999999V0203241N0029199999999004000199+00521+00351102311ADDAA106000131AA212000731AA324000731AY101999AY201999IA2999+00509KA1240M+00641KA2240N+00301MA1999999100821MD1710041-0181MW1601OC100661OD141200661347REMSYN004BUFR
0144576870999992022021221004+28120+112780FM-12+011999999V0203011N0015199999999001800199+00421+00341102311ADDAA106001631AA212001631AA324002231IA2999+00429KA1240M+00641KA2240N+00331MA1999999100811MD1710011-0121MW1601OC100661OD141200661347REMSYN004BUFR
0166576870999992022021300004+28120+112780FM-12+011999999V0202371N0010199999999000900199+00411+00351102441ADDAA106002631AA224003331AJ100003100003099AY101121AY201121IA2999+00429KA1240M+00641KA2240N+00411MA1999999100941MD1210131-0071MW1211OC100661OD141200661347REMSYN004BUFR
0160576870999992022021303004+28120+112780FM-12+011999999V0203271N0031199999999003900199+00551+00361102471ADDAA106001131AA212002731AA324003331AY101031AY201031IA2999+00429KA1240M+00641KA2240N+00411MA1999999100971MD1210031-0121MW1101OC100561OD141200561327REMSYN004BUFR
0166576870999992022021306004+28120+112780FM-12+011999999V0203521N0014199999999006600199+00711+00301102141ADDAA106999999AA224003331AJ100003100003099AY101061AY201061IA2999+00429KA1240M+00741KA2240N+00411MA1999999100651MD1710321-0161MW1101OC100561OD141200561327REMSYN004BUFR
0160576870999992022021309004+28120+112780FM-12+011999999V0203401N0017199999999006600199+00701+00271102161ADDAA106999999AA212001131AA324002731AY101031AY201031IA2999+00459KA1240M+00741KA2240N+00411MA1999999100671MD1210021-0081MW1101OC100561OD141200561327REMSYN004BUFR
0158576870999992022021312004+28120+112780FM-12+011999999V0203101N0015199999999003400199+00471+00331102311ADDAA106999999AA224002731AJ100009100000099AY101061AY201061IA2999+00429KA1240M+00741KA2240N+00411MA1999999100811MD1210141-0061MW1101OD141200461285REMSYN004BUFR
0136576870999992022021315004+28120+112780FM-12+011999999V0202811N0013199999999001300199+00311+00251102521ADDAA106999999AA212999999AA324002731IA2999+00199KA1240M+00741KA2240N+00301MA1999999101011MD1210201+0151MW1101OD141200461285REMSYN004BUFR
0152576870999992022021318004+28120+112780FM-12+011999999V0202581N0015199999999000100199+00021+00001102561ADDAA106999999AA212999999AA324002631AY141999AY201999IA2999+00059KA1240M+00741KA2240N+00011MA1999999101051MD1210041+0231MW1451OD141200431319REMSYN004BUFR
0136576870999992022021321004+28120+112780FM-12+011999999V0203061N0013199999999000100199-00091-00121102451ADDAA106999999AA212999999AA324001131IA2999-00019KA1240M+00741KA2240N-00101MA1999999100941MD1710111+0131MW1461OD141200401338REMSYN004BUFR
0158576870999992022021400004+28120+112780FM-12+011999999V0202631N0012199999999000200199-00021-00031102541ADDAA106999999AA224000091AJ199999999999999AY101121AY201121IA2999-00019KA1240M+00741KA2240N-00101MA1999999101021MD1210081+0081MW1461OD141200261316REMSYN004BUFR
0152576870999992022021403004+28120+112780FM-12+011999999V0201911N0021199999999011700199+00761+00311102511ADDAA106999999AA212999999AA324999999AY101031AY201031IA2999-00019KA1240M+00761KA2240N-00101MA1999999101011MD1710011+0041MW1001OD141200441184REMSYN004BUFR
0166576870999992022021406004+28120+112780FM-12+011999999V0201391N0022199999999017600199+00871+00251102311ADDAA106999999AA224000091AJ199999999999999AY101061AY201061IA2999-00019KA1240M+00881KA2240N-00101MA1999999100811MD1710201+0161MW1001OC100521OD141200521220REMSYN004BUFR
0160576870999992022021409004+28120+112780FM-12+011999999V0201261N0021199999999016700199+00851+00271102181ADDAA106999999AA212999999AA324999999AY101031AY201031IA2999+00009KA1240M+00901KA2240N-00101MA1999999100681MD1710131+0011MW1001OC100521OD141200521220REMSYN004BUFR
0166576870999992022021412004+28120+112780FM-12+011999999V0200831N0011199999999012300199+00771+00301102271ADDAA106999999AA224000091AJ199999999999999AY101061AY201061IA2999+00139KA1240M+00901KA2240N-00101MA1999999100771MD1210091-0041MW1001OC100521OD141200521220REMSYN004BUFR
0144576870999992022021415004+28120+112780FM-12+011999999V0203111N0012199999999010200199+00611+00391102521ADDAA106999999AA212999999AA324999999IA2999+00579KA1240M+00901KA2240N-00101MA1999999101031MD1210261+0021MW1001OC100521OD141200521220REMSYN004BUFR
0160576870999992022021418004+28120+112780FM-12+011999999V0202571N0010199999999010000199+00621+00401102541ADDAA106999999AA212999999AA324999999AY101999AY201999IA2999+00579KA1240M+00901KA2240N-00101MA1999999101051MD1210021+0001MW1001OC100511OD141200511128REMSYN004BUFR
0136576870999992022021421004+28120+112780FM-12+011999999V0203091N0031199999999006700199+00611+00381102471ADDAA106999999AA212999999AA324999999IA2999+00579KA1240M+00901KA2240N-00101MA1999999100981MD1710071+0041MW1101OD141200491313REMSYN004BUFR
0166576870999992022021500004+28120+112780FM-12+011999999V0203601N0001199999999004800199+00571+00421102491ADDAA106999999AA224000091AJ199999999999999AY101121AY201121IA2999+00559KA1240M+00901KA2240N-00021MA1999999101001MD1210021-0021MW1101OC100521OD141200521322REMSYN004BUFR
0160576870999992022021503004+28120+112780FM-12+011999999V0203341N0027199999999007800199+00771+00401102551ADDAA106999999AA212999999AA324999999AY101031AY201031IA2999+00559KA1240M+00901KA2240N+00571MA1999999101061MD1210061+0051MW1001OC100521OD141200521322REMSYN004BUFR
0166576870999992022021506004+28120+112780FM-12+011999999V0203531N0017199999999008000199+00911+00351102261ADDAA106999999AA224000091AJ199999999999999AY101061AY201061IA2999+00559KA1240M+00911KA2240N+00571MA1999999100781MD1710281-0031MW1001OC100561OD141200561332REMSYN004BUFR
0160576870999992022021509004+28120+112780FM-12+011999999V0203331N0023199999999009000199+00901+00361102071ADDAA106999999AA212999999AA324999999AY101031AY201031IA2999+00559KA1240M+00981KA2240N+00571MA1999999100591MD1710191-0091MW1001OC100561OD141200561332REMSYN004BUFR
0166576870999992022021512004+28120+112780FM-12+011999999V0202961N0022199999999004800199+00751+00421102151ADDAA106999999AA224000091AJ199999999999999AY101061AY201061IA2999+00609KA1240M+00981KA2240N+00571MA1999999100661MD1210071-0111MW1101OC100561OD141200561332REMSYN004BUFR
0144576870999992022021515004+28120+112780FM-12+011999999V0202721N0010199999999003600199+00621+00431102241ADDAA106999999AA212999999AA324999999IA2999+00609KA1240M+00981KA2240N+00571MA1999999100751MD1210091-0281MW1101OC100561OD141200561332REMSYN004BUFR
0152576870999992022021518004+28120+112780FM-12+011999999V0202601N0011199999999003600199+00651+00471102191ADDAA106999999AA212999999AA324999999AY101999AY201999IA2999+00609KA1240M+00981KA2240N+00571MA1999999100711MD1710041-0341MW1101OD141200471334REMSYN004BUFR
0136576870999992022021521004+28120+112780FM-12+011999999V0203031N0024199999999003500199+00671+00471102091ADDAA106999999AA212999999AA324999999IA2999+00609KA1240M+00981KA2240N+00571MA1999999100611MD1710101-0371MW1101OD141200471334REMSYN004BUFR
0158576870999992022021600004+28120+112780FM-12+011999999V0202521N0009199999999001700199+00621+00531102161ADDAA106000331AA224000331AJ100003100000099AY151121AY201121IA2999+00609KA1240M+00981KA2240N+00571MA1999999100671MD1210061-0331MW1601OD141200411326REMSYN004BUFR
0152576870999992022021603004+28120+112780FM-12+011999999V0200461N0004199999999002900199+00751+00611102231ADDAA106000331AA212000331AA324000331AY101031AY201031IA2999+00619KA1240M+00981KA2240N+00621MA1999999100741MD1210071-0321MW1101OD141200411326REMSYN004BUFR
0158576870999992022021606004+28120+112780FM-12+011999999V0200311N0024199999999006200199+00851+00551101951ADDAA106999999AA224000331AJ100003100000099AY101061AY201061IA2999+00619KA1240M+00981KA2240N+00621MA1999999100471MD1710271-0311MW1101OD141200411326REMSYN004BUFR
0152576870999992022021609004+28120+112780FM-12+011999999V0200051N0021199999999004900199+00811+00571101771ADDAA106999999AA212000331AA324000331AY101031AY201031IA2999+00629KA1240M+00901KA2240N+00621MA1999999100291MD1710181-0301MW1101OD141200461014REMSYN004BUFR
0166576870999992022021612004+28120+112780FM-12+011999999V0203391N0023199999999003200199+00701+00601101911ADDAA106000431AA224000731AJ100003100000099AY151061AY201061IA2999+00649KA1240M+00841KA2240N+00621MA1999999100431MD1210141-0231MW1601OC100601OD141200601317REMSYN004BUFR
0192576870999992022021615004+28120+112780FM-12+011999999V0203171N0012199999999003500199+00661+00561101971ADDAA106001031AA224001331AJ100003100001099AY161999AY201999GF108991999999999999999999IA2999+00679KA1240M+00841KA2240N+00621MA1999999100491MD1210061-0261MW1601OC100731OD141200731341REMSYN004BUFR
0166576870999992022021618004+28120+112780FM-12+011999999V0203271N0018199999999002400199+00621+00561101821ADDAA106004831AA224005531AJ100013100005099AY101999AY201999IA2999+00659KA1240M+00841KA2240N+00621MA1999999100341MD1710151-0371MW1601OC100731OD141200731341REMSYN004BUFR
0150576870999992022021621004+28120+112780FM-12+011999999V0203171N0029199999999002800199+00611+00551101821ADDAA106007131AA224008431AJ100013100008099IA2999+00649KA1240M+00841KA2240N+00611MA1999999100341MD1410001-0271MW1601OC100731OD141200731335REMSYN004BUFR
0166576870999992022021700004+28120+112780FM-12+011999999V0203321N0030199999999003500199+00601+00541101901ADDAA106004231AA224009431AJ100013100009099AY151121AY201121IA2999+00629KA1240M+00841KA2240N+00601MA1999999100421MD1210081-0251MW1601OC100761OD141200761023REMSYN004BUFR
0166576870999992022021703004+28120+112780FM-12+011999999V0203051N0043199999999004300199+00511+00441102151ADDAA106004231AA224012331AJ100013100011099AY161031AY201031IA2999+00629KA1240M+00841KA2240N+00511MA1999999100661MD1210241-0081MW1501OC100901OD141200901320REMSYN004BUFR
0166576870999992022021706004+28120+112780FM-12+011999999V0203301N0064199999999005900199+00421+00351101971ADDAA106003831AA224013231AJ100013100008099AY101061AY201061IA2999+00579KA1240M+00841KA2240N+00421MA1999999100481MD1710181+0011MW1601OC101371OD141201371331REMSYN004BUFR
0166576870999992022021709004+28120+112780FM-12+011999999V0203211N0044199999999009100199+00321+00261102051ADDAA106004631AA224016931AJ100013100009099AY151031AY201031IA2999+00479KA1240M+00811KA2240N+00331MA1999999100551MD1210071+0261MW1601OC101371OD141201371331REMSYN004BUFR
