0221576870999992018010100004+28117+112783FM-12+012099999V0202001N001019999999N011000199+00681+00091102441ADDAA106000431AA224000431GA1081+004501999GE19AGL   +99999+99999GF108991081999004501999999MA1999999100951MD1210141+9999MW1801REMSYN08857687 11461 82001 10068 20009 30095 40244 52014 69941 780// 88/// 333 05604 30042 70004=
0166576870999992018010103004+28117+112783FM-12+012099999V0209999C999999999999N008000199+00741+00331102491ADDAY181021AY281021GA1081+004501999GE19AGL   +99999+99999GF108991081999004501999999MD1210061+9999MW1801REMSYN05457687 41458 80000 10074 20033 40249 52006 78088 88///=
0227576870999992018010106004+28117+112783FM-12+012099999V0202701N001019999999N009000199+00811+00391102181ADDAA106000831AY181021AY201021GA1081+004501999GE19AGL   +99999+99999GF108991081999004501999999KA1240N+00631MA1999999100701MD1710311+9999MW1001REMSYN07657687 11459 82701 10081 20039 30070 40218 57031 69981 70080 88/// 333 20063=
0138576870999992018010109004+28117+112783FM-12+012099999V0209999C999999999999N008000199+00801+00461102131ADDGA1081+004501999GE19AGL   +99999+99999GF108991081999004501999999MD1710051+9999REMSYN04857687 32458 80000 10080 20046 40213 57005 88///=
0187576870999992018010112004+28117+112783FM-12+012099999V0209999C999999999999N007000199+00791+00481102251ADDAY101021AY201021GA1081+004501999GE19AGL   +99999+99999GF108991081999004501999999MA1999999100771MD1210121+9999MW1101REMSYN06057687 31457 80000 10079 20048 30077 40225 52012 71000 88///=
0106576870999992018010115004+28117+112783FM-12+012099999V0209999C999999999999N999999999+00781+00581102311ADDGF109991999999999999999999MD1210061+9999MW1101REMSYN04857687 31/55 90000 10078 20058 40231 52006 710//=
0153576870999992018010118004+28117+112783FM-12+012099999V0209999C99999002401WN006000199+00791+00571102251ADDAY101021AY201021GF109991999999999999999999MA1999999100771MD1710061+9999MW1101REMSYN06457687 31/56 90000 10079 20057 30077 40225 57006 71000 333 10090=
0127576870999992018010121004+28117+112783FM-12+012099999V0203201N00201002401WN006000199+00791+00501102201ADDAA124001231GF109991999999999999999999MD1710051+9999MW1101REMSYN05857687 31/56 93202 10079 20050 40220 57005 710// 333 70012=
0186576870999992018010200004+28117+112783FM-12+012099999V0203401N003019999999N008000199+00831+00451102271ADDAA124000831GA1081+004501999GE19AGL   +99999+99999GF108991081999004501999999MA1999999100791MD1210071+9999REMSYN07057687 32458 83403 10083 20045 30079 40227 52007 88/// 333 05202 70008=
0138576870999992018010203004+28117+112783FM-12+012099999V0203401N004019999999N009000199+01001+00561102401ADDGA1081+017501999GE19AGL   +99999+99999GF108991081999017501999999MD1210131+9999REMSYN04857687 32759 83404 10100 20056 40240 52013 88///=
0182576870999992018010206004+28117+112783FM-12+012099999V0203401N003019999999N007000199+00931+00571102121ADDGA1081+017501999GE19AGL   +99999+99999GF108991081999017501999999KA1240N+00771MA1999999100651MD1710271+9999REMSYN06457687 32757 83403 10093 20057 30065 40212 57027 88/// 333 20077=
0166576870999992018010209004+28117+112783FM-12+012099999V0202901N002019999999N004900199+00811+00621102141ADDAY101021AY201021GA1081+004501999GE19AGL   +99999+99999GF108991081999004501999999MD1210011+9999MW1101REMSYN05457687 31449 82902 10081 20062 40214 52001 71000 88///=
0204576870999992018010212004+28117+112783FM-12+012099999V0203401N005019999999N999999999+00701+00631102361ADDAA106000131AY161021AY201021GA1081+002501999GE19AGL   +99999+99999GF108991081999002501999999MA1999999100881MD1210221+9999MW1601REMSYN06657687 11355 83405 10070 20063 30088 40236 52022 69911 76060 88///=
0106576870999992018010215004+28117+112783FM-12+012099999V0203401N00601002401WN003800199+00661+00601102521ADDGF109991999999999999999999MD1210161+9999MW1101REMSYN04857687 41/38 93406 10066 20060 40252 52016 710//=
0170576870999992018010218004+28117+112783FM-12+012099999V0203401N00601002401WN002500199+00561+00491102611ADDAA106002031AY101021AY201021GF109991999999999999999999MA1999999101121MD1210081+9999MW1101REMSYN07057687 11/25 93406 10056 20049 30112 40261 52008 60021 71000 333 10101=
0127576870999992018010221004+28117+112783FM-12+012099999V0203401N00801002401WN002100199+00451+00391102571ADDAA124002031GF109991999999999999999999MD1710041+9999MW1101REMSYN05857687 41/21 93408 10045 20039 40257 57004 710// 333 70020=
0221576870999992018010300004+28117+112783FM-12+012099999V0203401N006019999999N002900199+00371+00301102741ADDAA106000631AA224002231GA1081+002501999GE19AGL   +99999+99999GF108991081999002501999999MA1999999101241MD1210161+9999MW1601REMSYN08857687 11329 83406 10037 20030 30124 40274 52016 69961 760// 88/// 333 00555 30041 70022=
0166576870999992018010303004+28117+112783FM-12+012099999V0203401N006019999999N002000199+00361+00301102851ADDAY161021AY261021GA1081+002501999GE19AGL   +99999+99999GF108991081999002501999999MD1210111+9999MW1601REMSYN05457687 41320 83406 10036 20030 40285 52011 76066 88///=
0227576870999992018010306004+28117+112783FM-12+012099999V0203201N007019999999N999999999+00361+00291102641ADDAA106001031AY161021AY261021GA1081+001501999GE19AGL   +99999+99999GF108991081999001501999999KA1240N+00341MA1999999101141MD1710211+9999MW1601REMSYN07657687 11255 83207 10036 20029 30114 40264 57021 60011 76066 88/// 333 20034=
0166576870999992018010309004+28117+112783FM-12+012099999V0203401N003019999999N006000199+00351+00281102661ADDAY161021AY261021GA1081+001501999GE19AGL   +99999+99999GF108991081999001501999999MD1210011+9999MW1601REMSYN05457687 41256 83403 10035 20028 40266 52001 76066 88///=
0204576870999992018010312004+28117+112783FM-12+012099999V0203401N007019999999N004600199+00271+00211102731ADDAA106001031AY161021AY261021GA1081+001501999GE19AGL   +99999+99999GF108991081999001501999999MA1999999101221MD1210071+9999MW1601REMSYN06657687 11246 83407 10027 20021 30122 40273 52007 60011 76066 88///=
0106576870999992018010315004+28117+112783FM-12+012099999V0203201N00401002401WN004700199+00191+00131102751ADDGF109991999999999999999999MD1210021+9999MW1601REMSYN04857687 41/47 93204 10019 20013 40275 52002 760//=
0170576870999992018010318004+28117+112783FM-12+012099999V0203201N00301002401WN010000199+00131+00071102671ADDAA106002031AY161021AY261021GF109991999999999999999999MA1999999101151MD1710091+9999MW1601REMSYN07057687 11/60 93203 10013 20007 30115 40267 57009 60021 76066 333 10056=
0127576870999992018010321004+28117+112783FM-12+012099999V0203401N00501002401WN010000199+00091+00021102561ADDAA124005331GF109991999999999999999999MD1710101+9999MW1601REMSYN05857687 41/60 93405 10009 20002 40256 57010 760// 333 70053=
0221576870999992018010400004+28117+112783FM-12+012099999V0203201N005019999999N009000199+00071+00001102591ADDAA106004031AA224007831GA1081+001501999GE19AGL   +99999+99999GF108991081999001501999999MA1999999101071MD1210021+9999MW1601REMSYN08857687 11259 83205 10007 20000 30107 40259 52002 60041 760// 88/// 333 05253 30011 70078=
0166576870999992018010403004+28117+112783FM-12+012099999V0203201N005019999999N008000199+00051-00021102661ADDAY161021AY261021GA1081+001501999GE19AGL   +99999+99999GF108991081999001501999999MD1210071+9999MW1601REMSYN05457687 41258 83205 10005 21002 40266 52007 76066 88///=
0227576870999992018010406004+28117+112783FM-12+012099999V0203401N006019999999N004600199+00041-00031102451ADDAA106008031AY161021AY261021GA1081+002501999GE19AGL   +99999+99999GF108991081999002501999999KA1240N+00041MA1999999100931MD1710211+9999MW1601REMSYN07657687 11346 83406 10004 21003 30093 40245 57021 60081 76066 88/// 333 20004=
0166576870999992018010409004+28117+112783FM-12+012099999V0203401N001019999999N008000199-00031-00111102581ADDAY161021AY261021GA1081+001501999GE19AGL   +99999+99999GF108991081999001501999999MD1210121+9999MW1601REMSYN05457687 41258 83401 11003 21011 40258 52012 76066 88///=
0214576870999992018010412004+28117+112783FM-12+012099999V0203201N002019999999N007000199-00021-00101102751ADDAA106004031AY161021AY261021GA1081+001501999GE19AGL   +99999+99999GF108991081999001501999999MA1999999101221MD1210171+9999MW1661REMSYN07657687 11257 83202 11002 21010 30122 40275 52017 60041 76666 88/// 333 93427=
0106576870999992018010415004+28117+112783FM-12+012099999V0202701N00401002401WN003200199-00061-00131102891ADDGF109991999999999999999999MD1210141+9999MW1661REMSYN04857687 41/32 92704 11006 21013 40289 52014 766//=
0170576870999992018010418004+28117+112783FM-12+012099999V0200401N00201002401WN003100199-00081-00151102831ADDAA106000731AY161021AY251021GF109991999999999999999999MA1999999101301MD1710061+9999MW1101REMSYN07057687 11/31 90402 11008 21015 30130 40283 57006 69971 71065 333 10013=
0127576870999992018010421004+28117+112783FM-12+012099999V0203401N00201002401WN002700199-00101-00171102791ADDAA124014631GF109991999999999999999999MD1710041+9999MW1101REMSYN05857687 31/27 93402 11010 21017 40279 57004 710// 333 70146=
0227576870999992018010500004+28117+112783FM-12+012099999V0203401N002019999999N002100199-00151-00211102851ADDAA112000731AA224011931GA1081+001501999GE19AGL   +99999+99999GF108991081999001501999999MA1999999101311MD1210051+9999MW1101REMSYN09457687 11221 83402 11015 21021 30131 40285 52005 69972 710// 88/// 333 00252 31002 70119 93429=
0166576870999992018010503004+28117+112783FM-12+012099999V0203201N002019999999N003500199-00091-00161102871ADDAY101021AY201021GA1081+004501999GE19AGL   +99999+99999GF108991081999004501999999MD1210021+9999MW1101REMSYN05457687 31435 83202 11009 21016 40287 52002 71000 88///=
0210576870999992018010506004+28117+112783FM-12+012099999V0203601N002019999999N003300199-00071-00141102481ADDAY101021AY201021GA1081+004501999GE19AGL   +99999+99999GF108991081999004501999999KA1240N-00161MA1999999100951MD1710381+9999MW1101REMSYN07057687 31433 83602 11007 21014 30095 40248 57038 71000 88/// 333 21016=
0166576870999992018010509004+28117+112783FM-12+012099999V0203601N002019999999N004300199-00041-00141102421ADDAY101021AY201021GA1081+004501999GE19AGL   +99999+99999GF108991081999004501999999MD1710061+9999MW1101REMSYN05457687 31443 83602 11004 21014 40242 57006 71000 88///=
0187576870999992018010512004+28117+112783FM-12+012099999V0203401N002019999999N003800199-00031-00111102441ADDAY101021AY201021GA1081+004501999GE19AGL   +99999+99999GF108991081999004501999999MA1999999100911MD1210021+9999MW1101REMSYN06057687 31438 83402 11003 21011 30091 40244 52002 71000 88///=
0106576870999992018010515004+28117+112783FM-12+012099999V0203401N00501002401WN002500199-00041-00111102441ADDGF109991999999999999999999MD1410001+9999MW1101REMSYN04857687 31/25 93405 11004 21011 40244 54000 710//=
0153576870999992018010518004+28117+112783FM-12+012099999V0203401N00301002401WN002100199-00021-00061102301ADDAY101021AY201021GF109991999999999999999999MA1999999100771MD1710141+9999MW1101REMSYN06457687 31/21 93403 11002 21006 30077 40230 57014 71000 333 11002=
0106576870999992018010521004+28117+112783FM-12+012099999V0203201N00501002401WN003100199-00011-00051102111ADDGF109991999999999999999999MD1710181+9999MW1101REMSYN04857687 31/31 93205 11001 21005 40211 57018 710//=
0193576870999992018010600004+28117+112783FM-12+012099999V0203401N003019999999N006000199+00001-00041102211ADDGA1081+002501999GE19AGL   +99999+99999GF108991081999002501999999MA1999999100691MD1210101+9999MW1661REMSYN08257687 31356 83403 10000 21004 30069 40221 52010 766// 88/// 333 05602 30004 93435=
0166576870999992018010603004+28117+112783FM-12+012099999V0203201N005019999999N999999999+00021-00021102311ADDAY161021AY261021GA1081+004501999GE19AGL   +99999+99999GF108991081999004501999999MD1210101+9999MW1661REMSYN05457687 31455 83205 10002 21002 40231 52010 76666 88///=
0227576870999992018010606004+28117+112783FM-12+012099999V0203401N002019999999N004900199+00031-00011101961ADDAA106000531AY161021AY261021GA1081+004501999GE19AGL   +99999+99999GF108991081999004501999999KA1240N-00071MA1999999100441MD1710351+9999MW1661REMSYN07657687 11449 83402 10003 21001 30044 40196 57035 69951 76666 88/// 333 21007=
0166576870999992018010609004+28117+112783FM-12+012099999V0203401N004019999999N004700199+00071+00031101971ADDAY161021AY261021GA1081+002501999GE19AGL   +99999+99999GF108991081999002501999999MD1210011+9999MW1601REMSYN05457687 41347 83404 10007 20003 40197 52001 76066 88///=
0204576870999992018010612004+28117+112783FM-12+012099999V0200401N002019999999N006000199+00081+00041101991ADDAA106000531AY161021AY261021GA1081+002501999GE19AGL   +99999+99999GF108991081999002501999999MA1999999100471MD1210021+9999MW1601REMSYN06657687 11356 80402 10008 20004 30047 40199 52002 69951 76066 88///=
0106576870999992018010615004+28117+112783FM-12+012099999V0203401N005019999999N999999999+00091+00031102201ADDGF109991999999999999999999MD1210211+9999MW1101REMSYN04857687 41/55 93405 10009 20003 40220 52021 710//=
0170576870999992018010618004+28117+112783FM-12+012099999V0203401N00601002401WN006000199+00091+00031102121ADDAA106001031AY101021AY201021GF109991999999999999999999MA1999999100601MD1710081+9999MW1101REMSYN07057687 11/56 93406 10009 20003 30060 40212 57008 60011 71000 333 10010=
0115576870999992018010621004+28117+112783FM-12+012099999V0203401N00801002401WN010000199+00051-00021102151ADDAA124002631GF109991999999999999999999MD1210031+9999REMSYN05257687 42/60 93408 10005 21002 40215 52003 333 70026=
0221576870999992018010700004+28117+112783FM-12+012099999V0203201N004019999999N007000199+00011-00051102321ADDAA106000631AA224002731GA1081+001501999GE19AGL   +99999+99999GF108991081999001501999999MA1999999100801MD1210171+9999MW1601REMSYN08857687 11257 83204 10001 21005 30080 40232 52017 69961 760// 88/// 333 00100 30007 70027=
0166576870999992018010703004+28117+112783FM-12+012099999V0202201N003019999999N006000199+00011-00061102451ADDAY161021AY201021GA1081+004501999GE19AGL   +99999+99999GF108991081999004501999999MD1210131+9999MW1101REMSYN05457687 41456 82203 10001 21006 40245 52013 71060 88///=
0183576870999992018010706004+28117+112783FM-12+012099999V0202901N003019999999N004000199+00001-00071102181ADDAA106000131AY161021AY201021GF100995999999999999999999KA1240N-00021MA1999999100661MD1710271+9999MW1101REMSYN07057687 11940 02903 10000 21007 30066 40218 57027 69911 71060 333 21002=
0166576870999992018010709004+28117+112783FM-12+012099999V0203401N004019999999N004900199+00041-00101102191ADDAY101021AY201021GA1081+004501999GE19AGL   +99999+99999GF108991081999004501999999MD1210011+9999MW1101REMSYN05457687 31449 83404 10004 21010 40219 52001 71000 88///=
0204576870999992018010712004+28117+112783FM-12+012099999V0203401N003019999999N002800199+00051-00051102311ADDAA106000731AY161021AY201021GA1081+001501999GE19AGL   +99999+99999GF108991081999001501999999MA1999999100791MD1210121+9999MW1601REMSYN06657687 11228 83403 10005 21005 30079 40231 52012 69971 76060 88///=
0106576870999992018010715004+28117+112783FM-12+012099999V0203401N00501002401WN002900199+00061-00031102541ADDGF109991999999999999999999MD1210231+9999MW1101REMSYN04857687 41/29 93405 10006 21003 40254 52023 710//=
0170576870999992018010718004+28117+112783FM-12+012099999V0203601N00601002401WN003900199+00051-00081102481ADDAA106004031AY101021AY201021GF109991999999999999999999MA1999999100961MD1710061+9999MW1101REMSYN07057687 11/39 93606 10005 21008 30096 40248 57006 60041 71000 333 10009=
0127576870999992018010721004+28117+112783FM-12+012099999V0203401N00601002401WN004700199+00031-00101102671ADDAA124005231GF109991999999999999999999MD1210181+9999MW1101REMSYN05857687 41/47 93406 10003 21010 40267 52018 710// 333 70052=
0221576870999992018010800004+28117+112783FM-12+012099999V0203401N006019999999N004200199+00081-00071102901ADDAA112004031AA224005131GA1081+004501999GE19AGL   +99999+99999GF108991081999004501999999MA1999999101371MD1210231+9999MW1101REMSYN08857687 11442 83406 10008 21007 30137 40290 52023 60042 710// 88/// 333 00601 30004 70051=
0166576870999992018010803004+28117+112783FM-12+012099999V0202901N002019999999N007000199+00271-00021103141ADDAY101021AY201021GA1081+004501999GE19AGL   +99999+99999GF108991081999004501999999MD1210241+9999MW1101REMSYN05457687 31457 82902 10027 21002 40314 52024 71000 88///=
0182576870999992018010806004+28117+112783FM-12+012099999V0203601N004012200019N013000199+00631-00261102811ADDGA1021+999999999GE19AGL   +99999+99999GF102991021999999999999999KA1240N+00001MA1999999101301MD1710311+9999REMSYN06457687 32963 23604 10063 21026 30130 40281 57031 82/// 333 20000=
0094576870999992018010809004+28117+112783FM-12+012099999V0203601N005019999999N019000199+00651-00581102831ADDGF100995999999999999999999MD1210021+9999REMSYN04257687 32969 03605 10065 21058 40283 52002=
0115576870999992018010812004+28117+112783FM-12+012099999V0202901N002019999999N015000199+00171-00281103111ADDGF100995999999999999999999MA1999999101581MD1210261+9999REMSYN04857687 32965 02902 10017 21028 30158 40311 52026=
0094576870999992018010815004+28117+112783FM-12+012099999V0202901N00201002401WN010000199-00031-00241103131ADDGF109991999999999999999999MD1210021+9999REMSYN04257687 32/60 92902 11003 21024 40313 52002=
0153576870999992018010818004+28117+112783FM-12+012099999V0202901N00201002401WN004700199-00151-00251103151ADDAY101021AY201021GF109991999999999999999999MA1999999101631MD1210031+9999MW1101REMSYN06457687 31/47 92902 11015 21025 30163 40315 52003 71000 333 10074=
0106576870999992018010821004+28117+112783FM-12+012099999V0202701N00101002401WN004200199-00221-00291103011ADDGF109991999999999999999999MD1710141+9999MW1101REMSYN04857687 31/42 92701 11022 21029 40301 57014 710//=
0131576870999992018010900004+28117+112783FM-12+012099999V0201101N002019999999N005000199-00251-00331103191ADDGF100995999999999999999999MA1999999101651MD1210161+9999REMSYN06457687 32950 01102 11025 21033 30165 40319 52016 333 00353 31039=
0094576870999992018010903004+28117+112783FM-12+012099999V0201101N001019999999N015000199+00611-00231103261ADDGF100995999999999999999999MD1210091+9999REMSYN04257687 32965 01101 10061 21023 40326 52009=
0138576870999992018010906004+28117+112783FM-12+012099999V0201601N002019999999N030000199+01091-00431102891ADDGF100995999999999999999999KA1240N-00301MA1999999101381MD1710361+9999REMSYN05857687 32980 01602 10109 21043 30138 40289 57036 333 21030=
0138576870999992018010909004+28117+112783FM-12+012099999V0200401N004019999999N030000199+00901-00421102851ADDGA1081+999999999GE19AGL   +99999+99999GF108991081999999999999999MD1710041+9999REMSYN04857687 32980 80404 10090 21042 40285 57004 88///=
0115576870999992018010912004+28117+112783FM-12+012099999V0202901N001019999999N020000199+00391-00251103021ADDGF100995999999999999999999MA1999999101491MD1210151+9999REMSYN04857687 32970 02901 10039 21025 30149 40302 52015=
0094576870999992018010915004+28117+112783FM-12+012099999V0202701N00201002401WN012000199+00101-00091103171ADDGF109991999999999999999999MD1210161+9999REMSYN04257687 32/62 92702 10010 21009 40317 52016=
0125576870999992018010918004+28117+112783FM-12+012099999V0203201N00201002401WN010000199-00021-00131103161ADDGF109991999999999999999999MA1999999101651MD1410001+9999REMSYN05857687 32/60 93202 11002 21013 30165 40316 54000 333 10117=
0094576870999992018010921004+28117+112783FM-12+012099999V0209999C99999002401WN008000199-00111-00221103121ADDGF109991999999999999999999MD1710041+9999REMSYN04257687 32/58 90000 11011 21022 40312 57004=
0143576870999992018011000004+28117+112783FM-12+012099999V0201101N002019999999N007000199-00101-00201103261ADDGF100995999999999999999999MA1999999101731MD1210121+9999MW1101REMSYN07057687 31957 01102 11010 21020 30173 40326 52012 710// 333 00102 31038=
0094576870999992018011003004+28117+112783FM-12+012099999V0209999C999999999999N014000199+00741+00061103421ADDGF100995999999999999999999MD1210171+9999REMSYN04257687 32964 00000 10074 20006 40342 52017=
0138576870999992018011006004+28117+112783FM-12+012099999V0200901N002019999999N030000199+01271-00201103041ADDGF100995999999999999999999KA1240N-00191MA1999999101541MD1710361+9999REMSYN05857687 32680 00902 10127 21020 30154 40304 57036 333 21019=
0094576870999992018011009004+28117+112783FM-12+012099999V0200401N002019999999N030000199+01121-00371103011ADDGF100995999999999999999999MD1710041+9999REMSYN04257687 32980 00402 10112 21037 40301 57004=
0115576870999992018011012004+28117+112783FM-12+012099999V0202901N001019999999N026000199+00601-00121103141ADDGF100995999999999999999999MA1999999101621MD1210121+9999REMSYN04857687 32976 02901 10060 21012 30162 40314 52012=
0094576870999992018011015004+28117+112783FM-12+012099999V0209999C99999002401WN015000199+00361-00121103221ADDGF109991999999999999999999MD1210091+9999REMSYN04257687 32/65 90000 10036 21012 40322 52009=
0125576870999992018011018004+28117+112783FM-12+012099999V0202901N00201002401WN014000199+00141-00071103171ADDGF109991999999999999999999MA1999999101671MD1710041+9999REMSYN05857687 32/64 92902 10014 21007 30167 40317 57004 333 10132=
0094576870999992018011021004+28117+112783FM-12+012099999V0209999C99999002401WN012000199+00061-00131103111ADDGF109991999999999999999999MD1710061+9999REMSYN04257687 32/62 90000 10006 21013 40311 57006=
0187576870999992018011100004+28117+112783FM-12+012099999V0209999C999999999999N007000199-00011-00121103311ADDGA1071+022501999GE19AGL   +99999+99999GF107991071999022501999999MA1999999101791MD1210181+9999MW1101REMSYN07657687 31857 70000 11001 21012 30179 40331 52018 710// 87/// 333 00101 31024=
0138576870999992018011103004+28117+112783FM-12+012099999V0201401N001019999999N019000199+00771-00261103391ADDGA1071+999999999GE19AGL   +99999+99999GF107991071999999999999999MD1210091+9999REMSYN04857687 32969 71401 10077 21026 40339 52009 87///=
0182576870999992018011106004+28117+112783FM-12+012099999V0200701N004019999999N030000199+01161-00781103161ADDGA1071+999999999GE19AGL   +99999+99999GF107991071999999999999999KA1240N-00081MA1999999101661MD1710221+9999REMSYN06457687 32980 70704 10116 21078 30166 40316 57022 87/// 333 21008=
0094576870999992018011109004+28117+112783FM-12+012099999V0203401N004019999999N030000199+01081-00701103191ADDGF100995999999999999999999MD1210021+9999REMSYN04257687 32980 03404 10108 21070 40319 52002=
0115576870999992018011112004+28117+112783FM-12+012099999V0202901N001019999999N028000199+00641-00351103371ADDGF100995999999999999999999MA1999999101851MD1210171+9999REMSYN04857687 32978 02901 10064 21035 30185 40337 52017=
0094576870999992018011115004+28117+112783FM-12+012099999V0202701N00201002401WN021000199+00541-00391103471ADDGF109991999999999999999999MD1210121+9999REMSYN04257687 32/71 92702 10054 21039 40347 52012=
0125576870999992018011118004+28117+112783FM-12+012099999V0202701N00101002401WN019000199+00231-00281103391ADDGF109991999999999999999999MA1999999101891MD1710081+9999REMSYN05857687 32/69 92701 10023 21028 30189 40339 57008 333 10124=
0094576870999992018011121004+28117+112783FM-12+012099999V0202901N00201002401WN014000199+00101-00241103401ADDGF109991999999999999999999MD1410001+9999REMSYN04257687 32/64 92902 10010 21024 40340 54000=
0131576870999992018011200004+28117+112783FM-12+012099999V0202901N001019999999N011000199-00041-00231103501ADDGF100995999999999999999999MA1999999101981MD1210091+9999REMSYN06457687 32961 02901 11004 21023 30198 40350 52009 333 00200 31031=
0138576870999992018011203004+28117+112783FM-12+012099999V0200901N001019999999N020000199+00731-00271103551ADDGA1061+999999999GE19AGL   +99999+99999GF106991061999999999999999MD1210061+9999REMSYN04857687 32970 60901 10073 21027 40355 52006 86///=
0182576870999992018011206004+28117+112783FM-12+012099999V0201801N001019999999N030000199+01031-00611103131ADDGA1071+999999999GE19AGL   +99999+99999GF107991071999999999999999KA1240N-00051MA1999999101631MD1710411+9999REMSYN06457687 32980 71801 10103 21061 30163 40313 57041 87/// 333 21005=
0138576870999992018011209004+28117+112783FM-12+012099999V0200701N002012200019N030000199+01001-00631103001ADDGA1011+999999999GE19AGL   +99999+99999GF101991011999999999999999MD1710131+9999REMSYN04857687 32980 10702 10100 21063 40300 57013 81///=
0115576870999992018011212004+28117+112783FM-12+012099999V0202901N001019999999N019000199+00461-00291103081ADDGF100995999999999999999999MA1999999101561MD1210061+9999REMSYN04857687 32969 02901 10046 21029 30156 40308 52006=
0094576870999992018011215004+28117+112783FM-12+012099999V0200901N00201002401WN017000199+00551-00611103221ADDGF109991999999999999999999MD1210161+9999REMSYN04257687 32/67 90902 10055 21061 40322 52016=
0125576870999992018011218004+28117+112783FM-12+012099999V0209999C99999002401WN025000199+00371-00741103121ADDGF109991999999999999999999MA1999999101621MD1710101+9999REMSYN05857687 32/75 90000 10037 21074 30162 40312 57010 333 10110=
0094576870999992018011221004+28117+112783FM-12+012099999V0201401N00101002401WN026000199+00281-00561103011ADDGF109991999999999999999999MD1710111+9999REMSYN04257687 32/76 91401 10028 21056 40301 57011=
0175576870999992018011300004+28117+112783FM-12+012099999V0201401N002019999999N021000199+00241-00551103091ADDGA1071+999999999GE19AGL   +99999+99999GF107991071999999999999999MA1999999101571MD1210061+9999REMSYN07057687 32971 71402 10024 21055 30157 40309 52006 87/// 333 05403 31017=
0138576870999992018011303004+28117+112783FM-12+012099999V0201601N002019999999N022000199+00511-00501103091ADDGA1071+999999999GE19AGL   +99999+99999GF107991071999999999999999MD1210011+9999REMSYN04857687 32972 71602 10051 21050 40309 52001 87///=
0182576870999992018011306004+28117+112783FM-12+012099999V0201601N001019999999N026000199+00691-00581102781ADDGA1081+999999999GE19AGL   +99999+99999GF108991081999999999999999KA1240N+00111MA1999999101281MD1710301+9999REMSYN06457687 32976 81601 10069 21058 30128 40278 57030 88/// 333 20011=
0138576870999992018011309004+28117+112783FM-12+012099999V0203401N001019999999N022000199+00671-00441102701ADDGA1081+999999999GE19AGL   +99999+99999GF108991081999999999999999MD1710081+9999REMSYN04857687 32972 83401 10067 21044 40270 57008 88///=
0159576870999992018011312004+28117+112783FM-12+012099999V0203201N001019999999N013000199+00491-00151102771ADDGA1081+999999999GE19AGL   +99999+99999GF108991081999999999999999MA1999999101261MD1210061+9999REMSYN05457687 32963 83201 10049 21015 30126 40277 52006 88///=
0094576870999992018011315004+28117+112783FM-12+012099999V0202901N00101002401WN014000199+00431-00051102761ADDGF109991999999999999999999MD1410001+9999REMSYN04257687 32/64 92901 10043 21005 40276 54000=
0125576870999992018011318004+28117+112783FM-12+012099999V0209999C99999002401WN015000199+00461-00231102721ADDGF109991999999999999999999MA1999999101221MD1710041+9999REMSYN05857687 32/65 90000 10046 21023 30122 40272 57004 333 10070=
0094576870999992018011321004+28117+112783FM-12+012099999V0209999C99999002401WN016000199+00441-00121102541ADDGF109991999999999999999999MD1710181+9999REMSYN04257687 32/66 90000 10044 21012 40254 57018=
0175576870999992018011400004+28117+112783FM-12+012099999V0202201N001019999999N017000199+00501-00191102651ADDGA1081+999999999GE19AGL   +99999+99999GF108991081999999999999999MA1999999101151MD1210111+9999REMSYN07057687 32967 82201 10050 21019 30115 40265 52011 88/// 333 05403 30038=
0138576870999992018011403004+28117+112783FM-12+012099999V0201601N003019999999N017000199+00811-00171102681ADDGA1081+999999999GE19AGL   +99999+99999GF108991081999999999999999MD1210031+9999REMSYN04857687 32967 81603 10081 21017 40268 52003 88///=
0182576870999992018011406004+28117+112783FM-12+012099999V0201601N002019999999N022000199+01051-00321102301ADDGA1081+999999999GE19AGL   +99999+99999GF108991081999999999999999KA1240N+00401MA1999999100821MD1710361+9999REMSYN06457687 32972 81602 10105 21032 30082 40230 57036 88/// 333 20040=
0138576870999992018011409004+28117+112783FM-12+012099999V0201401N002019999999N022000199+01031-00201102191ADDGA1051+999999999GE19AGL   +99999+99999GF105991051999999999999999MD1710111+9999REMSYN04857687 32972 51402 10103 21020 40219 57011 85///=
0159576870999992018011412004+28117+112783FM-12+012099999V0201101N001012200019N020000199+00751-00151102261ADDGA1011+999999999GE19AGL   +99999+99999GF101991011999999999999999MA1999999100771MD1210061+9999REMSYN05457687 32970 11101 10075 21015 30077 40226 52006 81///=
0094576870999992018011415004+28117+112783FM-12+012099999V0201801N00201002401WN015000199+00711-00041102311ADDGF109991999999999999999999MD1210061+9999REMSYN04257687 32/65 91802 10071 21004 40231 52006=
0125576870999992018011418004+28117+112783FM-12+012099999V0201601N00201002401WN018000199+00841-00041102211ADDGF109991999999999999999999MA1999999100741MD1710091+9999REMSYN05857687 32/68 91602 10084 21004 30074 40221 57009 333 10110=
0094576870999992018011421004+28117+112783FM-12+012099999V0201401N00101002401WN016000199+00751+00071102121ADDGF109991999999999999999999MD1710091+9999REMSYN04257687 32/66 91401 10075 20007 40212 57009=
0175576870999992018011500004+28117+112783FM-12+012099999V0209999C999999999999N014000199+00771+00091102211ADDGA1081+017501999GE19AGL   +99999+99999GF108991081999017501999999MA1999999100731MD1210081+9999REMSYN07057687 32764 80000 10077 20009 30073 40221 52008 88/// 333 05403 30037=
0138576870999992018011503004+28117+112783FM-12+012099999V0201101N003019999999N015000199+01001+00241102131ADDGA1081+022501999GE19AGL   +99999+99999GF108991081999022501999999MD1710071+9999REMSYN04857687 32865 81103 10100 20024 40213 57007 88///=
0182576870999992018011506004+28117+112783FM-12+012099999V0209999C999999999999N026000199+01351+00021101781ADDGA1081+017501999GE19AGL   +99999+99999GF108991081999017501999999KA1240N+00671MA1999999100321MD1710341+9999REMSYN06457687 32776 80000 10135 20002 30032 40178 57034 88/// 333 20067=
0138576870999992018011509004+28117+112783FM-12+012099999V0209999C999999999999N019000199+01291+00161101671ADDGA1081+017501999GE19AGL   +99999+99999GF108991081999017501999999MD1710111+9999REMSYN04857687 32769 80000 10129 20016 40167 57011 88///=
0159576870999992018011512004+28117+112783FM-12+012099999V0209999C999999999999N016000199+01101+00351101781ADDGA1081+017501999GE19AGL   +99999+99999GF108991081999017501999999MA1999999100311MD1210101+9999REMSYN05457687 32766 80000 10110 20035 30031 40178 52010 88///=
0094576870999992018011515004+28117+112783FM-12+012099999V0203201N00301002401WN013000199+00981+00351101881ADDGF109991999999999999999999MD1210111+9999REMSYN04257687 32/63 93203 10098 20035 40188 52011=
0125576870999992018011518004+28117+112783FM-12+012099999V0202901N00601002401WN010000199+00791+00431101881ADDGF109991999999999999999999MA1999999100421MD1410001+9999REMSYN05857687 32/60 92906 10079 20043 30042 40188 54000 333 10136=
0106576870999992018011521004+28117+112783FM-12+012099999V0203201N00401002401WN004800199+00681+00511101771ADDGF109991999999999999999999MD1710111+9999MW1101REMSYN04857687 31/48 93204 10068 20051 40177 57011 710//=
0215576870999992018011600004+28117+112783FM-12+012099999V0203201N004019999999N002500199+00611+00521102001ADDAA106000431AA224000431GA1081+002501999GE19AGL   +99999+99999GF108991081999002501999999MA1999999100531MD1210221+9999MW1601REMSYN08257687 11325 83204 10061 20052 30053 40200 52022 69941 760// 88/// 333 05252 70004=
0166576870999992018011603004+28117+112783FM-12+012099999V0203201N003019999999N002700199+00621+00561102161ADDAY161021AY261021GA1081+002501999GE19AGL   +99999+99999GF108991081999002501999999MD1210151+9999MW1601REMSYN05457687 41327 83203 10062 20056 40216 52015 76066 88///=
0227576870999992018011606004+28117+112783FM-12+012099999V0203401N002019999999N999999999+00681+00611101891ADDAA106000531AY161021AY201021GA1081+002501999GE19AGL   +99999+99999GF108991081999002501999999KA1240N+00591MA1999999100411MD1710271+9999MW1101REMSYN07657687 11355 83402 10068 20061 30041 40189 57027 69951 71060 88/// 333 20059=
0166576870999992018011609004+28117+112783FM-12+012099999V0209999C999999999999N003800199+00701+00581101851ADDAY101021AY201021GA1081+002501999GE19AGL   +99999+99999GF108991081999002501999999MD1710041+9999MW1101REMSYN05457687 31338 80000 10070 20058 40185 57004 71000 88///=
0187576870999992018011612004+28117+112783FM-12+012099999V0203201N001019999999N002300199+00661+00571101971ADDAY101021AY201021GA1081+002501999GE19AGL   +99999+99999GF108991081999002501999999MA1999999100491MD1210121+9999MW1101REMSYN06057687 31323 83201 10066 20057 30049 40197 52012 71000 88///=
0094576870999992018011615004+28117+112783FM-12+012099999V0202701N00101000301WN000100199+00441+00381102091ADDGF109991999999999999999999MD1210111+9999REMSYN04257687 32/01 92701 10044 20038 40209 52011=
0125576870999992018011618004+28117+112783FM-12+012099999V0209999C99999000601WN000300199+00501+00461102021ADDGF109991999999999999999999MA1999999100531MD1710071+9999REMSYN05857687 32/03 90000 10050 20046 30053 40202 57007 333 10079=
0127576870999992018011621004+28117+112783FM-12+012099999V0201401N00101002401WN001500199+00501+00461101971ADDAA124000931GF109991999999999999999999MD1710051+9999MW1101REMSYN05857687 31/15 91401 10050 20046 40197 57005 710// 333 70009=
0204576870999992018011700004+28117+112783FM-12+012099999V0201601N002019999999N003800199+00551+00511102011ADDAA124000531GA1081+017501999GE19AGL   +99999+99999GF108991081999017501999999MA1999999100521MD1210041+9999MW1101REMSYN08257687 31738 81602 10055 20051 30052 40201 52004 710// 88/// 333 00051 30023 70005=
0166576870999992018011703004+28117+112783FM-12+012099999V0201801N003019999999N004100199+00651+00511102101ADDAY101021AY201021GA1081+017501999GE19AGL   +99999+99999GF108991081999017501999999MD1210091+9999MW1101REMSYN05457687 31741 81803 10065 20051 40210 52009 71000 88///=
0210576870999992018011706004+28117+112783FM-12+012099999V0209999C999999999999N004800199+00811+00561101811ADDAY101021AY201021GA1081+017501999GE19AGL   +99999+99999GF108991081999017501999999KA1240N+00431MA1999999100331MD1710281+9999MW1101REMSYN07057687 31748 80000 10081 20056 30033 40181 57028 71000 88/// 333 20043=
0094576870999992018011709004+28117+112783FM-12+012099999V0201401N001019999999N008000199+01021+00561101631ADDGF100995999999999999999999MD1710171+9999REMSYN04257687 32958 01401 10102 20056 40163 57017=
0187576870999992018011712004+28117+112783FM-12+012099999V0203201N003012200019N003900199+00651+00531101751ADDAY101021AY201021GA1021+999999999GE19AGL   +99999+99999GF102991021999999999999999MA1999999100271MD1210111+9999MW1101REMSYN06057687 31939 23203 10065 20053 30027 40175 52011 71000 82///=
0106576870999992018011715004+28117+112783FM-12+012099999V0202701N003019999999N999999999+00791+00571101991ADDGF109991999999999999999999MD1210241+9999MW1101REMSYN04857687 31/55 92703 10079 20057 40199 52024 710//=
0153576870999992018011718004+28117+112783FM-12+012099999V0203401N00601002401WN003400199+00711+00601102091ADDAY101021AY201021GF109991999999999999999999MA1999999100611MD1210101+9999MW1101REMSYN06457687 31/34 93406 10071 20060 30061 40209 52010 71000 333 10110=
0106576870999992018011721004+28117+112783FM-12+012099999V0203401N00701002401WN003200199+00661+00541102071ADDGF109991999999999999999999MD1710011+9999MW1101REMSYN04857687 31/32 93407 10066 20054 40207 57001 710//=
0187576870999992018011800004+28117+112783FM-12+012099999V0203201N004019999999N003700199+00661+00511102251ADDGA1081+017501999GE19AGL   +99999+99999GF108991081999017501999999MA1999999100761MD1210161+9999MW1101REMSYN07657687 31737 83204 10066 20051 30076 40225 52016 710// 88/// 333 00201 30044=
0166576870999992018011803004+28117+112783FM-12+012099999V0203401N004019999999N999999999+00751+00511102361ADDAY101021AY201021GA1081+022501999GE19AGL   +99999+99999GF108991081999022501999999MD1210121+9999MW1101REMSYN05457687 31855 83404 10075 20051 40236 52012 71000 88///=
0210576870999992018011806004+28117+112783FM-12+012099999V0203601N004019999999N006000199+00871+00511102111ADDAY101021AY201021GA1071+022501999GE19AGL   +99999+99999GF107991071999022501999999KA1240N+00601MA1999999100631MD1710251+9999MW1101REMSYN07057687 31856 73604 10087 20051 30063 40211 57025 71000 87/// 333 20060=
0166576870999992018011809004+28117+112783FM-12+012099999V0203401N005019999999N006000199+00871+00491102141ADDAY101021AY201021GA1081+017501999GE19AGL   +99999+99999GF108991081999017501999999MD1210031+9999MW1101REMSYN05457687 31756 83405 10087 20049 40214 52003 71000 88///=
0187576870999992018011812004+28117+112783FM-12+012099999V0203201N005019999999N999999999+00731+00411102341ADDAY101021AY201021GA1081+017501999GE19AGL   +99999+99999GF108991081999017501999999MA1999999100851MD1210191+9999MW1101REMSYN06057687 31755 83205 10073 20041 30085 40234 52019 71000 88///=
0106576870999992018011815004+28117+112783FM-12+012099999V0203401N00401002401WN004100199+00651+00421102511ADDGF109991999999999999999999MD1210171+9999MW1101REMSYN04857687 31/41 93404 10065 20042 40251 52017 710//=
0153576870999992018011818004+28117+112783FM-12+012099999V0203401N00301002401WN003400199+00581+00351102551ADDAY101021AY201021GF109991999999999999999999MA1999999101061MD1210041+9999MW1101REMSYN06457687 31/34 93403 10058 20035 30106 40255 52004 71000 333 10091=
0106576870999992018011821004+28117+112783FM-12+012099999V0203401N00501002401WN003300199+00551+00301102521ADDGF109991999999999999999999MD1710031+9999MW1101REMSYN04857687 31/33 93405 10055 20030 40252 57003 710//=
0181576870999992018011900004+28117+112783FM-12+012099999V0203201N003019999999N002700199+00541+00311102681ADDGA1081+017501999GE19AGL   +99999+99999GF108991081999017501999999MA1999999101191MD1210161+9999MW1101REMSYN07057687 31727 83203 10054 20031 30119 40268 52016 710// 88/// 333 00451=
0166576870999992018011903004+28117+112783FM-12+012099999V0203201N004019999999N002800199+00581+00301102771ADDAY101021AY201021GA1081+017501999GE19AGL   +99999+99999GF108991081999017501999999MD1210081+9999MW1101REMSYN05457687 31728 83204 10058 20030 40277 52008 71000 88///=
0210576870999992018011906004+28117+112783FM-12+012099999V0203201N001019999999N003600199+00701+00311102421ADDAY101021AY201021GA1081+022501999GE19AGL   +99999+99999GF108991081999022501999999KA1240N+00531MA1999999100931MD1710341+9999MW1101REMSYN07057687 31836 83201 10070 20031 30093 40242 57034 71000 88/// 333 20053=
0166576870999992018011909004+28117+112783FM-12+012099999V0203401N002019999999N003700199+00631+00281102381ADDAY101021AY201021GA1081+017501999GE19AGL   +99999+99999GF108991081999017501999999MD1710041+9999MW1101REMSYN05457687 31737 83402 10063 20028 40238 57004 71000 88///=
0187576870999992018011912004+28117+112783FM-12+012099999V0203401N001019999999N003200199+00561+00281102411ADDAY101021AY201021GA1081+022501999GE19AGL   +99999+99999GF108991081999022501999999MA1999999100921MD1210031+9999MW1101REMSYN06057687 31832 83401 10056 20028 30092 40241 52003 71000 88///=
0106576870999992018011915004+28117+112783FM-12+012099999V0203401N00101002401WN004000199+00581+00211102481ADDGF109991999999999999999999MD1210071+9999MW1101REMSYN04857687 31/40 93401 10058 20021 40248 52007 710//=
0153576870999992018011918004+28117+112783FM-12+012099999V0209999C99999002401WN004700199+00591+00221102401ADDAY101021AY201021GF109991999999999999999999MA1999999100911MD1710081+9999MW1101REMSYN06457687 31/47 90000 10059 20022 30091 40240 57008 71000 333 10074=
0106576870999992018011921004+28117+112783FM-12+012099999V0209999C99999002401WN004700199+00591+00241102291ADDGF109991999999999999999999MD1710111+9999MW1101REMSYN04857687 31/47 90000 10059 20024 40229 57011 710//=
0181576870999992018012000004+28117+112783FM-12+012099999V0209999C999999999999N004800199+00591+00251102281ADDGA1071+022501999GE19AGL   +99999+99999GF107991071999022501999999MA1999999100791MD1710011+9999MW1101REMSYN07057687 31848 70000 10059 20025 30079 40228 57001 710// 87/// 333 05401=
0138576870999992018012003004+28117+112783FM-12+012099999V0203401N002019999999N010000199+00751+00141102371ADDGA1081+022501999GE19AGL   +99999+99999GF108991081999022501999999MD1210091+9999REMSYN04857687 32860 83402 10075 20014 40237 52009 88///=
0210576870999992018012006004+28117+112783FM-12+012099999V0203201N004019999999N006000199+00741+00331102081ADDAY101021AY201021GA1081+022501999GE19AGL   +99999+99999GF108991081999022501999999KA1240N+00541MA1999999100601MD1710281+9999MW1101REMSYN07057687 31856 83204 10074 20033 30060 40208 57028 71000 88/// 333 20054=
0138576870999992018012009004+28117+112783FM-12+012099999V0203401N004019999999N008000199+00641+00281102061ADDGA1081+017501999GE19AGL   +99999+99999GF108991081999017501999999MD1710031+9999REMSYN04857687 32758 83404 10064 20028 40206 57003 88///=
0204576870999992018012012004+28117+112783FM-12+012099999V0203401N003019999999N006000199+00551+00371102211ADDAA106000021AY161021AY201021GA1081+004501999GE19AGL   +99999+99999GF108991081999004501999999MA1999999100721MD1210151+9999MW1211REMSYN06657687 11456 83403 10055 20037 30072 40221 52015 69901 72160 88///=
0106576870999992018012015004+28117+112783FM-12+012099999V0203201N00301002401WN003900199+00541+00451102271ADDGF109991999999999999999999MD1210061+9999MW1101REMSYN04857687 41/39 93203 10054 20045 40227 52006 710//=
0170576870999992018012018004+28117+112783FM-12+012099999V0203201N00301002401WN005000199+00561+00441102211ADDAA106000431AY101021AY201021GF109991999999999999999999MA1999999100721MD1710061+9999MW1101REMSYN07057687 11/50 93203 10056 20044 30072 40221 57006 69941 71000 333 10087=
0127576870999992018012021004+28117+112783FM-12+012099999V0203201N00401002401WN002000199+00531+00471101991ADDAA124000931GF109991999999999999999999MD1710221+9999MW1101REMSYN05857687 41/20 93204 10053 20047 40199 57022 710// 333 70009=
0215576870999992018012100004+28117+112783FM-12+012099999V0202901N003019999999N003300199+00521+00481102091ADDAA106006031AA224006831GA1081+002501999GE19AGL   +99999+99999GF108991081999002501999999MA1999999100601MD1210101+9999MW1601REMSYN08257687 11333 82903 10052 20048 30060 40209 52010 60061 760// 88/// 333 05251 70068=
0166576870999992018012103004+28117+112783FM-12+012099999V0202901N003019999999N002800199+00531+00491102221ADDAY161021AY261021GA1081+002501999GE19AGL   +99999+99999GF108991081999002501999999MD1210131+9999MW1601REMSYN05457687 41328 82903 10053 20049 40222 52013 76066 88///=
0227576870999992018012106004+28117+112783FM-12+012099999V0203401N004019999999N999999999+00501+00441102021ADDAA106006031AY161021AY261021GA1081+002501999GE19AGL   +99999+99999GF108991081999002501999999KA1240N+00491MA1999999100531MD1710201+9999MW1601REMSYN07657687 11355 83404 10050 20044 30053 40202 57020 60061 76066 88/// 333 20049=
0166576870999992018012109004+28117+112783FM-12+012099999V0203401N002019999999N007000199+00561+00461102051ADDAY161021AY201021GA1081+002501999GE19AGL   +99999+99999GF108991081999002501999999MD1210031+9999MW1101REMSYN05457687 41357 83402 10056 20046 40205 52003 71060 88///=
0204576870999992018012112004+28117+112783FM-12+012099999V0203201N001019999999N999999999+00571+00481102211ADDAA106000021AY161021AY201021GA1081+002501999GE19AGL   +99999+99999GF108991081999002501999999MA1999999100721MD1210161+9999MW1101REMSYN06657687 11355 83201 10057 20048 30072 40221 52016 69901 71060 88///=
0106576870999992018012115004+28117+112783FM-12+012099999V0209999C99999002401WN004600199+00571+00511102261ADDGF109991999999999999999999MD1210051+9999MW1101REMSYN04857687 31/46 90000 10057 20051 40226 52005 710//=
0153576870999992018012118004+28117+112783FM-12+012099999V0209999C99999002401WN003200199+00421+00351102201ADDAY101021AY201021GF109991999999999999999999MA1999999100701MD1710071+9999MW1101REMSYN06457687 31/32 90000 10042 20035 30070 40220 57007 71000 333 10058=
0115576870999992018012121004+28117+112783FM-12+012099999V0209999C99999002401WN001100199+00411+00371102111ADDAA124011431GF109991999999999999999999MD1710081+9999REMSYN05257687 32/11 90000 10041 20037 40211 57008 333 70114=
0204576870999992018012200004+28117+112783FM-12+012099999V0209999C999999999999N000900199+00421+00381102201ADDAA124005531GA1081+002501999GE19AGL   +99999+99999GF108991081999002501999999MA1999999100711MD1210091+9999MW1101REMSYN08257687 31309 80000 10042 20038 30071 40220 52009 710// 88/// 333 00151 30014 70055=
0138576870999992018012203004+28117+112783FM-12+012099999V0201601N002019999999N012000199+00691+00421102161ADDGA1081+004501999GE19AGL   +99999+99999GF108991081999004501999999MD1710041+9999REMSYN04857687 32462 81602 10069 20042 40216 57004 88///=
0182576870999992018012206004+28117+112783FM-12+012099999V0201601N003019999999N011000199+00841+00401101781ADDGA1081+004501999GE19AGL   +99999+99999GF108991081999004501999999KA1240N+00331MA1999999100301MD1710371+9999REMSYN06457687 32461 81603 10084 20040 30030 40178 57037 88/// 333 20033=
0138576870999992018012209004+28117+112783FM-12+012099999V0201601N002019999999N011000199+00841+00461101771ADDGA1071+022501999GE19AGL   +99999+99999GF107991071999022501999999MD1710011+9999REMSYN04857687 32861 71602 10084 20046 40177 57001 87///=
0159576870999992018012212004+28117+112783FM-12+012099999V0201101N001012200019N008000199+00741+00541101961ADDGA1021+999999999GE19AGL   +99999+99999GF102991021999999999999999MA1999999100471MD1210181+9999REMSYN05457687 32958 21101 10074 20054 30047 40196 52018 82///=
0106576870999992018012215004+28117+112783FM-12+012099999V0209999C99999002401WN006000199+00631+00541102041ADDGF109991999999999999999999MD1210091+9999MW1101REMSYN04857687 31/56 90000 10063 20054 40204 52009 710//=
0125576870999992018012218004+28117+112783FM-12+012099999V0209999C99999002401WN008000199+00651+00581101961ADDGF109991999999999999999999MA1999999100481MD1710081+9999REMSYN05857687 32/58 90000 10065 20058 30048 40196 57008 333 10092=
0094576870999992018012221004+28117+112783FM-12+012099999V0209999C99999002401WN009000199+00691+00631102011ADDGF109991999999999999999999MD1210051+9999REMSYN04257687 32/59 90000 10069 20063 40201 52005=
0175576870999992018012300004+28117+112783FM-12+012099999V0202701N002019999999N007000199+00731+00621102091ADDGA1081+017501999GE19AGL   +99999+99999GF108991081999017501999999MA1999999100611MD1210081+9999REMSYN07057687 32757 82702 10073 20062 30061 40209 52008 88/// 333 05103 30036=
0138576870999992018012303004+28117+112783FM-12+012099999V0203601N002019999999N015000199+00901+00591102241ADDGA1081+008001999GE19AGL   +99999+99999GF108991081999008001999999MD1210151+9999REMSYN04857687 32565 83602 10090 20059 40224 52015 88///=
0210576870999992018012306004+28117+112783FM-12+012099999V0203401N004019999999N005000199+00821+00621102031ADDAY101021AY201021GA1081+004501999GE19AGL   +99999+99999GF108991081999004501999999KA1240N+00561MA1999999100551MD1710211+9999MW1101REMSYN07057687 31450 83404 10082 20062 30055 40203 57021 71000 88/// 333 20056=
0166576870999992018012309004+28117+112783FM-12+012099999V0202901N004019999999N003300199+00681+00531101981ADDAY101021AY201021GA1081+002501999GE19AGL   +99999+99999GF108991081999002501999999MD1710051+9999MW1101REMSYN05457687 31333 82904 10068 20053 40198 57005 71000 88///=
0187576870999992018012312004+28117+112783FM-12+012099999V0203401N004019999999N001700199+00541+00481102101ADDAY101021AY201021GA1081+002501999GE19AGL   +99999+99999GF108991081999002501999999MA1999999100611MD1210111+9999MW1101REMSYN06057687 31317 83404 10054 20048 30061 40210 52011 71000 88///=
0106576870999992018012315004+28117+112783FM-12+012099999V0203201N00401002401WN003000199+00441+00381102201ADDGF109991999999999999999999MD1210101+9999MW1101REMSYN04857687 31/30 93204 10044 20038 40220 52010 710//=
0153576870999992018012318004+28117+112783FM-12+012099999V0203201N00601002401WN002800199+00281+00221102181ADDAY101021AY201021GF109991999999999999999999MA1999999100691MD1710021+9999MW1101REMSYN06457687 31/28 93206 10028 20022 30069 40218 57002 71000 333 10092=
0127576870999992018012321004+28117+112783FM-12+012099999V0203201N00701002401WN004000199+00191+00121102201ADDAA124000531GF109991999999999999999999MD1210011+9999MW1101REMSYN05857687 41/40 93207 10019 20012 40220 52001 710// 333 70005=
0221576870999992018012400004+28117+112783FM-12+012099999V0203401N006019999999N007000199+00151+00091102251ADDAA106003031AA224003031GA1081+002501999GE19AGL   +99999+99999GF108991081999002501999999MA1999999100751MD1210051+9999MW1211REMSYN08857687 11357 83406 10015 20009 30075 40225 52005 60031 721// 88/// 333 00156 30020 70030=
0166576870999992018012403004+28117+112783FM-12+012099999V0203401N008019999999N004700199+00151+00091102251ADDAY161021AY201021GA1081+002501999GE19AGL   +99999+99999GF108991081999002501999999MD1710011+9999MW1601REMSYN05457687 41347 83408 10015 20009 40225 57001 76060 88///=
0227576870999992018012406004+28117+112783FM-12+012099999V0203201N007019999999N008000199+00141+00081101931ADDAA106002031AY161021AY201021GA1081+001501999GE19AGL   +99999+99999GF108991081999001501999999KA1240N+00131MA1999999100421MD1710321+9999MW1601REMSYN07657687 11258 83207 10014 20008 30042 40193 57032 60021 76060 88/// 333 20013=
0166576870999992018012409004+28117+112783FM-12+012099999V0203201N005019999999N006000199+00131+00071101891ADDAY161021AY261021GA1081+001501999GE19AGL   +99999+99999GF108991081999001501999999MD1710041+9999MW1601REMSYN05457687 41256 83205 10013 20007 40189 57004 76066 88///=
0204576870999992018012412004+28117+112783FM-12+012099999V0203201N004019999999N006000199+00131+00071101921ADDAA106000231AY161021AY261021GA1081+001501999GE19AGL   +99999+99999GF108991081999001501999999MA1999999100411MD1210031+9999MW1601REMSYN06657687 11256 83204 10013 20007 30041 40192 52003 69921 76066 88///=
0106576870999992018012415004+28117+112783FM-12+012099999V0203401N00801002401WN008000199+00141+00081102001ADDGF109991999999999999999999MD1210081+9999MW1601REMSYN04857687 41/58 93408 10014 20008 40200 52008 760//=
0170576870999992018012418004+28117+112783FM-12+012099999V0203401N00601002401WN008000199+00121+00061102041ADDAA106003031AY161021AY261021GF109991999999999999999999MA1999999100531MD1210041+9999MW1601REMSYN07057687 11/58 93406 10012 20006 30053 40204 52004 60031 76066 333 10028=
0127576870999992018012421004+28117+112783FM-12+012099999V0203201N00401002401WN006000199+00061+00001102041ADDAA124009831GF109991999999999999999999MD1410001+9999MW1601REMSYN05857687 41/56 93204 10006 20000 40204 54000 760// 333 70098=
0221576870999992018012500004+28117+112783FM-12+012099999V0203401N007019999999N008000199+00001-00071102231ADDAA106003031AA224008631GA1081+001501999GE19AGL   +99999+99999GF108991081999001501999999MA1999999100711MD1210181+9999MW1661REMSYN08857687 11258 83407 10000 21007 30071 40223 52018 60031 766// 88/// 333 00052 30003 70086=
0166576870999992018012503004+28117+112783FM-12+012099999V0203401N005019999999N007000199-00021-00101102481ADDAY161021AY261021GA1081+001501999GE19AGL   +99999+99999GF108991081999001501999999MD1210251+9999MW1661REMSYN05457687 41257 83405 11002 21010 40248 52025 76666 88///=
0233576870999992018012506004+28117+112783FM-12+012099999V0203401N006019999999N006000199-00051-00161102421ADDAA106000631AY161021AY261021GA1081+001501999GE19AGL   +99999+99999GF108991081999001501999999KA1240N-00071MA1999999100901MD1710061+9999MW1661REMSYN08257687 11256 83406 11005 21016 30090 40242 57006 69961 76666 88/// 333 21007 93428=
0166576870999992018012509004+28117+112783FM-12+012099999V0203401N006019999999N007000199-00111-00211102611ADDAY171021AY261021GA1081+001501999GE19AGL   +99999+99999GF108991081999001501999999MD1210181+9999MW1681REMSYN05457687 31257 83406 11011 21021 40261 52018 76876 88///=
0214576870999992018012512004+28117+112783FM-12+012099999V0203401N006019999999N008000199-00161-00301102921ADDAA106000021AY171021AY261021GA1081+001501999GE19AGL   +99999+99999GF108991081999001501999999MA1999999101381MD1210301+9999MW1681REMSYN07657687 11258 83406 11016 21030 30138 40292 52030 69901 76876 88/// 333 93429=
0106576870999992018012515004+28117+112783FM-12+012099999V0203401N00401002401WN006000199-00181-00321103091ADDGF109991999999999999999999MD1210171+9999MW1681REMSYN04857687 41/56 93404 11018 21032 40309 52017 768//=
0170576870999992018012518004+28117+112783FM-12+012099999V0203601N00501002401WN007000199-00231-00371103091ADDAA106001031AY171021AY271021GF109991999999999999999999MA1999999101551MD1410001+9999MW1681REMSYN07057687 11/57 93605 11023 21037 30155 40309 54000 60011 76877 333 10012=
0127576870999992018012521004+28117+112783FM-12+012099999V0203401N00601002401WN003500199-00261-00391103011ADDAA124003931GF109991999999999999999999MD1710081+9999MW1681REMSYN05857687 41/35 93406 11026 21039 40301 57008 768// 333 70039=
0233576870999992018012600004+28117+112783FM-12+012099999V0203401N004019999999N004900199-00261-00371103181ADDAA106006031AA224007631GA1081+001501999GE19AGL   +99999+99999GF108991081999001501999999MA1999999101631MD1210161+9999MW1681REMSYN10057687 11249 83404 11026 21037 30163 40318 52016 60061 768// 88/// 333 00953 31012 70076 92501 93430=
0166576870999992018012603004+28117+112783FM-12+012099999V0203401N005019999999N009000199-00231-00361103221ADDAY171021AY271021GA1081+001501999GE19AGL   +99999+99999GF108991081999001501999999MD1210041+9999MW1681REMSYN05457687 41259 83405 11023 21036 40322 52004 76877 88///=
0239576870999992018012606004+28117+112783FM-12+012099999V0203401N004019999999N007000199-00241-00371102921ADDAA106000531AY171021AY271021GA1081+001501999GE19AGL   +99999+99999GF108991081999001501999999KA1240N-00271MA1999999101371MD1710301+9999MW1681REMSYN08857687 11257 83404 11024 21037 30137 40292 57030 69951 76877 88/// 333 21027 92501 93431=
0166576870999992018012609004+28117+112783FM-12+012099999V0203401N004019999999N003600199-00211-00291102761ADDAY171021AY271021GA1081+001501999GE19AGL   +99999+99999GF108991081999001501999999MD1710151+9999MW1681REMSYN05457687 41236 83404 11021 21029 40276 57015 76877 88///=
0220576870999992018012612004+28117+112783FM-12+012099999V0203201N004019999999N003500199-00221-00291102791ADDAA106002031AY171021AY271021GA1081+001501999GE19AGL   +99999+99999GF108991081999001501999999MA1999999101251MD1210031+9999MW1681REMSYN08257687 11235 83204 11022 21029 30125 40279 52003 60021 76877 88/// 333 92502 93431=
0122576870999992018012615004+28117+112783FM-12+012099999V0203201N00301002401WN004300199-00181-00241102831ADDGF109991999999999999999999MD1210041+9999MW1681REMSYN06457687 41/43 93203 11018 21024 40283 52004 768// 333 92502 93431=
0182576870999992018012618004+28117+112783FM-12+012099999V0203401N003019999999N999999999-00201-00271102671ADDAA106000331AY171021AY271021GF109991999999999999999999MA1999999101131MD1710161+9999MW1681REMSYN08257687 11/55 93403 11020 21027 30113 40267 57016 69931 76877 333 11016 92502 93432=
0133576870999992018012621004+28117+112783FM-12+012099999V0203401N00401002401WN005000199-00191-00261102561ADDAA124007831GF109991999999999999999999MD1710111+9999MW1681REMSYN06457687 41/50 93404 11019 21026 40256 57011 768// 333 70078 92502=
0233576870999992018012700004+28117+112783FM-12+012099999V0203201N002019999999N004200199-00231-00301102631ADDAA106000331AA224002831GA1081+002501999GE19AGL   +99999+99999GF108991081999002501999999MA1999999101091MD1210071+9999MW1681REMSYN10057687 11342 83202 11023 21030 30109 40263 52007 69931 768// 88/// 333 05500 31002 70028 92502 93433=
0166576870999992018012703004+28117+112783FM-12+012099999V0203401N004019999999N004300199-00201-00271102721ADDAY171021AY271021GA1081+001501999GE19AGL   +99999+99999GF108991081999001501999999MD1210091+9999MW1681REMSYN05457687 41243 83404 11020 21027 40272 52009 76877 88///=
0239576870999992018012706004+28117+112783FM-12+012099999V0203601N004019999999N007000199-00231-00331102451ADDAA106000431AY171021AY271021GA1081+001501999GE19AGL   +99999+99999GF108991081999001501999999KA1240N-00241MA1999999100911MD1710271+9999MW1681REMSYN08857687 11257 83604 11023 21033 30091 40245 57027 69941 76877 88/// 333 21024 92502 93433=
0166576870999992018012709004+28117+112783FM-12+012099999V0203401N003019999999N006000199-00261-00391102441ADDAY171021AY271021GA1081+001501999GE19AGL   +99999+99999GF108991081999001501999999MD1710011+9999MW1681REMSYN05457687 41256 83403 11026 21039 40244 57001 76877 88///=
0220576870999992018012712004+28117+112783FM-12+012099999V0203201N002019999999N003100199-00281-00381102621ADDAA106002031AY171021AY271021GA1081+001501999GE19AGL   +99999+99999GF108991081999001501999999MA1999999101081MD1210181+9999MW1681REMSYN08257687 11231 83202 11028 21038 30108 40262 52018 60021 76877 88/// 333 92502 93433=
0116576870999992018012715004+28117+112783FM-12+012099999V0203401N00201002401WN006000199-00281-00391102801ADDGF109991999999999999999999MD1210181+9999MW1681REMSYN05857687 41/56 93402 11028 21039 40280 52018 768// 333 92503=
0182576870999992018012718004+28117+112783FM-12+012099999V0203401N00501002401WN005000199-00291-00401102841ADDAA106007031AY171021AY271021GF109991999999999999999999MA1999999101291MD1210031+9999MW1681REMSYN08257687 11/50 93405 11029 21040 30129 40284 52003 60071 76877 333 11016 92504 93434=
0133576870999992018012721004+28117+112783FM-12+012099999V0203401N004019999999N999999999-00311-00451102761ADDAA124013931GF109991999999999999999999MD1710081+9999MW1681REMSYN06457687 41/55 93404 11031 21045 40276 57008 768// 333 70139 92504=
0233576870999992018012800004+28117+112783FM-12+012099999V0203401N003019999999N004200199-00331-00471102971ADDAA106008031AA224017631GA1081+001501999GE19AGL   +99999+99999GF108991081999001501999999MA1999999101421MD1210211+9999MW1681REMSYN10057687 11242 83403 11033 21047 30142 40297 52021 60081 768// 88/// 333 00351 31013 70176 92505 93435=
0166576870999992018012803004+28117+112783FM-12+012099999V0203401N004019999999N007000199-00281-00471103151ADDAY171021AY271021GA1081+001501999GE19AGL   +99999+99999GF108991081999001501999999MD1210181+9999MW1681REMSYN05457687 41257 83404 11028 21047 40315 52018 76877 88///=
0233576870999992018012806004+28117+112783FM-12+012099999V0203401N004019999999N010000199-00211-00491102961ADDAA106004031AY171021AY201021GA1081+004501999GE19AGL   +99999+99999GF108991081999004501999999KA1240N-00341MA1999999101411MD1710191+9999MW1001REMSYN08257687 11460 83404 11021 21049 30141 40296 57019 60041 70070 88/// 333 21034 93435=
0138576870999992018012809004+28117+112783FM-12+012099999V0203601N004019999999N013000199-00221-00531102971ADDGA1081+004501999GE19AGL   +99999+99999GF108991081999004501999999MD1210011+9999REMSYN04857687 42463 83604 11022 21053 40297 52001 88///=
0175576870999992018012812004+28117+112783FM-12+012099999V0203401N006019999999N009000199-00231-00481103131ADDGA1071+002501999GE19AGL   +99999+99999GF107991071999002501999999MA1999999101581MD1210161+9999REMSYN07057687 32359 73406 11023 21048 30158 40313 52016 87/// 333 92500 93433=
0094576870999992018012815004+28117+112783FM-12+012099999V0203401N00301002401WN012000199-00281-00541103371ADDGF109991999999999999999999MD1210241+9999REMSYN04257687 32/62 93403 11028 21054 40337 52024=
0125576870999992018012818004+28117+112783FM-12+012099999V0203401N00401002401WN008000199-00321-00551103331ADDGF109991999999999999999999MA1999999101781MD1710041+9999REMSYN05857687 32/58 93404 11032 21055 30178 40333 57004 333 11020=
0127576870999992018012821004+28117+112783FM-12+012099999V0203401N00301002401WN007000199-00381-00561103191ADDAA124007731GF109991999999999999999999MD1710141+9999MW1101REMSYN05857687 31/57 93403 11038 21056 40319 57014 710// 333 70077=
0172576870999992018012900004+28117+112783FM-12+012099999V0203401N002019999999N006000199-00361-00561103361ADDAA124004031GF100995999999999999999999MA1999999101801MD1210161+9999MW1101REMSYN08857687 31956 03402 11036 21056 30180 40336 52016 710// 333 00400 31042 70040 92504 93433=
0166576870999992018012903004+28117+112783FM-12+012099999V0203201N003019999999N006000199-00131-00451103481ADDAY101021AY201021GA1061+012501999GE19AGL   +99999+99999GF106991061999012501999999MD1210131+9999MW1101REMSYN05457687 31656 63203 11013 21045 40348 52013 71000 86///=
0182576870999992018012906004+28117+112783FM-12+012099999V0203401N004012200019N010000199+00061-00391103091ADDGA1041+017501999GE19AGL   +99999+99999GF104991041999017501999999KA1240N-00381MA1999999101551MD1710381+9999REMSYN06457687 32760 43404 10006 21039 30155 40309 57038 84/// 333 21038=
0138576870999992018012909004+28117+112783FM-12+012099999V0200201N004019999999N011000199-00031-00441102991ADDGA1071+999999999GE19AGL   +99999+99999GF107991071999999999999999MD1710101+9999REMSYN04857687 32961 70204 11003 21044 40299 57010 87///=
0187576870999992018012912004+28117+112783FM-12+012099999V0203201N003019999999N007000199-00121-00421103141ADDAY101021AY201021GA1071+999999999GE19AGL   +99999+99999GF107991071999999999999999MA1999999101591MD1210141+9999MW1101REMSYN06057687 31957 73203 11012 21042 30159 40314 52014 71000 87///=
0094576870999992018012915004+28117+112783FM-12+012099999V0202901N00201002401WN008000199-00121-00511103271ADDGF109991999999999999999999MD1210141+9999REMSYN04257687 32/58 92902 11012 21051 40327 52014=
0153576870999992018012918004+28117+112783FM-12+012099999V0202701N00101002401WN006000199-00261-00541103151ADDAY101021AY201021GF109991999999999999999999MA1999999101611MD1710121+9999MW1101REMSYN06457687 31/56 92701 11026 21054 30161 40315 57012 71000 333 10009=
0106576870999992018012921004+28117+112783FM-12+012099999V0202901N00101002401WN003700199-00411-00581102881ADDGF109991999999999999999999MD1710271+9999MW1101REMSYN04857687 31/37 92901 11041 21058 40288 57027 710//=
0199576870999992018013000004+28117+112783FM-12+012099999V0203401N002019999999N007000199-00321-00571102971ADDGA1081+017501999GE19AGL   +99999+99999GF108991081999017501999999MA1999999101421MD1210081+9999MW1101REMSYN08857687 31757 83402 11032 21057 30142 40297 52008 710// 88/// 333 05400 31041 92503 93427=
0138576870999992018013003004+28117+112783FM-12+012099999V0201101N002019999999N007000199+00001-00371103061ADDGA1071+999999999GE19AGL   +99999+99999GF107991071999999999999999MD1210101+9999REMSYN04857687 32957 71102 10000 21037 40306 52010 87///=
0182576870999992018013006004+28117+112783FM-12+012099999V0200901N002019999999N013000199+00231-00361102631ADDGA1071+008001999GE19AGL   +99999+99999GF107991071999008001999999KA1240N-00411MA1999999101101MD1710421+9999REMSYN06457687 32563 70902 10023 21036 30110 40263 57042 87/// 333 21041=
0138576870999992018013009004+28117+112783FM-12+012099999V0203401N002019999999N010000199+00131-00341102601ADDGA1081+012501999GE19AGL   +99999+99999GF108991081999012501999999MD1710041+9999REMSYN04857687 32660 83402 10013 21034 40260 57004 88///=
0159576870999992018013012004+28117+112783FM-12+012099999V0203201N001019999999N009000199+00071-00431102831ADDGA1081+022501999GE19AGL   +99999+99999GF108991081999022501999999MA1999999101291MD1210231+9999REMSYN05457687 32859 83201 10007 21043 30129 40283 52023 88///=
0094576870999992018013015004+28117+112783FM-12+012099999V0203401N00501002401WN007000199+00091-00431103021ADDGF109991999999999999999999MD1210201+9999REMSYN04257687 32/57 93405 10009 21043 40302 52020=
0125576870999992018013018004+28117+112783FM-12+012099999V0203401N00501002401WN009000199+00091-00561103111ADDGF109991999999999999999999MA1999999101581MD1210091+9999REMSYN05857687 32/59 93405 10009 21056 30158 40311 52009 333 10029=
0094576870999992018013021004+28117+112783FM-12+012099999V0203201N00301002401WN008000199+00071-00491103181ADDGF109991999999999999999999MD1210071+9999REMSYN04257687 32/58 93203 10007 21049 40318 52007=
0175576870999992018013100004+28117+112783FM-12+012099999V0203601N004019999999N008000199+00081-00481103261ADDGA1081+999999999GE19AGL   +99999+99999GF108991081999999999999999MA1999999101731MD1210081+9999REMSYN07057687 32958 83604 10008 21048 30173 40326 52008 88/// 333 00304 31002=
0138576870999992018013103004+28117+112783FM-12+012099999V0200201N002019999999N008000199+00241-00481103341ADDGA1081+017501999GE19AGL   +99999+99999GF108991081999017501999999MD1210081+9999REMSYN04857687 32758 80202 10024 21048 40334 52008 88///=
0138576870999992018013106004+28117+112783FM-12+012099999V0200201N005019999999N017000199+00551-00951103171ADDGF100995999999999999999999KA1240N+00071MA1999999101651MD1710161+9999REMSYN05857687 32967 00205 10055 21095 30165 40317 57016 333 20007=
0094576870999992018013109004+28117+112783FM-12+012099999V0203601N005019999999N023000199+00541-00921103081ADDGF100995999999999999999999MD1710091+9999REMSYN04257687 32973 03605 10054 21092 40308 57009=
0115576870999992018013112004+28117+112783FM-12+012099999V0203201N002019999999N021000199+00141-00551103221ADDGF100995999999999999999999MA1999999101691MD1210131+9999REMSYN04857687 32971 03202 10014 21055 30169 40322 52013=
0094576870999992018013115004+28117+112783FM-12+012099999V0202701N00201002401WN012000199+00001-00541103281ADDGF109991999999999999999999MD1210061+9999REMSYN04257687 32/62 92702 10000 21054 40328 52006=
0125576870999992018013118004+28117+112783FM-12+012099999V0202501N00201002401WN010000199-00121-00541103111ADDGF109991999999999999999999MA1999999101591MD1710161+9999REMSYN05857687 32/60 92502 11012 21054 30159 40311 57016 333 10064=
0094576870999992018013121004+28117+112783FM-12+012099999V0209999C99999002401WN009000199-00251-00581102961ADDGF109991999999999999999999MD1710151+9999REMSYN04257687 32/59 90000 11025 21058 40296 57015=
0175576870999992018020100004+28117+112783FM-12+012099999V0203201N001019999999N008000199-00351-00491103041ADDGA1071+017501999GE19AGL   +99999+99999GF107991071999017501999999MA1999999101501MD1210061+9999REMSYN07057687 32758 73201 11035 21049 30150 40304 52006 87/// 333 05254 31048=
0094576870999992018020103004+28117+112783FM-12+012099999V0201601N001019999999N018000199+00481-00401103151ADDGF100995999999999999999999MD1210131+9999REMSYN04257687 32968 01601 10048 21040 40315 52013=
0138576870999992018020106004+28117+112783FM-12+012099999V0201101N001019999999N026000199+00771-00641102751ADDGF100995999999999999999999KA1240N-00391MA1999999101241MD1710391+9999REMSYN05857687 32976 01101 10077 21064 30124 40275 57039 333 21039=
0138576870999992018020109004+28117+112783FM-12+012099999V0200701N002019999999N023000199+00721-00721102641ADDGA1071+999999999GE19AGL   +99999+99999GF107991071999999999999999MD1710121+9999REMSYN04857687 32973 70702 10072 21072 40264 57012 87///=
0159576870999992018020112004+28117+112783FM-12+012099999V0203201N004019999999N020000199+00421-00501102881ADDGA1071+999999999GE19AGL   +99999+99999GF107991071999999999999999MA1999999101351MD1210231+9999REMSYN05457687 32970 73204 10042 21050 30135 40288 52023 87///=
0094576870999992018020115004+28117+112783FM-12+012099999V0202701N00301002401WN019000199+00411-00441103001ADDGF109991999999999999999999MD1210141+9999REMSYN04257687 32/69 92703 10041 21044 40300 52014=
0125576870999992018020118004+28117+112783FM-12+012099999V0202701N00201002401WN017000199+00371-00331103071ADDGF109991999999999999999999MA1999999101571MD1210081+9999REMSYN05857687 32/67 92702 10037 21033 30157 40307 52008 333 10081=
0094576870999992018020121004+28117+112783FM-12+012099999V0203201N00301002401WN015000199+00311-00261103121ADDGF109991999999999999999999MD1210041+9999REMSYN04257687 32/65 93203 10031 21026 40312 52004=
0175576870999992018020200004+28117+112783FM-12+012099999V0203401N005019999999N011000199+00321-00191103441ADDGA1081+017501999GE19AGL   +99999+99999GF108991081999017501999999MA1999999101921MD1210311+9999REMSYN07057687 32761 83405 10032 21019 30192 40344 52031 88/// 333 00407 30019=
0138576870999992018020203004+28117+112783FM-12+012099999V0203401N005019999999N012000199+00531-00231103611ADDGA1081+999999999GE19AGL   +99999+99999GF108991081999999999999999MD1210171+9999REMSYN04857687 32962 83405 10053 21023 40361 52017 88///=
0182576870999992018020206004+28117+112783FM-12+012099999V0203601N006019999999N018000199+00761-00451103391ADDGA1071+999999999GE19AGL   +99999+99999GF107991071999999999999999KA1240N+00311MA1999999101881MD1710211+9999REMSYN06457687 32968 73606 10076 21045 30188 40339 57021 87/// 333 20031=
0138576870999992018020209004+28117+112783FM-12+012099999V0203601N006019999999N025000199+00681-00831103321ADDGA1071+999999999GE19AGL   +99999+99999GF107991071999999999999999MD1710071+9999REMSYN04857687 32975 73606 10068 21083 40332 57007 87///=
0159576870999992018020212004+28117+112783FM-12+012099999V0203601N004019999999N030000199+00521-00861103511ADDGA1071+999999999GE19AGL   +99999+99999GF107991071999999999999999MA1999999101991MD1210181+9999REMSYN05457687 32980 73604 10052 21086 30199 40351 52018 87///=
0094576870999992018020215004+28117+112783FM-12+012099999V0203601N00401002401WN025000199+00351-00981103661ADDGF109991999999999999999999MD1210151+9999REMSYN04257687 32/75 93604 10035 21098 40366 52015=
0125576870999992018020218004+28117+112783FM-12+012099999V0203601N00301002401WN025000199+00201-01421103611ADDGF109991999999999999999999MA1999999102091MD1710051+9999REMSYN05857687 32/75 93603 10020 21142 30209 40361 57005 333 10077=
0094576870999992018020221004+28117+112783FM-12+012099999V0203401N00501002401WN030000199-00041-00881103511ADDGF109991999999999999999999MD1710101+9999REMSYN04257687 32/80 93405 11004 21088 40351 57010=
0131576870999992018020300004+28117+112783FM-12+012099999V0203401N005019999999N013000199-00091-00811103701ADDGF100995999999999999999999MA1999999102171MD1210181+9999REMSYN06457687 32963 03405 11009 21081 30217 40370 52018 333 00354 31030=
0094576870999992018020303004+28117+112783FM-12+012099999V0203401N007019999999N027000199+00261-00871103761ADDGF100995999999999999999999MD1210061+9999REMSYN04257687 32977 03407 10026 21087 40376 52006=
0182576870999992018020306004+28117+112783FM-12+012099999V0203201N007012200019N028000199+00481-01221103401ADDGA1021+999999999GE19AGL   +99999+99999GF102991021999999999999999KA1240N-00121MA1999999101881MD1710351+9999REMSYN06457687 32978 23207 10048 21122 30188 40340 57035 82/// 333 21012=
0138576870999992018020309004+28117+112783FM-12+012099999V0203601N004019999999N030000199+00341-01381103251ADDGA1081+999999999GE19AGL   +99999+99999GF108991081999999999999999MD1710161+9999REMSYN04857687 32980 83604 10034 21138 40325 57016 88///=
0159576870999992018020312004+28117+112783FM-12+012099999V0203401N006019999999N026000199+00241-01261103351ADDGA1081+999999999GE19AGL   +99999+99999GF108991081999999999999999MA1999999101821MD1210101+9999REMSYN05457687 32976 83406 10024 21126 30182 40335 52010 88///=
0094576870999992018020315004+28117+112783FM-12+012099999V0203401N00501002401WN022000199+00171-01141103471ADDGF109991999999999999999999MD1210121+9999REMSYN04257687 32/72 93405 10017 21114 40347 52012=
0125576870999992018020318004+28117+112783FM-12+012099999V0202901N00301002401WN020000199+00051-00901103461ADDGF109991999999999999999999MA1999999101931MD1710011+9999REMSYN05857687 32/70 92903 10005 21090 30193 40346 57001 333 10051=
0094576870999992018020321004+28117+112783FM-12+012099999V0203401N00301002401WN015000199-00041-00741103351ADDGF109991999999999999999999MD1710111+9999REMSYN04257687 32/65 93403 11004 21074 40335 57011=
0175576870999992018020400004+28117+112783FM-12+012099999V0203401N005019999999N013000199-00141-00691103461ADDGA1071+999999999GE19AGL   +99999+99999GF107991071999999999999999MA1999999101921MD1210101+9999REMSYN07057687 32963 73405 11014 21069 30192 40346 52010 87/// 333 05351 31015=
0138576870999992018020403004+28117+112783FM-12+012099999V0203601N004019999999N025000199+00311-01121103601ADDGA1061+999999999GE19AGL   +99999+99999GF106991061999999999999999MD1210151+9999REMSYN04857687 32975 63604 10031 21112 40360 52015 86///=
0182576870999992018020406004+28117+112783FM-12+012099999V0203201N004019999999N029000199+00371-01231103371ADDGA1081+999999999GE19AGL   +99999+99999GF108991081999999999999999KA1240N-00141MA1999999101841MD1710231+9999REMSYN06457687 32979 83204 10037 21123 30184 40337 57023 88/// 333 21014=
0138576870999992018020409004+28117+112783FM-12+012099999V0203201N004019999999N025000199+00301-01511103331ADDGA1081+999999999GE19AGL   +99999+99999GF108991081999999999999999MD1710041+9999REMSYN04857687 32975 83204 10030 21151 40333 57004 88///=
0159576870999992018020412004+28117+112783FM-12+012099999V0203401N003019999999N026000199+00201-01221103481ADDGA1081+999999999GE19AGL   +99999+99999GF108991081999999999999999MA1999999101941MD1210141+9999REMSYN05457687 32976 83403 10020 21122 30194 40348 52014 88///=
0094576870999992018020415004+28117+112783FM-12+012099999V0203401N00501002401WN028000199+00121-01151103551ADDGF109991999999999999999999MD1210081+9999REMSYN04257687 32/78 93405 10012 21115 40355 52008=
0125576870999992018020418004+28117+112783FM-12+012099999V0202901N00201002401WN016000199+00041-01131103481ADDGF109991999999999999999999MA1999999101951MD1710071+9999REMSYN05857687 32/66 92902 10004 21113 30195 40348 57007 333 10041=
0094576870999992018020421004+28117+112783FM-12+012099999V0203401N00501002401WN013000199-00031-01001103481ADDGF109991999999999999999999MD1410001+9999REMSYN04257687 32/63 93405 11003 21100 40348 54000=
0175576870999992018020500004+28117+112783FM-12+012099999V0202901N002012200019N013000199-00091-00931103651ADDGA1021+999999999GE19AGL   +99999+99999GF102991021999999999999999MA1999999102111MD1210161+9999REMSYN07057687 32963 22902 11009 21093 30211 40365 52016 82/// 333 00201 31046=
0094576870999992018020503004+28117+112783FM-12+012099999V0202701N002019999999N023000199+00461-01031103641ADDGF100995999999999999999999MD1410001+9999REMSYN04257687 32973 02702 10046 21103 40364 54000=
0138576870999992018020506004+28117+112783FM-12+012099999V0203201N001019999999N030000199+00841-01601103231ADDGF100995999999999999999999KA1240N-00151MA1999999101721MD1710391+9999REMSYN05857687 32980 03201 10084 21160 30172 40323 57039 333 21015=
0138576870999992018020509004+28117+112783FM-12+012099999V0203401N004012200019N030000199+00841-01601103061ADDGA1021+999999999GE19AGL   +99999+99999GF102991021999999999999999MD1710171+9999REMSYN04857687 32980 23404 10084 21160 40306 57017 82///=
0115576870999992018020512004+28117+112783FM-12+012099999V0202901N003019999999N030000199+00331-01071103231ADDGF100995999999999999999999MA1999999101701MD1210151+9999REMSYN04857687 32980 02903 10033 21107 30170 40323 52015=
0094576870999992018020515004+28117+112783FM-12+012099999V0202701N00101002401WN024000199+00161-00991103241ADDGF109991999999999999999999MD1210021+9999REMSYN04257687 32/74 92701 10016 21099 40324 52002=
0125576870999992018020518004+28117+112783FM-12+012099999V0203201N00101002401WN025000199-00231-00681103141ADDGF109991999999999999999999MA1999999101621MD1710101+9999REMSYN05857687 32/75 93201 11023 21068 30162 40314 57010 333 10093=
0094576870999992018020521004+28117+112783FM-12+012099999V0203201N00101002401WN012000199-00331-00691103001ADDGF109991999999999999999999MD1710141+9999REMSYN04257687 32/62 93201 11033 21069 40300 57014=
0169576870999992018020600004+28117+112783FM-12+012099999V0209999C999999999999N012000199-00321-00681103061ADDGA1051+999999999GE19AGL   +99999+99999GF105991051999999999999999MA1999999101531MD1210051+9999REMSYN06457687 32962 50000 11032 21068 30153 40306 52005 85/// 333 05652=
0094576870999992018020603004+28117+112783FM-12+012099999V0209999C999999999999N025000199+00621-00641103101ADDGF100995999999999999999999MD1210061+9999REMSYN04257687 32975 00000 10062 21064 40310 52006=
0182576870999992018020606004+28117+112783FM-12+012099999V0201601N003012200019N030000199+01061-01081102671ADDGA1041+999999999GE19AGL   +99999+99999GF104991041999999999999999KA1240N-00411MA1999999101161MD1710431+9999REMSYN06457687 32980 41603 10106 21108 30116 40267 57043 84/// 333 21041=
0138576870999992018020609004+28117+112783FM-12+012099999V0200701N003019999999N030000199+00931-01311102451ADDGA1071+999999999GE19AGL   +99999+99999GF107991071999999999999999MD1710221+9999REMSYN04857687 32980 70703 10093 21131 40245 57022 87///=
0159576870999992018020612004+28117+112783FM-12+012099999V0202901N002019999999N023000199+00561-00791102651ADDGA1081+999999999GE19AGL   +99999+99999GF108991081999999999999999MA1999999101131MD1210191+9999REMSYN05457687 32973 82902 10056 21079 30113 40265 52019 88///=
0094576870999992018020615004+28117+112783FM-12+012099999V0202901N00201002401WN018000199+00401-00501102571ADDGF109991999999999999999999MD1710061+9999REMSYN04257687 32/68 92902 10040 21050 40257 57006=
0125576870999992018020618004+28117+112783FM-12+012099999V0209999C99999002401WN022000199+00371-00501102521ADDGF109991999999999999999999MA1999999101031MD1710041+9999REMSYN05857687 32/72 90000 10037 21050 30103 40252 57004 333 10109=
0094576870999992018020621004+28117+112783FM-12+012099999V0209999C99999002401WN021000199+00341-00551102461ADDGF109991999999999999999999MD1710061+9999REMSYN04257687 32/71 90000 10034 21055 40246 57006=
0175576870999992018020700004+28117+112783FM-12+012099999V0209999C999999999999N020000199+00391-00461102521ADDGA1071+999999999GE19AGL   +99999+99999GF107991071999999999999999MA1999999101021MD1210051+9999REMSYN07057687 32970 70000 10039 21046 30102 40252 52005 87/// 333 05507 30017=
0094576870999992018020703004+28117+112783FM-12+012099999V0201401N002019999999N028000199+01021-00801102611ADDGF100995999999999999999999MD1210101+9999REMSYN04257687 32978 01402 10102 21080 40261 52010=
0182576870999992018020706004+28117+112783FM-12+012099999V0200201N003019999999N030000199+01241-00871102351ADDGA1071+999999999GE19AGL   +99999+99999GF107991071999999999999999KA1240N+00291MA1999999100871MD1710251+9999REMSYN06457687 32980 70203 10124 21087 30087 40235 57025 87/// 333 20029=
0138576870999992018020709004+28117+112783FM-12+012099999V0203401N003019999999N030000199+01081-00701102361ADDGA1071+999999999GE19AGL   +99999+99999GF107991071999999999999999MD1410001+9999REMSYN04857687 32980 73403 10108 21070 40236 54000 87///=
0159576870999992018020712004+28117+112783FM-12+012099999V0203401N004012200019N023000199+00961-00671102491ADDGA1021+999999999GE19AGL   +99999+99999GF102991021999999999999999MA1999999101001MD1210131+9999REMSYN05457687 32973 23404 10096 21067 30100 40249 52013 82///=
0094576870999992018020715004+28117+112783FM-12+012099999V0202701N00301002401WN023000199+00751-00491102601ADDGF109991999999999999999999MD1210121+9999REMSYN04257687 32/73 92703 10075 21049 40260 52012=
0125576870999992018020718004+28117+112783FM-12+012099999V0202901N00201002401WN019000199+00411-00391102531ADDGF109991999999999999999999MA1999999101051MD1710071+9999REMSYN05857687 32/69 92902 10041 21039 30105 40253 57007 333 10135=
0094576870999992018020721004+28117+112783FM-12+012099999V0202701N00201002401WN018000199+00371-00271102381ADDGF109991999999999999999999MD1710161+9999REMSYN04257687 32/68 92702 10037 21027 40238 57016=
0175576870999992018020800004+28117+112783FM-12+012099999V0202901N002012200019N013000199+00321-00191102461ADDGA1011+999999999GE19AGL   +99999+99999GF101991011999999999999999MA1999999100971MD1210081+9999REMSYN07057687 32963 12902 10032 21019 30097 40246 52008 81/// 333 05151 30005=
0094576870999992018020803004+28117+112783FM-12+012099999V0201601N002019999999N017000199+01051-00321102301ADDGF100995999999999999999999MD1710141+9999REMSYN04257687 32967 01602 10105 21032 40230 57014=
0138576870999992018020806004+28117+112783FM-12+012099999V0201401N003019999999N029000199+01361-00601101841ADDGF100995999999999999999999KA1240N+00311MA1999999100371MD1710461+9999REMSYN05857687 32979 01403 10136 21060 30037 40184 57046 333 20031=
0138576870999992018020809004+28117+112783FM-12+012099999V0201601N003019999999N030000199+01331-00801101651ADDGA1071+999999999GE19AGL   +99999+99999GF107991071999999999999999MD1710191+9999REMSYN04857687 32980 71603 10133 21080 40165 57019 87///=
0159576870999992018020812004+28117+112783FM-12+012099999V0201401N002019999999N030000199+01141-00561101691ADDGA1071+999999999GE19AGL   +99999+99999GF107991071999999999999999MA1999999100221MD1210041+9999REMSYN05457687 32980 71402 10114 21056 30022 40169 52004 87///=
0094576870999992018020815004+28117+112783FM-12+012099999V0201401N00301002401WN025000199+01051-00551101721ADDGF109991999999999999999999MD1210041+9999REMSYN04257687 32/75 91403 10105 21055 40172 52004=
0125576870999992018020818004+28117+112783FM-12+012099999V0200901N00101002401WN025000199+00931-00461101661ADDGF109991999999999999999999MA1999999100211MD1710051+9999REMSYN05857687 32/75 90901 10093 21046 30021 40166 57005 333 10142=
0094576870999992018020821004+28117+112783FM-12+012099999V0209999C99999002401WN024000199+00781-00171101651ADDGF109991999999999999999999MD1710021+9999REMSYN04257687 32/74 90000 10078 21017 40165 57002=
0169576870999992018020900004+28117+112783FM-12+012099999V0209999C999999999999N021000199+00761-00221101821ADDGA1081+022501999GE19AGL   +99999+99999GF108991081999022501999999MA1999999100351MD1210161+9999REMSYN06457687 32871 80000 10076 21022 30035 40182 52016 88/// 333 05604=
0138576870999992018020903004+28117+112783FM-12+012099999V0209999C999999999999N016000199+00851+00101101971ADDGA1081+022501999GE19AGL   +99999+99999GF108991081999022501999999MD1210151+9999REMSYN04857687 32866 80000 10085 20010 40197 52015 88///=
0182576870999992018020906004+28117+112783FM-12+012099999V0201101N002019999999N023000199+01101-00141101681ADDGA1071+022501999GE19AGL   +99999+99999GF107991071999022501999999KA1240N+00701MA1999999100221MD1710281+9999REMSYN06457687 32873 71102 10110 21014 30022 40168 57028 87/// 333 20070=
0138576870999992018020909004+28117+112783FM-12+012099999V0201601N002019999999N022000199+01101-00211101681ADDGA1081+022501999GE19AGL   +99999+99999GF108991081999022501999999MD1410001+9999REMSYN04857687 32872 81602 10110 21021 40168 54000 88///=
0159576870999992018020912004+28117+112783FM-12+012099999V0209999C999999999999N016000199+00951-00041101871ADDGA1081+022501999GE19AGL   +99999+99999GF108991081999022501999999MA1999999100401MD1210181+9999REMSYN05457687 32866 80000 10095 21004 30040 40187 52018 88///=
0094576870999992018020915004+28117+112783FM-12+012099999V0202701N00201002401WN016000199+00981-00041102041ADDGF109991999999999999999999MD1210171+9999REMSYN04257687 32/66 92702 10098 21004 40204 52017=
0125576870999992018020918004+28117+112783FM-12+012099999V0202701N00301002401WN014000199+00891+00111102171ADDGF109991999999999999999999MA1999999100701MD1210131+9999REMSYN05857687 32/64 92703 10089 20011 30070 40217 52013 333 10115=
0094576870999992018020921004+28117+112783FM-12+012099999V0203401N00801002401WN011000199+00831+00191102201ADDGF109991999999999999999999MD1210031+9999REMSYN04257687 32/61 93408 10083 20019 40220 52003=
0169576870999992018021000004+28117+112783FM-12+012099999V0203401N005019999999N014000199+00811+00151102601ADDGA1081+012501999GE19AGL   +99999+99999GF108991081999012501999999MA1999999101121MD1210391+9999REMSYN06457687 32664 83405 10081 20015 30112 40260 52039 88/// 333 00801=
0138576870999992018021003004+28117+112783FM-12+012099999V0203401N007019999999N009000199+00811+00171102821ADDGA1081+017501999GE19AGL   +99999+99999GF108991081999017501999999MD1210221+9999REMSYN04857687 32759 83407 10081 20017 40282 52022 88///=
0182576870999992018021006004+28117+112783FM-12+012099999V0203401N006019999999N009000199+00781+00011102701ADDGA1081+017501999GE19AGL   +99999+99999GF108991081999017501999999KA1240N+00761MA1999999101221MD1710121+9999REMSYN06457687 32759 83406 10078 20001 30122 40270 57012 88/// 333 20076=
0138576870999992018021009004+28117+112783FM-12+012099999V0203401N004019999999N009000199+00711+00081102741ADDGA1081+022501999GE19AGL   +99999+99999GF108991081999022501999999MD1210031+9999REMSYN04857687 32859 83404 10071 20008 40274 52003 88///=
0159576870999992018021012004+28117+112783FM-12+012099999V0203601N003019999999N008000199+00671-00011102881ADDGA1081+022501999GE19AGL   +99999+99999GF108991081999022501999999MA1999999101391MD1210141+9999REMSYN05457687 32858 83603 10067 21001 30139 40288 52014 88///=
0106576870999992018021015004+28117+112783FM-12+012099999V0202901N00101002401WN006000199+00441+00041103111ADDGF109991999999999999999999MD1210221+9999MW1101REMSYN04857687 31/56 92901 10044 20004 40311 52022 710//=
0153576870999992018021018004+28117+112783FM-12+012099999V0202501N00201002401WN004600199+00321+00061103061ADDAY101021AY201021GF109991999999999999999999MA1999999101561MD1710051+9999MW1101REMSYN06457687 31/46 92502 10032 20006 30156 40306 57005 71000 333 10095=
0106576870999992018021021004+28117+112783FM-12+012099999V0202501N00201002401WN004200199+00281+00071102981ADDGF109991999999999999999999MD1710091+9999MW1101REMSYN04857687 31/42 92502 10028 20007 40298 57009 710//=
0187576870999992018021100004+28117+112783FM-12+012099999V0203201N004019999999N999999999+00381+00071103141ADDGA1071+999999999GE19AGL   +99999+99999GF107991071999999999999999MA1999999101631MD1210161+9999MW1101REMSYN07657687 31955 73204 10038 20007 30163 40314 52016 710// 87/// 333 00554 30004=
0138576870999992018021103004+28117+112783FM-12+012099999V0200901N002019999999N008000199+00761+00101103241ADDGA1071+999999999GE19AGL   +99999+99999GF107991071999999999999999MD1210111+9999REMSYN04857687 32958 70902 10076 20010 40324 52011 87///=
0182576870999992018021106004+28117+112783FM-12+012099999V0202901N003019999999N011000199+00981-00011102991ADDGA1081+999999999GE19AGL   +99999+99999GF108991081999999999999999KA1240N+00261MA1999999101491MD1710251+9999REMSYN06457687 32961 82903 10098 21001 30149 40299 57025 88/// 333 20026=
0138576870999992018021109004+28117+112783FM-12+012099999V0203401N002019999999N012000199+00931-00031102931ADDGA1081+999999999GE19AGL   +99999+99999GF108991081999999999999999MD1710061+9999REMSYN04857687 32962 83402 10093 21003 40293 57006 88///=
0159576870999992018021112004+28117+112783FM-12+012099999V0203401N003019999999N009000199+00771+00001103111ADDGA1061+999999999GE19AGL   +99999+99999GF106991061999999999999999MA1999999101611MD1210181+9999REMSYN05457687 32959 63403 10077 20000 30161 40311 52018 86///=
0094576870999992018021115004+28117+112783FM-12+012099999V0202701N00101002401WN008000199+00591-00041103271ADDGF109991999999999999999999MD1210161+9999REMSYN04257687 32/58 92701 10059 21004 40327 52016=
0125576870999992018021118004+28117+112783FM-12+012099999V0203201N00101002401WN008000199+00381-00121103271ADDGF109991999999999999999999MA1999999101771MD1410001+9999REMSYN05857687 32/58 93201 10038 21012 30177 40327 54000 333 10100=
0094576870999992018021121004+28117+112783FM-12+012099999V0203201N00201002401WN008000199+00331-00201103271ADDGF109991999999999999999999MD1410001+9999REMSYN04257687 32/58 93202 10033 21020 40327 54000=
0187576870999992018021200004+28117+112783FM-12+012099999V0202701N001019999999N004700199+00131-00081103411ADDGA1051+999999999GE19AGL   +99999+99999GF105991051999999999999999MA1999999101901MD1210131+9999MW1101REMSYN07657687 31947 52701 10013 21008 30190 40341 52013 710// 85/// 333 00353 31026=
0138576870999992018021203004+28117+112783FM-12+012099999V0201601N001012200019N012000199+01101-00351103451ADDGA1021+999999999GE19AGL   +99999+99999GF102991021999999999999999MD1210061+9999REMSYN04857687 32962 21601 10110 21035 40345 52006 82///=
0138576870999992018021206004+28117+112783FM-12+012099999V0201101N003019999999N028000199+01411-00991103051ADDGF100995999999999999999999KA1240N+00061MA1999999101561MD1710401+9999REMSYN05857687 32978 01103 10141 21099 30156 40305 57040 333 20006=
0138576870999992018021209004+28117+112783FM-12+012099999V0200401N002019999999N030000199+01321-00691102951ADDGA1071+999999999GE19AGL   +99999+99999GF107991071999999999999999MD1710101+9999REMSYN04857687 32980 70402 10132 21069 40295 57010 87///=
0159576870999992018021212004+28117+112783FM-12+012099999V0203201N002019999999N020000199+01011-00191102981ADDGA1081+999999999GE19AGL   +99999+99999GF108991081999999999999999MA1999999101481MD1210021+9999REMSYN05457687 32970 83202 10101 21019 30148 40298 52002 88///=
0094576870999992018021215004+28117+112783FM-12+012099999V0209999C99999002401WN018000199+00711-00111102911ADDGF109991999999999999999999MD1710051+9999REMSYN04257687 32/68 90000 10071 21011 40291 57005=
0125576870999992018021218004+28117+112783FM-12+012099999V0209999C99999002401WN013000199+00421-00021102821ADDGF109991999999999999999999MA1999999101341MD1710091+9999REMSYN05857687 32/63 90000 10042 21002 30134 40282 57009 333 10150=
0094576870999992018021221004+28117+112783FM-12+012099999V0200901N00101002401WN014000199+00451-00171102671ADDGF109991999999999999999999MD1710151+9999REMSYN04257687 32/64 90901 10045 21017 40267 57015=
0131576870999992018021300004+28117+112783FM-12+012099999V0209999C999999999999N014000199+00431-00091102631ADDGF100995999999999999999999MA1999999101141MD1710051+9999REMSYN06457687 32964 00000 10043 21009 30114 40263 57005 333 05803 31011=
0094576870999992018021303004+28117+112783FM-12+012099999V0201401N003019999999N017000199+01241+00021102531ADDGF100995999999999999999999MD1710081+9999REMSYN04257687 32967 01403 10124 20002 40253 57008=
0182576870999992018021306004+28117+112783FM-12+012099999V0201101N003019999999N027000199+01611-00061102101ADDGA1071+999999999GE19AGL   +99999+99999GF107991071999999999999999KA1240N+00281MA1999999100631MD1710431+9999REMSYN06457687 32977 71103 10161 21006 30063 40210 57043 87/// 333 20028=
0138576870999992018021309004+28117+112783FM-12+012099999V0201801N001019999999N030000199+01551-00031101941ADDGA1081+999999999GE19AGL   +99999+99999GF108991081999999999999999MD1710151+9999REMSYN04857687 32980 81801 10155 21003 40194 57015 88///=
0159576870999992018021312004+28117+112783FM-12+012099999V0209999C999999999999N026000199+01381+00011101941ADDGA1081+999999999GE19AGL   +99999+99999GF108991081999999999999999MA1999999100471MD1710011+9999REMSYN05457687 32976 80000 10138 20001 30047 40194 57001 88///=
0094576870999992018021315004+28117+112783FM-12+012099999V0201401N00101002401WN022000199+01251+00031101941ADDGF109991999999999999999999MD1210021+9999REMSYN04257687 32/72 91401 10125 20003 40194 52002=
0125576870999992018021318004+28117+112783FM-12+012099999V0201401N00201002401WN020000199+01231+00131101761ADDGF109991999999999999999999MA1999999100321MD1710171+9999REMSYN05857687 32/70 91402 10123 20013 30032 40176 57017 333 10168=
0094576870999992018021321004+28117+112783FM-12+012099999V0201601N00501002401WN021000199+01221+00151101521ADDGF109991999999999999999999MD1710241+9999REMSYN04257687 32/71 91605 10122 20015 40152 57024=
0169576870999992018021400004+28117+112783FM-12+012099999V0201601N004019999999N018000199+01121+00301101511ADDGA1081+022501999GE19AGL   +99999+99999GF108991081999022501999999MA1999999100061MD1710021+9999REMSYN06457687 32868 81604 10112 20030 30006 40151 57002 88/// 333 06107=
0138576870999992018021403004+28117+112783FM-12+012099999V0201401N003019999999N021000199+01481+00301101451ADDGA1081+017501999GE19AGL   +99999+99999GF108991081999017501999999MD1710051+9999REMSYN04857687 32771 81403 10148 20030 40145 57005 88///=
0182576870999992018021406004+28117+112783FM-12+012099999V0201601N004019999999N030000199+02001+00451101101ADDGA1081+017501999GE19AGL   +99999+99999GF108991081999017501999999KA1240N+01061MA1999999099681MD1710331+9999REMSYN06457687 32780 81604 10200 20045 39968 40110 57033 88/// 333 20106=
0138576870999992018021409004+28117+112783FM-12+012099999V0202001N003019999999N030000199+01971+00501101061ADDGA1081+017501999GE19AGL   +99999+99999GF108991081999017501999999MD1710041+9999REMSYN04857687 32780 82003 10197 20050 40106 57004 88///=
0159576870999992018021412004+28117+112783FM-12+012099999V0202901N002019999999N030000199+01581+00571101251ADDGA1081+017501999GE19AGL   +99999+99999GF108991081999017501999999MA1999999099811MD1210171+9999REMSYN05457687 32780 82902 10158 20057 39981 40125 52017 88///=
0094576870999992018021415004+28117+112783FM-12+012099999V0203201N00201002401WN015000199+01401+00511101521ADDGF109991999999999999999999MD1210271+9999REMSYN04257687 32/65 93202 10140 20051 40152 52027=
0125576870999992018021418004+28117+112783FM-12+012099999V0202501N00201002401WN020000199+01411+00411101541ADDGF109991999999999999999999MA1999999100121MD1210041+9999REMSYN05857687 32/70 92502 10141 20041 30012 40154 52004 333 10202=
0094576870999992018021421004+28117+112783FM-12+012099999V0203201N00401002401WN017000199+01311+00481101591ADDGF109991999999999999999999MD1210041+9999REMSYN04257687 32/67 93204 10131 20048 40159 52004=
0169576870999992018021500004+28117+112783FM-12+012099999V0203201N005019999999N011000199+01131+00561101791ADDGA1081+017501999GE19AGL   +99999+99999GF108991081999017501999999MA1999999100351MD1210191+9999REMSYN06457687 32761 83205 10113 20056 30035 40179 52019 88/// 333 00300=
0138576870999992018021503004+28117+112783FM-12+012099999V0203201N005019999999N008000199+01011+00591101991ADDGA1081+012501999GE19AGL   +99999+99999GF108991081999012501999999MD1210191+9999REMSYN04857687 32658 83205 10101 20059 40199 52019 88///=
0210576870999992018021506004+28117+112783FM-12+012099999V0203401N005019999999N007000199+00971+00681101741ADDAY101021AY201021GA1081+012501999GE19AGL   +99999+99999GF108991081999012501999999KA1240N+00951MA1999999100291MD1710251+9999MW1101REMSYN07057687 31657 83405 10097 20068 30029 40174 57025 71000 88/// 333 20095=
0138576870999992018021509004+28117+112783FM-12+012099999V0203201N004019999999N009000199+00871+00491101741ADDGA1081+012501999GE19AGL   +99999+99999GF108991081999012501999999MD1710011+9999REMSYN04857687 32659 83204 10087 20049 40174 57001 88///=
0159576870999992018021512004+28117+112783FM-12+012099999V0203201N006019999999N009000199+00821+00481101931ADDGA1081+012501999GE19AGL   +99999+99999GF108991081999012501999999MA1999999100461MD1210181+9999REMSYN05457687 32659 83206 10082 20048 30046 40193 52018 88///=
0094576870999992018021515004+28117+112783FM-12+012099999V0203401N00401002401WN007000199+00751+00451102051ADDGF109991999999999999999999MD1210121+9999REMSYN04257687 32/57 93404 10075 20045 40205 52012=
0153576870999992018021518004+28117+112783FM-12+012099999V0203401N00501002401WN005000199+00701+00401102021ADDAY101021AY201021GF109991999999999999999999MA1999999100551MD1710031+9999MW1101REMSYN06457687 31/50 93405 10070 20040 30055 40202 57003 71000 333 10141=
0106576870999992018021521004+28117+112783FM-12+012099999V0203401N003019999999N999999999+00671+00371101951ADDGF109991999999999999999999MD1710081+9999MW1101REMSYN04857687 31/55 93403 10067 20037 40195 57008 710//=
0215576870999992018021600004+28117+112783FM-12+012099999V0203401N004019999999N002600199+00611+00491102131ADDAA106000131AA224000131GA1081+004501999GE19AGL   +99999+99999GF108991081999004501999999MA1999999100651MD1210181+9999MW1601REMSYN08257687 11426 83404 10061 20049 30065 40213 52018 69911 760// 88/// 333 00355 70001=
0166576870999992018021603004+28117+112783FM-12+012099999V0203401N004019999999N009000199+00941+00401102261ADDAY161021AY201021GA1081+017501999GE19AGL   +99999+99999GF108991081999017501999999MD1210131+9999MW1001REMSYN05457687 41759 83404 10094 20040 40226 52013 70060 88///=
0183576870999992018021606004+28117+112783FM-12+012099999V0200901N003019999999N013000199+01501+00441101991ADDAA106000021AY161021AY201021GF100995999999999999999999KA1240N+00611MA1999999100531MD1710251+9999MW1001REMSYN07057687 11963 00903 10150 20044 30053 40199 57025 69901 70060 333 20061=
0094576870999992018021609004+28117+112783FM-12+012099999V0201101N002019999999N016000199+01561+00521101891ADDGF100995999999999999999999MD1710101+9999REMSYN04257687 32966 01102 10156 20052 40189 57010=
0115576870999992018021612004+28117+112783FM-12+012099999V0209999C999999999999N013000199+01151+00521101911ADDGF100995999999999999999999MA1999999100441MD1210011+9999REMSYN04857687 32963 00000 10115 20052 30044 40191 52001=
0106576870999992018021615004+28117+112783FM-12+012099999V0209999C999999999999N999999999+00821+00581102001ADDGF109991999999999999999999MD1210091+9999MW1101REMSYN04857687 31/55 90000 10082 20058 40200 52009 710//=
0153576870999992018021618004+28117+112783FM-12+012099999V0209999C99999002401WN004800199+00671+00521101951ADDAY101021AY201021GF109991999999999999999999MA1999999100491MD1710041+9999MW1101REMSYN06457687 31/48 90000 10067 20052 30049 40195 57004 71000 333 10163=
0127576870999992018021621004+28117+112783FM-12+012099999V0201101N00301002401WN004300199+00851+00711101851ADDAA124000131GF109991999999999999999999MD1710091+9999MW1101REMSYN05857687 31/43 91103 10085 20071 40185 57009 710// 333 70001=
0204576870999992018021700004+28117+112783FM-12+012099999V0201401N003019999999N003800199+00781+00711101931ADDAA124000021GA1061+999999999GE19AGL   +99999+99999GF106991061999999999999999MA1999999100461MD1210061+9999MW1101REMSYN08257687 31938 61403 10078 20071 30046 40193 52006 710// 86/// 333 05202 30032 79999=
0138576870999992018021703004+28117+112783FM-12+012099999V0201401N005012200019N009000199+01241+00811101911ADDGA1021+999999999GE19AGL   +99999+99999GF102991021999999999999999MD1710011+9999REMSYN04857687 32959 21405 10124 20081 40191 57001 82///=
0138576870999992018021706004+28117+112783FM-12+012099999V0201601N004019999999N019000199+01791+00871101341ADDGF100995999999999999999999KA1240N+00671MA1999999099901MD1710551+9999REMSYN05857687 32969 01604 10179 20087 39990 40134 57055 333 20067=
0094576870999992018021709004+28117+112783FM-12+012099999V0201401N004019999999N027000199+01931+00921101071ADDGF100995999999999999999999MD1710261+9999REMSYN04257687 32977 01404 10193 20092 40107 57026=
0115576870999992018021712004+28117+112783FM-12+012099999V0200401N001019999999N026000199+01621+00921101231ADDGF100995999999999999999999MA1999999099791MD1210151+9999REMSYN04857687 32976 00401 10162 20092 39979 40123 52015=
0094576870999992018021715004+28117+112783FM-12+012099999V0203401N00601002401WN010000199+01261+00911101501ADDGF109991999999999999999999MD1210261+9999REMSYN04257687 32/60 93406 10126 20091 40150 52026=
0138576870999992018021718004+28117+112783FM-12+012099999V0203201N00501002401WN008000199+01161+00851101661ADDGF109991999999999999999999KA1120M+01971MA1999999100221MD1210171+9999REMSYN05857687 32/58 93205 10116 20085 30022 40166 52017 333 10197=
0106576870999992018021721004+28117+112783FM-12+012099999V0203401N00501002401WN007000199+01061+00771101681ADDGF109991999999999999999999MD1210021+9999MW1101REMSYN04857687 31/57 93405 10106 20077 40168 52002 710//=
0169576870999992018021800004+28117+112783FM-12+012099999V0203201N005019999999N007000199+00941+00681101891ADDGA1081+004501999GE19AGL   +99999+99999GF108991081999004501999999MA1999999100441MD1210201+9999REMSYN06457687 32457 83205 10094 20068 30044 40189 52020 88/// 333 00002=
0166576870999992018021803004+28117+112783FM-12+012099999V0203401N005019999999N005000199+00821+00711102061ADDAY101021AY201021GA1081+004501999GE19AGL   +99999+99999GF108991081999004501999999MD1210161+9999MW1601REMSYN05457687 31450 83405 10082 20071 40206 52016 76000 88///=
0227576870999992018021806004+28117+112783FM-12+012099999V0203401N004019999999N006000199+00771+00701101921ADDAA106000021AY161021AY201021GA1081+004501999GE19AGL   +99999+99999GF108991081999004501999999KA1240N+00771MA1999999100451MD1710151+9999MW1601REMSYN07657687 11456 83404 10077 20070 30045 40192 57015 69901 76060 88/// 333 20077=
0166576870999992018021809004+28117+112783FM-12+012099999V0203401N005019999999N008000199+00751+00641101921ADDAY161021AY261021GA1081+004501999GE19AGL   +99999+99999GF108991081999004501999999MD1410001+9999MW1601REMSYN05457687 31458 83405 10075 20064 40192 54000 76066 88///=
0204576870999992018021812004+28117+112783FM-12+012099999V0203201N004019999999N003900199+00711+00641102031ADDAA106000021AY161021AY261021GA1081+004501999GE19AGL   +99999+99999GF108991081999004501999999MA1999999100561MD1210111+9999MW1601REMSYN06657687 11439 83204 10071 20064 30056 40203 52011 69901 76066 88///=
0106576870999992018021815004+28117+112783FM-12+012099999V0203601N00201002401WN004100199+00681+00541102081ADDGF109991999999999999999999MD1210041+9999MW1101REMSYN04857687 31/41 93602 10068 20054 40208 52004 710//=
0153576870999992018021818004+28117+112783FM-12+012099999V0203401N00601002401WN003400199+00651+00551102101ADDAY101021AY201021GF109991999999999999999999MA1999999100621MD1210021+9999MW1101REMSYN06457687 31/34 93406 10065 20055 30062 40210 52002 71000 333 10115=
0106576870999992018021821004+28117+112783FM-12+012099999V0203201N00501002401WN004700199+00641+00471102071ADDGF109991999999999999999999MD1710031+9999MW1101REMSYN04857687 31/47 93205 10064 20047 40207 57003 710//=
0215576870999992018021900004+28117+112783FM-12+012099999V0203401N007019999999N999999999+00591+00421102291ADDAA106000131AA224000131GA1081+002501999GE19AGL   +99999+99999GF108991081999002501999999MA1999999100801MD1210211+9999MW1601REMSYN08257687 11355 83407 10059 20042 30080 40229 52021 69911 760// 88/// 333 00454 70001=
0166576870999992018021903004+28117+112783FM-12+012099999V0203401N004019999999N008000199+00591+00271102401ADDAY161021AY261021GA1081+002501999GE19AGL   +99999+99999GF108991081999002501999999MD1210111+9999MW1211REMSYN05457687 41358 83404 10059 20027 40240 52011 72166 88///=
