0230576870999992020010100004+28120+112780FM-12+011999999V0203441N0008199999999007400199+00321+00021103081ADDAA106999999AA224000131AJ100009100000099AY101121AY201121GA1999+005001999GE19MSL   +99999+99999GF108991999999005001999999IA2999+00319KA1240M+00481KA2240N+00241MA1999999101561MD1210031-0591MW1101OC100571OD141200571338REMSYN004BUFR
0152576870999992020010103004+28120+112780FM-12+011999999V0202861N0004199999999008900199+00521+00131103061ADDAA106999999AA212999999AA324999999AY101031AY201031IA2999+00339KA1240M+00521KA2240N+00241MA1999999101551MD1710011-0701MW1211OD141200471330REMSYN004BUFR
0222576870999992020010106004+28120+112780FM-12+011999999V0201201N0006199999999009600199+00651+00261102641ADDAA106999999AA224000091AJ199999999999999AY161061AY201061GA1999+004001999GE19MSL   +99999+99999GF108991999999004001999999IA2999+00369KA1240M+00651KA2240N+00241MA1999999101141MD1710411-0791MW1001OD141200411336REMSYN004BUFR
0216576870999992020010109004+28120+112780FM-12+011999999V0203481N0004199999999009700199+00701+00321102601ADDAA106999999AA212999999AA324999999AY101031AY201031GA1999+006001999GE19MSL   +99999+99999GF108991999999006001999999IA2999+00389KA1240M+00711KA2240N+00241MA1999999101101MD1710041-0761MW1001OD141200331123REMSYN004BUFR
0230576870999992020010112004+28120+112780FM-12+011999999V0203351N0046199999999004700199+00571+00431102681ADDAA106999999AA224000091AJ199999999999999AY101061AY201061GA1999+012001999GE19MSL   +99999+99999GF108991999999012001999999IA2999+00479KA1240M+00711KA2240N+00241MA1999999101181MD1210081-0671MW1101OC100621OD141200621330REMSYN004BUFR
0144576870999992020010115004+28120+112780FM-12+011999999V0203181N0046199999999003900199+00501+00431102821ADDAA106999999AA212999999AA324999999IA2999+00569KA1240M+00711KA2240N+00261MA1999999101321MD1210141-0521MW1101OC100801OD141200801335REMSYN004BUFR
0160576870999992020010118004+28120+112780FM-12+011999999V0203301N0048199999999001400199+00471+00431102771ADDAA106999999AA212999999AA324999999AY101999AY201999IA2999+00559KA1240M+00711KA2240N+00271MA1999999101271MD1710051-0381MW1101OC100801OD141200801335REMSYN004BUFR
0144576870999992020010121004+28120+112780FM-12+011999999V0203221N0032199999999000800199+00461+00421102761ADDAA106999999AA212999999AA324999999IA2999+00539KA1240M+00711KA2240N+00301MA1999999101261MD1710011-0271MW1461OC100801OD141200801335REMSYN004BUFR
0230576870999992020010200004+28120+112780FM-12+011999999V0203341N0042199999999002000199+00461+00421102951ADDAA106000131AA224000131AJ100003100000099AY161121AY241121GA1999+003001999GE19MSL   +99999+99999GF108991999999003001999999IA2999+00539KA1240M+00711KA2240N+00341MA1999999101451MD1210191-0111MW1101OC100801OD141200801335REMSYN004BUFR
0224576870999992020010203004+28120+112780FM-12+011999999V0203251N0041199999999000700199+00461+00431103071ADDAA106000231AA212000231AA324000231AY101031AY201031GA1999+001201999GE19MSL   +99999+99999GF108991999999001201999999IA2999+00539KA1240M+00711KA2240N+00451MA1999999101561MD1210111+0011MW1101OC100821OD141200821323REMSYN004BUFR
0230576870999992020010206004+28120+112780FM-12+011999999V0203351N0041199999999001800199+00451+00411102831ADDAA106000131AA224000231AJ100003100000099AY101061AY201061GA1999+001201999GE19MSL   +99999+99999GF108991999999001201999999IA2999+00539KA1240M+00711KA2240N+00441MA1999999101321MD1710241+0181MW1101OC100821OD141200821323REMSYN004BUFR
0224576870999992020010209004+28120+112780FM-12+011999999V0203311N0037199999999003500199+00411+00381102831ADDAA106999999AA212000231AA324000231AY101031AY201031GA1999+001201999GE19MSL   +99999+99999GF108991999999001201999999IA2999+00539KA1240M+00701KA2240N+00401MA1999999101321MD1410001+0221MW1101OC100951OD141200951339REMSYN004BUFR
0230576870999992020010212004+28120+112780FM-12+011999999V0203341N0031199999999001800199+00401+00371102891ADDAA106999999AA224000231AJ100003100000099AY101061AY201061GA1999+001201999GE19MSL   +99999+99999GF108991999999001201999999IA2999+00499KA1240M+00581KA2240N+00391MA1999999101381MD1210061+0201MW1101OC100951OD141200951339REMSYN004BUFR
0144576870999992020010215004+28120+112780FM-12+011999999V0203231N0043199999999003700199+00411+00381102921ADDAA106999999AA212999999AA324000231IA2999+00489KA1240M+00501KA2240N+00391MA1999999101411MD1210031+0091MW1101OC100951OD141200951339REMSYN004BUFR
0160576870999992020010218004+28120+112780FM-12+011999999V0203171N0030199999999002700199+00401+00371102901ADDAA106000231AA212000231AA324000431AY101999AY201999IA2999+00469KA1240M+00471KA2240N+00391MA1999999101391MD1710021+0121MW1101OC100971OD141200971319REMSYN004BUFR
0144576870999992020010221004+28120+112780FM-12+011999999V0203331N0036199999999002000199+00401+00371102861ADDAA106000231AA212000231AA324000431IA2999+00469KA1240M+00471KA2240N+00391MA1999999101351MD1710041+0091MW1101OC100971OD141200971319REMSYN004BUFR
0230576870999992020010300004+28120+112780FM-12+011999999V0203421N0029199999999000700199+00421+00401102931ADDAA106999999AA224000331AJ100003100000099AY161121AY201121GA1999+001201999GE19MSL   +99999+99999GF108991999999001201999999IA2999+00469KA1240M+00471KA2240N+00391MA1999999101421MD1210071-0031MW1101OC100971OD141200971319REMSYN004BUFR
0224576870999992020010303004+28120+112780FM-12+011999999V0203301N0031199999999001300199+00471+00441102971ADDAA106999999AA212000231AA324000231AY141031AY201031GA1999+025001999GE19MSL   +99999+99999GF108991999999025001999999IA2999+00469KA1240M+00471KA2240N+00391MA1999999101461MD1210041-0101MW1101OC100971OD141200971319REMSYN004BUFR
0230576870999992020010306004+28120+112780FM-12+011999999V0203381N0039199999999001300199+00461+00431102781ADDAA106999999AA224000231AJ100009100000099AY141061AY201061GA1999+000801999GE19MSL   +99999+99999GF108991999999000801999999IA2999+00469KA1240M+00471KA2240N+00391MA1999999101271MD1710191-0051MW1101OC100801OD141200801333REMSYN004BUFR
0224576870999992020010309004+28120+112780FM-12+011999999V0203261N0029199999999002000199+00461+00451102781ADDAA106999999AA212999999AA324000231AY101031AY201031GA1999+000801999GE19MSL   +99999+99999GF108991999999000801999999IA2999+00479KA1240M+00471KA2240N+00391MA1999999101271MD1410001-0051MW1601OC100781OD141200781337REMSYN004BUFR
0230576870999992020010312004+28120+112780FM-12+011999999V0203241N0025199999999001200199+00461+00461102831ADDAA106999999AA224000231AJ100009100000099AY161061AY201061GA1999+000801999GE19MSL   +99999+99999GF108991999999000801999999IA2999+00519KA1240M+00471KA2240N+00391MA1999999101321MD1210051-0061MW1101OC100781OD141200781337REMSYN004BUFR
0144576870999992020010315004+28120+112780FM-12+011999999V0203191N0033199999999002800199+00471+00471102911ADDAA106999999AA212999999AA324000231IA2999+00529KA1240M+00471KA2240N+00391MA1999999101401MD1210081-0011MW1101OC100781OD141200781337REMSYN004BUFR
0160576870999992020010318004+28120+112780FM-12+011999999V0203351N0029199999999004000199+00501+00481102841ADDAA106999999AA212999999AA324999999AY101999AY201999IA2999+00529KA1240M+00491KA2240N+00391MA1999999101331MD1710071-0061MW1101OC100781OD141200781337REMSYN004BUFR
0144576870999992020010321004+28120+112780FM-12+011999999V0203181N0021199999999001400199+00461+00461102691ADDAA106999999AA212999999AA324999999IA2999+00529KA1240M+00491KA2240N+00401MA1999999101191MD1710141-0161MW1101OC100731OD141200731330REMSYN004BUFR
0230576870999992020010400004+28120+112780FM-12+011999999V0203601N0000199999999001300199+00471+99999102791ADDAA106999999AA224000091AJ199999999999999AY101121AY201121GA1999+000501999GE19MSL   +99999+99999GF108991999999000501999999IA2999+00529KA1240M+00491KA2240N+00431MA1999999101291MD1210101-0131MW1101OC100731OD141200731330REMSYN004BUFR
0224576870999992020010403004+28120+112780FM-12+011999999V0203531N0003199999999004200199+00621+00541102801ADDAA106999999AA212999999AA324999999AY101031AY201031GA1999+001201999GE19MSL   +99999+99999GF108991999999001201999999IA2999+00529KA1240M+00631KA2240N+00451MA1999999101301MD1210011-0161MW1101OC100691OD141200691331REMSYN004BUFR
0230576870999992020010406004+28120+112780FM-12+011999999V0203601N0001199999999008100199+00771+00501102491ADDAA106999999AA224000091AJ199999999999999AY101061AY201061GA1999+004001999GE19MSL   +99999+99999GF108991999999004001999999IA2999+00539KA1240M+00781KA2240N+00451MA1999999101001MD1710301-0271MW1001OC100571OD141200571335REMSYN004BUFR
0224576870999992020010409004+28120+112780FM-12+011999999V0203401N0020199999999005500199+00711+00511102421ADDAA106999999AA212999999AA324999999AY101031AY201031GA1999+002001999GE19MSL   +99999+99999GF108991999999002001999999IA2999+00549KA1240M+00791KA2240N+00451MA1999999100931MD1710071-0341MW1101OC100571OD141200571335REMSYN004BUFR
0230576870999992020010412004+28120+112780FM-12+011999999V0203221N0024199999999003200199+00661+00561102541ADDAA106999999AA224000091AJ199999999999999AY101061AY201061GA1999+002001999GE19MSL   +99999+99999GF108991999999002001999999IA2999+00579KA1240M+00791KA2240N+00461MA1999999101041MD1210111-0281MW1101OC100571OD141200571335REMSYN004BUFR
0136576870999992020010415004+28120+112780FM-12+011999999V0203601N0000199999999001800199+00621+00591102411ADDAA106999999AA212999999AA324999999IA2999+00699KA1240M+00791KA2240N+00461MA1999999100921MD1710121-0481MW1101OD141200421023REMSYN004BUFR
0152576870999992020010418004+28120+112780FM-12+011999999V0202921N0012199999999000500199+00621+00611102321ADDAA106999999AA212999999AA324999999AY141999AY201999IA2999+00699KA1240M+00791KA2240N+00461MA1999999100831MD1710091-0501MW1451OD141200421023REMSYN004BUFR
0136576870999992020010421004+28120+112780FM-12+011999999V0201311N0031199999999000200199+00621+00611102021ADDAA106999999AA212999999AA324999999IA2999+00689KA1240M+00791KA2240N+00461MA1999999100541MD1710291-0651MW1451OD141200411140REMSYN004BUFR
0230576870999992020010500004+28120+112780FM-12+011999999V0203601N0001199999999000400199+00701+00691102131ADDAA106999999AA224000091AJ199999999999999AY101121AY201121GA1999+000801999GE19MSL   +99999+99999GF108991999999000801999999IA2999+00679KA1240M+00791KA2240N+00481MA1999999100651MD1210111-0641MW1461OC100761OD141200761128REMSYN004BUFR
0224576870999992020010503004+28120+112780FM-12+011999999V0201331N0031199999999002300199+00871+99999102221ADDAA106999999AA212999999AA324999999AY141031AY201031GA1999+001001999GE19MSL   +99999+99999GF108991999999001001999999IA2999+00679KA1240M+00881KA2240N+00611MA1999999100741MD1210091-0561MW1101OC100761OD141200761128REMSYN004BUFR
0230576870999992020010506004+28120+112780FM-12+011999999V0203121N0004199999999008600199+01451+00901101831ADDAA106999999AA224000091AJ199999999999999AY141061AY201061GA1999+008001999GE19MSL   +99999+99999GF105991999999008001999999IA2999+00679KA1240M+01441KA2240N+00611MA1999999100371MD1710371-0631MW1001OC100761OD141200761128REMSYN004BUFR
0224576870999992020010509004+28120+112780FM-12+011999999V0203441N0040199999999006500199+01251+00881101761ADDAA106999999AA212999999AA324999999AY101031AY201031GA1999+035001999GE19MSL   +99999+99999GF107991999999035001999999IA2999+00679KA1240M+01491KA2240N+00611MA1999999100291MD1710081-0641MW1101OC100761OD141200761128REMSYN004BUFR
0230576870999992020010512004+28120+112780FM-12+011999999V0203291N0056199999999001900199+00871+00851101911ADDAA106999999AA224000091AJ199999999999999AY101061AY201061GA1999+034001999GE19MSL   +99999+99999GF107991999999034001999999IA2999+00759KA1240M+01491KA2240N+00611MA1999999100431MD1210141-0611MW1101OC100771OD141200771331REMSYN004BUFR
0144576870999992020010515004+28120+112780FM-12+011999999V0203251N0050199999999000400199+00771+00761102061ADDAA106999999AA212999999AA324999999IA2999+00849KA1240M+01491KA2240N+00611MA1999999100581MD1210151-0341MW1451OC100971OD141200971330REMSYN004BUFR
0160576870999992020010518004+28120+112780FM-12+011999999V0203211N0040199999999000600199+00771+00771102041ADDAA106999999AA212999999AA324999999AY101999AY201999IA2999+00829KA1240M+01491KA2240N+00611MA1999999100581MD1410001-0251MW1461OC100971OD141200971330REMSYN004BUFR
0144576870999992020010521004+28120+112780FM-12+011999999V0203271N0039199999999000400199+00751+00741101971ADDAA106999999AA212999999AA324999999IA2999+00809KA1240M+01491KA2240N+00621MA1999999100501MD1710081-0041MW1461OC100971OD141200971330REMSYN004BUFR
0230576870999992020010600004+28120+112780FM-12+011999999V0203381N0020199999999000700199+00721+99999102101ADDAA106999999AA224000091AJ199999999999999AY141121AY201121GA1999+000801999GE19MSL   +99999+99999GF108991999999000801999999IA2999+00799KA1240M+01491KA2240N+00691MA1999999100621MD1210121-0031MW1281OC100971OD141200971330REMSYN004BUFR
0224576870999992020010603004+28120+112780FM-12+011999999V0203361N0031199999999002900199+00811+00811102111ADDAA106999999AA212999999AA324999999AY101031AY201031GA1999+000501999GE19MSL   +99999+99999GF108991999999000501999999IA2999+00799KA1240M+01491KA2240N+00731MA1999999100631MD1210011-0111MW1101OC100931OD141200931328REMSYN004BUFR
0230576870999992020010606004+28120+112780FM-12+011999999V0203401N0036199999999003400199+00721+99999101801ADDAA106999999AA224000091AJ199999999999999AY101061AY201061GA1999+000501999GE19MSL   +99999+99999GF108991999999000501999999IA2999+00799KA1240M+01491KA2240N+00731MA1999999100321MD1710311-0051MW1101OC100861OD141200861333REMSYN004BUFR
0224576870999992020010609004+28120+112780FM-12+011999999V0203261N0055199999999001700199+00701+00701101651ADDAA106999999AA212999999AA324999999AY101031AY201031GA1999+000501999GE19MSL   +99999+99999GF108991999999000501999999IA2999+00799KA1240M+01241KA2240N+00701MA1999999100181MD1710141-0111MW1101OC100911OD141200911329REMSYN004BUFR
0230576870999992020010612004+28120+112780FM-12+011999999V0203201N0075199999999002500199+00601+00601101851ADDAA106999999AA224000091AJ199999999999999AY101061AY201061GA1999+000501999GE19MSL   +99999+99999GF108991999999000501999999IA2999+00689KA1240M+00881KA2240N+00601MA1999999100371MD1210191-0061MW1101OC101291OD141201291339REMSYN004BUFR
0144576870999992020010615004+28120+112780FM-12+011999999V0203361N0056199999999003400199+00521+00521101761ADDAA106999999AA212999999AA324999999IA2999+00619KA1240M+00821KA2240N+00521MA1999999100281MD1710091-0301MW1101OC101291OD141201291339REMSYN004BUFR
0160576870999992020010618004+28120+112780FM-12+011999999V0200131N0029199999999003000199+00511+00511101521ADDAA106003531AA212003531AA324003531AY101999AY201999IA2999+00569KA1240M+00821KA2240N+00501MA1999999100041MD1710241-0541MW1621OC101911OD141201911303REMSYN004BUFR
0144576870999992020010621004+28120+112780FM-12+011999999V0203481N0037199999999009100199+00451+00431101931ADDAA106014631AA212014631AA324014631IA2999+00489KA1240M+00821KA2240N+00441MA1999999100441MD1210401-0061MW1601OC101911OD141201911303REMSYN004BUFR
0230576870999992020010700004+28120+112780FM-12+011999999V0203211N0024199999999018400199+00421+00381102441ADDAA106011931AA224015431AJ100023100015099AY161121AY201121GA1999+004001999GE19MSL   +99999+99999GF108991999999004001999999IA2999+00469KA1240M+00821KA2240N+00411MA1999999100941MD1210501+0321MW1001OC101911OD141201911303REMSYN004BUFR
0224576870999992020010703004+28120+112780FM-12+011999999V0203361N0043199999999020200199+00521+00331102601ADDAA106000831AA212015431AA324015431AY101031AY201031GA1999+006001999GE19MSL   +99999+99999GF108991999999006001999999IA2999+00469KA1240M+00821KA2240N+00411MA1999999101101MD1210161+0471MW1001OC101911OD141201911303REMSYN004BUFR
0230576870999992020010706004+28120+112780FM-12+011999999V0203281N0030199999999030000199+00921+00311102501ADDAA106999999AA224015431AJ100013100012099AY101061AY201061GA1999+012001999GE19MSL   +99999+99999GF107991999999012001999999IA2999+00469KA1240M+00931KA2240N+00411MA1999999101011MD1710091+0691MW1001OC101661OD141201661319REMSYN004BUFR
0224576870999992020010709004+28120+112780FM-12+011999999V0200481N0024199999999028900199+00801+00301102501ADDAA106999999AA212000831AA324015431AY101031AY201031GA1999+010001999GE19MSL   +99999+99999GF106991999999010001999999IA2999+00469KA1240M+01021KA2240N+00411MA1999999101011MD1410001+0831MW1001OC101131OD141201131340REMSYN004BUFR
0192576870999992020010712004+28120+112780FM-12+011999999V0202831N0011122000199018400199+00621+00381102641ADDAA106999999AA224015431AJ100009100000099AY101061AY201061GF100991999999999999999999IA2999+00489KA1240M+01021KA2240N+00411MA1999999101141MD1210131+0771MW1001OC100761OD141200761033REMSYN004BUFR
0144576870999992020010715004+28120+112780FM-12+011999999V0203351N0015199999999004600199+00401+00361102891ADDAA106999999AA212999999AA324015431IA2999+00279KA1240M+01021KA2240N+00371MA1999999101381MD1210241+1101MW1101OC100761OD141200761033REMSYN004BUFR
0160576870999992020010718004+28120+112780FM-12+011999999V0203171N0024199999999007000199+00401+00361102851ADDAA106999999AA212999999AA324011931AY101999AY201999IA2999+00209KA1240M+01021KA2240N+00351MA1999999101351MD1710031+1311MW1101OC100761OD141200761033REMSYN004BUFR
0136576870999992020010721004+28120+112780FM-12+011999999V0202871N0014199999999007300199+00351+00311102751ADDAA106999999AA212999999AA324000831IA2999+00129KA1240M+01021KA2240N+00351MA1999999101251MD1710101+0811MW1001OD141200471029REMSYN004BUFR
0222576870999992020010800004+28120+112780FM-12+011999999V0203601N0000122000199003300199+00261+00231102811ADDAA106999999AA224000091AJ199999999999999AY101121AY201121GA1999+030001999GE19MSL   +99999+99999GF102991999999030001999999IA2999+00099KA1240M+01021KA2240N+00251MA1999999101301MD1210051+0361MW1101OD141200411328REMSYN004BUFR
0224576870999992020010803004+28120+112780FM-12+011999999V0201421N0031199999999013900199+00601+00401102791ADDAA106999999AA212999999AA324999999AY101031AY201031GA1999+004001999GE19MSL   +99999+99999GF108991999999004001999999IA2999+00099KA1240M+01021KA2240N+00251MA1999999101291MD1710011+0191MW1001OC100521OD141200521125REMSYN004BUFR
0230576870999992020010806004+28120+112780FM-12+011999999V0203221N0014199999999021300199+00871+00401102431ADDAA106999999AA224000091AJ199999999999999AY101061AY201061GA1999+005001999GE19MSL   +99999+99999GF107991999999005001999999IA2999+00099KA1240M+01021KA2240N+00251MA1999999100941MD1710351-0071MW1001OC100521OD141200521129REMSYN004BUFR
0224576870999992020010809004+28120+112780FM-12+011999999V0203451N0045199999999030000199+00851+00391102261ADDAA106999999AA212999999AA324999999AY101031AY201031GA1999+018001999GE19MSL   +99999+99999GF107991999999018001999999IA2999+00099KA1240M+00981KA2240N+00251MA1999999100771MD1710171-0241MW1001OC100651OD141200651344REMSYN004BUFR
0166576870999992020010812004+28120+112780FM-12+011999999V0203341N0054199999999011500199+00571+00271102341ADDAA106999999AA224000091AJ199999999999999AY101061AY201061IA2999+00249KA1240M+00981KA2240N+00251MA1999999100841MD1210071-0301MW1001OC101101OD141201101349REMSYN004BUFR
0144576870999992020010815004+28120+112780FM-12+011999999V0203171N0052199999999007200199+00471+00271102321ADDAA106999999AA212999999AA324999999IA2999+00509KA1240M+00981KA2240N+00251MA1999999100831MD1710011-0551MW1101OC101131OD141201131329REMSYN004BUFR
0160576870999992020010818004+28120+112780FM-12+011999999V0203051N0044199999999006100199+00421+00241102271ADDAA106999999AA212999999AA324999999AY101999AY201999IA2999+00479KA1240M+00981KA2240N+00251MA1999999100781MD1710051-0571MW1101OC101131OD141201131329REMSYN004BUFR
0144576870999992020010821004+28120+112780FM-12+011999999V0203361N0049199999999008400199+00371+00221102201ADDAA106999999AA212999999AA324999999IA2999+00439KA1240M+00981KA2240N+00251MA1999999100711MD1710071-0541MW1001OC101131OD141201131329REMSYN004BUFR
0185576870999992020010900004+28120+112780FM-12+011999999V0203341N0053199999999015400199+00361+00271102361ADDAA106999999AA224999999AJ199999999999999AY101121AY201121IA2999+00429KA1240M+00981KA2240N+00261MA1999999100861MD1210151-0441MW1211OC101131OD141201131329REMSYN004BUFREQDQ01  00002PRCP24
0224576870999992020010903004+28120+112780FM-12+011999999V0203291N0042199999999030000199+00321+00231102531ADDAA106999999AA212999999AA324999999AY101031AY201031GA1999+002001999GE19MSL   +99999+99999GF108991999999002001999999IA2999+00419KA1240M+00981KA2240N+00301MA1999999101031MD1210171-0261MW1001OC101111OD141201111325REMSYN004BUFR
0166576870999992020010906004+28120+112780FM-12+011999999V0203271N0050199999999021000199+00301+00261102331ADDAA106000231AA224000231AJ100003100000099AY101061AY201061IA2999+00419KA1240M+00981KA2240N+00291MA1999999100831MD1710201-0111MW1211OC101011OD141201011330REMSYN004BUFR
0224576870999992020010909004+28120+112780FM-12+011999999V0203131N0036199999999020400199+00301+00261102291ADDAA106001131AA212001131AA324001131AY161031AY261031GA1999+001501999GE19MSL   +99999+99999GF108991999999001501999999IA2999+00419KA1240M+00851KA2240N+00281MA1999999100791MD1710041+0021MW1601OC101011OD141201011330REMSYN004BUFR
0230576870999992020010912004+28120+112780FM-12+011999999V0203271N0037199999999016500199+00301+00271102401ADDAA106000931AA224001131AJ100003100001099AY161061AY201061GA1999+001001999GE19MSL   +99999+99999GF108991999999001001999999IA2999+00399KA1240M+00571KA2240N+00281MA1999999100891MD1210101+0051MW1001OC100961OD141200961322REMSYN004BUFR
0144576870999992020010915004+28120+112780FM-12+011999999V0203361N0039199999999006200199+00301+00271102431ADDAA106999999AA212001131AA324001131IA2999+00379KA1240M+00481KA2240N+00281MA1999999100921MD1210031+0091MW1101OC100911OD141200911336REMSYN004BUFR
0160576870999992020010918004+28120+112780FM-12+011999999V0203321N0042199999999005500199+00261+00231102311ADDAA106000331AA212001231AA324001431AY101999AY201999IA2999+00359KA1240M+00421KA2240N+00261MA1999999100801MD1710121+0021MW1101OC100921OD141200921320REMSYN004BUFR
0144576870999992020010921004+28120+112780FM-12+011999999V0203371N0032199999999005400199+00251+00231102261ADDAA106000631AA212000631AA324001731IA2999+00329KA1240M+00391KA2240N+00241MA1999999100751MD1710051+0041MW1101OC100921OD141200921338REMSYN004BUFR
0230576870999992020011000004+28120+112780FM-12+011999999V0203251N0044199999999004300199+00251+00231102341ADDAA106000731AA224002131AJ100003100001099AY161121AY201121GA1999+001501999GE19MSL   +99999+99999GF108991999999001501999999IA2999+00329KA1240M+00361KA2240N+00241MA1999999100831MD1210081-0031MW1601OC100921OD141200921338REMSYN004BUFR
0224576870999992020011003004+28120+112780FM-12+011999999V0203221N0036199999999007500199+00251+00231102501ADDAA106001631AA212002231AA324003331AY161031AY201031GA1999+001501999GE19MSL   +99999+99999GF108991999999001501999999IA2999+00329KA1240M+00321KA2240N+00221MA1999999100991MD1210161-0041MW1601OC100921OD141200921340REMSYN004BUFR
0230576870999992020011006004+28120+112780FM-12+011999999V0203291N0032199999999010900199+00261+00231102271ADDAA106002031AA224003931AJ100003100003099AY161061AY201061GA1999+001501999GE19MSL   +99999+99999GF108991999999001501999999IA2999+00329KA1240M+00311KA2240N+00221MA1999999100761MD1710231-0071MW1601OC100921OD141200921340REMSYN004BUFR
0224576870999992020011009004+28120+112780FM-12+011999999V0203311N0025199999999012500199+00251+00191102301ADDAA106001931AA212003531AA324004131AY161031AY261031GA1999+001501999GE19MSL   +99999+99999GF108991999999001501999999IA2999+00329KA1240M+00311KA2240N+00221MA1999999100791MD1210031+0001MW1601OC100921OD141200921340REMSYN004BUFR
0230576870999992020011012004+28120+112780FM-12+011999999V0203321N0040199999999004600199+00261+00231102451ADDAA106002931AA224005931AJ100003100005099AY161061AY201061GA1999+001501999GE19MSL   +99999+99999GF108991999999001501999999IA2999+00329KA1240M+00311KA2240N+00221MA1999999100941MD1210151+0051MW1601OC100921OD141200921340REMSYN004BUFR
0144576870999992020011015004+28120+112780FM-12+011999999V0203431N0040199999999007000199+00251+00221102471ADDAA106003831AA212005731AA324007931IA2999+00319KA1240M+00301KA2240N+00221MA1999999100961MD1210021+0041MW1601OC100891OD141200891348REMSYN004BUFR
0160576870999992020011018004+28120+112780FM-12+011999999V0203581N0031199999999006100199+00251+00221102411ADDAA106006631AA212009531AA324012231AY101999AY201999IA2999+00299KA1240M+00271KA2240N+00221MA1999999100901MD1710061+0101MW1601OC100941OD141200941328REMSYN004BUFR
0144576870999992020011021004+28120+112780FM-12+011999999V0203381N0045199999999006300199+00261+00231102521ADDAA106008231AA212012031AA324015531IA2999+00299KA1240M+00271KA2240N+00221MA1999999101011MD1210111+0261MW1601OC100951OD141200951343REMSYN004BUFR
0230576870999992020011100004+28120+112780FM-12+011999999V0203331N0043199999999003400199+00251+00221102661ADDAA106006831AA224018331AJ100013100013099AY161121AY201121GA1999+001501999GE19MSL   +99999+99999GF108991999999001501999999IA2999+00289KA1240M+00271KA2240N+00221MA1999999101151MD1210141+0321MW1601OC100951OD141200951343REMSYN004BUFR
0224576870999992020011103004+28120+112780FM-12+011999999V0203341N0047199999999006500199+00401+00321102771ADDAA106003231AA212011431AA324017131AY101031AY201031GA1999+001501999GE19MSL   +99999+99999GF108991999999001501999999IA2999+00289KA1240M+00391KA2240N+00241MA1999999101261MD1210111+0271MW1101OC100951OD141200951343REMSYN004BUFR
0230576870999992020011106004+28120+112780FM-12+011999999V0203331N0022199999999010100199+00471+00251102551ADDAA106999999AA224016331AJ100013100007099AY101061AY201061GA1999+005001999GE19MSL   +99999+99999GF108991999999005001999999IA2999+00289KA1240M+00481KA2240N+00241MA1999999101041MD1710221+0281MW1001OC100951OD141200951343REMSYN004BUFR
0224576870999992020011109004+28120+112780FM-12+011999999V0203461N0019199999999017700199+00551+00161102561ADDAA106999999AA212003231AA324015231AY101031AY201031GA1999+008001999GE19MSL   +99999+99999GF108991999999008001999999IA2999+00289KA1240M+00561KA2240N+00251MA1999999101061MD1210021+0271MW1001OC100931OD141200931344REMSYN004BUFR
0144576870999992020011115004+28120+112780FM-12+011999999V0203601N0000199999999001400199+00201+00151102771ADDAA106999999AA212999999AA324011431IA2999+00079KA1240M+00561KA2240N+00191MA1999999101261MD1210091+0301MW1281OC100811OD141200811324REMSYN004BUFR
0160576870999992020011118004+28120+112780FM-12+011999999V0202641N0015199999999000300199+00001-00041102761ADDAA106999999AA212999999AA324006831AY141999AY201999IA2999-00079KA1240M+00561KA2240N-00011MA1999999101241MD1710021+0341MW1451OC100771OD141200771343REMSYN004BUFR
0136576870999992020011121004+28120+112780FM-12+011999999V0203031N0016199999999000300199-00151-00181102591ADDAA106999999AA212999999AA324003231IA2999-00079KA1240M+00561KA2240N-00191MA1999999101071MD1710171+0061MW1451OD141200371347REMSYN004BUFR
0184576870999992020011200004+28120+112780FM-12+011999999V0202751N0016122000199000300199-00221-00251102711ADDAA106999999AA224000091AJ199999999999999AY101121AY201121GF100991999999999999999999IA2999-00079KA1240M+00561KA2240N-00241MA1999999101191MD1210121+0041MW1461OD141200261306REMSYN004BUFR
0216576870999992020011203004+28120+112780FM-12+011999999V0201361N0021122000199011700199+00611+00571102691ADDAA106999999AA212999999AA324999999AY141031AY201031GA1999+015001999GE19MSL   +99999+99999GF102991999999015001999999IA2999-00079KA1240M+00611KA2240N-00241MA1999999101181MD1710011-0081MW1001OD141200401127REMSYN004BUFR
0230576870999992020011206004+28120+112780FM-12+011999999V0201371N0035199999999022300199+00901+00141102241ADDAA106999999AA224000091AJ199999999999999AY141061AY201061GA1999+008001999GE19MSL   +99999+99999GF106991999999008001999999IA2999-00049KA1240M+00951KA2240N-00241MA1999999100741MD1710441-0301MW1001OC100721OD141200721139REMSYN004BUFR
0224576870999992020011209004+28120+112780FM-12+011999999V0201301N0028199999999016000199+00671+00111102281ADDAA106999999AA212999999AA324999999AY101031AY201031GA1999+008001999GE19MSL   +99999+99999GF107991999999008001999999IA2999-00049KA1240M+00951KA2240N-00241MA1999999100771MD1210031-0291MW1001OC100721OD141200721139REMSYN004BUFR
0230576870999992020011212004+28120+112780FM-12+011999999V0200861N0004122000199014100199+00451+00101102391ADDAA106999999AA224000091AJ199999999999999AY101061AY201061GA1999+025001999GE19MSL   +99999+99999GF103991999999025001999999IA2999-00029KA1240M+00951KA2240N-00241MA1999999100871MD1210101-0301MW1001OC100721OD141200721139REMSYN004BUFR
0144576870999992020011215004+28120+112780FM-12+011999999V0203031N0007199999999008600199+00221+00101102401ADDAA106999999AA212999999AA324999999IA2999+00049KA1240M+00951KA2240N-00241MA1999999100901MD1210031-0361MW1001OC100721OD141200721139REMSYN004BUFR
0160576870999992020011218004+28120+112780FM-12+011999999V0203601N0000199999999004300199+00121+00061102231ADDAA106999999AA212999999AA324999999AY101999AY201999IA2999-00059KA1240M+00951KA2240N-00241MA1999999100741MD1710161-0501MW1101OC100701OD141200701140REMSYN004BUFR
0144576870999992020011221004+28120+112780FM-12+011999999V0203601N0000199999999006900199+00101+00031102291ADDAA106999999AA212999999AA324999999IA2999-00059KA1240M+00951KA2240N-00241MA1999999100791MD1210051-0281MW1101OC100661OD141200661122REMSYN004BUFR
0222576870999992020011300004+28120+112780FM-12+011999999V0201031N0015199999999008600199+00301+00231102281ADDAA106999999AA224000091AJ199999999999999AY101121AY201121GA1999+009001999GE19MSL   +99999+99999GF107991999999009001999999IA2999-00059KA1240M+00951KA2240N-00221MA1999999100781MD1710011-0411MW1001OD141200371093REMSYN004BUFR
0216576870999992020011303004+28120+112780FM-12+011999999V0201181N0013199999999017700199+00671+00071102461ADDAA106999999AA212999999AA324999999AY101031AY201031GA1999+012001999GE19MSL   +99999+99999GF107991999999012001999999IA2999-00059KA1240M+00951KA2240N-00061MA1999999100961MD1210181-0221MW1001OD141200371093REMSYN004BUFR
0222576870999992020011306004+28120+112780FM-12+011999999V0201491N0012199999999027900199+00861-00041102211ADDAA106999999AA224000091AJ199999999999999AY101061AY201061GA1999+013001999GE19MSL   +99999+99999GF107991999999013001999999IA2999-00039KA1240M+00911KA2240N-00061MA1999999100711MD1710251-0031MW1001OD141200411144REMSYN004BUFR
0224576870999992020011309004+28120+112780FM-12+011999999V0200221N0020199999999029600199+00771-00021102231ADDAA106999999AA212999999AA324999999AY101031AY201031GA1999+016001999GE19MSL   +99999+99999GF108991999999016001999999IA2999+00089KA1240M+00901KA2240N-00061MA1999999100731MD1210021-0041MW1001OC100561OD141200561032REMSYN004BUFR
0230576870999992020011312004+28120+112780FM-12+011999999V0203401N0026199999999025200199+00711+00031102411ADDAA106999999AA224000091AJ199999999999999AY101061AY201061GA1999+014001999GE19MSL   +99999+99999GF108991999999014001999999IA2999+00319KA1240M+00901KA2240N-00061MA1999999100911MD1210181+0041MW1001OC100561OD141200561032REMSYN004BUFR
0144576870999992020011315004+28120+112780FM-12+011999999V0203401N0031199999999019900199+00661+00131102601ADDAA106999999AA212999999AA324999999IA2999+00559KA1240M+00901KA2240N-00061MA1999999101111MD1210201+0211MW1211OC100671OD141200671346REMSYN004BUFR
0160576870999992020011318004+28120+112780FM-12+011999999V0203401N0028199999999012500199+00621+00311102601ADDAA106999999AA212999999AA324999999AY101999AY201999IA2999+00559KA1240M+00901KA2240N-00061MA1999999101111MD1410001+0371MW1001OC100671OD141200671346REMSYN004BUFR
0230576870999992020011400004+28120+112780FM-12+011999999V0203141N0029199999999009100199+00521+00281102771ADDAA106999999AA224000091AJ199999999999999AY101121AY201121GA1999+015001999GE19MSL   +99999+99999GF108991999999015001999999IA2999+00529KA1240M+00901KA2240N+00301MA1999999101271MD1210171+0491MW1001OC100821OD141200821345REMSYN004BUFR
0224576870999992020011403004+28120+112780FM-12+011999999V0203341N0016199999999008600199+00661+00381102741ADDAA106000131AA212000131AA324000131AY161031AY201031GA1999+003001999GE19MSL   +99999+99999GF108991999999003001999999IA2999+00529KA1240M+00901KA2240N+00511MA1999999101251MD1710021+0291MW1001OC100821OD141200821345REMSYN004BUFR
0230576870999992020011406004+28120+112780FM-12+011999999V0203261N0025199999999004200199+00551+00371102581ADDAA106000231AA224000231AJ100003100000099AY161061AY201061GA1999+003001999GE19MSL   +99999+99999GF108991999999003001999999IA2999+00529KA1240M+00901KA2240N+00511MA1999999101081MD1710171+0371MW1601OC100821OD141200821345REMSYN004BUFR
0224576870999992020011409004+28120+112780FM-12+011999999V0203321N0014199999999004900199+00621+00391102491ADDAA106000131AA212000231AA324000231AY161031AY201031GA1999+002501999GE19MSL   +99999+99999GF108991999999002501999999IA2999+00529KA1240M+00771KA2240N+00511MA1999999101001MD1710081+0271MW1101OC100801OD141200801320REMSYN004BUFR
0230576870999992020011412004+28120+112780FM-12+011999999V0203101N0008199999999003400199+00571+00441102451ADDAA106999999AA224000231AJ100003100000099AY161061AY201061GA1999+002501999GE19MSL   +99999+99999GF108991999999002501999999IA2999+00539KA1240M+00711KA2240N+00511MA1999999100951MD1710051+0041MW1211OC100801OD141200801320REMSYN004BUFR
0144576870999992020011415004+28120+112780FM-12+011999999V0203281N0023199999999001800199+00521+00461102461ADDAA106001331AA212001431AA324001531IA2999+00569KA1240M+00681KA2240N+00511MA1999999100971MD1210021-0141MW1601OC100751OD141200751338REMSYN004BUFR
0160576870999992020011418004+28120+112780FM-12+011999999V0203101N0017199999999001200199+00551+00501102351ADDAA106006031AA212006031AA324006231AY101999AY201999IA2999+00569KA1240M+00681KA2240N+00511MA1999999100861MD1710111-0251MW1621OC100551OD141200551020REMSYN004BUFR
0144576870999992020011421004+28120+112780FM-12+011999999V0203211N0008199999999002000199+00511+00481102171ADDAA106008531AA212009831AA324010031IA2999+00559KA1240M+00681KA2240N+00501MA1999999100681MD1710181-0421MW1601OC100551OD141200551020REMSYN004BUFR
0230576870999992020011500004+28120+112780FM-12+011999999V0203171N0012199999999003800199+00501+00461102281ADDAA106009331AA224015531AJ100023100015099AY161121AY201121GA1999+001001999GE19MSL   +99999+99999GF108991999999001001999999IA2999+00539KA1240M+00681KA2240N+00491MA1999999100791MD1210111-0481MW1601OC100551OD141200551020REMSYN004BUFR
0224576870999992020011503004+28120+112780FM-12+011999999V0203041N0018199999999004500199+00511+00481102391ADDAA106007331AA212015831AA324017231AY161031AY261031GA1999+000801999GE19MSL   +99999+99999GF108991999999000801999999IA2999+00539KA1240M+00681KA2240N+00491MA1999999100891MD1210101-0361MW1601OC100551OD141200551020REMSYN004BUFR
0230576870999992020011506004+28120+112780FM-12+011999999V0203101N0029199999999005200199+00401+00361102161ADDAA106004131AA224019431AJ100013100013099AY161061AY261061GA1999+001501999GE19MSL   +99999+99999GF108991999999001501999999IA2999+00529KA1240M+00621KA2240N+00401MA1999999100661MD1710231-0421MW1601OC100751OD141200751321REMSYN004BUFR
0224576870999992020011509004+28120+112780FM-12+011999999V0203441N0031199999999006200199+00301+00261102211ADDAA106002531AA212009831AA324019631AY161031AY261031GA1999+001501999GE19MSL   +99999+99999GF108991999999001501999999IA2999+00409KA1240M+00621KA2240N+00301MA1999999100711MD1210051-0291MW1601OC100881OD141200881324REMSYN004BUFR
0166576870999992020011512004+28120+112780FM-12+011999999V0203141N0026199999999004800199+00251+00201102421ADDAA106000431AA224019831AJ100003100005099AY101061AY201061IA2999+00329KA1240M+00581KA2240N+00231MA1999999100921MD1210211-0031MW1601OC100941OD141200941347REMSYN004BUFR
0144576870999992020011515004+28120+112780FM-12+011999999V0203431N0034199999999006600199+00211+00151102631ADDAA106003031AA212005531AA324021331IA2999+00269KA1240M+00551KA2240N+00201MA1999999101121MD1210201+0151MW1621OC101041OD141201041338REMSYN004BUFR
0160576870999992020011518004+28120+112780FM-12+011999999V0203301N0043199999999006600199+00171+00101102701ADDAA106003931AA212004331AA324017731AY101999AY201999IA2999+00229KA1240M+00541KA2240N+00171MA1999999101191MD1210071+0331MW1601OC101171OD141201171336REMSYN004BUFR
0144576870999992020011521004+28120+112780FM-12+011999999V0203331N0044199999999004800199+00151+00071102761ADDAA106003431AA212006431AA324016231IA2999+00199KA1240M+00521KA2240N+00141MA1999999101241MD1210051+0561MW1601OC101191OD141201191356REMSYN004BUFR
0166576870999992020011600004+28120+112780FM-12+011999999V0203421N0049199999999003700199+00121+00051102921ADDAA106003431AA224011831AJ100013100007099AY101121AY201121IA2999+00189KA1240M+00521KA2240N+00121MA1999999101401MD1210161+0611MW1601OC101191OD141201191356REMSYN004BUFR
0160576870999992020011603004+28120+112780FM-12+011999999V0203441N0045199999999004900199+00161+00011103071ADDAA106001331AA212004731AA324010231AY101031AY201031IA2999+00179KA1240M+00511KA2240N+00121MA1999999101551MD1210151+0661MW1101OC101211OD141201211349REMSYN004BUFR
0166576870999992020011606004+28120+112780FM-12+011999999V0203401N0048199999999004300199+00171+00021102851ADDAA106000231AA224007931AJ100003100004099AY101061AY201061IA2999+00179KA1240M+00401KA2240N+00121MA1999999101331MD1710221+0671MW1101OC101211OD141201211349REMSYN004BUFR
0160576870999992020011609004+28120+112780FM-12+011999999V0203441N0034199999999009800199+00251-00131102871ADDAA106999999AA212001331AA324007731AY101031AY201031IA2999+00179KA1240M+00301KA2240N+00121MA1999999101351MD1210021+0641MW1001OC101211OD141201211349REMSYN004BUFR
0166576870999992020011612004+28120+112780FM-12+011999999V0203561N0020199999999008400199+00261-00081103021ADDAA106999999AA224007531AJ100003100000099AY101061AY201061IA2999+00179KA1240M+00261KA2240N+00121MA1999999101501MD1210151+0581MW1001OC101211OD141201211349REMSYN004BUFR
0144576870999992020011615004+28120+112780FM-12+011999999V0203561N0027199999999006500199+00271-00011103111ADDAA106999999AA212999999AA324004731IA2999+00249KA1240M+00271KA2240N+00121MA1999999101591MD1210091+0471MW1101OC100961OD141200961352REMSYN004BUFR
0160576870999992020011618004+28120+112780FM-12+011999999V0203401N0014199999999008800199+00251-00121103121ADDAA106999999AA212999999AA324003631AY101999AY201999IA2999+00219KA1240M+00271KA2240N+00121MA1999999101601MD1210011+0411MW1001OC100901OD141200901343REMSYN004BUFR
0144576870999992020011621004+28120+112780FM-12+011999999V0203371N0033199999999006500199+00201-00041102991ADDAA106999999AA212999999AA324001331IA2999+00209KA1240M+00271KA2240N+00121MA1999999101471MD1710131+0231MW1101OC100751OD141200751336REMSYN004BUFR
0166576870999992020011700004+28120+112780FM-12+011999999V0203141N0025199999999005200199+00071-00031103101ADDAA106999999AA224000231AJ100009100000099AY101121AY201121IA2999-00059KA1240M+00271KA2240N+00051MA1999999101571MD1210101+0171MW1101OC100751OD141200751336REMSYN004BUFR
0160576870999992020011703004+28120+112780FM-12+011999999V0200071N0009199999999011000199+00421+00001103111ADDAA106999999AA212999999AA324999999AY101031AY201031IA2999-00059KA1240M+00421KA2240N+00051MA1999999101591MD1210021+0041MW1001OC100751OD141200751336REMSYN004BUFR
0166576870999992020011706004+28120+112780FM-12+011999999V0200301N0026199999999023300199+00511-00161102801ADDAA106999999AA224000091AJ199999999999999AY101061AY201061IA2999-00059KA1240M+00581KA2240N+00051MA1999999101291MD1710301-0041MW1001OC100611OD141200611034REMSYN004BUFR
0160576870999992020011709004+28120+112780FM-12+011999999V0203271N0017199999999018600199+00471-00071102751ADDAA106999999AA212999999AA324999999AY101031AY201031IA2999-00059KA1240M+00581KA2240N+00051MA1999999101241MD1710051-0111MW1001OC100611OD141200611034REMSYN004BUFR
0166576870999992020011712004+28120+112780FM-12+011999999V0203601N0000199999999014300199+00451-00021102851ADDAA106999999AA224000091AJ199999999999999AY101061AY201061IA2999+00029KA1240M+00581KA2240N+00051MA1999999101331MD1210091-0171MW1001OC100611OD141200611034REMSYN004BUFR
0144576870999992020011715004+28120+112780FM-12+011999999V0202811N0008199999999012200199+00361+00101102831ADDAA106999999AA212999999AA324999999IA2999+00319KA1240M+00581KA2240N+00051MA1999999101321MD1710011-0271MW1001OC100611OD141200611034REMSYN004BUFR
0152576870999992020011718004+28120+112780FM-12+011999999V0203141N0011199999999012600199+00351+00081102731ADDAA106999999AA212999999AA324999999AY101999AY201999IA2999+00209KA1240M+00581KA2240N+00051MA1999999101221MD1710101-0381MW1001OD141200481333REMSYN004BUFR
0136576870999992020011721004+28120+112780FM-12+011999999V0202711N0008199999999010500199+00351+00131102531ADDAA106999999AA212999999AA324999999IA2999+00209KA1240M+00581KA2240N+00051MA1999999101031MD1710191-0441MW1001OD141200301321REMSYN004BUFR
0158576870999992020011800004+28120+112780FM-12+011999999V0203241N0026199999999007100199+00361+00181102661ADDAA106999999AA224000091AJ199999999999999AY101121AY201121IA2999+00209KA1240M+00581KA2240N+00071MA1999999101151MD1210121-0421MW1101OD141200381346REMSYN004BUFR
0152576870999992020011803004+28120+112780FM-12+011999999V0203221N0027199999999012100199+00521+00141102761ADDAA106999999AA212999999AA324999999AY101031AY201031IA2999+00209KA1240M+00581KA2240N+00281MA1999999101251MD1210101-0341MW1001OD141200471336REMSYN004BUFR
0166576870999992020011806004+28120+112780FM-12+011999999V0203371N0027199999999010300199+00551+00081102491ADDAA106999999AA224000091AJ199999999999999AY101061AY201061IA2999+00329KA1240M+00551KA2240N+00281MA1999999100991MD1710261-0301MW1001OC100641OD141200641345REMSYN004BUFR
0160576870999992020011809004+28120+112780FM-12+011999999V0203281N0028199999999010900199+00451+00051102441ADDAA106999999AA212999999AA324999999AY101031AY201031IA2999+00349KA1240M+00551KA2240N+00281MA1999999100941MD1710051-0301MW1001OC100701OD141200701342REMSYN004BUFR
0166576870999992020011812004+28120+112780FM-12+011999999V0203141N0034199999999011400199+00421+00111102661ADDAA106999999AA224000091AJ199999999999999AY101061AY201061IA2999+00399KA1240M+00551KA2240N+00281MA1999999101151MD1210211-0181MW1001OC100701OD141200701342REMSYN004BUFR
0144576870999992020011815004+28120+112780FM-12+011999999V0202871N0010199999999008700199+00401+00121102831ADDAA106999999AA212999999AA324999999IA2999+00399KA1240M+00551KA2240N+00281MA1999999101321MD1210171+0001MW1001OC100721OD141200721325REMSYN004BUFR
0160576870999992020011818004+28120+112780FM-12+011999999V0203241N0018199999999007900199+00361+00101102801ADDAA106999999AA212999999AA324999999AY101999AY201999IA2999+00379KA1240M+00551KA2240N+00321MA1999999101291MD1710031+0071MW1001OC100721OD141200721325REMSYN004BUFR
0144576870999992020011821004+28120+112780FM-12+011999999V0203601N0000199999999005400199+00271+00111102701ADDAA106999999AA212999999AA324999999IA2999+00189KA1240M+00551KA2240N+00271MA1999999101191MD1710101+0161MW1101OC100721OD141200721325REMSYN004BUFR
0166576870999992020011900004+28120+112780FM-12+011999999V0203601N0002199999999003100199+00271+00191102881ADDAA106999999AA224000091AJ199999999999999AY101121AY201121IA2999+00189KA1240M+00551KA2240N+00231MA1999999101371MD1210181+0221MW1101OC100721OD141200721325REMSYN004BUFR
0160576870999992020011903004+28120+112780FM-12+011999999V0202521N0009199999999008900199+00751+00151102961ADDAA106999999AA212999999AA324999999AY101031AY201031IA2999+00189KA1240M+00741KA2240N+00231MA1999999101461MD1210091+0211MW1001OC100521OD141200521321REMSYN004BUFR
0222576870999992020011906004+28120+112780FM-12+011999999V0203361N0010122000199014000199+01151-00031102621ADDAA106999999AA224000091AJ199999999999999AY101061AY201061GA1999+015001999GE19MSL   +99999+99999GF103991999999015001999999IA2999+00189KA1240M+01161KA2240N+00231MA1999999101131MD1710331+0141MW1001OD141200491020REMSYN004BUFR
0186576870999992020011909004+28120+112780FM-12+011999999V0200631N0021122000199016600199+01001-00141102491ADDAA106999999AA212999999AA324999999AY101031AY201031GF100991999999999999999999IA2999+00259KA1240M+01161KA2240N+00231MA1999999101001MD1710131+0061MW1001OC100551OD141200551046REMSYN004BUFR
0192576870999992020011912004+28120+112780FM-12+011999999V0203601N0000122000199012000199+00651-00061102601ADDAA106999999AA224000091AJ199999999999999AY101061AY201061GF100991999999999999999999IA2999+00369KA1240M+01161KA2240N+00231MA1999999101101MD1210101-0051MW1001OC100551OD141200551046REMSYN004BUFR
0144576870999992020011915004+28120+112780FM-12+011999999V0202761N0017199999999005800199+00301+00101102671ADDAA106999999AA212999999AA324999999IA2999+00189KA1240M+01161KA2240N+00231MA1999999101171MD1210071-0151MW1101OC100551OD141200551046REMSYN004BUFR
0160576870999992020011918004+28120+112780FM-12+011999999V0202981N0011199999999005100199+00171+00071102591ADDAA106999999AA212999999AA324999999AY101999AY201999IA2999+00059KA1240M+01161KA2240N+00171MA1999999101101MD1710071-0191MW1101OC100551OD141200551046REMSYN004BUFR
0136576870999992020011921004+28120+112780FM-12+011999999V0200921N0015199999999006900199+00311+00101102451ADDAA106999999AA212999999AA324999999IA2999+00029KA1240M+01161KA2240N+00151MA1999999100961MD1710141-0231MW1101OD141200361064REMSYN004BUFR
0222576870999992020012000004+28120+112780FM-12+011999999V0201301N0025199999999005500199+00401+00251102651ADDAA106999999AA224000091AJ199999999999999AY101121AY201121GA1999+015001999GE19MSL   +99999+99999GF108991999999015001999999IA2999+00029KA1240M+01161KA2240N+00151MA1999999101151MD1210191-0221MW1101OD141200341130REMSYN004BUFR
0216576870999992020012003004+28120+112780FM-12+011999999V0201291N0013199999999008800199+00671+00311102751ADDAA106999999AA212999999AA324999999AY161031AY201031GA1999+020001999GE19MSL   +99999+99999GF108991999999020001999999IA2999+00029KA1240M+01161KA2240N+00151MA1999999101251MD1210101-0211MW1001OD141200341130REMSYN004BUFR
0222576870999992020012006004+28120+112780FM-12+011999999V0201571N0022199999999016400199+01101+00211102431ADDAA106999999AA224000091AJ199999999999999AY161061AY201061GA1999+027001999GE19MSL   +99999+99999GF107991999999027001999999IA2999+00029KA1240M+01161KA2240N+00151MA1999999100941MD1710311-0191MW1001OD141200391152REMSYN004BUFR
0216576870999992020012009004+28120+112780FM-12+011999999V0201671N0007199999999018900199+01071+00161102351ADDAA106999999AA212999999AA324999999AY101031AY201031GA1999+032001999GE19MSL   +99999+99999GF106991999999032001999999IA2999+00329KA1240M+01151KA2240N+00151MA1999999100861MD1710081-0141MW1001OD141200491142REMSYN004BUFR
0222576870999992020012012004+28120+112780FM-12+011999999V0202881N0005199999999014500199+00951+00321102501ADDAA106999999AA224000091AJ199999999999999AY101061AY201061GA1999+018001999GE19MSL   +99999+99999GF108991999999018001999999IA2999+00439KA1240M+01151KA2240N+00151MA1999999101011MD1210151-0091MW1001OD141200491142REMSYN004BUFR
0136576870999992020012015004+28120+112780FM-12+011999999V0203161N0003199999999012300199+00851+00421102521ADDAA106999999AA212999999AA324999999IA2999+00809KA1240M+01151KA2240N+00151MA1999999101031MD1210021-0141MW1001OD141200491142REMSYN004BUFR
0152576870999992020012018004+28120+112780FM-12+011999999V0201061N0011199999999013800199+00901+00281102361ADDAA106999999AA212999999AA324999999AY101999AY201999IA2999+00789KA1240M+01151KA2240N+00151MA1999999100891MD1710141-0211MW1001OD141200491142REMSYN004BUFR
0136576870999992020012021004+28120+112780FM-12+011999999V0201261N0006199999999016400199+00801+00351102211ADDAA106999999AA212999999AA324999999IA2999+00759KA1240M+01151KA2240N+00311MA1999999100741MD1710151-0221MW1001OD141200441097REMSYN004BUFR
0158576870999992020012100004+28120+112780FM-12+011999999V0203601N0000199999999013300199+00801+00391102321ADDAA106999999AA224000091AJ199999999999999AY101121AY201121IA2999+00749KA1240M+01151KA2240N+00391MA1999999100841MD1210101-0311MW1001OD141200441097REMSYN004BUFR
0152576870999992020012103004+28120+112780FM-12+011999999V0203601N0000199999999012300199+00851+00501102421ADDAA106999999AA212999999AA324999999AY101031AY201031IA2999+00749KA1240M+01151KA2240N+00681MA1999999100941MD1210101-0311MW1001OD141200291136REMSYN004BUFR
0158576870999992020012106004+28120+112780FM-12+011999999V0203601N0000199999999012300199+00921+00511102071ADDAA106999999AA224000091AJ199999999999999AY101061AY201061IA2999+00749KA1240M+01151KA2240N+00741MA1999999100601MD1710341-0341MW1001OD141200271114REMSYN004BUFR
0216576870999992020012109004+28120+112780FM-12+011999999V0201071N0006199999999013300199+00921+00471101961ADDAA106999999AA212999999AA324999999AY101031AY201031GA1999+006001999GE19MSL   +99999+99999GF108991999999006001999999IA2999+00749KA1240M+01081KA2240N+00741MA1999999100491MD1710111-0371MW1001OD141200241121REMSYN004BUFR
0222576870999992020012112004+28120+112780FM-12+011999999V0203361N0023199999999009500199+00851+00551102071ADDAA106999999AA224000091AJ199999999999999AY101061AY201061GA1999+012001999GE19MSL   +99999+99999GF108991999999012001999999IA2999+00759KA1240M+00961KA2240N+00741MA1999999100591MD1210101-0421MW1001OD141200451348REMSYN004BUFR
0144576870999992020012115004+28120+112780FM-12+011999999V0203081N0040199999999007400199+00811+00661102191ADDAA106999999AA212999999AA324999999IA2999+00799KA1240M+00961KA2240N+00741MA1999999100711MD1210121-0321MW1101OC100661OD141200661328REMSYN004BUFR
0160576870999992020012118004+28120+112780FM-12+011999999V0203351N0031199999999007400199+00771+00671102071ADDAA106999999AA212999999AA324999999AY101999AY201999IA2999+00799KA1240M+00961KA2240N+00741MA1999999100601MD1710111-0291MW1001OC100661OD141200661328REMSYN004BUFR
0144576870999992020012121004+28120+112780FM-12+011999999V0203201N0035199999999007600199+00751+00711101871ADDAA106999999AA212999999AA324999999IA2999+00779KA1240M+00961KA2240N+00741MA1999999100401MD1710201-0341MW1211OC100661OD141200661328REMSYN004BUFR
0166576870999992020012200004+28120+112780FM-12+011999999V0203231N0042199999999008400199+00751+00711102071ADDAA106002931AA224002931AJ100003100003099AY101121AY201121IA2999+00749KA1240M+00961KA2240N+00741MA1999999100591MD1210191-0251MW1601OC100851OD141200851305REMSYN004BUFR
0160576870999992020012203004+28120+112780FM-12+011999999V0203251N0041199999999012400199+00751+00681102221ADDAA106002931AA212002931AA324002931AY101031AY201031IA2999+00749KA1240M+00961KA2240N+00731MA1999999100741MD1210151-0201MW1211OC100851OD141200851305REMSYN004BUFR
0230576870999992020012206004+28120+112780FM-12+011999999V0203441N0031199999999004900199+00711+00651102051ADDAA106999999AA224002931AJ100003100003099AY161061AY201061GA1999+001201999GE19MSL   +99999+99999GF108991999999001201999999IA2999+00749KA1240M+00961KA2240N+00701MA1999999100571MD1710171-0031MW1101OC100871OD141200871339REMSYN004BUFR
0224576870999992020012209004+28120+112780FM-12+011999999V0203451N0042199999999004300199+00651+00611102041ADDAA106999999AA212002931AA324002931AY101031AY201031GA1999+001001999GE19MSL   +99999+99999GF108991999999001001999999IA2999+00729KA1240M+00931KA2240N+00651MA1999999100561MD1710011+0071MW1101OC100871OD141200871339REMSYN004BUFR
0166576870999992020012212004+28120+112780FM-12+011999999V0203421N0034199999999003000199+00651+00611102191ADDAA106000631AA224003531AJ100003100001099AY101061AY201061IA2999+00689KA1240M+00841KA2240N+00641MA1999999100711MD1210151+0121MW1601OC100871OD141200871339REMSYN004BUFR
0144576870999992020012215004+28120+112780FM-12+011999999V0203441N0042199999999004300199+00651+00611102311ADDAA106000631AA212000631AA324003531IA2999+00679KA1240M+00811KA2240N+00641MA1999999100821MD1210111+0111MW1211OC100871OD141200871339REMSYN004BUFR
0160576870999992020012218004+28120+112780FM-12+011999999V0203411N0025199999999002700199+00621+00591102141ADDAA106999999AA212000631AA324003531AY101999AY201999IA2999+00669KA1240M+00781KA2240N+00631MA1999999100661MD1710161+0061MW1601OC100821OD141200821332REMSYN004BUFR
0144576870999992020012221004+28120+112780FM-12+011999999V0200591N0030199999999006300199+00571+00541102021ADDAA106013331AA212013931AA324016831IA2999+00619KA1240M+00751KA2240N+00581MA1999999100531MD1710131+0131MW1601OC101181OD141201181306REMSYN004BUFR
0166576870999992020012300004+28120+112780FM-12+011999999V0203341N0034199999999007100199+00601+00561102251ADDAA106018931AA224019531AJ100023100019099AY101121AY201121IA2999+00609KA1240M+00751KA2240N+00581MA1999999100761MD1210231+0171MW1601OC101181OD141201181306REMSYN004BUFR
0160576870999992020012303004+28120+112780FM-12+011999999V0202791N0020199999999005000199+00651+00601102361ADDAA106009531AA212022831AA324023431AY101031AY201031IA2999+00609KA1240M+00741KA2240N+00581MA1999999100871MD1210111+0131MW1601OC101181OD141201181306REMSYN004BUFR
0166576870999992020012306004+28120+112780FM-12+011999999V0203441N0041199999999003800199+00601+00561102101ADDAA106010531AA224030031AJ100033100029099AY101061AY201061IA2999+00609KA1240M+00711KA2240N+00581MA1999999100611MD1710261+0041MW1601OC101181OD141201181306REMSYN004BUFR
0160576870999992020012309004+28120+112780FM-12+011999999V0203421N0033199999999005300199+00601+00551102171ADDAA106012031AA212021531AA324035431AY101031AY201031IA2999+00609KA1240M+00661KA2240N+00581MA1999999100681MD1210071+0121MW1601OC100981OD141200981289REMSYN004BUFR
0166576870999992020012312004+28120+112780FM-12+011999999V0203151N0041199999999006300199+00601+00561102381ADDAA106005731AA224035131AJ100023100016099AY101061AY201061IA2999+00619KA1240M+00661KA2240N+00581MA1999999100891MD1210211+0181MW1601OC100981OD141200981289REMSYN004BUFR
0144576870999992020012315004+28120+112780FM-12+011999999V0203281N0041199999999007600199+00611+00571102541ADDAA106000831AA212012831AA324035631IA2999+00609KA1240M+00651KA2240N+00581MA1999999101051MD1210161+0231MW1211OC100961OD141200961342REMSYN004BUFR
0160576870999992020012318004+28120+112780FM-12+011999999V0203021N0053199999999001500199+00621+00591102431ADDAA106001031AA212006731AA324036131AY101999AY201999IA2999+00609KA1240M+00641KA2240N+00581MA1999999100941MD1710111+0281MW1601OC101161OD141201161018REMSYN004BUFR
0144576870999992020012321004+28120+112780FM-12+011999999V0203241N0050199999999006800199+00621+00601102471ADDAA106002131AA212002931AA324024431IA2999+00609KA1240M+00641KA2240N+00581MA1999999100981MD1210041+0451MW1601OC101161OD141201161018REMSYN004BUFR
0166576870999992020012400004+28120+112780FM-12+011999999V0203291N0023199999999003100199+00661+00631102651ADDAA106015431AA224039631AJ100023100023099AY101121AY201121IA2999+00609KA1240M+00661KA2240N+00591MA1999999101161MD1210181+0401MW1621OC101161OD141201161018REMSYN004BUFR
0224576870999992020012403004+28120+112780FM-12+011999999V0203431N0028199999999006400199+00701+00671102651ADDAA106004231AA212023731AA324036531AY161031AY201031GA1999+002001999GE19MSL   +99999+99999GF108991999999002001999999IA2999+00619KA1240M+00701KA2240N+00591MA1999999101161MD1410001+0291MW1101OC101161OD141201161018REMSYN004BUFR
0230576870999992020012406004+28120+112780FM-12+011999999V0203151N0036199999999010800199+00701+00661102591ADDAA106005731AA224034831AJ100023100021099AY161061AY201061GA1999+003001999GE19MSL   +99999+99999GF108991999999003001999999IA2999+00619KA1240M+00711KA2240N+00591MA1999999101101MD1710061+0491MW1601OC101081OD141201081335REMSYN004BUFR
0224576870999992020012409004+28120+112780FM-12+011999999V0203251N0056199999999007100199+00661+00621102591ADDAA106006331AA212010531AA324030831AY161031AY201031GA1999+002001999GE19MSL   +99999+99999GF108991999999002001999999IA2999+00629KA1240M+00711KA2240N+00591MA1999999101101MD1410001+0421MW1621OC101081OD141201081335REMSYN004BUFR
0230576870999992020012412004+28120+112780FM-12+011999999V0203511N0062199999999009100199+00601+00561102721ADDAA106011331AA224040431AJ100023100017099AY161061AY201061GA1999+001501999GE19MSL   +99999+99999GF108991999999001501999999IA2999+00599KA1240M+00711KA2240N+00591MA1999999101221MD1210121+0331MW1601OC101111OD141201111344REMSYN004BUFR
0144576870999992020012415004+28120+112780FM-12+011999999V0203361N0070199999999008800199+00511+00471102841ADDAA106012631AA212018931AA324042631IA2999+00539KA1240M+00711KA2240N+00511MA1999999101341MD1210121+0291MW1601OC101451OD141201451338REMSYN004BUFR
0160576870999992020012418004+28120+112780FM-12+011999999V0203381N0046199999999005300199+00451+00391102781ADDAA106006931AA212018231AA324039331AY171999AY201999IA2999+00459KA1240M+00711KA2240N+00451MA1999999101281MD1710061+0341MW1601OC101451OD141201451338REMSYN004BUFR
0144576870999992020012421004+28120+112780FM-12+011999999V0203401N0056199999999005100199+00451+00411102701ADDAA106005031AA212017631AA324028131IA2999+00449KA1240M+00711KA2240N+00421MA1999999101201MD1710081+0221MW1211OC101451OD141201451338REMSYN004BUFR
0166576870999992020012500004+28120+112780FM-12+011999999V0203391N0069199999999003200199+00451+00411102871ADDAA106001031AA224024931AJ100013100008099AY101121AY201121IA2999+00449KA1240M+00711KA2240N+00421MA1999999101371MD1210171+0211MW1101OC101451OD141201451338REMSYN004BUFR
0160576870999992020012503004+28120+112780FM-12+011999999V0203391N0059199999999002000199+00451+00411102911ADDAA106000231AA212005231AA324024131AY101031AY201031IA2999+00449KA1240M+00711KA2240N+00421MA1999999101401MD1210031+0241MW1101OC101441OD141201441340REMSYN004BUFR
0166576870999992020012506004+28120+112780FM-12+011999999V0203411N0073199999999004100199+00371+00351102671ADDAA106001631AA224020731AJ100003100003099AY161061AY201061IA2999+00449KA1240M+00701KA2240N+00381MA1999999101161MD1710241+0061MW1681OC101351OD141201351339REMSYN004BUFR
0160576870999992020012509004+28120+112780FM-12+011999999V0203531N0048199999999004300199+00401+00351102551ADDAA106004031AA212004231AA324021831AY101031AY201031IA2999+00439KA1240M+00651KA2240N+00381MA1999999101051MD1710111-0051MW1601OC101351OD141201351339REMSYN004BUFR
0166576870999992020012512004+28120+112780FM-12+011999999V0203441N0057199999999009300199+00311+00271102691ADDAA106007831AA224017231AJ100013100009099AY171061AY201061IA2999+00309KA1240M+00601KA2240N+00311MA1999999101181MD1210131-0041MW1601OC101351OD141201351339REMSYN004BUFR
0144576870999992020012515004+28120+112780FM-12+011999999V0203411N0051199999999008300199+00271+00231102751ADDAA106009631AA212013631AA324018831IA2999+00299KA1240M+00511KA2240N+00261MA1999999101241MD1210061-0101MW1601OC101351OD141201351339REMSYN004BUFR
0160576870999992020012518004+28120+112780FM-12+011999999V0203391N0072199999999005400199+00321+00301102701ADDAA106005631AA212013431AA324015931AY101999AY201999IA2999+00299KA1240M+00451KA2240N+00261MA1999999101191MD1710051-0091MW1101OC101181OD141201181339REMSYN004BUFR
0144576870999992020012521004+28120+112780FM-12+011999999V0203511N0048199999999005400199+00301+00271102531ADDAA106002031AA212011631AA324015831IA2999+00299KA1240M+00451KA2240N+00261MA1999999101021MD1710171-0181MW1601OC101251OD141201251347REMSYN004BUFR
0166576870999992020012600004+28120+112780FM-12+011999999V0203441N0049199999999005100199+00301+00261102651ADDAA106000931AA224015931AJ100013100007099AY101121AY201121IA2999+00299KA1240M+00451KA2240N+00261MA1999999101141MD1210121-0231MW1101OC101251OD141201251347REMSYN004BUFR
0160576870999992020012603004+28120+112780FM-12+011999999V0203571N0038199999999006400199+00351+00211102761ADDAA106000231AA212002231AA324015831AY101031AY201031IA2999+00299KA1240M+00441KA2240N+00261MA1999999101251MD1210111-0151MW1101OC101251OD141201251347REMSYN004BUFR
0166576870999992020012606004+28120+112780FM-12+011999999V0203301N0071199999999009400199+00371+00131102571ADDAA106999999AA224014331AJ100003100001099AY101061AY201061IA2999+00309KA1240M+00421KA2240N+00261MA1999999101061MD1710191-0101MW1001OC101311OD141201311326REMSYN004BUFR
0160576870999992020012609004+28120+112780FM-12+011999999V0203401N0053199999999008100199+00351+00101102591ADDAA106999999AA212000231AA324011831AY101031AY201031IA2999+00309KA1240M+00421KA2240N+00261MA1999999101081MD1210021+0031MW1001OC101311OD141201311326REMSYN004BUFR
0166576870999992020012612004+28120+112780FM-12+011999999V0203381N0032199999999010600199+00321+00051102681ADDAA106999999AA224006531AJ100009100000099AY101061AY201061IA2999+00299KA1240M+00421KA2240N+00261MA1999999101171MD1210091-0011MW1001OC101311OD141201311326REMSYN004BUFR
0144576870999992020012615004+28120+112780FM-12+011999999V0203491N0019199999999013400199+00351-00011102751ADDAA106999999AA212999999AA324002231IA2999+00289KA1240M+00421KA2240N+00271MA1999999101241MD1210071+0001MW1001OC101311OD141201311326REMSYN004BUFR
0160576870999992020012618004+28120+112780FM-12+011999999V0200151N0038199999999014600199+00351-00091102641ADDAA106999999AA212999999AA324000931AY101999AY201999IA2999+00259KA1240M+00421KA2240N+00291MA1999999101131MD1710111-0061MW1001OC101181OD141201181351REMSYN004BUFR
0144576870999992020012621004+28120+112780FM-12+011999999V0203401N0048199999999008300199+00301+00011102571ADDAA106999999AA212999999AA324000231IA2999+00249KA1240M+00421KA2240N+00291MA1999999101061MD1710071+0041MW1001OC101031OD141201031344REMSYN004BUFR
0166576870999992020012700004+28120+112780FM-12+011999999V0203411N0040199999999006100199+00301+00051102661ADDAA106999999AA224000091AJ199999999999999AY101121AY201121IA2999+00249KA1240M+00421KA2240N+00281MA1999999101151MD1210091+0011MW1101OC101031OD141201031344REMSYN004BUFR
0160576870999992020012703004+28120+112780FM-12+011999999V0203491N0044199999999006600199+00351+00061102781ADDAA106999999AA212999999AA324999999AY101031AY201031IA2999+00249KA1240M+00421KA2240N+00281MA1999999101271MD1210121+0021MW1101OC101031OD141201031344REMSYN004BUFR
0166576870999992020012706004+28120+112780FM-12+011999999V0200761N0022199999999012100199+00471+00061102471ADDAA106999999AA224000091AJ199999999999999AY101061AY201061IA2999+00249KA1240M+00511KA2240N+00281MA1999999100971MD1710301-0091MW1001OC101031OD141201031344REMSYN004BUFR
0160576870999992020012709004+28120+112780FM-12+011999999V0203401N0021199999999013900199+00501-00041102441ADDAA106999999AA212999999AA324999999AY101031AY201031IA2999+00259KA1240M+00561KA2240N+00281MA1999999100941MD1710031-0141MW1001OC100881OD141200881332REMSYN004BUFR
0166576870999992020012712004+28120+112780FM-12+011999999V0200051N0032199999999011800199+00451-00031102531ADDAA106999999AA224000091AJ199999999999999AY101061AY201061IA2999+00279KA1240M+00561KA2240N+00281MA1999999101021MD1210081-0151MW1001OC100881OD141200881332REMSYN004BUFR
0144576870999992020012715004+28120+112780FM-12+011999999V0202991N0016199999999013600199+00271-00011102611ADDAA106999999AA212999999AA324999999IA2999+00129KA1240M+00561KA2240N+00281MA1999999101101MD1210081-0141MW1001OC100651OD141200651337REMSYN004BUFR
0160576870999992020012718004+28120+112780FM-12+011999999V0202981N0016199999999003100199+00071+00011102641ADDAA106999999AA212999999AA324999999AY101999AY201999IA2999-00069KA1240M+00561KA2240N+00061MA1999999101131MD1210031+0001MW1101OC100621OD141200621011REMSYN004BUFR
0144576870999992020012721004+28120+112780FM-12+011999999V0202641N0014199999999005900199+00051-00031102541ADDAA106999999AA212999999AA324999999IA2999-00099KA1240M+00561KA2240N+00041MA1999999101031MD1710101-0031MW1101OC100621OD141200621011REMSYN004BUFR
0166576870999992020012800004+28120+112780FM-12+011999999V0202491N0016199999999005000199+00001-00091102661ADDAA106999999AA224000091AJ199999999999999AY101121AY201121IA2999-00099KA1240M+00561KA2240N-00011MA1999999101141MD1210111-0011MW1101OC100621OD141200621011REMSYN004BUFR
0224576870999992020012803004+28120+112780FM-12+011999999V0203441N0022122000199015200199+00651-00061102711ADDAA106999999AA212999999AA324999999AY101031AY201031GA1999+012001999GE19MSL   +99999+99999GF102991999999012001999999IA2999-00099KA1240M+00641KA2240N-00011MA1999999101211MD1210071-0061MW1001OC100541OD141200541328REMSYN004BUFR
0230576870999992020012806004+28120+112780FM-12+011999999V0203291N0021122000199025500199+00911-00101102501ADDAA106999999AA224000091AJ199999999999999AY101061AY201061GA1999+010001999GE19MSL   +99999+99999GF103991999999010001999999IA2999-00099KA1240M+00941KA2240N-00011MA1999999101001MD1710211+0031MW1001OC100591OD141200591035REMSYN004BUFR
0224576870999992020012809004+28120+112780FM-12+011999999V0203521N0021122000199026900199+00851-00231102541ADDAA106999999AA212999999AA324999999AY101031AY201031GA1999+036001999GE19MSL   +99999+99999GF101991999999036001999999IA2999-00069KA1240M+00971KA2240N-00011MA1999999101041MD1210041+0101MW1001OC100671OD141200671349REMSYN004BUFR
0192576870999992020012812004+28120+112780FM-12+011999999V0203161N0004122000199018400199+00421-00051102741ADDAA106999999AA224000091AJ199999999999999AY101061AY201061GF100991999999999999999999IA2999-00029KA1240M+00971KA2240N-00011MA1999999101221MD1210181+0201MW1001OC100671OD141200671349REMSYN004BUFR
0144576870999992020012815004+28120+112780FM-12+011999999V0203181N0019199999999010200199+00271-00051102811ADDAA106999999AA212999999AA324999999IA2999+00109KA1240M+00971KA2240N-00011MA1999999101301MD1210081+0201MW1001OC100671OD141200671349REMSYN004BUFR
0160576870999992020012818004+28120+112780FM-12+011999999V0202491N0018199999999008000199+00161-00031102781ADDAA106999999AA212999999AA324999999AY101999AY201999IA2999-00059KA1240M+00971KA2240N-00011MA1999999101281MD1710021+0151MW1001OC100671OD141200671349REMSYN004BUFR
0136576870999992020012821004+28120+112780FM-12+011999999V0203071N0016199999999002400199+00001-00071102781ADDAA106999999AA212999999AA324999999IA2999-00109KA1240M+00971KA2240N-00021MA1999999101271MD1710011+0241MW1101OD141200451036REMSYN004BUFR
0158576870999992020012900004+28120+112780FM-12+011999999V0203601N0000199999999008600199-00021-00101102921ADDAA106999999AA224000091AJ199999999999999AY101121AY201121IA2999-00139KA1240M+00971KA2240N-00041MA1999999101401MD1210131+0261MW1001OD141200431017REMSYN004BUFR
0178576870999992020012903004+28120+112780FM-12+011999999V0201061N0015122000199016700199+00861-00021102961ADDAA106999999AA212999999AA324999999AY101031AY201031GF100991999999999999999999IA2999-00139KA1240M+00971KA2240N-00041MA1999999101461MD1210061+0251MW1001OD141200351098REMSYN004BUFR
0230576870999992020012906004+28120+112780FM-12+011999999V0200841N0027122000199029300199+01201-00271102631ADDAA106999999AA224000091AJ199999999999999AY101061AY201061GA1999+025001999GE19MSL   +99999+99999GF101991999999025001999999IA2999-00139KA1240M+01221KA2240N-00041MA1999999101141MD1710321+0141MW1001OC100611OD141200611091REMSYN004BUFR
0186576870999992020012909004+28120+112780FM-12+011999999V0200791N0019122000199030000199+01201-00391102531ADDAA106999999AA212999999AA324999999AY101031AY201031GF100991999999999999999999IA2999-00139KA1240M+01321KA2240N-00041MA1999999101041MD1710101+0001MW1001OC100611OD141200611091REMSYN004BUFR
0166576870999992020012912004+28120+112780FM-12+011999999V0202761N0015199999999025400199+00561-00091102631ADDAA106999999AA224000091AJ199999999999999AY101061AY201061IA2999-00059KA1240M+01321KA2240N-00041MA1999999101121MD1210081-0101MW1001OC100611OD141200611091REMSYN004BUFR
0144576870999992020012915004+28120+112780FM-12+011999999V0203181N0015199999999017400199+00321-00021102721ADDAA106999999AA212999999AA324999999IA2999+00139KA1240M+01321KA2240N-00041MA1999999101221MD1210101-0081MW1001OC100611OD141200611091REMSYN004BUFR
0152576870999992020012918004+28120+112780FM-12+011999999V0202681N0013199999999009900199+00251-00041102661ADDAA106999999AA212999999AA324999999AY101999AY201999IA2999-00019KA1240M+01321KA2240N-00041MA1999999101171MD1710051-0111MW1001OD141200451089REMSYN004BUFR
0136576870999992020012921004+28120+112780FM-12+011999999V0202961N0011199999999007400199+00051-00071102581ADDAA106999999AA212999999AA324999999IA2999-00129KA1240M+01321KA2240N-00041MA1999999101091MD1710081-0181MW1001OD141200351085REMSYN004BUFR
0184576870999992020013000004+28120+112780FM-12+011999999V0203601N0000122000199014000199+00101+00001102771ADDAA106999999AA224000091AJ199999999999999AY101121AY201121GF100991999999999999999999IA2999-00129KA1240M+01321KA2240N-00021MA1999999101261MD1210171-0141MW1001OD141200271317REMSYN004BUFR
0178576870999992020013003004+28120+112780FM-12+011999999V0201501N0016122000199018700199+01051+00081102851ADDAA106999999AA212999999AA324999999AY101031AY201031GF100991999999999999999999IA2999-00129KA1240M+01321KA2240N-00021MA1999999101361MD1210101-0101MW1001OD141200451105REMSYN004BUFR
0222576870999992020013006004+28120+112780FM-12+011999999V0201481N0016122000199030000199+01461-00321102551ADDAA106999999AA224000091AJ199999999999999AY101061AY201061GA1999+025001999GE19MSL   +99999+99999GF101991999999025001999999IA2999-00129KA1240M+01511KA2240N-00021MA1999999101071MD1710291-0071MW1001OD141200451105REMSYN004BUFR
0178576870999992020013009004+28120+112780FM-12+011999999V0201141N0019122000199030000199+01371-00361102411ADDAA106999999AA212999999AA324999999AY101031AY201031GF100991999999999999999999IA2999-00129KA1240M+01521KA2240N-00021MA1999999100921MD1710151-0121MW1001OD141200481114REMSYN004BUFR
0184576870999992020013012004+28120+112780FM-12+011999999V0203461N0009122000199030000199+00851-00161102531ADDAA106999999AA224000091AJ199999999999999AY101061AY201061GF100991999999999999999999IA2999-00019KA1240M+01521KA2240N-00021MA1999999101031MD1210111-0091MW1001OD141200481114REMSYN004BUFR
0136576870999992020013015004+28120+112780FM-12+011999999V0202751N0013199999999018700199+00601-00131102561ADDAA106999999AA212999999AA324999999IA2999+00259KA1240M+01521KA2240N-00021MA1999999101081MD1210051-0141MW1001OD141200481114REMSYN004BUFR
0152576870999992020013018004+28120+112780FM-12+011999999V0202701N0018199999999016500199+00301+00031102521ADDAA106999999AA212999999AA324999999AY101999AY201999IA2999+00089KA1240M+01521KA2240N-00021MA1999999101041MD1710041-0131MW1001OD141200481114REMSYN004BUFR
0136576870999992020013021004+28120+112780FM-12+011999999V0202451N0013199999999011400199+00201-00061102441ADDAA106999999AA212999999AA324999999IA2999-00039KA1240M+01521KA2240N-00021MA1999999100961MD1710081-0131MW1001OD141200331318REMSYN004BUFR
0158576870999992020013100004+28120+112780FM-12+011999999V0203601N0000199999999010200199+00201+00041102611ADDAA106999999AA224000091AJ199999999999999AY101121AY201121IA2999-00089KA1240M+01521KA2240N+00071MA1999999101111MD1210151-0151MW1001OD141200331318REMSYN004BUFR
0160576870999992020013103004+28120+112780FM-12+011999999V0201321N0028199999999023200199+01071+00041102681ADDAA106999999AA212999999AA324999999AY101031AY201031IA2999-00089KA1240M+01521KA2240N+00071MA1999999101201MD1210091-0161MW1001OC100501OD141200501153REMSYN004BUFR
0166576870999992020013106004+28120+112780FM-12+011999999V0201491N0027199999999030000199+01521-00181102351ADDAA106999999AA224000091AJ199999999999999AY101061AY201061IA2999-00089KA1240M+01521KA2240N+00071MA1999999100871MD1710331-0201MW1001OC100621OD141200621137REMSYN004BUFR
0160576870999992020013109004+28120+112780FM-12+011999999V0201711N0003199999999030000199+01371-00261102301ADDAA106999999AA212999999AA324999999AY101031AY201031IA2999-00089KA1240M+01591KA2240N+00071MA1999999100821MD1710051-0101MW1001OC100621OD141200621137REMSYN004BUFR
0166576870999992020013112004+28120+112780FM-12+011999999V0203051N0006199999999029400199+01071+00021102401ADDAA106999999AA224000091AJ199999999999999AY101061AY201061IA2999+00079KA1240M+01591KA2240N+00071MA1999999100911MD1210091-0121MW1001OC100621OD141200621137REMSYN004BUFR
0144576870999992020013115004+28120+112780FM-12+011999999V0202861N0007199999999017300199+00871+00241102441ADDAA106999999AA212999999AA324999999IA2999+00789KA1240M+01591KA2240N+00071MA1999999100971MD1210061-0111MW1001OC100621OD141200621137REMSYN004BUFR
0160576870999992020013118004+28120+112780FM-12+011999999V0200831N0012199999999022200199+00951+00111102351ADDAA106999999AA212999999AA324999999AY101999AY201999IA2999+00629KA1240M+01591KA2240N+00071MA1999999100891MD1710081-0151MW1001OC100551OD141200551133REMSYN004BUFR
0144576870999992020013121004+28120+112780FM-12+011999999V0201341N0009199999999021900199+00921-00041102311ADDAA106999999AA212999999AA324999999IA2999+00629KA1240M+01591KA2240N+00071MA1999999100851MD1710041-0111MW1001OC100511OD141200511096REMSYN004BUFR
0230576870999992020020100004+28120+112780FM-12+011999999V0201211N0019199999999022300199+00871+00021102451ADDAA106999999AA224000091AJ199999999999999AY101121AY201121GA1999+028001999GE19MSL   +99999+99999GF108991999999028001999999IA2999+00629KA1240M+01591KA2240N+00191MA1999999100981MD1210131-0131MW1001OC100511OD141200511096REMSYN004BUFR
0224576870999992020020103004+28120+112780FM-12+011999999V0201381N0007199999999023100199+01061+00121102531ADDAA106999999AA212999999AA324999999AY101031AY201031GA1999+028001999GE19MSL   +99999+99999GF108991999999028001999999IA2999+00629KA1240M+01591KA2240N+00841MA1999999101061MD1210081-0141MW1001OC100511OD141200511096REMSYN004BUFR
0158576870999992020020106004+28120+112780FM-12+011999999V0201121N0011199999999028500199+01251+00081102241ADDAA106999999AA224000091AJ199999999999999AY101061AY201061IA2999+00669KA1240M+01591KA2240N+00841MA1999999100781MD1710281-0091MW1001OD141200361116REMSYN004BUFR
0216576870999992020020109004+28120+112780FM-12+011999999V0200081N0005199999999025900199+01151+00111102201ADDAA106999999AA212999999AA324999999AY101031AY201031GA1999+020001999GE19MSL   +99999+99999GF108991999999020001999999IA2999+00669KA1240M+01381KA2240N+00841MA1999999100731MD1710051-0091MW1001OD141200361116REMSYN004BUFR
0177576870999992020020112004+28120+112780FM-12+011999999V0202861N0004199999999014700199+00971+00321102321ADDAA106999999AA224999999AJ199999999999999AY101061AY201061IA2999+00719KA1240M+01251KA2240N+00841MA1999999100851MD1210121-0061MW1601OD141200301127REMSYN004BUFREQDQ01  00002PRCP24
0136576870999992020020115004+28120+112780FM-12+011999999V0203201N0023199999999010800199+00851+00481102331ADDAA106000131AA212000131AA324000131IA2999+00799KA1240M+01251KA2240N+00841MA1999999100861MD1210011-0111MW1211OD141200401238REMSYN004BUFR
0152576870999992020020118004+28120+112780FM-12+011999999V0202931N0026199999999005500199+00761+00611102391ADDAA106000231AA212000231AA324000231AY101999AY201999IA2999+00759KA1240M+01251KA2240N+00761MA1999999100921MD1210061+0031MW1601OD141200491326REMSYN004BUFR
0136576870999992020020121004+28120+112780FM-12+011999999V0203101N0019199999999002500199+00721+00651102401ADDAA106001731AA212001831AA324001831IA2999+00739KA1240M+01251KA2240N+00711MA1999999100931MD1210011+0081MW1601OD141200491326REMSYN004BUFR
0222576870999992020020200004+28120+112780FM-12+011999999V0203281N0026199999999000900199+00711+00671102601ADDAA106004331AA224004531AJ100003100005099AY161121AY201121GA1999+001801999GE19MSL   +99999+99999GF108991999999001801999999IA2999+00729KA1240M+01251KA2240N+00711MA1999999101121MD1210191+0141MW1601OD141200491326REMSYN004BUFR
0216576870999992020020203004+28120+112780FM-12+011999999V0203291N0026199999999003100199+00771+00751102671ADDAA106005131AA212006831AA324006931AY161031AY201031GA1999+001201999GE19MSL   +99999+99999GF108991999999001201999999IA2999+00729KA1240M+01251KA2240N+00711MA1999999101191MD1210071+0131MW1101OD141200491326REMSYN004BUFR
0222576870999992020020206004+28120+112780FM-12+011999999V0203381N0020199999999005100199+00821+00761102471ADDAA106002431AA224006931AJ100013100007099AY161061AY201061GA1999+001501999GE19MSL   +99999+99999GF108991999999001501999999IA2999+00729KA1240M+01241KA2240N+00711MA1999999100991MD1710201+0211MW1101OD141200451331REMSYN004BUFR
0160576870999992020020209004+28120+112780FM-12+011999999V0203361N0034199999999002100199+00771+00731102491ADDAA106000231AA212005331AA324007131AY101031AY201031IA2999+00729KA1240M+01141KA2240N+00711MA1999999101001MD1210011+0271MW1101OC100621OD141200621341REMSYN004BUFR
0230576870999992020020212004+28120+112780FM-12+011999999V0203301N0035199999999003900199+00801+00711102651ADDAA106000231AA224007131AJ100003100003099AY161061AY201061GA1999+001001999GE19MSL   +99999+99999GF108991999999001001999999IA2999+00739KA1240M+00971KA2240N+00711MA1999999101161MD1210161+0311MW1601OC100651OD141200651354REMSYN004BUFR
0144576870999992020020215004+28120+112780FM-12+011999999V0200121N0045199999999005700199+00821+00681102701ADDAA106999999AA212000231AA324007031IA2999+00759KA1240M+00871KA2240N+00711MA1999999101211MD1210051+0351MW1101OC100891OD141200891014REMSYN004BUFR
0160576870999992020020218004+28120+112780FM-12+011999999V0203311N0040199999999004500199+00761+00691102711ADDAA106999999AA212000231AA324006931AY101999AY201999IA2999+00719KA1240M+00821KA2240N+00711MA1999999101221MD1210011+0301MW1101OC100891OD141200891014REMSYN004BUFR
0144576870999992020020221004+28120+112780FM-12+011999999V0203601N0023199999999007300199+00751+00631102611ADDAA106999999AA212999999AA324005331IA2999+00719KA1240M+00821KA2240N+00711MA1999999101121MD1710101+0191MW1101OC100891OD141200891014REMSYN004BUFR
0230576870999992020020300004+28120+112780FM-12+011999999V0203331N0027199999999004100199+00721+00661102841ADDAA106000531AA224003131AJ100003100001099AY101121AY201121GA1999+002001999GE19MSL   +99999+99999GF108991999999002001999999IA2999+00719KA1240M+00821KA2240N+00711MA1999999101351MD1210231+0231MW1601OC100891OD141200891014REMSYN004BUFR
0160576870999992020020303004+28120+112780FM-12+011999999V0203291N0003199999999009400199+00921+00751102871ADDAA106000831AA212000831AA324001031AY101031AY201031IA2999+00719KA1240M+00931KA2240N+00721MA1999999101391MD1210041+0201MW1001OC100721OD141200721014REMSYN004BUFR
0166576870999992020020306004+28120+112780FM-12+011999999V0203411N0043199999999019600199+01101+00531102581ADDAA106000331AA224001031AJ100003100001099AY101061AY201061IA2999+00719KA1240M+01131KA2240N+00721MA1999999101101MD1710291+0111MW1001OC100681OD141200681319REMSYN004BUFR
0160576870999992020020309004+28120+112780FM-12+011999999V0203511N0007199999999017300199+01101+00511102531ADDAA106999999AA212000831AA324000831AY101031AY201031IA2999+00729KA1240M+01151KA2240N+00721MA1999999101051MD1710051+0051MW1001OC100681OD141200681319REMSYN004BUFR
0166576870999992020020312004+28120+112780FM-12+011999999V0203601N0000199999999011700199+00921+00721102601ADDAA106999999AA224000831AJ100003100000099AY101061AY201061IA2999+00749KA1240M+01151KA2240N+00721MA1999999101121MD1210071-0041MW1001OC100681OD141200681319REMSYN004BUFR
0144576870999992020020315004+28120+112780FM-12+011999999V0203111N0003199999999008800199+00851+00721102651ADDAA106999999AA212999999AA324000831IA2999+00829KA1240M+01151KA2240N+00721MA1999999101171MD1210051-0041MW1001OC100681OD141200681319REMSYN004BUFR
0160576870999992020020318004+28120+112780FM-12+011999999V0203601N0000199999999008900199+00821+00711102561ADDAA106999999AA212999999AA324000831AY101999AY201999IA2999+00749KA1240M+01151KA2240N+00721MA1999999101081MD1710091-0141MW1001OC100601OD141200601345REMSYN004BUFR
0136576870999992020020321004+28120+112780FM-12+011999999V0202401N0005199999999008100199+00811+00661102461ADDAA106999999AA212999999AA324000831IA2999+00749KA1240M+01151KA2240N+00721MA1999999100991MD1710091-0131MW1001OD141200311321REMSYN004BUFR
0158576870999992020020400004+28120+112780FM-12+011999999V0203601N0000199999999003700199+00761+00701102531ADDAA106999999AA224000331AJ100009100000099AY101121AY201121IA2999+00749KA1240M+01151KA2240N+00721MA1999999101051MD1210061-0301MW1101OD141200311321REMSYN004BUFR
0152576870999992020020403004+28120+112780FM-12+011999999V0200931N0024199999999016500199+01251+00621102571ADDAA106999999AA212999999AA324999999AY101031AY201031IA2999+00749KA1240M+01251KA2240N+00761MA1999999101101MD1210051-0291MW1001OD141200391068REMSYN004BUFR
0166576870999992020020406004+28120+112780FM-12+011999999V0202001N0018199999999030000199+01521+00401102301ADDAA106999999AA224000091AJ199999999999999AY101061AY201061IA2999+00759KA1240M+01601KA2240N+00761MA1999999100841MD1710261-0261MW1001OC100521OD141200521126REMSYN004BUFR
0160576870999992020020409004+28120+112780FM-12+011999999V0201771N0007199999999030000199+01371+00491102251ADDAA106999999AA212999999AA324999999AY101031AY201031IA2999+00759KA1240M+01601KA2240N+00761MA1999999100791MD1710051-0261MW1001OC100521OD141200521126REMSYN004BUFR
0166576870999992020020412004+28120+112780FM-12+011999999V0203151N0011199999999023200199+01101+00551102391ADDAA106999999AA224000091AJ199999999999999AY101061AY201061IA2999+00789KA1240M+01601KA2240N+00761MA1999999100921MD1210131-0201MW1001OC100521OD141200521126REMSYN004BUFR
0144576870999992020020415004+28120+112780FM-12+011999999V0203001N0012199999999015500199+00921+00641102501ADDAA106999999AA212999999AA324999999IA2999+00839KA1240M+01601KA2240N+00761MA1999999101031MD1210111-0141MW1001OC100521OD141200521126REMSYN004BUFR
0152576870999992020020418004+28120+112780FM-12+011999999V0203011N0014199999999011200199+00711+00591102491ADDAA106999999AA212999999AA324999999AY101999AY201999IA2999+00629KA1240M+01601KA2240N+00711MA1999999101021MD1710011-0061MW1001OD141200341308REMSYN004BUFR
0158576870999992020020500004+28120+112780FM-12+011999999V0200751N0013199999999010200199+00771+00691102511ADDAA106999999AA224000091AJ199999999999999AY101121AY201121IA2999+00509KA1240M+01601KA2240N+00661MA1999999101031MD1210101-0021MW1001OD141200341308REMSYN004BUFR
0160576870999992020020503004+28120+112780FM-12+011999999V0201041N0024199999999029400199+01461+00571102561ADDAA106999999AA212999999AA324999999AY101031AY201031IA2999+00509KA1240M+01601KA2240N+00661MA1999999101101MD1210071+0001MW1001OC100551OD141200551105REMSYN004BUFR
0166576870999992020020506004+28120+112780FM-12+011999999V0200851N0031199999999030000199+01561+00431102171ADDAA106999999AA224000091AJ199999999999999AY101061AY201061IA2999+00509KA1240M+01641KA2240N+00661MA1999999100711MD1710391-0131MW1001OC100781OD141200781055REMSYN004BUFR
0160576870999992020020509004+28120+112780FM-12+011999999V0200521N0015199999999030000199+01601+00461102031ADDAA106999999AA212999999AA324999999AY101031AY201031IA2999+00509KA1240M+01741KA2240N+00661MA1999999100571MD1710141-0221MW1001OC100781OD141200781055REMSYN004BUFR
0166576870999992020020512004+28120+112780FM-12+011999999V0201031N0016199999999030000199+01301+00721102061ADDAA106000131AA224000131AJ100003100000099AY101061AY201061IA2999+00609KA1240M+01741KA2240N+00661MA1999999100601MD1210031-0321MW1601OC100781OD141200781055REMSYN004BUFR
0144576870999992020020515004+28120+112780FM-12+011999999V0201161N0030199999999011700199+01071+00921102071ADDAA106001731AA212001731AA324001731IA2999+01089KA1240M+01741KA2240N+00661MA1999999100621MD1210021-0411MW1601OC100781OD141200781055REMSYN004BUFR
0160576870999992020020518004+28120+112780FM-12+011999999V0200961N0019199999999004100199+00951+00881101971ADDAA106007031AA212007131AA324007131AY101999AY201999IA2999+00989KA1240M+01741KA2240N+00661MA1999999100521MD1710101-0501MW1621OC100721OD141200721116REMSYN004BUFR
0144576870999992020020521004+28120+112780FM-12+011999999V0203111N0033199999999004100199+00851+00801101951ADDAA106013731AA212015431AA324015431IA2999+00909KA1240M+01741KA2240N+00661MA1999999100501MD1710021-0431MW1601OC100911OD141200911345REMSYN004BUFR
0166576870999992020020600004+28120+112780FM-12+011999999V0203471N0020199999999008000199+00721+00691102111ADDAA106017431AA224024531AJ100023100024099AY101121AY201121IA2999+00779KA1240M+01741KA2240N+00731MA1999999100641MD1210141-0391MW1621OC101111OD141201111305REMSYN004BUFR
0154576870999992020020603004+28120+112780FM-12+011999999V0203241N0073199999999006000199+00671+00621102351ADDAA106019931AA212033631AA324035331AY161031AY201031IA2999+00749KA1240M+01741KA2240N+00681MA1999999100871MD1210231-0231OC101241OD141201241325REMSYN004BUFR
0166576870999992020020606004+28120+112780FM-12+011999999V0203211N0051199999999008300199+00551+00481102251ADDAA106018531AA224043031AJ100043100036099AY101061AY201061IA2999+00659KA1240M+01741KA2240N+00541MA1999999100771MD1710101+0061MW1621OC101281OD141201281323REMSYN004BUFR
0160576870999992020020609004+28120+112780FM-12+011999999V0203441N0047199999999014600199+00471+00381102441ADDAA106009231AA212029131AA324044531AY161031AY201031IA2999+00539KA1240M+01591KA2240N+00461MA1999999100951MD1210181+0381MW1681OC101281OD141201281323REMSYN004BUFR
0166576870999992020020612004+28120+112780FM-12+011999999V0203301N0046199999999012100199+00451+00321102771ADDAA106001531AA224044431AJ100023100020099AY101061AY201061IA2999+00479KA1240M+01291KA2240N+00431MA1999999101271MD1210321+0671MW1001OC101281OD141201281323REMSYN004BUFR
0144576870999992020020615004+28120+112780FM-12+011999999V0203431N0054199999999007400199+00371+00301102921ADDAA106999999AA212009231AA324042831IA2999+00439KA1240M+01081KA2240N+00371MA1999999101421MD1210151+0801MW1001OC101281OD141201281323REMSYN004BUFR
0160576870999992020020618004+28120+112780FM-12+011999999V0203311N0063199999999003900199+00321+00281102951ADDAA106999999AA212001531AA324037431AY101999AY201999IA2999+00389KA1240M+00981KA2240N+00321MA1999999101441MD1210021+0921MW1101OC101241OD141201241326REMSYN004BUFR
0144576870999992020020621004+28120+112780FM-12+011999999V0203401N0042199999999004700199+00301+00261102911ADDAA106999999AA212999999AA324029131IA2999+00389KA1240M+00841KA2240N+00301MA1999999101401MD1710041+0901MW1101OC101211OD141201211342REMSYN004BUFR
0166576870999992020020700004+28120+112780FM-12+011999999V0203451N0034199999999005100199+00301+00241103071ADDAA106999999AA224020031AJ100009100000099AY101121AY201121IA2999+00369KA1240M+00741KA2240N+00291MA1999999101561MD1210161+0921MW1101OC101131OD141201131330REMSYN004BUFR
0224576870999992020020703004+28120+112780FM-12+011999999V0203401N0039199999999004700199+00351+00301103271ADDAA106999999AA212999999AA324009231AY101031AY201031GA1999+003001999GE19MSL   +99999+99999GF108991999999003001999999IA2999+00369KA1240M+00691KA2240N+00291MA1999999101751MD1210191+0881MW1101OC101041OD141201041335REMSYN004BUFR
0230576870999992020020706004+28120+112780FM-12+011999999V0200011N0037199999999010000199+00451+00271103001ADDAA106999999AA224001531AJ100009100000099AY101061AY201061GA1999+004001999GE19MSL   +99999+99999GF108991999999004001999999IA2999+00369KA1240M+00551KA2240N+00291MA1999999101491MD1710261+0721MW1001OC100971OD141200971335REMSYN004BUFR
0224576870999992020020709004+28120+112780FM-12+011999999V0203541N0015199999999008800199+00471+00261102911ADDAA106999999AA212999999AA324999999AY101031AY201031GA1999+004001999GE19MSL   +99999+99999GF108991999999004001999999IA2999+00369KA1240M+00491KA2240N+00291MA1999999101401MD1710091+0451MW1001OC100921OD141200921343REMSYN004BUFR
0230576870999992020020712004+28120+112780FM-12+011999999V0203281N0026199999999010000199+00471+00271103091ADDAA106999999AA224000091AJ199999999999999AY101061AY201061GA1999+003001999GE19MSL   +99999+99999GF108991999999003001999999IA2999+00389KA1240M+00491KA2240N+00291MA1999999101581MD1210181+0311MW1001OC100811OD141200811327REMSYN004BUFR
0144576870999992020020715004+28120+112780FM-12+011999999V0203331N0029199999999010100199+00471+00301103261ADDAA106000131AA212000131AA324000131IA2999+00479KA1240M+00491KA2240N+00291MA1999999101741MD1210161+0321MW1601OC100811OD141200811327REMSYN004BUFR
0160576870999992020020718004+28120+112780FM-12+011999999V0203511N0035199999999014600199+00421+00221103201ADDAA106000231AA212000231AA324000231AY101999AY201999IA2999+00439KA1240M+00491KA2240N+00291MA1999999101691MD1710051+0251MW1001OC100731OD141200731336REMSYN004BUFR
0144576870999992020020721004+28120+112780FM-12+011999999V0203271N0032199999999015900199+00401+00201103121ADDAA106000131AA212000231AA324000231IA2999+00419KA1240M+00491KA2240N+00291MA1999999101611MD1710081+0211MW1001OC100671OD141200671351REMSYN004BUFR
0166576870999992020020800004+28120+112780FM-12+011999999V0203421N0037199999999015300199+00401+00171103261ADDAA106999999AA224000231AJ100003100000099AY101121AY201121IA2999+00399KA1240M+00491KA2240N+00301MA1999999101751MD1210141+0191MW1001OC100831OD141200831342REMSYN004BUFR
0224576870999992020020803004+28120+112780FM-12+011999999V0203351N0036199999999013500199+00501+00211103421ADDAA106999999AA212000131AA324000231AY101031AY201031GA1999+003001999GE19MSL   +99999+99999GF108991999999003001999999IA2999+00399KA1240M+00491KA2240N+00341MA1999999101911MD1210161+0161MW1001OC100831OD141200831342REMSYN004BUFR
0230576870999992020020806004+28120+112780FM-12+011999999V0203331N0045199999999017800199+00601+00181103241ADDAA106999999AA224000231AJ100009100000099AY101061AY201061GA1999+004001999GE19MSL   +99999+99999GF108991999999004001999999IA2999+00399KA1240M+00591KA2240N+00391MA1999999101731MD1710181+0241MW1001OC100831OD141200831342REMSYN004BUFR
0160576870999992020020809004+28120+112780FM-12+011999999V0203511N0032199999999014200199+00571+00201103221ADDAA106999999AA212999999AA324000231AY101031AY201031IA2999+00399KA1240M+00591KA2240N+00391MA1999999101711MD1710021+0311MW1001OC100831OD141200831342REMSYN004BUFR
0230576870999992020020812004+28120+112780FM-12+011999999V0203211N0028199999999014600199+00551+00191103301ADDAA106999999AA224000231AJ100009100000099AY101061AY201061GA1999+007001999GE19MSL   +99999+99999GF108991999999007001999999IA2999+00409KA1240M+00591KA2240N+00391MA1999999101791MD1210081+0211MW1001OC100781OD141200781324REMSYN004BUFR
0144576870999992020020815004+28120+112780FM-12+011999999V0202991N0024199999999014500199+00551+00191103461ADDAA106999999AA212999999AA324000131IA2999+00489KA1240M+00591KA2240N+00391MA1999999101951MD1210161+0211MW1001OC100781OD141200781324REMSYN004BUFR
0160576870999992020020818004+28120+112780FM-12+011999999V0203241N0031199999999017300199+00511+00161103331ADDAA106999999AA212999999AA324999999AY101999AY201999IA2999+00449KA1240M+00591KA2240N+00391MA1999999101821MD1710131+0131MW1001OC100771OD141200771346REMSYN004BUFR
0144576870999992020020821004+28120+112780FM-12+011999999V0203251N0025199999999017100199+00471+00131103311ADDAA106999999AA212999999AA324999999IA2999+00429KA1240M+00591KA2240N+00391MA1999999101801MD1710021+0191MW1001OC100731OD141200731334REMSYN004BUFR
0230576870999992020020900004+28120+112780FM-12+011999999V0203041N0016199999999014000199+00471+00201103411ADDAA106999999AA224000091AJ199999999999999AY101121AY201121GA1999+008001999GE19MSL   +99999+99999GF106991999999008001999999IA2999+00369KA1240M+00591KA2240N+00391MA1999999101901MD1210101+0151MW1001OC100621OD141200621308REMSYN004BUFR
0224576870999992020020903004+28120+112780FM-12+011999999V0203111N0019199999999023400199+00921+00211103421ADDAA106999999AA212999999AA324999999AY101031AY201031GA1999+010001999GE19MSL   +99999+99999GF107991999999010001999999IA2999+00369KA1240M+00941KA2240N+00451MA1999999101921MD1210021+0011MW1001OC100621OD141200621308REMSYN004BUFR
0166576870999992020020906004+28120+112780FM-12+011999999V0203381N0021199999999030000199+01171+00161103031ADDAA106999999AA224000091AJ199999999999999AY101061AY201061IA2999+00369KA1240M+01221KA2240N+00451MA1999999101541MD1710381-0191MW1001OC100621OD141200621308REMSYN004BUFR
0160576870999992020020909004+28120+112780FM-12+011999999V0203451N0003199999999030000199+01321+00181102871ADDAA106999999AA212999999AA324999999AY101031AY201031IA2999+00369KA1240M+01351KA2240N+00451MA1999999101391MD1710151-0321MW1001OC100621OD141200621308REMSYN004BUFR
0230576870999992020020912004+28120+112780FM-12+011999999V0202721N0008122000199030000199+00821+00271102881ADDAA106999999AA224000091AJ199999999999999AY101061AY201061GA1999+032001999GE19MSL   +99999+99999GF102991999999032001999999IA2999+00529KA1240M+01351KA2240N+00451MA1999999101381MD1710011-0411MW1001OC100581OD141200581322REMSYN004BUFR
0144576870999992020020915004+28120+112780FM-12+011999999V0203601N0001199999999020300199+00761+00311102861ADDAA106999999AA212999999AA324999999IA2999+00579KA1240M+01351KA2240N+00451MA1999999101371MD1710011-0581MW1001OC100551OD141200551354REMSYN004BUFR
0160576870999992020020918004+28120+112780FM-12+011999999V0200771N0004199999999021900199+00701+00291102671ADDAA106999999AA212999999AA324999999AY101999AY201999IA2999+00489KA1240M+01351KA2240N+00451MA1999999101191MD1710181-0631MW1001OC100531OD141200531169REMSYN004BUFR
0144576870999992020020921004+28120+112780FM-12+011999999V0201391N0010199999999017700199+00651+00381102491ADDAA106999999AA212999999AA324999999IA2999+00489KA1240M+01351KA2240N+00451MA1999999101021MD1710171-0781MW1001OC100531OD141200531169REMSYN004BUFR
0230576870999992020021000004+28120+112780FM-12+011999999V0201551N0023199999999012200199+00671+00511102541ADDAA106999999AA224000091AJ199999999999999AY101121AY201121GA1999+016001999GE19MSL   +99999+99999GF108991999999016001999999IA2999+00489KA1240M+01351KA2240N+00481MA1999999101051MD1210031-0851MW1001OC100531OD141200531169REMSYN004BUFR
0224576870999992020021003004+28120+112780FM-12+011999999V0201581N0018199999999017100199+00871+00511102571ADDAA106999999AA212999999AA324999999AY101031AY201031GA1999+018001999GE19MSL   +99999+99999GF108991999999018001999999IA2999+00489KA1240M+01351KA2240N+00621MA1999999101091MD1210041-0831MW1001OC100581OD141200581150REMSYN004BUFR
0166576870999992020021006004+28120+112780FM-12+011999999V0201341N0017199999999020100199+00951+00461102311ADDAA106999999AA224000091AJ199999999999999AY101061AY201061IA2999+00619KA1240M+01351KA2240N+00621MA1999999100831MD1710261-0711MW1001OC100581OD141200581150REMSYN004BUFR
0224576870999992020021009004+28120+112780FM-12+011999999V0201311N0014199999999015400199+00851+00631102141ADDAA106000331AA212000331AA324000331AY161031AY201031GA1999+002501999GE19MSL   +99999+99999GF108991999999002501999999IA2999+00659KA1240M+01321KA2240N+00621MA1999999100661MD1710171-0731MW1601OC100581OD141200581150REMSYN004BUFR
0230576870999992020021012004+28120+112780FM-12+011999999V0201431N0005199999999003700199+00811+00731102251ADDAA106001031AA224001031AJ100003100001099AY161061AY201061GA1999+002001999GE19MSL   +99999+99999GF108991999999002001999999IA2999+00709KA1240M+00951KA2240N+00621MA1999999100771MD1210111-0611MW1601OC100581OD141200581150REMSYN004BUFR
0144576870999992020021015004+28120+112780FM-12+011999999V0201201N0026199999999002100199+00801+00761102211ADDAA106003531AA212003831AA324003831IA2999+00809KA1240M+00951KA2240N+00621MA1999999100731MD1710041-0641MW1601OC100561OD141200561144REMSYN004BUFR
0160576870999992020021018004+28120+112780FM-12+011999999V0201341N0024199999999000800199+00771+00741102191ADDAA106013531AA212014531AA324014531AY101999AY201999IA2999+00799KA1240M+00951KA2240N+00631MA1999999100711MD1710021-0481MW1621OC100561OD141200561144REMSYN004BUFR
0136576870999992020021021004+28120+112780FM-12+011999999V0201301N0025199999999009000199+00721+00701102071ADDAA106016831AA212020331AA324020631IA2999+00779KA1240M+00951KA2240N+00631MA1999999100591MD1710121-0431MW1211OD141200431139REMSYN004BUFR
0158576870999992020021100004+28120+112780FM-12+011999999V0201341N0013199999999004100199+00771+00741102121ADDAA106006231AA224020731AJ100023100020099AY101121AY201121IA2999+00779KA1240M+00951KA2240N+00681MA1999999100641MD1210051-0411MW1101OD141200431139REMSYN004BUFR
0152576870999992020021103004+28120+112780FM-12+011999999V0201471N0006199999999004300199+00861+00851102171ADDAA106000231AA212017031AA324020831AY101031AY201031IA2999+00779KA1240M+00951KA2240N+00731MA1999999100691MD1210051-0401MW1601OD141200431139REMSYN004BUFR
0158576870999992020021106004+28120+112780FM-12+011999999V0201261N0004199999999002200199+00921+00911101911ADDAA106002431AA224023131AJ100013100009099AY101061AY201061IA2999+00779KA1240M+00941KA2240N+00731MA1999999100441MD1710251-0391MW1621OD141200431139REMSYN004BUFR
0216576870999992020021109004+28120+112780FM-12+011999999V0203601N0001199999999001000199+00951+00931101871ADDAA106006031AA212006231AA324026531AY161031AY201031GA1999+000801999GE19MSL   +99999+99999GF108991999999000801999999IA2999+00779KA1240M+00941KA2240N+00731MA1999999100401MD1710041-0261MW1601OD141200371137REMSYN004BUFR
0222576870999992020021112004+28120+112780FM-12+011999999V0203211N0004199999999001700199+00951+00931101931ADDAA106004131AA224026231AJ100013100007099AY161061AY201061GA1999+001001999GE19MSL   +99999+99999GF108991999999001001999999IA2999+00819KA1240M+00951KA2240N+00731MA1999999100461MD1210061-0311MW1101OD141200301144REMSYN004BUFR
0136576870999992020021115004+28120+112780FM-12+011999999V0203601N0000199999999002500199+00951+00931101991ADDAA106001931AA212007931AA324024931IA2999+00859KA1240M+00961KA2240N+00731MA1999999100521MD1210061-0211MW1101OD141200411170REMSYN004BUFR
0152576870999992020021118004+28120+112780FM-12+011999999V0203601N0000199999999001100199+00951+00931102021ADDAA106001531AA212005631AA324014231AY101999AY201999IA2999+00859KA1240M+00961KA2240N+00731MA1999999100551MD1210031-0161MW1101OD141200411170REMSYN004BUFR
0136576870999992020021121004+28120+112780FM-12+011999999V0201811N0012199999999000500199+00911+00901101921ADDAA106999999AA212001931AA324008131IA2999+00859KA1240M+00961KA2240N+00731MA1999999100451MD1710101-0141MW1461OD141200411170REMSYN004BUFR
0222576870999992020021200004+28120+112780FM-12+011999999V0202111N0006199999999000400199+00871+00871102021ADDAA106999999AA224008031AJ100003100002099AY141121AY201121GA1999+000501999GE19MSL   +99999+99999GF108991999999000501999999IA2999+00859KA1240M+00961KA2240N+00771MA1999999100551MD1210101-0091MW1451OD141200411170REMSYN004BUFR
0152576870999992020021203004+28120+112780FM-12+011999999V0201261N0011199999999002400199+01051+01031102031ADDAA106999999AA212999999AA324007931AY101031AY201031IA2999+00879KA1240M+01071KA2240N+00851MA1999999100561MD1210011-0131MW1101OD141200361145REMSYN004BUFR
0158576870999992020021206004+28120+112780FM-12+011999999V0201221N0013199999999022300199+01371+01301101731ADDAA106999999AA224005631AJ100009100000099AY101061AY201061IA2999+00919KA1240M+01381KA2240N+00871MA1999999100281MD1710281-0161MW1001OD141200361145REMSYN004BUFR
0216576870999992020021209004+28120+112780FM-12+011999999V0201731N0006199999999021200199+01551+01231101621ADDAA106999999AA212999999AA324001931AY101031AY201031GA1999+012001999GE19MSL   +99999+99999GF107991999999012001999999IA2999+00919KA1240M+01561KA2240N+00871MA1999999100171MD1710111-0231MW1001OD141200361131REMSYN004BUFR
0222576870999992020021212004+28120+112780FM-12+011999999V0200751N0004199999999013500199+01411+01271101611ADDAA106999999AA224001531AJ100009100000099AY101061AY201061GA1999+012001999GE19MSL   +99999+99999GF108991999999012001999999IA2999+00959KA1240M+01561KA2240N+00871MA1999999100161MD1710011-0301MW1001OD141200361131REMSYN004BUFR
0136576870999992020021215004+28120+112780FM-12+011999999V0202861N0010199999999003500199+01271+01261101631ADDAA106000531AA212000531AA324000531IA2999+01159KA1240M+01561KA2240N+00871MA1999999100181MD1210021-0341MW1101OD141200461098REMSYN004BUFR
0152576870999992020021218004+28120+112780FM-12+011999999V0201351N0006199999999000700199+01221+01221101491ADDAA106000531AA212000531AA324000531AY101999AY201999IA2999+01019KA1240M+01561KA2240N+00871MA1999999100051MD1710131-0501MW1281OD141200461098REMSYN004BUFR
0136576870999992020021221004+28120+112780FM-12+011999999V0201211N0018199999999001100199+01171+01171101351ADDAA106001131AA212001631AA324001631IA2999+01019KA1240M+01561KA2240N+00871MA1999999099911MD1710141-0541MW1211OD141200461098REMSYN004BUFR
0158576870999992020021300004+28120+112780FM-12+011999999V0203601N0002199999999001600199+01261+01261101461ADDAA106001131AA224001631AJ100003100002099AY101121AY201121IA2999+01019KA1240M+01561KA2240N+00881MA1999999100021MD1210111-0531MW1101OD141200461098REMSYN004BUFR
0160576870999992020021303004+28120+112780FM-12+011999999V0201591N0029199999999006800199+01521+99999101451ADDAA106999999AA212001131AA324001631AY101031AY201031IA2999+01019KA1240M+01561KA2240N+01041MA1999999100011MD1710011-0551MW1101OC100581OD141200581172REMSYN004BUFR
0166576870999992020021306004+28120+112780FM-12+011999999V0201501N0033199999999028500199+01971+01471101101ADDAA106999999AA224001631AJ100003100001099AY101061AY201061IA2999+01049KA1240M+01991KA2240N+01131MA1999999099681MD1710331-0601MW1001OC100591OD141200591164REMSYN004BUFR
0160576870999992020021309004+28120+112780FM-12+011999999V0201241N0034199999999030000199+02051+01561100881ADDAA106999999AA212999999AA324001631AY101031AY201031IA2999+01159KA1240M+02081KA2240N+01131MA1999999099461MD1710221-0711MW1001OC100651OD141200651136REMSYN004BUFR
0166576870999992020021312004+28120+112780FM-12+011999999V0201211N0019199999999030000199+01821+01561101051ADDAA106999999AA224001631AJ100009100000099AY101061AY201061IA2999+01269KA1240M+02081KA2240N+01131MA1999999099631MD1210171-0531MW1001OC100651OD141200651136REMSYN004BUFR
0144576870999992020021315004+28120+112780FM-12+011999999V0201001N0025199999999030000199+01601+01501101071ADDAA106999999AA212999999AA324001131IA2999+01459KA1240M+02081KA2240N+01131MA1999999099651MD1210021-0531MW1001OC100651OD141200651136REMSYN004BUFR
0160576870999992020021318004+28120+112780FM-12+011999999V0201331N0025199999999007500199+01451+01431101051ADDAA106999999AA212999999AA324001131AY101999AY201999IA2999+01289KA1240M+02081KA2240N+01131MA1999999099631MD1710021-0421MW1101OC100651OD141200651136REMSYN004BUFR
0166576870999992020021400004+28120+112780FM-12+011999999V0201311N0028199999999015400199+01461+01461101061ADDAA106999999AA224000091AJ199999999999999AY101121AY201121IA2999+01239KA1240M+02081KA2240N+01261MA1999999099641MD1210151-0381MW1001OC100641OD141200641148REMSYN004BUFR
0160576870999992020021403004+28120+112780FM-12+011999999V0201411N0026199999999030000199+02071+01591101131ADDAA106999999AA212999999AA324999999AY101031AY201031IA2999+01239KA1240M+02081KA2240N+01371MA1999999099721MD1210081-0291MW1001OC100641OD141200641148REMSYN004BUFR
0166576870999992020021406004+28120+112780FM-12+011999999V0201221N0023199999999030000199+02411+01361100931ADDAA106999999AA224000091AJ199999999999999AY101061AY201061IA2999+01239KA1240M+02551KA2240N+01371MA1999999099531MD1710191-0151MW1001OC100641OD141200641148REMSYN004BUFR
0160576870999992020021409004+28120+112780FM-12+011999999V0200881N0016199999999030000199+02311+01411100931ADDAA106999999AA212999999AA324999999AY101031AY201031IA2999+01239KA1240M+02551KA2240N+01371MA1999999099521MD1710011+0061MW1001OC100641OD141200641148REMSYN004BUFR
