0158576870999992021010100004+28120+112780FM-12+011999999V0202921N0010199999999014200199-00301-00641103251ADDAA106999999AA224000091AJ199999999999999AY101121AY201121IA2999-00219KA1240M+00541KA2240N-00381MA1999999101701MD1710051-0611MW1001OD141200361269REMSYN004BUFR
0152576870999992021010103004+28120+112780FM-12+011999999V0201321N0021199999999022000199+00551-00711103261ADDAA106999999AA212999999AA324999999AY101031AY201031IA2999-00219KA1240M+00551KA2240N-00381MA1999999101731MD1210031-0581MW1001OD141200401130REMSYN004BUFR
0158576870999992021010106004+28120+112780FM-12+011999999V0201661N0017199999999030000199+00921-01021102861ADDAA106999999AA224000091AJ199999999999999AY101061AY201061IA2999-00219KA1240M+00941KA2240N-00381MA1999999101351MD1710381-0621MW1001OD141200491132REMSYN004BUFR
0152576870999992021010109004+28120+112780FM-12+011999999V0201401N0020199999999030000199+00851-00811102831ADDAA106999999AA212999999AA324999999AY101031AY201031IA2999-00219KA1240M+00991KA2240N-00381MA1999999101311MD1710041-0581MW1001OD141200491114REMSYN004BUFR
0158576870999992021010112004+28120+112780FM-12+011999999V0202961N0011199999999017500199+00421-00571102941ADDAA106999999AA224000091AJ199999999999999AY101061AY201061IA2999-00179KA1240M+00991KA2240N-00381MA1999999101411MD1210101-0511MW1001OD141200491114REMSYN004BUFR
0136576870999992021010115004+28120+112780FM-12+011999999V0202271N0009199999999015500199+00161-00411102941ADDAA106999999AA212999999AA324999999IA2999+00059KA1240M+00991KA2240N-00381MA1999999101421MD1210011-0541MW1001OD141200491114REMSYN004BUFR
0152576870999992021010118004+28120+112780FM-12+011999999V0202711N0015199999999014900199-00041-00341102931ADDAA106999999AA212999999AA324999999AY101999AY201999IA2999-00109KA1240M+00991KA2240N-00381MA1999999101421MD1410001-0501MW1001OD141200491114REMSYN004BUFR
0136576870999992021010121004+28120+112780FM-12+011999999V0202631N0017199999999011500199-00151-00381102841ADDAA106999999AA212999999AA324999999IA2999-00149KA1240M+00991KA2240N-00381MA1999999101331MD1710091-0421MW1001OD141200341112REMSYN004BUFR
0158576870999992021010200004+28120+112780FM-12+011999999V0203601N0001199999999008400199-00071-00331102901ADDAA106999999AA224000091AJ199999999999999AY101121AY201121IA2999-00189KA1240M+00991KA2240N-00311MA1999999101381MD1210051-0321MW1001OD141200281309REMSYN004BUFR
0152576870999992021010203004+28120+112780FM-12+011999999V0201301N0021199999999022100199+00721-00361102851ADDAA106999999AA212999999AA324999999AY101031AY201031IA2999-00189KA1240M+00991KA2240N-00211MA1999999101341MD1710041-0391MW1001OD141200451133REMSYN004BUFR
0166576870999992021010206004+28120+112780FM-12+011999999V0200941N0026199999999030000199+01071-00611102431ADDAA106999999AA224000091AJ199999999999999AY101061AY201061IA2999-00189KA1240M+01091KA2240N-00211MA1999999100931MD1710411-0421MW1001OC100551OD141200551132REMSYN004BUFR
0160576870999992021010209004+28120+112780FM-12+011999999V0200971N0007199999999030000199+01051-00591102401ADDAA106999999AA212999999AA324999999AY101031AY201031IA2999-00189KA1240M+01161KA2240N-00211MA1999999100901MD1710031-0411MW1001OC100551OD141200551132REMSYN004BUFR
0166576870999992021010212004+28120+112780FM-12+011999999V0203541N0024199999999024700199+00901-00421102541ADDAA106999999AA224000091AJ199999999999999AY101061AY201061IA2999-00139KA1240M+01161KA2240N-00211MA1999999101031MD1210131-0381MW1001OC100551OD141200551132REMSYN004BUFR
0144576870999992021010215004+28120+112780FM-12+011999999V0202801N0017199999999020500199+00821-00241102681ADDAA106999999AA212999999AA324999999IA2999+00689KA1240M+01161KA2240N-00211MA1999999101191MD1210161-0231MW1001OC100551OD141200551132REMSYN004BUFR
0152576870999992021010218004+28120+112780FM-12+011999999V0202851N0015199999999019600199+00651-00051102751ADDAA106999999AA212999999AA324999999AY101999AY201999IA2999+00609KA1240M+01161KA2240N-00211MA1999999101261MD1210071-0161MW1001OD141200481342REMSYN004BUFR
0136576870999992021010221004+28120+112780FM-12+011999999V0203191N0035199999999016600199+00621-00041102741ADDAA106999999AA212999999AA324999999IA2999+00549KA1240M+01161KA2240N-00211MA1999999101251MD1710011-0081MW1001OD141200481342REMSYN004BUFR
0166576870999992021010300004+28120+112780FM-12+011999999V0203041N0017199999999016900199+00621-00051102891ADDAA106999999AA224000091AJ199999999999999AY101121AY201121IA2999+00539KA1240M+01161KA2240N-00081MA1999999101401MD1210151+0021MW1001OC100511OD141200511314REMSYN004BUFR
0160576870999992021010303004+28120+112780FM-12+011999999V0203301N0035199999999014200199+00721-00061102991ADDAA106999999AA212999999AA324999999AY101031AY201031IA2999+00539KA1240M+01161KA2240N+00611MA1999999101501MD1210101+0161MW1001OC100591OD141200591345REMSYN004BUFR
0166576870999992021010306004+28120+112780FM-12+011999999V0202971N0026199999999016800199+00871-00221102791ADDAA106999999AA224000091AJ199999999999999AY101061AY201061IA2999+00539KA1240M+01161KA2240N+00611MA1999999101301MD1710201+0371MW1001OC100591OD141200591345REMSYN004BUFR
0160576870999992021010309004+28120+112780FM-12+011999999V0203481N0020199999999020500199+00821-00391102761ADDAA106999999AA212999999AA324999999AY101031AY201031IA2999+00539KA1240M+01051KA2240N+00611MA1999999101271MD1710031+0371MW1001OC100621OD141200621336REMSYN004BUFR
0166576870999992021010312004+28120+112780FM-12+011999999V0203061N0010199999999011700199+00621-00121102981ADDAA106999999AA224000091AJ199999999999999AY101061AY201061IA2999+00389KA1240M+00931KA2240N+00611MA1999999101481MD1210211+0451MW1001OC100621OD141200621336REMSYN004BUFR
0144576870999992021010315004+28120+112780FM-12+011999999V0203051N0015199999999006600199+00321+00001102961ADDAA106999999AA212999999AA324999999IA2999+00209KA1240M+00931KA2240N+00291MA1999999101451MD1710031+0261MW1101OC100621OD141200621336REMSYN004BUFR
0160576870999992021010318004+28120+112780FM-12+011999999V0202861N0015199999999007200199+00251-00081102961ADDAA106999999AA212999999AA324999999AY101999AY201999IA2999+00059KA1240M+00931KA2240N+00231MA1999999101461MD1210011+0201MW1001OC100621OD141200621336REMSYN004BUFR
0136576870999992021010321004+28120+112780FM-12+011999999V0203121N0009199999999004600199+00111-00081102831ADDAA106999999AA212999999AA324999999IA2999-00039KA1240M+00931KA2240N+00071MA1999999101321MD1710141+0071MW1101OD141200321001REMSYN004BUFR
0158576870999992021010400004+28120+112780FM-12+011999999V0203171N0018199999999004000199+00101-00061102881ADDAA106999999AA224000091AJ199999999999999AY101121AY201121IA2999-00049KA1240M+00931KA2240N+00041MA1999999101371MD1210051-0031MW1101OD141200301308REMSYN004BUFR
0152576870999992021010403004+28120+112780FM-12+011999999V0202881N0011199999999008900199+00651+00151102881ADDAA106999999AA212999999AA324999999AY101031AY201031IA2999-00049KA1240M+00931KA2240N+00041MA1999999101371MD1410001-0131MW1001OD141200301308REMSYN004BUFR
0166576870999992021010406004+28120+112780FM-12+011999999V0203201N0029199999999014400199+01001+00001102571ADDAA106999999AA224000091AJ199999999999999AY101061AY201061IA2999-00049KA1240M+00991KA2240N+00041MA1999999101071MD1710301-0231MW1001OC100561OD141200561321REMSYN004BUFR
0160576870999992021010409004+28120+112780FM-12+011999999V0203311N0033199999999014100199+00871-00031102611ADDAA106999999AA212999999AA324999999AY101031AY201031IA2999-00049KA1240M+01021KA2240N+00041MA1999999101111MD1210041-0161MW1001OC100561OD141200561339REMSYN004BUFR
0166576870999992021010412004+28120+112780FM-12+011999999V0203421N0034199999999010100199+00751-00051102791ADDAA106999999AA224000091AJ199999999999999AY101061AY201061IA2999+00059KA1240M+01021KA2240N+00041MA1999999101281MD1210171-0201MW1001OC100731OD141200731357REMSYN004BUFR
0144576870999992021010415004+28120+112780FM-12+011999999V0203081N0044199999999008500199+00621+00081102851ADDAA106999999AA212999999AA324999999IA2999+00609KA1240M+01021KA2240N+00041MA1999999101351MD1210071-0101MW1001OC100911OD141200911322REMSYN004BUFR
0160576870999992021010418004+28120+112780FM-12+011999999V0203151N0035199999999006300199+00571+00141102821ADDAA106999999AA212999999AA324999999AY101999AY201999IA2999+00579KA1240M+01021KA2240N+00041MA1999999101331MD1710021-0131MW1101OC100911OD141200911322REMSYN004BUFR
0144576870999992021010421004+28120+112780FM-12+011999999V0203191N0033199999999005800199+00551+00111102801ADDAA106999999AA212999999AA324999999IA2999+00539KA1240M+01021KA2240N+00041MA1999999101311MD1710021-0011MW1101OC100911OD141200911322REMSYN004BUFR
0166576870999992021010500004+28120+112780FM-12+011999999V0203241N0050199999999005000199+00521+00131103051ADDAA106999999AA224000091AJ199999999999999AY101121AY201121IA2999+00519KA1240M+01021KA2240N+00091MA1999999101551MD1210241+0181MW1101OC100911OD141200911322REMSYN004BUFR
0160576870999992021010503004+28120+112780FM-12+011999999V0203391N0065199999999004200199+00521+00161103161ADDAA106999999AA212999999AA324999999AY101031AY201031IA2999+00519KA1240M+01021KA2240N+00521MA1999999101651MD1210101+0281MW1101OC101191OD141201191335REMSYN004BUFR
0166576870999992021010506004+28120+112780FM-12+011999999V0203321N0061199999999003600199+00461+00111103001ADDAA106999999AA224000091AJ199999999999999AY101061AY201061IA2999+00519KA1240M+01021KA2240N+00461MA1999999101491MD1710161+0421MW1101OC101261OD141201261335REMSYN004BUFR
0160576870999992021010509004+28120+112780FM-12+011999999V0203501N0044199999999002900199+00421+00081103061ADDAA106999999AA212999999AA324999999AY101031AY201031IA2999+00509KA1240M+00861KA2240N+00431MA1999999101551MD1210061+0441MW1101OC101261OD141201261335REMSYN004BUFR
0166576870999992021010512004+28120+112780FM-12+011999999V0203431N0040199999999002900199+00401+00031103161ADDAA106999999AA224000091AJ199999999999999AY101061AY201061IA2999+00459KA1240M+00751KA2240N+00401MA1999999101651MD1210101+0371MW1101OC101261OD141201261335REMSYN004BUFR
0144576870999992021010515004+28120+112780FM-12+011999999V0203431N0046199999999004700199+00371-00141103191ADDAA106999999AA212999999AA324999999IA2999+00399KA1240M+00631KA2240N+00381MA1999999101681MD1210031+0331MW1101OC101261OD141201261335REMSYN004BUFR
0160576870999992021010518004+28120+112780FM-12+011999999V0203481N0025199999999005000199+00361-00151103091ADDAA106999999AA212999999AA324999999AY101999AY201999IA2999+00379KA1240M+00571KA2240N+00361MA1999999101581MD1710101+0251MW1101OC101061OD141201061345REMSYN004BUFR
0144576870999992021010521004+28120+112780FM-12+011999999V0203341N0039199999999005400199+00321-00191102931ADDAA106999999AA212999999AA324999999IA2999+00349KA1240M+00541KA2240N+00321MA1999999101421MD1710161+0111MW1101OC101061OD141201061345REMSYN004BUFR
0166576870999992021010600004+28120+112780FM-12+011999999V0203301N0051199999999004900199+00271-00191102981ADDAA106999999AA224000091AJ199999999999999AY101121AY201121IA2999+00319KA1240M+00541KA2240N+00281MA1999999101461MD1210041-0091MW1101OC101061OD141201061345REMSYN004BUFR
0192576870999992021010603004+28120+112780FM-12+011999999V0203301N0035199999999004100199+00261-00141102981ADDAA106999999AA224000091AJ199999999999999AY101031AY201031GF108991999999999999999999IA2999+00319KA1240M+00531KA2240N+00261MA1999999101461MD1410001-0191MW1101OC100941OD141200941335REMSYN004BUFR
0192576870999992021010606004+28120+112780FM-12+011999999V0203321N0043199999999002800199+00201-00051102741ADDAA106999999AA224000091AJ199999999999999AY101061AY201061GF108991999999999999999999IA2999+00319KA1240M+00471KA2240N+00191MA1999999101221MD1710241-0271MW1101OC100831OD141200831339REMSYN004BUFR
0166576870999992021010609004+28120+112780FM-12+011999999V0203261N0022199999999001700199+00151-00011102771ADDAA106000531AA224000531AJ100003100001099AY101031AY201031IA2999+00279KA1240M+00431KA2240N+00141MA1999999101251MD1210031-0301MW1211OC100961OD141200961325REMSYN004BUFR
0166576870999992021010612004+28120+112780FM-12+011999999V0203351N0043199999999001500199+00201+00071102941ADDAA106000631AA224000631AJ100003100001099AY101061AY201061IA2999+00279KA1240M+00401KA2240N+00141MA1999999101421MD1210171-0231MW1211OC100961OD141200961325REMSYN004BUFR
0150576870999992021010615004+28120+112780FM-12+011999999V0203411N0053199999999001800199+00221+00111103111ADDAA106000431AA224000931AJ100003100001099IA2999+00279KA1240M+00381KA2240N+00141MA1999999101591MD1210171-0091MW1101OC100961OD141200961325REMSYN004BUFR
0166576870999992021010618004+28120+112780FM-12+011999999V0203401N0054199999999004100199+00201+00011103201ADDAA106001331AA224001931AJ100003100002099AY101999AY201999IA2999+00259KA1240M+00361KA2240N+00141MA1999999101671MD1210081+0091MW1101OC101241OD141201241340REMSYN004BUFR
0150576870999992021010621004+28120+112780FM-12+011999999V0203431N0059199999999010100199+00171-00451103281ADDAA106001031AA224001931AJ100003100001099IA2999+00149KA1240M+00321KA2240N+00141MA1999999101751MD1210081+0331MW1231OC101241OD141201241340REMSYN004BUFR
0166576870999992021010700004+28120+112780FM-12+011999999V0200061N0056199999999025300199+00101-00771103611ADDAA106999999AA224001931AJ100003100001099AY101121AY201121IA2999+00049KA1240M+00281KA2240N+00101MA1999999102071MD1210321+0611MW1001OC101331OD141201331011REMSYN004BUFR
0166576870999992021010703004+28120+112780FM-12+011999999V0203571N0055199999999030000199-00051-00561103771ADDAA106999999AA224001931AJ100003100001099AY101031AY201031IA2999+00049KA1240M+00271KA2240N-00071MA1999999102231MD1210161+0771MW1001OC101441OD141201441354REMSYN004BUFR
0166576870999992021010706004+28120+112780FM-12+011999999V0203451N0045199999999010700199-00071-00531103501ADDAA106999999AA224001931AJ100009100000099AY101061AY201061IA2999+00049KA1240M+00241KA2240N-00111MA1999999101961MD1710271+0741MW1001OC101441OD141201441354REMSYN004BUFR
0166576870999992021010709004+28120+112780FM-12+011999999V0203431N0049199999999011500199-00051-00891103491ADDAA106999999AA224001431AJ100009100000099AY101031AY201031IA2999+00049KA1240M+00241KA2240N-00111MA1999999101951MD1710011+0701MW1001OC101441OD141201441354REMSYN004BUFR
0192576870999992021010712004+28120+112780FM-12+011999999V0203451N0045199999999012100199-00091-01161103711ADDAA106999999AA224001331AJ100009100000099AY101061AY201061GF108991999999999999999999IA2999-00059KA1240M+00241KA2240N-00111MA1999999102161MD1210211+0741MW1001OC101441OD141201441354REMSYN004BUFR
0144576870999992021010715004+28120+112780FM-12+011999999V0203501N0040199999999012700199-00101-01331103811ADDAA106999999AA212999999AA324001031IA2999-00089KA1240M+00231KA2240N-00111MA1999999102261MD1210101+0671MW1001OC101291OD141201291019REMSYN004BUFR
0160576870999992021010718004+28120+112780FM-12+011999999V0203451N0040199999999013200199-00141-01491103771ADDAA106999999AA212999999AA324999999AY101999AY201999IA2999-00099KA1240M+00211KA2240N-00141MA1999999102221MD1710041+0551MW1001OC101091OD141201091345REMSYN004BUFR
0144576870999992021010721004+28120+112780FM-12+011999999V0203381N0032199999999012900199-00191-01231103701ADDAA106999999AA212999999AA324999999IA2999-00109KA1240M+00191KA2240N-00191MA1999999102151MD1710071+0401MW1001OC101091OD141201091345REMSYN004BUFR
0166576870999992021010800004+28120+112780FM-12+011999999V0203411N0033199999999011700199-00251-01171103861ADDAA106999999AA224000091AJ199999999999999AY101121AY201121IA2999-00159KA1240M+00101KA2240N-00251MA1999999102301MD1210151+0231MW1001OC101031OD141201031344REMSYN004BUFR
0160576870999992021010803004+28120+112780FM-12+011999999V0200191N0039199999999023000199+00111-01941103931ADDAA106999999AA212999999AA324999999AY101031AY201031IA2999-00159KA1240M+00141KA2240N-00251MA1999999102381MD1210081+0151MW1001OC100831OD141200831344REMSYN004BUFR
0260576870999992021010806004+28117+112783FM-12+012099999V0200301N004019999999N030000199+00361-01921103481ADDAA106000091AA212000091AA324000091AY101021AY201021KA1240M+00391KA2240N-00251MA1999999101941MD1710441+9999MW1001OD139901001999REMSYN12457687 04980 /0304 10036 21192 30194 40348 57044 60002 70000 333 10039 21025 3/102 5005/ 54405 59002 60001 70000 90720 91110=
0260576870999992021010809004+28117+112783FM-12+012099999V0203401N004019999999N030000199+00331-01751103341ADDAA106000091AA212000091AA324000091AY101021AY201021KA1240M+00451KA2240N-00251MA1999999101801MD1710141+9999MW1001OD139901001999REMSYN12457687 04980 /3404 10033 21175 30180 40334 57014 60002 70000 333 10045 21025 3/102 5001/ 54405 59015 60001 70000 90720 91110=
0260576870999992021010812004+28117+112783FM-12+012099999V0202901N001019999999N030000199+00021-01351103381ADDAA106000091AA212000091AA324000091AY101021AY201021KA1240M+00451KA2240N-00251MA1999999101831MD1210031+9999MW1001OD139901001999REMSYN12457687 04980 /2901 10002 21135 30183 40338 52003 60002 70000 333 10045 21025 3/102 5001/ 54405 59033 60001 70000 90720 91110=
0244576870999992021010815004+28117+112783FM-12+012099999V0203101N001019999999N012000199+00001-01401103421ADDAA106000091AA212000091AA324000091KA1240M+00451KA2240N-00251MA1999999101881MD1210051+9999MW1001OD139901001999REMSYN12457687 04962 /3101 10000 21140 30188 40342 52005 60002 700// 333 10045 21025 3/103 5000/ 54405 59038 60001 70000 90720 91110=
0260576870999992021010818004+28117+112783FM-12+012099999V0203101N002019999999N012000199-00161-01171103471ADDAA106000091AA212000091AA324000091AY101021AY201021KA1120M+00451KA2120N-00251MA1999999101931MD1210051+9999MW1001OD139900801999REMSYN12457687 04962 /3102 11016 21117 30193 40347 52005 60002 70000 333 10045 21025 3/104 5000/ 544// 59029 60001 70000 90720 91108=
0244576870999992021010821004+28117+112783FM-12+012099999V0202801N001019999999N012000199-00341-01071103281ADDAA106000091AA212000091AA324000091KA1240M+00451KA2240N-00351MA1999999101741MD1710191+9999MW1001OD139900701999REMSYN12457687 04962 /2801 11034 21107 30174 40328 57019 60002 700// 333 10045 21035 3/104 5000/ 54415 59041 60001 70000 90720 91107=
0158576870999992021010900004+28120+112780FM-12+011999999V0202831N0017199999999013400199-00521-00931103421ADDAA106999999AA224000091AJ199999999999999AY101121AY201121IA2999-00479KA1240M+00451KA2240N-00521MA1999999101861MD1210121-0441MW1001OD141200441315REMSYN004BUFR
0152576870999992021010903004+28120+112780FM-12+011999999V0201191N0022199999999024700199+00411-01281103431ADDAA106999999AA212999999AA324999999AY101031AY201031IA2999-00479KA1240M+00451KA2240N-00521MA1999999101901MD1210041-0481MW1001OD141200391121REMSYN004BUFR
0166576870999992021010906004+28120+112780FM-12+011999999V0203361N0020199999999030000199+00521-01541103051ADDAA106999999AA224000091AJ199999999999999AY101061AY201061IA2999-00479KA1240M+00611KA2240N-00521MA1999999101521MD1710381-0421MW1001OC100551OD141200551103REMSYN004BUFR
0160576870999992021010909004+28120+112780FM-12+011999999V0203411N0028199999999030000199+00501-01291102881ADDAA106999999AA212999999AA324999999AY101031AY201031IA2999-00479KA1240M+00611KA2240N-00521MA1999999101351MD1710171-0451MW1001OC100551OD141200551103REMSYN004BUFR
0166576870999992021010912004+28120+112780FM-12+011999999V0203091N0029199999999027700199+00401-01081103071ADDAA106999999AA224000091AJ199999999999999AY101061AY201061IA2999-00389KA1240M+00611KA2240N-00521MA1999999101531MD1210181-0301MW1001OC100551OD141200551103REMSYN004BUFR
0144576870999992021010915004+28120+112780FM-12+011999999V0202901N0015199999999023000199+00411-01001103111ADDAA106999999AA212999999AA324999999IA2999+00269KA1240M+00611KA2240N-00521MA1999999101591MD1210061-0291MW1001OC100691OD141200691333REMSYN004BUFR
0160576870999992021010918004+28120+112780FM-12+011999999V0203121N0021199999999030000199+00371-00891103151ADDAA106999999AA212999999AA324999999AY101999AY201999IA2999+00229KA1240M+00611KA2240N-00521MA1999999101641MD1210051-0291MW1001OC100691OD141200691333REMSYN004BUFR
0144576870999992021010921004+28120+112780FM-12+011999999V0203091N0018199999999026300199+00271-00691102991ADDAA106999999AA212999999AA324999999IA2999+00179KA1240M+00611KA2240N-00521MA1999999101481MD1710161-0261MW1001OC100691OD141200691333REMSYN004BUFR
0166576870999992021011000004+28120+112780FM-12+011999999V0203141N0018199999999030000199+00251-00821103061ADDAA106999999AA224000091AJ199999999999999AY101121AY201121IA2999+00129KA1240M+00611KA2240N-00521MA1999999101541MD1210061-0321MW1001OC100691OD141200691333REMSYN004BUFR
0160576870999992021011003004+28120+112780FM-12+011999999V0203061N0016199999999025600199+00421-00701103211ADDAA106999999AA212999999AA324999999AY101031AY201031IA2999+00129KA1240M+00611KA2240N+00221MA1999999101691MD1210151-0211MW1001OC100581OD141200581340REMSYN004BUFR
0166576870999992021011006004+28120+112780FM-12+011999999V0203011N0010199999999026500199+00511-00611102911ADDAA106999999AA224000091AJ199999999999999AY101061AY201061IA2999+00129KA1240M+00581KA2240N+00221MA1999999101401MD1710291-0121MW1001OC100581OD141200581340REMSYN004BUFR
0152576870999992021011009004+28120+112780FM-12+011999999V0203251N0012199999999023300199+00451-00931102891ADDAA106999999AA212999999AA324999999AY101031AY201031IA2999+00129KA1240M+00521KA2240N+00221MA1999999101381MD1710021+0031MW1001OD141200431331REMSYN004BUFR
0158576870999992021011012004+28120+112780FM-12+011999999V0202481N0010199999999015400199+00321-00541103081ADDAA106999999AA224000091AJ199999999999999AY101061AY201061IA2999+00179KA1240M+00521KA2240N+00221MA1999999101561MD1210181+0031MW1001OD141200391339REMSYN004BUFR
0144576870999992021011015004+28120+112780FM-12+011999999V0203371N0045199999999024600199+00461-00631103331ADDAA106999999AA212999999AA324999999IA2999+00279KA1240M+00521KA2240N+00221MA1999999101811MD1210251+0221MW1001OC100731OD141200731339REMSYN004BUFR
0160576870999992021011018004+28120+112780FM-12+011999999V0203321N0032199999999028100199+00411-00571103441ADDAA106999999AA212999999AA324999999AY101999AY201999IA2999+00229KA1240M+00521KA2240N+00221MA1999999101921MD1210111+0281MW1001OC100731OD141200731332REMSYN004BUFR
0144576870999992021011021004+28120+112780FM-12+011999999V0203491N0042199999999023800199+00351-00621103421ADDAA106999999AA212999999AA324999999IA2999+00199KA1240M+00521KA2240N+00221MA1999999101901MD1710021+0421MW1001OC100981OD141200981342REMSYN004BUFR
0166576870999992021011100004+28120+112780FM-12+011999999V0203401N0054199999999030000199+00301-00931103571ADDAA106999999AA224000091AJ199999999999999AY101121AY201121IA2999+00139KA1240M+00521KA2240N+00251MA1999999102041MD1210141+0501MW1001OC100981OD141200981342REMSYN004BUFR
0160576870999992021011103004+28120+112780FM-12+011999999V0200161N0051199999999029900199+00601-01421103671ADDAA106999999AA212999999AA324999999AY101031AY201031IA2999+00139KA1240M+00591KA2240N+00281MA1999999102151MD1210111+0461MW1001OC100981OD141200981342REMSYN004BUFR
0166576870999992021011106004+28120+112780FM-12+011999999V0203351N0058199999999030000199+00801-01361103301ADDAA106999999AA224000091AJ199999999999999AY101061AY201061IA2999+00139KA1240M+00841KA2240N+00281MA1999999101791MD1710361+0391MW1001OC101111OD141201111328REMSYN004BUFR
0160576870999992021011109004+28120+112780FM-12+011999999V0200061N0027199999999029600199+00751-01191103241ADDAA106999999AA212999999AA324999999AY101031AY201031IA2999+00139KA1240M+00871KA2240N+00281MA1999999101731MD1710061+0351MW1001OC101111OD141201111328REMSYN004BUFR
0166576870999992021011112004+28120+112780FM-12+011999999V0202541N0014199999999023900199+00221-00771103341ADDAA106999999AA224000091AJ199999999999999AY101061AY201061IA2999+00039KA1240M+00871KA2240N+00221MA1999999101811MD1210081+0251MW1001OC101111OD141201111328REMSYN004BUFR
0144576870999992021011115004+28120+112780FM-12+011999999V0202721N0017199999999019800199-00021-00651103331ADDAA106999999AA212999999AA324999999IA2999-00219KA1240M+00871KA2240N-00031MA1999999101801MD1710011-0011MW1001OC101111OD141201111328REMSYN004BUFR
0160576870999992021011118004+28120+112780FM-12+011999999V0203601N0000199999999016400199-00171-00681103121ADDAA106999999AA212999999AA324999999AY101999AY201999IA2999-00399KA1240M+00871KA2240N-00211MA1999999101601MD1710201-0321MW1001OC101091OD141201091323REMSYN004BUFR
0144576870999992021011121004+28120+112780FM-12+011999999V0202871N0013199999999010800199-00091-00831102971ADDAA106999999AA212999999AA324999999IA2999-00419KA1240M+00871KA2240N-00281MA1999999101451MD1710151-0451MW1001OC100521OD141200521029REMSYN004BUFR
0158576870999992021011200004+28120+112780FM-12+011999999V0201211N0019199999999009800199-00121-00751102931ADDAA106999999AA224000091AJ199999999999999AY101121AY201121IA2999-00429KA1240M+00871KA2240N-00281MA1999999101401MD1710051-0641MW1001OD141200401243REMSYN004BUFR
0152576870999992021011203004+28120+112780FM-12+011999999V0201921N0017199999999020700199+00771-00561102881ADDAA106999999AA212999999AA324999999AY101031AY201031IA2999-00429KA1240M+00871KA2240N-00281MA1999999101371MD1710031-0781MW1001OD141200481191REMSYN004BUFR
0166576870999992021011206004+28120+112780FM-12+011999999V0202221N0034199999999030000199+01271-00851102421ADDAA106999999AA224000091AJ199999999999999AY101061AY201061IA2999-00429KA1240M+01311KA2240N-00281MA1999999100921MD1710451-0871MW1001OC100671OD141200671213REMSYN004BUFR
0160576870999992021011209004+28120+112780FM-12+011999999V0202041N0036199999999030000199+01351-01041102211ADDAA106999999AA212999999AA324999999AY101031AY201031IA2999-00429KA1240M+01471KA2240N-00281MA1999999100721MD1710201-1011MW1001OC100781OD141200781210REMSYN004BUFR
0166576870999992021011212004+28120+112780FM-12+011999999V0201621N0036199999999025600199+00901-00641102211ADDAA106999999AA224000091AJ199999999999999AY101061AY201061IA2999-00299KA1240M+01471KA2240N-00281MA1999999100711MD1710011-1101MW1001OC100781OD141200781210REMSYN004BUFR
0144576870999992021011215004+28120+112780FM-12+011999999V0200971N0011199999999019700199+00671-00731102171ADDAA106999999AA212999999AA324999999IA2999+00119KA1240M+01471KA2240N-00281MA1999999100691MD1710021-1111MW1001OC100781OD141200781210REMSYN004BUFR
0160576870999992021011218004+28120+112780FM-12+011999999V0201451N0013199999999020000199+00451-00701102141ADDAA106999999AA212999999AA324999999AY101999AY201999IA2999-00059KA1240M+01471KA2240N-00281MA1999999100661MD1710031-0941MW1001OC100781OD141200781210REMSYN004BUFR
0144576870999992021011221004+28120+112780FM-12+011999999V0201391N0020199999999022700199+00321-00691102071ADDAA106999999AA212999999AA324999999IA2999-00119KA1240M+01471KA2240N-00141MA1999999100591MD1710071-0861MW1001OC100711OD141200711154REMSYN004BUFR
0166576870999992021011300004+28120+112780FM-12+011999999V0201541N0009199999999015700199+00251-00641102121ADDAA106999999AA224000091AJ199999999999999AY101121AY201121IA2999-00199KA1240M+01471KA2240N-00131MA1999999100631MD1210041-0771MW1001OC100591OD141200591173REMSYN004BUFR
0152576870999992021011303004+28120+112780FM-12+011999999V0201861N0012199999999023200199+01121-00481102221ADDAA106999999AA212999999AA324999999AY101031AY201031IA2999-00199KA1240M+01471KA2240N+00141MA1999999100741MD1210111-0631MW1001OD141200421124REMSYN004BUFR
0166576870999992021011306004+28120+112780FM-12+011999999V0202311N0040199999999030000199+01671-00641101861ADDAA106999999AA224000091AJ199999999999999AY101061AY201061IA2999-00199KA1240M+01731KA2240N+00141MA1999999100401MD1710341-0521MW1001OC100641OD141200641226REMSYN004BUFR
0166576870999992021011312004+28120+112780FM-12+011999999V0201301N0009199999999028400199+01171-00521101781ADDAA106999999AA224000091AJ199999999999999AY101061AY201061IA2999-00069KA1240M+01831KA2240N+00141MA1999999100301MD1210041-0411MW1001OC100701OD141200701189REMSYN004BUFR
0144576870999992021011315004+28120+112780FM-12+011999999V0203071N0008199999999019800199+00851-00381101921ADDAA106999999AA212999999AA324999999IA2999+00349KA1240M+01831KA2240N+00141MA1999999100451MD1210151-0241MW1001OC100701OD141200701189REMSYN004BUFR
0160576870999992021011318004+28120+112780FM-12+011999999V0201011N0013199999999021000199+00901-00461101941ADDAA106999999AA212999999AA324999999AY101999AY201999IA2999+00309KA1240M+01831KA2240N+00141MA1999999100491MD1210041-0171MW1001OC100701OD141200701189REMSYN004BUFR
0136576870999992021011321004+28120+112780FM-12+011999999V0200821N0012199999999020900199+00761-00481101821ADDAA106999999AA212999999AA324999999IA2999+00299KA1240M+01831KA2240N+00141MA1999999100371MD1710121-0221MW1001OD141200311134REMSYN004BUFR
0158576870999992021011400004+28120+112780FM-12+011999999V0202981N0003199999999019900199+00721-00521101841ADDAA106999999AA224000091AJ199999999999999AY101121AY201121IA2999+00059KA1240M+01831KA2240N+00241MA1999999100371MD1410001-0261MW1001OD141200291119REMSYN004BUFR
0152576870999992021011403004+28120+112780FM-12+011999999V0201331N0024199999999029600199+01351-00211101931ADDAA106999999AA212999999AA324999999AY101031AY201031IA2999+00059KA1240M+01831KA2240N+00661MA1999999100471MD1210101-0271MW1001OD141200471126REMSYN004BUFR
0166576870999992021011406004+28120+112780FM-12+011999999V0201741N0024199999999030000199+01971-00391101501ADDAA106999999AA224000091AJ199999999999999AY101061AY201061IA2999+00059KA1240M+01971KA2240N+00661MA1999999100061MD1710411-0341MW1001OC100541OD141200541127REMSYN004BUFR
0160576870999992021011409004+28120+112780FM-12+011999999V0201451N0024199999999030000199+01871-00331101411ADDAA106999999AA212999999AA324999999AY101031AY201031IA2999+00059KA1240M+02071KA2240N+00661MA1999999099971MD1710091-0291MW1001OC100691OD141200691165REMSYN004BUFR
0166576870999992021011412004+28120+112780FM-12+011999999V0201451N0021199999999030000199+01501-00381101471ADDAA106999999AA224000091AJ199999999999999AY101061AY201061IA2999+00189KA1240M+02071KA2240N+00661MA1999999100021MD1210051-0281MW1001OC100691OD141200691165REMSYN004BUFR
0144576870999992021011415004+28120+112780FM-12+011999999V0202701N0009199999999026300199+01211-00331101611ADDAA106999999AA212999999AA324999999IA2999+00569KA1240M+02071KA2240N+00661MA1999999100161MD1210141-0291MW1001OC100691OD141200691165REMSYN004BUFR
0160576870999992021011418004+28120+112780FM-12+011999999V0201521N0024199999999022200199+01151-00341101601ADDAA106999999AA212999999AA324999999AY101999AY201999IA2999+00409KA1240M+02071KA2240N+00661MA1999999100171MD1210011-0321MW1001OC100691OD141200691165REMSYN004BUFR
0136576870999992021011421004+28120+112780FM-12+011999999V0201611N0004199999999019300199+00901-00241101621ADDAA106999999AA212999999AA324999999IA2999+00279KA1240M+02071KA2240N+00661MA1999999100181MD1210011-0191MW1001OD141200431135REMSYN004BUFR
0158576870999992021011500004+28120+112780FM-12+011999999V0200741N0010199999999017600199+00721-00111101771ADDAA106999999AA224000091AJ199999999999999AY101121AY201121IA2999+00199KA1240M+02071KA2240N+00721MA1999999100311MD1210131-0061MW1001OD141200351127REMSYN004BUFR
0152576870999992021011503004+28120+112780FM-12+011999999V0201101N0014199999999028800199+01451+00001101881ADDAA106999999AA212999999AA324999999AY101031AY201031IA2999+00199KA1240M+02071KA2240N+00581MA1999999100431MD1210121-0041MW1001OD141200351127REMSYN004BUFR
0166576870999992021011506004+28120+112780FM-12+011999999V0200111N0039199999999030000199+01871-00021101621ADDAA106999999AA224000091AJ199999999999999AY101061AY201061IA2999+00199KA1240M+02071KA2240N+00581MA1999999100181MD1710251+0121MW1001OC100661OD141200661035REMSYN004BUFR
0160576870999992021011509004+28120+112780FM-12+011999999V0203601N0021199999999023400199+01701+00251101661ADDAA106999999AA212999999AA324999999AY101031AY201031IA2999+00199KA1240M+01911KA2240N+00581MA1999999100211MD1210031+0241MW1001OC100691OD141200691336REMSYN004BUFR
0166576870999992021011512004+28120+112780FM-12+011999999V0203121N0037199999999012300199+01321+00301101771ADDAA106999999AA224000091AJ199999999999999AY101061AY201061IA2999+00319KA1240M+01911KA2240N+00581MA1999999100311MD1210101+0291MW1001OC100691OD141200691336REMSYN004BUFR
0144576870999992021011515004+28120+112780FM-12+011999999V0202741N0022199999999012400199+01071+00211101881ADDAA106999999AA212999999AA324999999IA2999+00749KA1240M+01911KA2240N+00581MA1999999100431MD1210121+0271MW1001OC100691OD141200691336REMSYN004BUFR
0160576870999992021011518004+28120+112780FM-12+011999999V0203081N0042199999999014100199+00921-00261102101ADDAA106999999AA212999999AA324999999AY101999AY201999IA2999+00589KA1240M+01911KA2240N+00581MA1999999100651MD1210221+0481MW1001OC100751OD141200751305REMSYN004BUFR
0144576870999992021011521004+28120+112780FM-12+011999999V0203101N0054199999999014600199+00671-00371102211ADDAA106999999AA212999999AA324999999IA2999+00459KA1240M+01911KA2240N+00581MA1999999100751MD1210101+0571MW1001OC101481OD141201481310REMSYN004BUFR
0166576870999992021011600004+28120+112780FM-12+011999999V0203161N0066199999999015100199+00661-00451102451ADDAA106999999AA224000091AJ199999999999999AY101121AY201121IA2999+00419KA1240M+01911KA2240N+00581MA1999999100981MD1210231+0671MW1001OC101481OD141201481327REMSYN004BUFR
0160576870999992021011603004+28120+112780FM-12+011999999V0203281N0058199999999015400199+00751-00471102611ADDAA106999999AA212999999AA324999999AY101031AY201031IA2999+00419KA1240M+01911KA2240N+00631MA1999999101131MD1210151+0701MW1001OC101481OD141201481327REMSYN004BUFR
0166576870999992021011606004+28120+112780FM-12+011999999V0203311N0063199999999014000199+00761-00331102481ADDAA106999999AA224000091AJ199999999999999AY101061AY201061IA2999+00419KA1240M+01911KA2240N+00631MA1999999101001MD1710131+0821MW1001OC101481OD141201481327REMSYN004BUFR
0160576870999992021011609004+28120+112780FM-12+011999999V0203291N0051199999999013600199+00751-00321102661ADDAA106999999AA212999999AA324999999AY101031AY201031IA2999+00419KA1240M+01691KA2240N+00631MA1999999101171MD1210171+0961MW1001OC101481OD141201481327REMSYN004BUFR
0166576870999992021011612004+28120+112780FM-12+011999999V0203451N0085199999999012800199+00751-00401102931ADDAA106999999AA224000091AJ199999999999999AY101061AY201061IA2999+00579KA1240M+01351KA2240N+00631MA1999999101431MD1210261+1121MW1001OC101641OD141201641346REMSYN004BUFR
0144576870999992021011615004+28120+112780FM-12+011999999V0203391N0078199999999013100199+00621-00401103281ADDAA106999999AA212999999AA324999999IA2999+00609KA1240M+01131KA2240N+00621MA1999999101781MD1210351+1351MW1001OC101641OD141201641346REMSYN004BUFR
0160576870999992021011618004+28120+112780FM-12+011999999V0203431N0081199999999012700199+00551-00521103491ADDAA106999999AA212999999AA324999999AY101999AY201999IA2999+00529KA1240M+00931KA2240N+00551MA1999999101981MD1210201+1331MW1001OC101641OD141201641346REMSYN004BUFR
0144576870999992021011621004+28120+112780FM-12+011999999V0203431N0069199999999016500199+00521-00581103661ADDAA106999999AA212999999AA324999999IA2999+00479KA1240M+00801KA2240N+00521MA1999999102151MD1210171+1401MW1001OC101641OD141201641346REMSYN004BUFR
0166576870999992021011700004+28120+112780FM-12+011999999V0203381N0083199999999017000199+00451-00561103741ADDAA106999999AA224000091AJ199999999999999AY101121AY201121IA2999+00349KA1240M+00801KA2240N+00451MA1999999102231MD1210081+1251MW1001OC101581OD141201581344REMSYN004BUFR
0160576870999992021011703004+28120+112780FM-12+011999999V0203291N0064199999999017500199+00671-00591103791ADDAA106999999AA212999999AA324999999AY101031AY201031IA2999+00349KA1240M+00801KA2240N+00451MA1999999102281MD1210051+1151MW1001OC101581OD141201581344REMSYN004BUFR
0166576870999992021011706004+28120+112780FM-12+011999999V0203401N0051199999999020900199+00971-00991103401ADDAA106999999AA224000091AJ199999999999999AY101061AY201061IA2999+00349KA1240M+00971KA2240N+00451MA1999999101901MD1710381+0901MW1001OC101531OD141201531349REMSYN004BUFR
0160576870999992021011709004+28120+112780FM-12+011999999V0203381N0040199999999025300199+00871-01171103271ADDAA106999999AA212999999AA324999999AY101031AY201031IA2999+00349KA1240M+00991KA2240N+00451MA1999999101771MD1710131+0601MW1001OC101511OD141201511332REMSYN004BUFR
0166576870999992021011712004+28120+112780FM-12+011999999V0202861N0019199999999016200199+00371-00791103291ADDAA106999999AA224000091AJ199999999999999AY101061AY201061IA2999+00259KA1240M+00991KA2240N+00381MA1999999101771MD1410001+0341MW1001OC101171OD141201171342REMSYN004BUFR
0144576870999992021011715004+28120+112780FM-12+011999999V0202691N0017199999999018000199+00101-00581103191ADDAA106999999AA212999999AA324999999IA2999-00049KA1240M+00991KA2240N+00091MA1999999101671MD1710101-0111MW1001OC101161OD141201161332REMSYN004BUFR
0160576870999992021011718004+28120+112780FM-12+011999999V0202941N0006199999999013800199+00051-00681103021ADDAA106999999AA212999999AA324999999AY101999AY201999IA2999-00209KA1240M+00991KA2240N-00021MA1999999101511MD1710161-0471MW1001OC101161OD141201161332REMSYN004BUFR
0144576870999992021011721004+28120+112780FM-12+011999999V0201261N0011199999999023900199+00021-00701102901ADDAA106999999AA212999999AA324999999IA2999-00289KA1240M+00991KA2240N-00051MA1999999101391MD1710121-0761MW1001OC100581OD141200581326REMSYN004BUFR
0158576870999992021011800004+28120+112780FM-12+011999999V0201321N0012199999999015900199+00051-00601102941ADDAA106999999AA224000091AJ199999999999999AY101121AY201121IA2999-00359KA1240M+00991KA2240N-00051MA1999999101421MD1210031-0811MW1001OD141200301277REMSYN004BUFR
0160576870999992021011803004+28120+112780FM-12+011999999V0201871N0018199999999018000199+00861-00271102941ADDAA106999999AA212999999AA324999999AY101031AY201031IA2999-00359KA1240M+00991KA2240N-00051MA1999999101431MD1210011-0851MW1001OC100511OD141200511199REMSYN004BUFR
0166576870999992021011806004+28120+112780FM-12+011999999V0202081N0019199999999030000199+01361-00361102501ADDAA106999999AA224000091AJ199999999999999AY101061AY201061IA2999-00359KA1240M+01361KA2240N-00051MA1999999101011MD1710421-0891MW1001OC100511OD141200511199REMSYN004BUFR
0160576870999992021011809004+28120+112780FM-12+011999999V0201481N0023199999999030000199+01311-00451102371ADDAA106999999AA212999999AA324999999AY101031AY201031IA2999-00359KA1240M+01451KA2240N-00051MA1999999100881MD1710131-0891MW1001OC100531OD141200531134REMSYN004BUFR
0166576870999992021011812004+28120+112780FM-12+011999999V0201291N0011199999999023800199+00821-00391102381ADDAA106999999AA224000091AJ199999999999999AY101061AY201061IA2999-00139KA1240M+01451KA2240N-00051MA1999999100881MD1410001-0891MW1001OC100531OD141200531134REMSYN004BUFR
0144576870999992021011815004+28120+112780FM-12+011999999V0201441N0020199999999018400199+00711-00591102361ADDAA106999999AA212999999AA324999999IA2999+00119KA1240M+01451KA2240N-00051MA1999999100881MD1410001-0791MW1001OC100531OD141200531134REMSYN004BUFR
0160576870999992021011818004+28120+112780FM-12+011999999V0201291N0020199999999021600199+00471-00501102311ADDAA106999999AA212999999AA324999999AY101999AY201999IA2999+00029KA1240M+01451KA2240N-00051MA1999999100831MD1710051-0681MW1001OC100531OD141200531134REMSYN004BUFR
0136576870999992021011821004+28120+112780FM-12+011999999V0201301N0008199999999023600199+00371-00551102201ADDAA106999999AA212999999AA324999999IA2999-00209KA1240M+01451KA2240N-00041MA1999999100721MD1710111-0671MW1001OD141200401116REMSYN004BUFR
0158576870999992021011900004+28120+112780FM-12+011999999V0201181N0005199999999015000199+00351-00451102291ADDAA106999999AA224000091AJ199999999999999AY101121AY201121IA2999-00309KA1240M+01451KA2240N+00051MA1999999100801MD1210081-0621MW1001OD141200271120REMSYN004BUFR
0160576870999992021011903004+28120+112780FM-12+011999999V0201381N0025199999999022100199+01051-00371102341ADDAA106999999AA212999999AA324999999AY101031AY201031IA2999-00309KA1240M+01451KA2240N+00281MA1999999100861MD1210061-0571MW1001OC100551OD141200551126REMSYN004BUFR
0166576870999992021011906004+28120+112780FM-12+011999999V0201331N0022199999999030000199+01501-00651101971ADDAA106999999AA224000091AJ199999999999999AY101061AY201061IA2999-00309KA1240M+01531KA2240N+00281MA1999999100501MD1710361-0511MW1001OC100661OD141200661133REMSYN004BUFR
0160576870999992021011909004+28120+112780FM-12+011999999V0201401N0032199999999030000199+01501-00601101831ADDAA106999999AA212999999AA324999999AY101031AY201031IA2999-00309KA1240M+01571KA2240N+00281MA1999999100361MD1710141-0521MW1001OC100671OD141200671131REMSYN004BUFR
0166576870999992021011912004+28120+112780FM-12+011999999V0201071N0020199999999026700199+01201-00511101881ADDAA106999999AA224000091AJ199999999999999AY101061AY201061IA2999-00079KA1240M+01571KA2240N+00281MA1999999100401MD1210041-0481MW1001OC100671OD141200671131REMSYN004BUFR
0144576870999992021011915004+28120+112780FM-12+011999999V0200861N0021199999999022300199+01051-00441101911ADDAA106999999AA212999999AA324999999IA2999+00619KA1240M+01571KA2240N+00281MA1999999100451MD1210051-0431MW1001OC100671OD141200671131REMSYN004BUFR
0160576870999992021011918004+28120+112780FM-12+011999999V0201121N0030199999999025200199+00971-00461101921ADDAA106999999AA212999999AA324999999AY101999AY201999IA2999+00529KA1240M+01571KA2240N+00281MA1999999100471MD1210021-0361MW1001OC100671OD141200671131REMSYN004BUFR
0144576870999992021011921004+28120+112780FM-12+011999999V0201451N0017199999999024600199+00901-00401101851ADDAA106999999AA212999999AA324999999IA2999+00529KA1240M+01571KA2240N+00281MA1999999100391MD1710081-0331MW1001OC100601OD141200601116REMSYN004BUFR
0166576870999992021012000004+28120+112780FM-12+011999999V0203461N0012199999999017600199+00851-00301102021ADDAA106999999AA224000091AJ199999999999999AY101121AY201121IA2999+00529KA1240M+01571KA2240N+00351MA1999999100551MD1210161-0251MW1001OC100601OD141200601116REMSYN004BUFR
0152576870999992021012003004+28120+112780FM-12+011999999V0201451N0012199999999021500199+01121-00161102111ADDAA106000331AA212000331AA324000331AY101031AY201031IA2999+00529KA1240M+01571KA2240N+00831MA1999999100641MD1210091-0221MW1001OD141200491110REMSYN004BUFR
0158576870999992021012006004+28120+112780FM-12+011999999V0203221N0013199999999023300199+01171+00061101861ADDAA106999999AA224000091AJ199999999999999AY101061AY201061IA2999+00649KA1240M+01571KA2240N+00831MA1999999100401MD1710241-0101MW1001OD141200421112REMSYN004BUFR
0160576870999992021012009004+28120+112780FM-12+011999999V0203191N0028199999999019700199+01021+00031101841ADDAA106999999AA212999999AA324999999AY101031AY201031IA2999+00649KA1240M+01501KA2240N+00831MA1999999100371MD1710031+0011MW1001OC100511OD141200511322REMSYN004BUFR
0166576870999992021012012004+28120+112780FM-12+011999999V0203061N0041199999999017700199+00971+00161101911ADDAA106999999AA224000091AJ199999999999999AY101061AY201061IA2999+00749KA1240M+01181KA2240N+00831MA1999999100441MD1210071+0041MW1001OC100691OD141200691318REMSYN004BUFR
0144576870999992021012015004+28120+112780FM-12+011999999V0203221N0045199999999010900199+00861+00461102021ADDAA106999999AA212999999AA324999999IA2999+00849KA1240M+01181KA2240N+00831MA1999999100551MD1210111+0101MW1001OC100881OD141200881333REMSYN004BUFR
0160576870999992021012018004+28120+112780FM-12+011999999V0203241N0055199999999008000199+00751+00491102011ADDAA106000231AA212000231AA324000231AY101999AY201999IA2999+00739KA1240M+01181KA2240N+00741MA1999999100541MD1710011+0071MW1601OC100971OD141200971322REMSYN004BUFR
0244576870999992021012021004+28117+112783FM-12+012099999V0203101N005019999999N005000199+00711+00521101931ADDAA106000431AA212000431AA324000431KA1240M+01181KA2240N+00701MA1999999100461MD1710081+9999MW1101OD139901001999REMSYN12457687 04950 /3105 10071 20052 30046 40193 57008 69942 710// 333 10118 20070 3/007 5000/ 54415 58007 69941 70004 90720 91110=
0260576870999992021012100004+28117+112783FM-12+012099999V0203201N004019999999N005000199+00721+00501102031ADDAA106000231AA212000431AA324000431AY101021AY201021KA1120M+01181KA2120N+00701MA1999999100551MD1210091+9999MW1101OD139901001999REMSYN12457687 04950 /3204 10072 20050 30055 40203 52009 69942 71000 333 10118 20070 3/007 5000/ 54415 58000 69921 70004 90720 91110=
0260576870999992021012103004+28117+112783FM-12+012099999V0203301N005019999999N006000199+00771+00521102181ADDAA106000091AA212000431AA324000431AY101021AY201021KA1240M+01181KA2240N+00701MA1999999100701MD1210151+9999MW1101OD139901001999REMSYN12457687 04956 /3305 10077 20052 30070 40218 52015 69942 71000 333 10118 20070 3/007 5000/ 54415 58006 60001 70004 90720 91110=
0260576870999992021012106004+28117+112783FM-12+012099999V0203401N006019999999N007000199+00861+00531101981ADDAA106000091AA212000231AA324000431AY101021AY201021KA1240M+01181KA2240N+00701MA1999999100501MD1710201+9999MW1001OD139901001999REMSYN12457687 04957 /3406 10086 20053 30050 40198 57020 69922 70000 333 10118 20070 3/007 5001/ 54415 58010 60001 70004 90720 91110=
0160576870999992021012109004+28120+112780FM-12+011999999V0203241N0047199999999005900199+00801+00511101981ADDAA106999999AA212999999AA324000431AY101031AY201031IA2999+00689KA1240M+01031KA2240N+00701MA1999999100501MD1410001+0131MW1101OC101041OD141201041329REMSYN004BUFR
0260576870999992021012112004+28117+112783FM-12+012099999V0203201N004019999999N003800199+00691+00511102121ADDAA106000091AA212000091AA324000431AY101021AY201021KA1240M+00971KA2240N+00691MA1999999100641MD1210141+9999MW1101OD139901001999REMSYN12457687 04938 /3204 10069 20051 30064 40212 52014 60002 71000 333 10097 20069 3/007 5001/ 54415 58020 60001 70004 90720 91110=
0279576870999992021012115004+28117+112783FM-12+012099999V0203201N003019999999N003800199+00691+00491102181ADDAA106999999AA212999999AA324000431KA1240M+00941KA2240N+00681MA1999999100701MD1210061+9999MW1601OD139901001999REMSYN12457687 04938 /3203 10069 20049 30070 40218 52006 60002 760// 333 10094 20068 3/007 5001/ 54415 58015 60001 70004 90720 91110=EQDQ01  00002PRCP06Q02  00002PRCP12
0260576870999992021012118004+28117+112783FM-12+012099999V0203301N003019999999N002700199+00641+00541102121ADDAA106001031AA212001031AA324001331AY101021AY201021KA1120M+00941KA2120N+00641MA1999999100641MD1710061+9999MW1601OD139900901999REMSYN12457687 04927 /3303 10064 20054 30064 40212 57006 60012 76000 333 10094 20064 3/007 5001/ 54415 58010 60011 70013 90720 91109=
0244576870999992021012121004+28117+112783FM-12+012099999V0203201N004019999999N003000199+00641+00521102041ADDAA106002031AA212002032AA324001532KA1240M+00941KA2240N+00631MA1999999100561MD1710081+9999MW1101OD139900901999REMSYN12457687 04930 /3204 10064 20052 30056 40204 57008 60022 710// 333 10094 20063 3/007 5000/ 54415 58010 60021 70015 90720 91109=
0166576870999992021012200004+28120+112780FM-12+011999999V0203281N0034199999999003100199+00651+00501102191ADDAA106000431AA224001531AJ100003100002099AY101121AY201121IA2999+00669KA1240M+00941KA2240N+00631MA1999999100701MD1210141+0151MW1101OC100861OD141200861323REMSYN004BUFR
0160576870999992021012203004+28120+112780FM-12+011999999V0203551N0019199999999007500199+00861+00521102161ADDAA106999999AA212001531AA324001531AY101031AY201031IA2999+00669KA1240M+00941KA2240N+00631MA1999999100681MD1710021-0021MW1101OC100811OD141200811326REMSYN004BUFR
0166576870999992021012206004+28120+112780FM-12+011999999V0202991N0009199999999010000199+01021+00561101821ADDAA106000331AA224001831AJ100003100001099AY101061AY201061IA2999+00669KA1240M+01021KA2240N+00631MA1999999100351MD1710331-0151MW1001OC100721OD141200721328REMSYN004BUFR
0160576870999992021012209004+28120+112780FM-12+011999999V0200231N0014199999999010200199+01021+00531101831ADDAA106000331AA212000331AA324001831AY101031AY201031IA2999+00669KA1240M+01061KA2240N+00631MA1999999100361MD1210011-0141MW1001OC100671OD141200671337REMSYN004BUFR
0166576870999992021012212004+28120+112780FM-12+011999999V0200391N0017199999999008200199+00921+00531101921ADDAA106999999AA224001831AJ100003100000099AY101061AY201061IA2999+00699KA1240M+01061KA2240N+00631MA1999999100441MD1210081-0201MW1001OC100541OD141200541336REMSYN004BUFR
0136576870999992021012215004+28120+112780FM-12+011999999V0202941N0014199999999005000199+00851+00621102041ADDAA106999999AA212000331AA324001831IA2999+00819KA1240M+01061KA2240N+00631MA1999999100561MD1210121-0141MW1101OD141200381305REMSYN004BUFR
0152576870999992021012218004+28120+112780FM-12+011999999V0203071N0016199999999002300199+00651+00501102071ADDAA106999999AA212999999AA324000731AY101999AY201999IA2999+00459KA1240M+01061KA2240N+00631MA1999999100591MD1210031-0051MW1101OD141200301059REMSYN004BUFR
0136576870999992021012221004+28120+112780FM-12+011999999V0202711N0019199999999000100199+00371+00271102011ADDAA106999999AA212999999AA324000331IA2999+00299KA1240M+01061KA2240N+00371MA1999999100531MD1710061-0031MW1451OD141200301059REMSYN004BUFR
0158576870999992021012300004+28120+112780FM-12+011999999V0202771N0016199999999000100199+00301+00211102091ADDAA106999999AA224000331AJ100009100000099AY101121AY201121IA2999+00249KA1240M+01061KA2240N+00261MA1999999100601MD1210071-0101MW1461OD141200271308REMSYN004BUFR
0160576870999992021012303004+28120+112780FM-12+011999999V0203451N0041199999999003500199+00721+00651102241ADDAA106999999AA212999999AA324000331AY101031AY201031IA2999+00249KA1240M+01061KA2240N+00261MA1999999100761MD1210161+0081MW1101OC100611OD141200611349REMSYN004BUFR
0166576870999992021012306004+28120+112780FM-12+011999999V0200741N0018199999999009800199+01211+00501102011ADDAA106999999AA224000091AJ199999999999999AY101061AY201061IA2999+00249KA1240M+01211KA2240N+00261MA1999999100541MD1710221+0191MW1001OC100611OD141200611349REMSYN004BUFR
0160576870999992021012309004+28120+112780FM-12+011999999V0200191N0017199999999010900199+01221+00401101921ADDAA106999999AA212999999AA324999999AY101031AY201031IA2999+00249KA1240M+01321KA2240N+00261MA1999999100441MD1710101+0081MW1001OC100611OD141200611349REMSYN004BUFR
0166576870999992021012312004+28120+112780FM-12+011999999V0203141N0038199999999006200199+00861+00481101951ADDAA106999999AA224000091AJ199999999999999AY101061AY201061IA2999+00399KA1240M+01321KA2240N+00261MA1999999100461MD1210021+0021MW1101OC100611OD141200611349REMSYN004BUFR
0144576870999992021012315004+28120+112780FM-12+011999999V0202921N0022199999999004600199+00701+00441102071ADDAA106999999AA212999999AA324999999IA2999+00479KA1240M+01321KA2240N+00261MA1999999100591MD1210131+0031MW1101OC100601OD141200601306REMSYN004BUFR
0160576870999992021012318004+28120+112780FM-12+011999999V0203071N0022199999999001200199+00571+00451102131ADDAA106999999AA212999999AA324999999AY101999AY201999IA2999+00459KA1240M+01321KA2240N+00261MA1999999100651MD1210061+0061MW1101OC100691OD141200691324REMSYN004BUFR
0144576870999992021012321004+28120+112780FM-12+011999999V0203601N0000199999999000100199+00501+00401101871ADDAA106999999AA212999999AA324999999IA2999+00399KA1240M+01321KA2240N+00261MA1999999100401MD1710251-0131MW1451OC100691OD141200691324REMSYN004BUFR
0166576870999992021012400004+28120+112780FM-12+011999999V0203501N0005199999999000300199+00521+00451101971ADDAA106999999AA224000091AJ199999999999999AY101121AY201121IA2999+00399KA1240M+01321KA2240N+00301MA1999999100491MD1210091-0111MW1461OC100691OD141200691324REMSYN004BUFR
0160576870999992021012403004+28120+112780FM-12+011999999V0200811N0021199999999007900199+00951+00631102011ADDAA106999999AA212999999AA324999999AY101031AY201031IA2999+00399KA1240M+01321KA2240N+00471MA1999999100531MD1210041-0231MW1001OC100691OD141200691324REMSYN004BUFR
0166576870999992021012406004+28120+112780FM-12+011999999V0200401N0027199999999009400199+01121+00521101651ADDAA106999999AA224000091AJ199999999999999AY101061AY201061IA2999+00399KA1240M+01321KA2240N+00471MA1999999100181MD1710351-0361MW1001OC100531OD141200531031REMSYN004BUFR
0160576870999992021012409004+28120+112780FM-12+011999999V0203281N0041199999999006100199+00871+00551101621ADDAA106999999AA212999999AA324999999AY101031AY201031IA2999+00529KA1240M+01231KA2240N+00471MA1999999100141MD1710041-0301MW1101OC100741OD141200741329REMSYN004BUFR
0166576870999992021012412004+28120+112780FM-12+011999999V0203251N0054199999999004400199+00751+00521101761ADDAA106999999AA224000091AJ199999999999999AY101061AY201061IA2999+00639KA1240M+01201KA2240N+00471MA1999999100281MD1210141-0181MW1101OC100991OD141200991334REMSYN004BUFR
0244576870999992021012415004+28117+112783FM-12+012099999V0203201N005019999999N003000199+00721+00581101931ADDAA106000091AA212000091AA324000091KA1240M+01201KA2240N+00471MA1999999100451MD1210171+9999MW1101OD139901101999REMSYN12457687 04930 /3205 10072 20058 30045 40193 52017 60002 710// 333 10120 20047 3/008 5001/ 544// 59014 60001 70000 90720 91111=
0311576870999992021012418004+28117+112783FM-12+012099999V0203101N005019999999N003700199+00731+00621102001ADDAA106999999AA212999999AA324999999AY101021AY201021KA1120M+01201KA2120N+00471MA1999999100531MD1210081+9999MW1601OD139901101999REMSYN12457687 04937 /3105 10073 20062 30053 40200 52008 60002 76000 333 10120 20047 3/008 5001/ 54405 59012 60001 70000 90720 91111=EQDQ01  00002PRCP06Q02  00002PRCP12Q03  00002PRCP24
0244576870999992021012421004+28117+112783FM-12+012099999V0201801N002019999999N001900199+00741+00671102031ADDAA106000091AA212000091AA324000091KA1240M+01201KA2240N+00471MA1999999100551MD1210021+9999MW1101OD139901101999REMSYN12457687 04919 /1802 10074 20067 30055 40203 52002 60002 710// 333 10120 20047 3/008 5000/ 54405 58015 60001 70000 90720 91111=
0166576870999992021012500004+28120+112780FM-12+011999999V0203311N0035199999999005000199+00711+00641102241ADDAA106000131AA224000131AJ100003100000099AY101121AY201121IA2999+00779KA1240M+01201KA2240N+00521MA1999999100751MD1210201+0261MW1101OC101071OD141201071322REMSYN004BUFR
0160576870999992021012503004+28120+112780FM-12+011999999V0203271N0050199999999008500199+00661+00561102431ADDAA106000531AA212000531AA324000531AY101031AY201031IA2999+00729KA1240M+01201KA2240N+00651MA1999999100941MD1210191+0411MW1001OC101161OD141201161318REMSYN004BUFR
0166576870999992021012506004+28120+112780FM-12+011999999V0203191N0034199999999006600199+00551+00451102351ADDAA106000931AA224001031AJ100003100001099AY101061AY201061IA2999+00679KA1240M+01201KA2240N+00551MA1999999100861MD1710081+0681MW1601OC101191OD141201191329REMSYN004BUFR
0160576870999992021012509004+28120+112780FM-12+011999999V0203391N0046199999999004900199+00551+00441102431ADDAA106000731AA212001231AA324001231AY101031AY201031IA2999+00619KA1240M+00881KA2240N+00541MA1999999100941MD1210081+0801MW1601OC101231OD141201231341REMSYN004BUFR
0166576870999992021012512004+28120+112780FM-12+011999999V0203311N0038199999999003400199+00521+00401102551ADDAA106000331AA224001331AJ100003100001099AY101061AY201061IA2999+00589KA1240M+00751KA2240N+00521MA1999999101051MD1210111+0771MW1211OC101231OD141201231341REMSYN004BUFR
0144576870999992021012515004+28120+112780FM-12+011999999V0203321N0030199999999004000199+00521+00341102681ADDAA106000331AA212001031AA324001531IA2999+00559KA1240M+00751KA2240N+00511MA1999999101181MD1210131+0731MW1101OC101231OD141201231341REMSYN004BUFR
0160576870999992021012518004+28120+112780FM-12+011999999V0203151N0025199999999004200199+00501+00321102701ADDAA106000231AA212000531AA324001531AY101999AY201999IA2999+00499KA1240M+00751KA2240N+00501MA1999999101201MD1210021+0671MW1101OC101231OD141201231341REMSYN004BUFR
0144576870999992021012521004+28120+112780FM-12+011999999V0202831N0023199999999003200199+00371+00231102581ADDAA106999999AA212000331AA324001531IA2999+00269KA1240M+00751KA2240N+00381MA1999999101081MD1710121+0531MW1101OC100931OD141200931333REMSYN004BUFR
0166576870999992021012600004+28120+112780FM-12+011999999V0203181N0045199999999002100199+00421+00331102691ADDAA106999999AA224001431AJ100003100000099AY101121AY201121IA2999+00209KA1240M+00721KA2240N+00321MA1999999101181MD1210101+0431MW1101OC100741OD141200741341REMSYN004BUFR
0160576870999992021012603004+28120+112780FM-12+011999999V0203431N0037199999999005100199+00661+00361102781ADDAA106999999AA212999999AA324001031AY101031AY201031IA2999+00209KA1240M+00661KA2240N+00321MA1999999101281MD1210101+0341MW1101OC100701OD141200701338REMSYN004BUFR
0166576870999992021012606004+28120+112780FM-12+011999999V0203331N0029199999999006000199+00721+00331102521ADDAA106999999AA224000531AJ100009100000099AY101061AY201061IA2999+00209KA1240M+00741KA2240N+00321MA1999999101021MD1710261+0161MW1101OC100771OD141200771337REMSYN004BUFR
0160576870999992021012609004+28120+112780FM-12+011999999V0203301N0033199999999006700199+00771+00361102411ADDAA106999999AA212999999AA324000331AY101031AY201031IA2999+00209KA1240M+00801KA2240N+00321MA1999999100911MD1710111-0031MW1101OC100771OD141200771337REMSYN004BUFR
0166576870999992021012612004+28120+112780FM-12+011999999V0203411N0016199999999005700199+00701+00411102471ADDAA106999999AA224000231AJ100009100000099AY101061AY201061IA2999+00379KA1240M+00801KA2240N+00321MA1999999100971MD1210061-0081MW1101OC100771OD141200771337REMSYN004BUFR
0144576870999992021012615004+28120+112780FM-12+011999999V0203381N0026199999999003000199+00651+00491102511ADDAA106000131AA212000131AA324000131IA2999+00679KA1240M+00801KA2240N+00321MA1999999101021MD1210051-0161MW1211OC100771OD141200771337REMSYN004BUFR
0160576870999992021012618004+28120+112780FM-12+011999999V0203131N0027199999999003100199+00571+00441102451ADDAA106000131AA212000131AA324000131AY101999AY201999IA2999+00639KA1240M+00801KA2240N+00321MA1999999100961MD1710061-0241MW1211OC100691OD141200691340REMSYN004BUFR
0144576870999992021012621004+28120+112780FM-12+011999999V0203251N0028199999999003100199+00561+00411102241ADDAA106999999AA212000131AA324000131IA2999+00609KA1240M+00801KA2240N+00321MA1999999100751MD1710211-0331MW1101OC100571OD141200571343REMSYN004BUFR
0166576870999992021012700004+28120+112780FM-12+011999999V0203141N0028199999999002300199+00551+00431102351ADDAA106000131AA224000231AJ100003100000099AY101121AY201121IA2999+00599KA1240M+00801KA2240N+00431MA1999999100861MD1210111-0321MW1601OC100571OD141200571343REMSYN004BUFR
0160576870999992021012703004+28120+112780FM-12+011999999V0203121N0033199999999001700199+00561+00491102451ADDAA106001231AA212001231AA324001331AY101031AY201031IA2999+00599KA1240M+00801KA2240N+00541MA1999999100951MD1210091-0331MW1101OC100611OD141200611320REMSYN004BUFR
0166576870999992021012706004+28120+112780FM-12+011999999V0203101N0016199999999001700199+00601+00531102181ADDAA106001431AA224001631AJ100003100002099AY101061AY201061IA2999+00599KA1240M+00801KA2240N+00541MA1999999100691MD1710261-0331MW1601OC100681OD141200681322REMSYN004BUFR
0160576870999992021012709004+28120+112780FM-12+011999999V0203171N0029199999999002900199+00571+00511102261ADDAA106002331AA212003531AA324003631AY101031AY201031IA2999+00599KA1240M+00771KA2240N+00541MA1999999100771MD1210081-0141MW1601OC100681OD141200681322REMSYN004BUFR
0166576870999992021012712004+28120+112780FM-12+011999999V0203301N0037199999999002600199+00601+00531102581ADDAA106002931AA224004531AJ100003100004099AY101061AY201061IA2999+00599KA1240M+00701KA2240N+00541MA1999999101081MD1210311+0111MW1211OC100681OD141200681322REMSYN004BUFR
0144576870999992021012715004+28120+112780FM-12+011999999V0203321N0027199999999002600199+00651+00541102801ADDAA106001031AA212003331AA324004531IA2999+00629KA1240M+00641KA2240N+00541MA1999999101301MD1210221+0281MW1101OC100811OD141200811340REMSYN004BUFR
0160576870999992021012718004+28120+112780FM-12+011999999V0203251N0018199999999003100199+00651+00471102971ADDAA106000131AA212003031AA324004531AY101999AY201999IA2999+00539KA1240M+00651KA2240N+00541MA1999999101471MD1210171+0511MW1101OC100811OD141200811340REMSYN004BUFR
0144576870999992021012721004+28120+112780FM-12+011999999V0203311N0024199999999002900199+00561+00391102931ADDAA106999999AA212001031AA324004531IA2999+00499KA1240M+00651KA2240N+00541MA1999999101431MD1710041+0681MW1101OC100811OD141200811340REMSYN004BUFR
0166576870999992021012800004+28120+112780FM-12+011999999V0203071N0013199999999002500199+00451+00321103081ADDAA106999999AA224004431AJ100009100000099AY101121AY201121IA2999+00279KA1240M+00651KA2240N+00431MA1999999101571MD1210141+0711MW1101OC100811OD141200811340REMSYN004BUFR
0160576870999992021012803004+28120+112780FM-12+011999999V0203321N0029199999999005900199+00801+00351103241ADDAA106999999AA212999999AA324003331AY101031AY201031IA2999+00279KA1240M+00811KA2240N+00431MA1999999101741MD1210171+0791MW1101OC100561OD141200561348REMSYN004BUFR
0166576870999992021012806004+28120+112780FM-12+011999999V0203461N0030199999999009000199+01201+00341103011ADDAA106999999AA224003031AJ100009100000099AY101061AY201061IA2999+00279KA1240M+01201KA2240N+00431MA1999999101521MD1710221+0831MW1001OC100711OD141200711325REMSYN004BUFR
0160576870999992021012809004+28120+112780FM-12+011999999V0203341N0036199999999012100199+01121+00151102931ADDAA106999999AA212999999AA324001031AY101031AY201031IA2999+00279KA1240M+01251KA2240N+00431MA1999999101441MD1710081+0671MW1001OC100801OD141200801333REMSYN004BUFR
0166576870999992021012812004+28120+112780FM-12+011999999V0203181N0023199999999007400199+00751+00291102981ADDAA106999999AA224000091AJ199999999999999AY101061AY201061IA2999+00379KA1240M+01251KA2240N+00431MA1999999101481MD1210041+0401MW1101OC100801OD141200801333REMSYN004BUFR
0144576870999992021012815004+28120+112780FM-12+011999999V0202861N0017199999999005100199+00561+00311103031ADDAA106999999AA212999999AA324999999IA2999+00369KA1240M+01251KA2240N+00431MA1999999101531MD1210051+0231MW1101OC100801OD141200801333REMSYN004BUFR
0160576870999992021012818004+28120+112780FM-12+011999999V0202991N0022199999999004200199+00521+00291102961ADDAA106999999AA212999999AA324999999AY101999AY201999IA2999+00299KA1240M+01251KA2240N+00431MA1999999101471MD1710061+0001MW1101OC100801OD141200801333REMSYN004BUFR
0144576870999992021012821004+28120+112780FM-12+011999999V0203601N0000199999999002600199+00401+00271102791ADDAA106999999AA212999999AA324999999IA2999+00139KA1240M+01251KA2240N+00391MA1999999101301MD1710171-0131MW1101OC100581OD141200581339REMSYN004BUFR
0158576870999992021012900004+28120+112780FM-12+011999999V0202941N0003199999999000200199+00151+00061102841ADDAA106999999AA224000091AJ199999999999999AY101121AY201121IA2999+00049KA1240M+01251KA2240N+00121MA1999999101331MD1210031-0241MW1461OD141200461310REMSYN004BUFR
0152576870999992021012903004+28120+112780FM-12+011999999V0201501N0020199999999013800199+01001+00211102861ADDAA106999999AA212999999AA324999999AY101031AY201031IA2999+00049KA1240M+01251KA2240N+00121MA1999999101371MD1210041-0371MW1001OD141200411304REMSYN004BUFR
0166576870999992021012906004+28120+112780FM-12+011999999V0200751N0012199999999023000199+01451+00071102431ADDAA106999999AA224000091AJ199999999999999AY101061AY201061IA2999+00049KA1240M+01511KA2240N+00121MA1999999100961MD1710411-0561MW1001OC100641OD141200641111REMSYN004BUFR
0160576870999992021012909004+28120+112780FM-12+011999999V0203601N0002199999999027600199+01321+00031102251ADDAA106999999AA212999999AA324999999AY101031AY201031IA2999+00049KA1240M+01511KA2240N+00121MA1999999100771MD1710191-0671MW1001OC100641OD141200641111REMSYN004BUFR
0166576870999992021012912004+28120+112780FM-12+011999999V0203211N0011199999999015300199+01071+00241102291ADDAA106999999AA224000091AJ199999999999999AY101061AY201061IA2999+00139KA1240M+01511KA2240N+00121MA1999999100801MD1210031-0681MW1001OC100641OD141200641111REMSYN004BUFR
0144576870999992021012915004+28120+112780FM-12+011999999V0202921N0009199999999014200199+01051+00251102451ADDAA106999999AA212999999AA324999999IA2999+00909KA1240M+01511KA2240N+00121MA1999999100981MD1210181-0551MW1211OC100641OD141200641111REMSYN004BUFR
0152576870999992021012918004+28120+112780FM-12+011999999V0202841N0012199999999013400199+00951+00361102421ADDAA106999999AA212999999AA324999999AY101999AY201999IA2999+00859KA1240M+01511KA2240N+00121MA1999999100961MD1710021-0511MW1001OD141200471307REMSYN004BUFR
0136576870999992021012921004+28120+112780FM-12+011999999V0203211N0013199999999011900199+00871+00421102351ADDAA106999999AA212999999AA324999999IA2999+00839KA1240M+01511KA2240N+00121MA1999999100881MD1710081-0421MW1001OD141200471307REMSYN004BUFR
0158576870999992021013000004+28120+112780FM-12+011999999V0202771N0008199999999010900199+00851+00531102491ADDAA106999999AA224000091AJ199999999999999AY101121AY201121IA2999+00819KA1240M+01511KA2240N+00141MA1999999101011MD1210131-0321MW1001OD141200471307REMSYN004BUFR
0152576870999992021013003004+28120+112780FM-12+011999999V0203601N0000199999999011800199+01001+00431102561ADDAA106999999AA212999999AA324999999AY101031AY201031IA2999+00819KA1240M+01511KA2240N+00831MA1999999101081MD1210071-0291MW1001OD141200471307REMSYN004BUFR
0158576870999992021013006004+28120+112780FM-12+011999999V0200861N0008199999999018500199+01161+00181102341ADDAA106999999AA224000091AJ199999999999999AY101061AY201061IA2999+00819KA1240M+01491KA2240N+00831MA1999999100871MD1710211-0091MW1001OD141200221292REMSYN004BUFR
0152576870999992021013009004+28120+112780FM-12+011999999V0200941N0012199999999016700199+01151+00371102301ADDAA106999999AA212999999AA324999999AY101031AY201031IA2999+00819KA1240M+01331KA2240N+00831MA1999999100831MD1710041+0061MW1001OD141200221292REMSYN004BUFR
0158576870999992021013012004+28120+112780FM-12+011999999V0202711N0006199999999011400199+01011+00551102381ADDAA106999999AA224000091AJ199999999999999AY101061AY201061IA2999+00839KA1240M+01191KA2240N+00831MA1999999100901MD1210071+0101MW1001OD141200231109REMSYN004BUFR
0136576870999992021013015004+28120+112780FM-12+011999999V0202911N0014199999999010100199+00971+00571102481ADDAA106999999AA212999999AA324999999IA2999+00909KA1240M+01191KA2240N+00831MA1999999101001MD1210101+0021MW1001OD141200311321REMSYN004BUFR
0152576870999992021013018004+28120+112780FM-12+011999999V0203601N0000199999999009900199+00951+00531102431ADDAA106999999AA212999999AA324999999AY101999AY201999IA2999+00889KA1240M+01191KA2240N+00831MA1999999100961MD1710041+0001MW1001OD141200401331REMSYN004BUFR
0136576870999992021013021004+28120+112780FM-12+011999999V0202841N0016199999999008200199+00901+00561102321ADDAA106999999AA212999999AA324999999IA2999+00869KA1240M+01191KA2240N+00831MA1999999100851MD1710111-0031MW1001OD141200401331REMSYN004BUFR
0158576870999992021013100004+28120+112780FM-12+011999999V0203031N0014199999999001800199+00801+00681102441ADDAA106000931AA224000931AJ100003100001099AY101121AY201121IA2999+00829KA1240M+01191KA2240N+00781MA1999999100961MD1210111-0051MW1601OD141200401331REMSYN004BUFR
0160576870999992021013103004+28120+112780FM-12+011999999V0203071N0015199999999004700199+00851+00651102511ADDAA106001731AA212001731AA324001731AY101031AY201031IA2999+00829KA1240M+01191KA2240N+00751MA1999999101031MD1210071-0051MW1101OC100571OD141200571337REMSYN004BUFR
0166576870999992021013106004+28120+112780FM-12+011999999V0200361N0015199999999013000199+01151+00651102151ADDAA106000831AA224001731AJ100003100002099AY101061AY201061IA2999+00829KA1240M+01191KA2240N+00751MA1999999100681MD1710351-0191MW1001OC100571OD141200571337REMSYN004BUFR
0160576870999992021013109004+28120+112780FM-12+011999999V0203451N0017199999999010200199+01021+00641102151ADDAA106999999AA212001731AA324001731AY101031AY201031IA2999+00829KA1240M+01191KA2240N+00751MA1999999100681MD1410001-0151MW1001OC100571OD141200571337REMSYN004BUFR
0166576870999992021013112004+28120+112780FM-12+011999999V0203171N0016199999999008600199+00921+00641102211ADDAA106999999AA224001731AJ100003100001099AY101061AY201061IA2999+00829KA1240M+01191KA2240N+00751MA1999999100731MD1210051-0171MW1601OC100571OD141200571337REMSYN004BUFR
0144576870999992021013115004+28120+112780FM-12+011999999V0203281N0029199999999004100199+00871+00731102401ADDAA106999999AA212999999AA324001731IA2999+00909KA1240M+01191KA2240N+00751MA1999999100921MD1210191-0081MW1601OC100621OD141200621337REMSYN004BUFR
0160576870999992021013118004+28120+112780FM-12+011999999V0203381N0023199999999005300199+00811+00721102271ADDAA106001231AA212001231AA324002931AY101999AY201999IA2999+00859KA1240M+01191KA2240N+00751MA1999999100801MD1710121-0161MW1601OC100661OD141200661330REMSYN004BUFR
0144576870999992021013121004+28120+112780FM-12+011999999V0202611N0022199999999001100199+00811+00751102231ADDAA106002731AA212002731AA324004431IA2999+00859KA1240M+01191KA2240N+00751MA1999999100751MD1710051-0101MW1601OC100661OD141200661330REMSYN004BUFR
0166576870999992021020100004+28120+112780FM-12+011999999V0203051N0028199999999007000199+00771+00721102371ADDAA106003431AA224005431AJ100003100005099AY101121AY201121IA2999+00839KA1240M+01191KA2240N+00751MA1999999100891MD1210141-0071MW1211OC100661OD141200661330REMSYN004BUFR
0160576870999992021020103004+28120+112780FM-12+011999999V0203431N0026199999999011200199+00871+00781102451ADDAA106002131AA212004831AA324004831AY101031AY201031IA2999+00839KA1240M+01191KA2240N+00781MA1999999100971MD1210081-0061MW1211OC100661OD141200661330REMSYN004BUFR
0166576870999992021020106004+28120+112780FM-12+011999999V0203601N0000199999999021400199+01121+00801102221ADDAA106000231AA224004831AJ100003100004099AY101061AY201061IA2999+00839KA1240M+01171KA2240N+00781MA1999999100751MD1710221+0071MW1001OC100571OD141200571143REMSYN004BUFR
0160576870999992021020109004+28120+112780FM-12+011999999V0200821N0019199999999028600199+01251+00731102191ADDAA106999999AA212002131AA324004831AY101031AY201031IA2999+00839KA1240M+01281KA2240N+00781MA1999999100721MD1710031+0041MW1001OC100571OD141200571143REMSYN004BUFR
0166576870999992021020112004+28120+112780FM-12+011999999V0203601N0000199999999013400199+00871+00681102341ADDAA106999999AA224004831AJ100003100000099AY101061AY201061IA2999+00689KA1240M+01281KA2240N+00781MA1999999100861MD1210141+0131MW1001OC100511OD141200511345REMSYN004BUFR
0136576870999992021020115004+28120+112780FM-12+011999999V0202921N0009199999999004300199+00621+00531102541ADDAA106999999AA212999999AA324004831IA2999+00469KA1240M+01281KA2240N+00621MA1999999101051MD1210191+0131MW1101OD141200471333REMSYN004BUFR
0152576870999992021020118004+28120+112780FM-12+011999999V0202771N0014199999999000200199+00501+00441102591ADDAA106999999AA212999999AA324003631AY101999AY201999IA2999+00389KA1240M+01281KA2240N+00431MA1999999101101MD1210051+0301MW1461OD141200361089REMSYN004BUFR
0136576870999992021020121004+28120+112780FM-12+011999999V0202891N0015199999999000200199+00321+00261102561ADDAA106999999AA212999999AA324002131IA2999+00269KA1240M+01281KA2240N+00301MA1999999101071MD1710031+0321MW1461OD141200311346REMSYN004BUFR
0158576870999992021020200004+28120+112780FM-12+011999999V0202881N0014199999999000200199+00271+00241102691ADDAA106999999AA224000231AJ100009100000099AY141121AY201121IA2999+00229KA1240M+01281KA2240N+00251MA1999999101191MD1210121+0301MW1451OD141200311346REMSYN004BUFR
0152576870999992021020203004+28120+112780FM-12+011999999V0200441N0009199999999010200199+00901+00851102811ADDAA106999999AA212999999AA324999999AY101031AY201031IA2999+00229KA1240M+01281KA2240N+00251MA1999999101321MD1210131+0351MW1001OD141200381093REMSYN004BUFR
0166576870999992021020206004+28120+112780FM-12+011999999V0203541N0028199999999029900199+01261+00691102481ADDAA106999999AA224000091AJ199999999999999AY101061AY201061IA2999+00229KA1240M+01321KA2240N+00251MA1999999101001MD1710321+0251MW1001OC100641OD141200641338REMSYN004BUFR
0160576870999992021020209004+28120+112780FM-12+011999999V0203051N0037199999999011500199+01011+00791102451ADDAA106000131AA212000131AA324000131AY101031AY201031IA2999+00229KA1240M+01321KA2240N+00251MA1999999100961MD1710041+0241MW1601OC100691OD141200691337REMSYN004BUFR
0166576870999992021020212004+28120+112780FM-12+011999999V0203111N0033199999999005100199+00821+00691102611ADDAA106000631AA224000631AJ100003100001099AY101061AY201061IA2999+00379KA1240M+01321KA2240N+00251MA1999999101111MD1210151+0251MW1601OC100691OD141200691337REMSYN004BUFR
0144576870999992021020215004+28120+112780FM-12+011999999V0203111N0024199999999004000199+00821+00721102611ADDAA106000631AA212000731AA324000731IA2999+00859KA1240M+01321KA2240N+00251MA1999999101131MD1210021+0081MW1101OC100691OD141200691337REMSYN004BUFR
0160576870999992021020218004+28120+112780FM-12+011999999V0203101N0023199999999002500199+00801+00711102521ADDAA106000131AA212000731AA324000731AY101999AY201999IA2999+00829KA1240M+01321KA2240N+00251MA1999999101051MD1710081-0051MW1101OC100691OD141200691337REMSYN004BUFR
0144576870999992021020221004+28120+112780FM-12+011999999V0203351N0028199999999001900199+00751+00691102421ADDAA106000131AA212000731AA324000831IA2999+00729KA1240M+01321KA2240N+00251MA1999999100941MD1710111-0131MW1101OC100621OD141200621332REMSYN004BUFR
0166576870999992021020300004+28120+112780FM-12+011999999V0203601N0000199999999001600199+00771+00731102521ADDAA106000131AA224000831AJ100003100000099AY101121AY201121IA2999+00729KA1240M+01321KA2240N+00281MA1999999101031MD1210091-0161MW1101OC100621OD141200621332REMSYN004BUFR
0160576870999992021020303004+28120+112780FM-12+011999999V0201031N0006199999999007200199+01001+00781102591ADDAA106999999AA212000131AA324000831AY101031AY201031IA2999+00729KA1240M+01321KA2240N+00751MA1999999101111MD1210081-0211MW1101OC100621OD141200621332REMSYN004BUFR
0158576870999992021020306004+28120+112780FM-12+011999999V0201251N0018199999999004000199+01071+00831102321ADDAA106000831AA224001631AJ100003100001099AY101061AY201061IA2999+00729KA1240M+01251KA2240N+00751MA1999999100841MD1710271-0161MW1621OD141200361347REMSYN004BUFR
0152576870999992021020309004+28120+112780FM-12+011999999V0203601N0000199999999002800199+01001+00881102291ADDAA106003531AA212003531AA324004231AY101031AY201031IA2999+00749KA1240M+01201KA2240N+00751MA1999999100811MD1710031-0151MW1601OD141200331318REMSYN004BUFR
0158576870999992021020312004+28120+112780FM-12+011999999V0203011N0009199999999002400199+01001+00941102461ADDAA106003031AA224004031AJ100003100004099AY101061AY201061IA2999+00869KA1240M+01201KA2240N+00751MA1999999100981MD1210171-0131MW1211OD141200291117REMSYN004BUFR
0136576870999992021020315004+28120+112780FM-12+011999999V0202581N0004199999999000800199+01001+00951102591ADDAA106000431AA212003931AA324004031IA2999+01029KA1240M+01201KA2240N+00751MA1999999101111MD1210131-0021MW1211OD141200321307REMSYN004BUFR
0160576870999992021020318004+28120+112780FM-12+011999999V0203281N0014199999999003400199+01001+00951102541ADDAA106000131AA212003131AA324004031AY101999AY201999IA2999+01009KA1240M+01201KA2240N+00751MA1999999101071MD1710041+0021MW1101OC100551OD141200551341REMSYN004BUFR
0144576870999992021020321004+28120+112780FM-12+011999999V0203501N0014199999999002800199+01001+00941102531ADDAA106999999AA212000431AA324003931IA2999+01009KA1240M+01201KA2240N+00751MA1999999101051MD1710021+0111MW1101OC100551OD141200551341REMSYN004BUFR
0166576870999992021020400004+28120+112780FM-12+011999999V0201171N0026199999999002800199+00971+00911102501ADDAA106001031AA224004931AJ100003100001099AY101121AY201121IA2999+00989KA1240M+01201KA2240N+00771MA1999999101021MD1710031-0011MW1601OC100551OD141200551341REMSYN004BUFR
0160576870999992021020403004+28120+112780FM-12+011999999V0203251N0034199999999002900199+01001+00951102631ADDAA106001131AA212001131AA324005031AY101031AY201031IA2999+00989KA1240M+01201KA2240N+00971MA1999999101151MD1210131+0041MW1101OC100551OD141200551341REMSYN004BUFR
0166576870999992021020406004+28120+112780FM-12+011999999V0203361N0030199999999004100199+01021+00941102311ADDAA106000131AA224004231AJ100003100001099AY101061AY201061IA2999+00989KA1240M+01081KA2240N+00971MA1999999100841MD1710311+0001MW1101OC100531OD141200531321REMSYN004BUFR
0160576870999992021020409004+28120+112780FM-12+011999999V0203251N0040199999999003000199+01001+00901102191ADDAA106999999AA212001131AA324001531AY101031AY201031IA2999+00989KA1240M+01081KA2240N+00971MA1999999100721MD1710121-0091MW1101OC100731OD141200731326REMSYN004BUFR
0166576870999992021020412004+28120+112780FM-12+011999999V0203131N0044199999999002700199+00921+00861102291ADDAA106999999AA224001231AJ100003100000099AY101061AY201061IA2999+00959KA1240M+01081KA2240N+00921MA1999999100821MD1210101-0161MW1101OC100771OD141200771321REMSYN004BUFR
0144576870999992021020415004+28120+112780FM-12+011999999V0203171N0051199999999002500199+00871+00831102411ADDAA106999999AA212999999AA324001131IA2999+00909KA1240M+01081KA2240N+00871MA1999999100931MD1210111-0181MW1101OC100861OD141200861318REMSYN004BUFR
0160576870999992021020418004+28120+112780FM-12+011999999V0203121N0057199999999003000199+00821+00761102321ADDAA106999999AA212999999AA324001131AY101999AY201999IA2999+00859KA1240M+01081KA2240N+00821MA1999999100841MD1710091-0231MW1101OC101151OD141201151316REMSYN004BUFR
0144576870999992021020421004+28120+112780FM-12+011999999V0203211N0041199999999004300199+00751+00691102201ADDAA106999999AA212999999AA324001131IA2999+00809KA1240M+01081KA2240N+00751MA1999999100721MD1710121-0331MW1101OC101151OD141201151316REMSYN004BUFR
0166576870999992021020500004+28120+112780FM-12+011999999V0203151N0049199999999006000199+00721+00661102371ADDAA106000131AA224000231AJ100003100000099AY101121AY201121IA2999+00789KA1240M+01081KA2240N+00721MA1999999100891MD1210171-0131MW1101OC101151OD141201151316REMSYN004BUFR
0160576870999992021020503004+28120+112780FM-12+011999999V0203131N0039199999999005600199+00701+00631102541ADDAA106000131AA212000131AA324000131AY101031AY201031IA2999+00779KA1240M+01081KA2240N+00691MA1999999101051MD1210161-0101MW1101OC101151OD141201151316REMSYN004BUFR
0166576870999992021020506004+28120+112780FM-12+011999999V0203111N0035199999999004200199+00701+00601102371ADDAA106999999AA224000131AJ100003100000099AY101061AY201061IA2999+00779KA1240M+01041KA2240N+00681MA1999999100881MD1710171+0041MW1101OC100961OD141200961334REMSYN004BUFR
0160576870999992021020509004+28120+112780FM-12+011999999V0203521N0004199999999006600199+00751+00601102311ADDAA106999999AA212000131AA324000131AY101031AY201031IA2999+00779KA1240M+00991KA2240N+00681MA1999999100821MD1710061+0101MW1101OC100961OD141200961334REMSYN004BUFR
0166576870999992021020512004+28120+112780FM-12+011999999V0203601N0000199999999004100199+00721+00611102321ADDAA106999999AA224000131AJ100009100000099AY101061AY201061IA2999+00769KA1240M+00911KA2240N+00681MA1999999100831MD1210011+0011MW1101OC100961OD141200961334REMSYN004BUFR
0144576870999992021020515004+28120+112780FM-12+011999999V0203601N0000199999999005400199+00721+00641102361ADDAA106999999AA212999999AA324000131IA2999+00749KA1240M+00871KA2240N+00681MA1999999100871MD1210041-0061MW1101OC100961OD141200961334REMSYN004BUFR
0152576870999992021020518004+28120+112780FM-12+011999999V0201031N0016199999999000200199+00621+00571102311ADDAA106999999AA212999999AA324000131AY141999AY201999IA2999+00559KA1240M+00821KA2240N+00621MA1999999100821MD1710051-0021MW1451OD141200451316REMSYN004BUFR
0136576870999992021020521004+28120+112780FM-12+011999999V0203601N0000199999999000200199+00571+00541102201ADDAA106999999AA212999999AA324000131IA2999+00559KA1240M+00751KA2240N+00551MA1999999100711MD1710111-0011MW1461OD141200271119REMSYN004BUFR
0166576870999992021020600004+28120+112780FM-12+011999999V0201391N0017199999999000200199+00521+00491102321ADDAA106999999AA224000091AJ199999999999999AY101121AY201121IA2999+00559KA1240M+00751KA2240N+00511MA1999999100831MD1210121-0061MW1461OC100501OD141200501118REMSYN004BUFR
0160576870999992021020603004+28120+112780FM-12+011999999V0201241N0014199999999000700199+00751+00701102341ADDAA106999999AA212999999AA324999999AY101031AY201031IA2999+00559KA1240M+00751KA2240N+00511MA1999999100851MD1210021-0201MW1281OC100501OD141200501118REMSYN004BUFR
0166576870999992021020606004+28120+112780FM-12+011999999V0201071N0017199999999010500199+01271+00851101941ADDAA106999999AA224000091AJ199999999999999AY101061AY201061IA2999+00569KA1240M+01301KA2240N+00511MA1999999100471MD1710381-0411MW1001OC100501OD141200501118REMSYN004BUFR
0160576870999992021020609004+28120+112780FM-12+011999999V0201331N0021199999999021400199+01511+00761101731ADDAA106999999AA212999999AA324999999AY101031AY201031IA2999+00629KA1240M+01551KA2240N+00511MA1999999100271MD1710201-0551MW1001OC100501OD141200501118REMSYN004BUFR
0158576870999992021020612004+28120+112780FM-12+011999999V0202751N0018199999999017700199+01051+00811101811ADDAA106999999AA224000091AJ199999999999999AY101061AY201061IA2999+00699KA1240M+01551KA2240N+00511MA1999999100331MD1210061-0501MW1001OD141200421124REMSYN004BUFR
0136576870999992021020615004+28120+112780FM-12+011999999V0203051N0031199999999011800199+01001+00781101921ADDAA106999999AA212999999AA324999999IA2999+00789KA1240M+01551KA2240N+00511MA1999999100451MD1210121-0421MW1001OD141200421308REMSYN004BUFR
0152576870999992021020618004+28120+112780FM-12+011999999V0202621N0020199999999004300199+00901+00771101961ADDAA106999999AA212999999AA324999999AY101999AY201999IA2999+00699KA1240M+01551KA2240N+00511MA1999999100501MD1210051-0321MW1101OD141200471290REMSYN004BUFR
0144576870999992021020621004+28120+112780FM-12+011999999V0203331N0031199999999000500199+00851+00791101841ADDAA106999999AA212999999AA324999999IA2999+00669KA1240M+01551KA2240N+00511MA1999999100381MD1710121-0331MW1451OC100751OD141200751130REMSYN004BUFR
0166576870999992021020700004+28120+112780FM-12+011999999V0201791N0006199999999000200199+00771+00741102041ADDAA106999999AA224000091AJ199999999999999AY101121AY201121IA2999+00649KA1240M+01551KA2240N+00521MA1999999100571MD1210191-0261MW1461OC100751OD141200751130REMSYN004BUFR
0160576870999992021020703004+28120+112780FM-12+011999999V0203021N0006199999999008300199+01221+01141102151ADDAA106999999AA212999999AA324999999AY101031AY201031IA2999+00649KA1240M+01551KA2240N+00741MA1999999100691MD1210121-0161MW1001OC100751OD141200751130REMSYN004BUFR
0166576870999992021020706004+28120+112780FM-12+011999999V0203371N0037199999999019000199+01301+00921102001ADDAA106999999AA224000091AJ199999999999999AY101061AY201061IA2999+00649KA1240M+01551KA2240N+00771MA1999999100541MD1710151+0071MW1001OC100751OD141200751130REMSYN004BUFR
0160576870999992021020709004+28120+112780FM-12+011999999V0203171N0056199999999005400199+01121+00951102071ADDAA106999999AA212999999AA324999999AY101031AY201031IA2999+00649KA1240M+01501KA2240N+00771MA1999999100601MD1210061+0331MW1101OC100901OD141200901323REMSYN004BUFR
0185576870999992021020712004+28120+112780FM-12+011999999V0203161N0044199999999003600199+01011+00891102261ADDAA106999999AA224999999AJ199999999999999AY101061AY201061IA2999+00789KA1240M+01441KA2240N+00771MA1999999100781MD1210181+0451MW1601OC100971OD141200971319REMSYN004BUFREQDQ01  00002PRCP24
0144576870999992021020715004+28120+112780FM-12+011999999V0203211N0045199999999004500199+01001+00901102431ADDAA106000431AA212000431AA324000431IA2999+00999KA1240M+01441KA2240N+00771MA1999999100961MD1210181+0511MW1601OC101151OD141201151325REMSYN004BUFR
0160576870999992021020718004+28120+112780FM-12+011999999V0203011N0051199999999008100199+00951+00791102431ADDAA106000531AA212000531AA324000531AY101999AY201999IA2999+00939KA1240M+01441KA2240N+00771MA1999999100961MD1410001+0461MW1211OC101151OD141201151325REMSYN004BUFR
0144576870999992021020721004+28120+112780FM-12+011999999V0203241N0036199999999010800199+00951+00801102461ADDAA106000231AA212000631AA324000631IA2999+00939KA1240M+01441KA2240N+00771MA1999999100991MD1210031+0611MW1601OC101151OD141201151325REMSYN004BUFR
0166576870999992021020800004+28120+112780FM-12+011999999V0203361N0063199999999002300199+00871+00801102651ADDAA106000431AA224000931AJ100003100001099AY101121AY201121IA2999+00919KA1240M+01441KA2240N+00781MA1999999101171MD1210181+0601MW1601OC101151OD141201151325REMSYN004BUFR
0160576870999992021020803004+28120+112780FM-12+011999999V0203161N0060199999999002800199+00751+00691102881ADDAA106001331AA212001531AA324001931AY101031AY201031IA2999+00849KA1240M+01441KA2240N+00751MA1999999101391MD1210221+0701MW1211OC101151OD141201151326REMSYN004BUFR
0166576870999992021020806004+28120+112780FM-12+011999999V0203171N0065199999999003400199+00671+00591102751ADDAA106001131AA224002031AJ100003100002099AY101061AY201061IA2999+00809KA1240M+01291KA2240N+00681MA1999999101261MD1710131+0721MW1601OC101151OD141201151326REMSYN004BUFR
0160576870999992021020809004+28120+112780FM-12+011999999V0203301N0062199999999003400199+00621+00541102711ADDAA106001031AA212002331AA324002931AY101031AY201031IA2999+00749KA1240M+01131KA2240N+00631MA1999999101221MD1710041+0621MW1601OC101151OD141201151326REMSYN004BUFR
0166576870999992021020812004+28120+112780FM-12+011999999V0202961N0027199999999004300199+00621+00501102841ADDAA106001531AA224003531AJ100003100003099AY101061AY201061IA2999+00689KA1240M+01021KA2240N+00611MA1999999101351MD1210131+0571MW1601OC101151OD141201151326REMSYN004BUFR
0144576870999992021020815004+28120+112780FM-12+011999999V0203011N0032199999999004600199+00651+00501102891ADDAA106001231AA212002231AA324003731IA2999+00669KA1240M+00991KA2240N+00611MA1999999101391MD1210041+0431MW1601OC101121OD141201121318REMSYN004BUFR
0160576870999992021020818004+28120+112780FM-12+011999999V0202971N0034199999999004200199+00661+00541102791ADDAA106000931AA212002431AA324003931AY101999AY201999IA2999+00669KA1240M+00971KA2240N+00611MA1999999101291MD1710101+0331MW1211OC101071OD141201071346REMSYN004BUFR
0144576870999992021020821004+28120+112780FM-12+011999999V0202961N0025199999999002600199+00651+00551102641ADDAA106002431AA212003631AA324005931IA2999+00669KA1240M+00941KA2240N+00611MA1999999101141MD1710151+0151MW1601OC101071OD141201071346REMSYN004BUFR
0166576870999992021020900004+28120+112780FM-12+011999999V0203311N0030199999999002800199+00651+00541102621ADDAA106002531AA224006031AJ100003100003099AY101121AY201121IA2999+00669KA1240M+00881KA2240N+00611MA1999999101121MD1710021-0051MW1211OC100901OD141200901312REMSYN004BUFR
0160576870999992021020903004+28120+112780FM-12+011999999V0203261N0045199999999007500199+00721+00501102691ADDAA106000531AA212002931AA324005131AY101031AY201031IA2999+00669KA1240M+00751KA2240N+00611MA1999999101201MD1210081-0191MW1601OC100781OD141200781331REMSYN004BUFR
0166576870999992021020906004+28120+112780FM-12+011999999V0203191N0037199999999002600199+00751+00651102421ADDAA106002231AA224007231AJ100003100005099AY101061AY201061IA2999+00669KA1240M+00741KA2240N+00611MA1999999100931MD1710271-0331MW1601OC100781OD141200781331REMSYN004BUFR
0166576870999992021020912004+28120+112780FM-12+011999999V0203241N0016199999999001800199+00751+00691102411ADDAA106003731AA224009431AJ100013100006099AY101061AY201061IA2999+00729KA1240M+00781KA2240N+00621MA1999999100921MD1210071-0431MW1601OC100781OD141200781331REMSYN004BUFR
0144576870999992021020915004+28120+112780FM-12+011999999V0203601N0000199999999000900199+00761+00721102421ADDAA106002631AA212006931AA324009831IA2999+00799KA1240M+00781KA2240N+00621MA1999999100931MD1210011-0461MW1601OC100701OD141200701337REMSYN004BUFR
0160576870999992021020918004+28120+112780FM-12+011999999V0203051N0018199999999000300199+00751+00711102171ADDAA106003231AA212006931AA324011731AY141999AY201999IA2999+00789KA1240M+00781KA2240N+00641MA1999999100691MD1710241-0601MW1601OC100581OD141200581318REMSYN004BUFR
0136576870999992021020921004+28120+112780FM-12+011999999V0202841N0009199999999001600199+00761+00721102171ADDAA106007431AA212010031AA324014831IA2999+00789KA1240M+00781KA2240N+00641MA1999999100691MD1410001-0451MW1601OD141200481323REMSYN004BUFR
0166576870999992021021000004+28120+112780FM-12+011999999V0203601N0002199999999001300199+00801+00751102231ADDAA106010631AA224019731AJ100013100014099AY101121AY201121IA2999+00789KA1240M+00791KA2240N+00641MA1999999100751MD1210061-0371MW1621OC100571OD141200571034REMSYN004BUFR
0160576870999992021021003004+28120+112780FM-12+011999999V0200871N0016199999999003500199+00901+00861102191ADDAA106012331AA212019731AA324026631AY101031AY201031IA2999+00789KA1240M+00891KA2240N+00701MA1999999100711MD1710041-0491MW1601OC100571OD141200571034REMSYN004BUFR
0166576870999992021021006004+28120+112780FM-12+011999999V0203341N0039199999999003900199+00911+00861101961ADDAA106011031AA224028531AJ100023100022099AY101061AY201061IA2999+00789KA1240M+00911KA2240N+00751MA1999999100481MD1710231-0451MW1601OC100761OD141200761342REMSYN004BUFR
0160576870999992021021009004+28120+112780FM-12+011999999V0203461N0037199999999004000199+00921+00831101971ADDAA106004131AA212016431AA324026431AY101031AY201031IA2999+00789KA1240M+00961KA2240N+00751MA1999999100491MD1210011-0361MW1601OC100941OD141200941346REMSYN004BUFR
0166576870999992021021100004+28120+112780FM-12+011999999V0203161N0036199999999000800199+00901+00851102071ADDAA106000431AA224013331AJ100003100001099AY101121AY201121IA2999+00889KA1240M+00961KA2240N+00791MA1999999100601MD1210071-0151MW1101OC101031OD141201031330REMSYN004BUFR
0166576870999992021021312004+28120+112780FM-12+011999999V0202781N0012199999999030000199+01271+00801101891ADDAA106999999AA224000091AJ199999999999999AY101061AY201061IA2999+00789KA1240M+01941KA2240N+00551MA1999999100421MD1210081-0131MW1001OC100521OD141200521128REMSYN004BUFR
0144576870999992021021315004+28120+112780FM-12+011999999V0202881N0012199999999011000199+01071+00801101911ADDAA106999999AA212999999AA324999999IA2999+00969KA1240M+01941KA2240N+00551MA1999999100451MD1210031-0161MW1001OC100521OD141200521128REMSYN004BUFR
0152576870999992021021318004+28120+112780FM-12+011999999V0202561N0009199999999005100199+00971+00841101791ADDAA106999999AA212999999AA324999999AY101999AY201999IA2999+00859KA1240M+01941KA2240N+00551MA1999999100351MD1710101-0291MW1101OD141200471157REMSYN004BUFR
0244576870999992021021321004+28117+112783FM-12+012099999V0209999C999999999999N004100199+00881+00791101701ADDAA106000091AA212000091AA324000091KA1240M+01941KA2240N+00551MA1999999100261MD1710091+9999MW1101OD139900401999REMSYN12457687 04941 /3600 10088 20079 30026 40170 57009 60002 710// 333 10194 20055 3/007 5000/ 54405 59034 60001 70000 90720 91104=
0158576870999992021021400004+28120+112780FM-12+011999999V0203601N0000199999999005000199+00921+00881101871ADDAA106999999AA224000091AJ199999999999999AY101121AY201121IA2999+00559KA1240M+01941KA2240N+00571MA1999999100411MD1210151-0331MW1101OD141200281319REMSYN004BUFR
0152576870999992021021403004+28120+112780FM-12+011999999V0202631N0013199999999019300199+01701+00931101951ADDAA106999999AA212999999AA324999999AY101031AY201031IA2999+00559KA1240M+01941KA2240N+00801MA1999999100501MD1210091-0221MW1001OD141200341264REMSYN004BUFR
0158576870999992021021406004+28120+112780FM-12+011999999V0200211N0016199999999030000199+02071+00841101651ADDAA106999999AA224000091AJ199999999999999AY101061AY201061IA2999+00559KA1240M+02151KA2240N+00801MA1999999100211MD1710291-0231MW1001OD141200441235REMSYN004BUFR
0152576870999992021021409004+28120+112780FM-12+011999999V0200861N0015199999999030000199+02121+00821101471ADDAA106999999AA212999999AA324999999AY101031AY201031IA2999+00559KA1240M+02271KA2240N+00801MA1999999100041MD1710171-0301MW1001OD141200461146REMSYN004BUFR
0158576870999992021021412004+28120+112780FM-12+011999999V0203601N0000199999999030000199+01601+00961101601ADDAA106999999AA224000091AJ199999999999999AY101061AY201061IA2999+00859KA1240M+02271KA2240N+00801MA1999999100151MD1210111-0271MW1001OD141200461146REMSYN004BUFR
0136576870999992021021415004+28120+112780FM-12+011999999V0202561N0007199999999016900199+01251+00931101641ADDAA106999999AA212999999AA324999999IA2999+00989KA1240M+02271KA2240N+00801MA1999999100201MD1210051-0251MW1001OD141200461146REMSYN004BUFR
0152576870999992021021418004+28120+112780FM-12+011999999V0202561N0013199999999013000199+01151+00911101611ADDAA106999999AA212999999AA324999999AY101999AY201999IA2999+00839KA1240M+02271KA2240N+00801MA1999999100181MD1710021-0171MW1001OD141200461146REMSYN004BUFR
0136576870999992021021421004+28120+112780FM-12+011999999V0200781N0010199999999013300199+01011+00821101571ADDAA106999999AA212999999AA324999999IA2999+00659KA1240M+02271KA2240N+00801MA1999999100141MD1710041-0121MW1001OD141200421122REMSYN004BUFR
0158576870999992021021500004+28120+112780FM-12+011999999V0202751N0009199999999011700199+00901+00771101821ADDAA106999999AA224000091AJ199999999999999AY101121AY201121IA2999+00599KA1240M+02271KA2240N+00851MA1999999100371MD1210231-0041MW1001OD141200211057REMSYN004BUFR
0160576870999992021021503004+28120+112780FM-12+011999999V0203311N0028199999999028800199+01761+01051101941ADDAA106999999AA212999999AA324999999AY101031AY201031IA2999+00599KA1240M+02271KA2240N+00851MA1999999100501MD1210131+0001MW1001OC100541OD141200541047REMSYN004BUFR
0166576870999992021021506004+28120+112780FM-12+011999999V0200211N0020199999999030000199+02101+00801101571ADDAA106999999AA224000091AJ199999999999999AY101061AY201061IA2999+00599KA1240M+02271KA2240N+00851MA1999999100141MD1710361-0071MW1001OC100631OD141200631049REMSYN004BUFR
0160576870999992021021509004+28120+112780FM-12+011999999V0203411N0067199999999030000199+01801+01091101481ADDAA106999999AA212999999AA324999999AY101031AY201031IA2999+00599KA1240M+02141KA2240N+00851MA1999999100041MD1710101+0001MW1001OC101261OD141201261346REMSYN004BUFR
0185576870999992021021512004+28120+112780FM-12+011999999V0203301N0071199999999012700199+01501+00931101631ADDAA106999999AA224999999AJ199999999999999AY101061AY201061IA2999+00939KA1240M+02141KA2240N+00851MA1999999100181MD1210141+0031MW1601OC101311OD141201311333REMSYN004BUFREQDQ01  00002PRCP24
0144576870999992021021515004+28120+112780FM-12+011999999V0203281N0089199999999008800199+01001+00561101831ADDAA106002131AA212002131AA324002131IA2999+00969KA1240M+02141KA2240N+00851MA1999999100381MD1210201+0181MW1601OC101571OD141201571323REMSYN004BUFR
0160576870999992021021518004+28120+112780FM-12+011999999V0203061N0043199999999004400199+00721+00581101911ADDAA106009231AA212009231AA324009231AY101999AY201999IA2999+00799KA1240M+02141KA2240N+00721MA1999999100461MD1210081+0281MW1601OC101751OD141201751312REMSYN004BUFR
0144576870999992021021521004+28120+112780FM-12+011999999V0203141N0039199999999009400199+00801+00551101871ADDAA106007431AA212009531AA324009531IA2999+00799KA1240M+02141KA2240N+00721MA1999999100421MD1710041+0281MW1001OC101751OD141201751312REMSYN004BUFR
0166576870999992021021600004+28120+112780FM-12+011999999V0203031N0028199999999010200199+00851+00481102051ADDAA106000331AA224009531AJ100013100010099AY101121AY201121IA2999+00799KA1240M+02141KA2240N+00721MA1999999100591MD1210171+0221MW1001OC101751OD141201751312REMSYN004BUFR
0160576870999992021021603004+28120+112780FM-12+011999999V0203151N0046199999999004400199+00821+00661102301ADDAA106001431AA212008831AA324010931AY101031AY201031IA2999+00799KA1240M+02141KA2240N+00721MA1999999100821MD1210231+0321MW1601OC101751OD141201751312REMSYN004BUFR
0166576870999992021021606004+28120+112780FM-12+011999999V0203241N0029199999999006300199+00921+00761102161ADDAA106004431AA224013931AJ100003100005099AY101061AY201061IA2999+00809KA1240M+02121KA2240N+00721MA1999999100681MD1710141+0541MW1601OC101061OD141201061309REMSYN004BUFR
0160576870999992021021609004+28120+112780FM-12+011999999V0203071N0026199999999007600199+01001+00801102201ADDAA106003231AA212004631AA324014131AY101031AY201031IA2999+00809KA1240M+01791KA2240N+00721MA1999999100721MD1210041+0681MW1211OC100881OD141200881319REMSYN004BUFR
0166576870999992021021612004+28120+112780FM-12+011999999V0203311N0018199999999004700199+00871+00761102361ADDAA106000231AA224014131AJ100003100005099AY101061AY201061IA2999+00779KA1240M+01491KA2240N+00721MA1999999100881MD1210161+0701MW1101OC100761OD141200761319REMSYN004BUFR
0144576870999992021021615004+28120+112780FM-12+011999999V0203601N0000199999999001100199+00721+00661102571ADDAA106999999AA212003231AA324012031IA2999+00559KA1240M+01001KA2240N+00721MA1999999101081MD1210201+0701MW1101OC100761OD141200761319REMSYN004BUFR
0160576870999992021021618004+28120+112780FM-12+011999999V0203601N0000199999999000100199+00501+00431102591ADDAA106999999AA212000231AA324004931AY101999AY201999IA2999+00459KA1240M+01001KA2240N+00481MA1999999101101MD1210021+0641MW1461OC100571OD141200571324REMSYN004BUFR
0136576870999992021021621004+28120+112780FM-12+011999999V0203601N0000199999999000100199+00411+00371102611ADDAA106999999AA212999999AA324004631IA2999+00429KA1240M+01001KA2240N+00391MA1999999101121MD1210021+0701MW1451OD141200411320REMSYN004BUFR
0158576870999992021021700004+28120+112780FM-12+011999999V0203601N0000199999999000300199+00551+00501102751ADDAA106999999AA224004631AJ100009100000099AY141121AY201121IA2999+00429KA1240M+01001KA2240N+00391MA1999999101261MD1210141+0671MW1451OD141200211336REMSYN004BUFR
0152576870999992021021703004+28120+112780FM-12+011999999V0203601N0000199999999001700199+00801+00751102921ADDAA106999999AA212999999AA324003231AY101031AY201031IA2999+00429KA1240M+01001KA2240N+00391MA1999999101431MD1210171+0611MW1281OD141200271146REMSYN004BUFR
0158576870999992021021706004+28120+112780FM-12+011999999V0201301N0017199999999014900199+01501+00971102691ADDAA106999999AA224000231AJ100009100000099AY101061AY201061IA2999+00429KA1240M+01501KA2240N+00391MA1999999101211MD1710221+0531MW1001OD141200401136REMSYN004BUFR
0160576870999992021021709004+28120+112780FM-12+011999999V0200481N0027199999999030000199+01651+00361102601ADDAA106999999AA212999999AA324999999AY101031AY201031IA2999+00489KA1240M+01811KA2240N+00391MA1999999101131MD1710081+0411MW1001OC100501OD141200501045REMSYN004BUFR
0166576870999992021021712004+28120+112780FM-12+011999999V0203081N0022199999999030000199+01051+00551102691ADDAA106999999AA224000091AJ199999999999999AY101061AY201061IA2999+00709KA1240M+01811KA2240N+00391MA1999999101201MD1210071+0321MW1001OC100501OD141200501045REMSYN004BUFR
0144576870999992021021715004+28120+112780FM-12+011999999V0202511N0020199999999017000199+00851+00541102821ADDAA106999999AA212999999AA324999999IA2999+00609KA1240M+01811KA2240N+00391MA1999999101331MD1210131+0251MW1001OC100501OD141200501045REMSYN004BUFR
0160576870999992021021718004+28120+112780FM-12+011999999V0202661N0015199999999015300199+00711+00461102841ADDAA106999999AA212999999AA324999999AY101999AY201999IA2999+00529KA1240M+01811KA2240N+00391MA1999999101371MD1210041+0271MW1001OC100501OD141200501045REMSYN004BUFR
0136576870999992021021721004+28120+112780FM-12+011999999V0203601N0000199999999016500199+00701+00441102811ADDAA106999999AA212999999AA324999999IA2999+00409KA1240M+01811KA2240N+00401MA1999999101341MD1710031+0221MW1001OD141200441036REMSYN004BUFR
0158576870999992021021800004+28120+112780FM-12+011999999V0200711N0004199999999012600199+00701+00551103041ADDAA106999999AA224000091AJ199999999999999AY101121AY201121IA2999+00329KA1240M+01811KA2240N+00531MA1999999101551MD1210211+0291MW1001OD141200321319REMSYN004BUFR
0160576870999992021021803004+28120+112780FM-12+011999999V0201771N0013199999999027500199+01551+00571103121ADDAA106999999AA212999999AA324999999AY101031AY201031IA2999+00329KA1240M+01811KA2240N+00551MA1999999101651MD1210101+0221MW1001OC100521OD141200521099REMSYN004BUFR
0166576870999992021021806004+28120+112780FM-12+011999999V0200991N0025199999999030000199+01871+00211102801ADDAA106999999AA224000091AJ199999999999999AY101061AY201061IA2999+00329KA1240M+01911KA2240N+00551MA1999999101341MD1710311+0131MW1001OC100521OD141200521099REMSYN004BUFR
0160576870999992021021809004+28120+112780FM-12+011999999V0201221N0012199999999030000199+01811+00121102691ADDAA106999999AA212999999AA324999999AY101031AY201031IA2999+00329KA1240M+01951KA2240N+00551MA1999999101231MD1710111+0101MW1001OC100521OD141200521099REMSYN004BUFR
0166576870999992021021812004+28120+112780FM-12+011999999V0203041N0018199999999030000199+01351+00181102701ADDAA106999999AA224000091AJ199999999999999AY101061AY201061IA2999+00669KA1240M+01951KA2240N+00551MA1999999101221MD1710011+0021MW1001OC100521OD141200521099REMSYN004BUFR
0144576870999992021021815004+28120+112780FM-12+011999999V0202681N0019199999999027200199+00901+00441102731ADDAA106999999AA212999999AA324999999IA2999+00689KA1240M+01951KA2240N+00551MA1999999101261MD1210041-0071MW1001OC100511OD141200511139REMSYN004BUFR
0160576870999992021021818004+28120+112780FM-12+011999999V0203471N0006199999999020200199+00821+00301102651ADDAA106999999AA212999999AA324999999AY101999AY201999IA2999+00499KA1240M+01951KA2240N+00551MA1999999101191MD1710071-0181MW1001OC100511OD141200511139REMSYN004BUFR
0136576870999992021021821004+28120+112780FM-12+011999999V0203161N0006199999999018300199+00661+00361102511ADDAA106999999AA212999999AA324999999IA2999+00339KA1240M+01951KA2240N+00551MA1999999101051MD1710141-0291MW1001OD141200291322REMSYN004BUFR
0158576870999992021021900004+28120+112780FM-12+011999999V0203601N0002199999999017700199+00851+00311102641ADDAA106999999AA224000091AJ199999999999999AY101121AY201121IA2999+00259KA1240M+01951KA2240N+00581MA1999999101171MD1210121-0381MW1001OD141200291322REMSYN004BUFR
0152576870999992021021903004+28120+112780FM-12+011999999V0201281N0014199999999030000199+01601+00531102651ADDAA106999999AA212999999AA324999999AY101031AY201031IA2999+00259KA1240M+01951KA2240N+00581MA1999999101191MD1210021-0461MW1001OD141200441122REMSYN004BUFR
0166576870999992021021906004+28120+112780FM-12+011999999V0202011N0027199999999030000199+02071+00201102281ADDAA106999999AA224000091AJ199999999999999AY101061AY201061IA2999+00259KA1240M+02081KA2240N+00581MA1999999100831MD1710361-0511MW1001OC100671OD141200671237REMSYN004BUFR
0160576870999992021021909004+28120+112780FM-12+011999999V0201711N0029199999999030000199+02101-00361102111ADDAA106999999AA212999999AA324999999AY101031AY201031IA2999+00259KA1240M+02211KA2240N+00581MA1999999100661MD1710171-0571MW1001OC100671OD141200671237REMSYN004BUFR
0144576870999992021022015004+28120+112780FM-12+011999999V0201941N0004199999999030000199+01661+00261101631ADDAA106999999AA212999999AA324999999IA2999+01049KA1240M+02411KA2240N+00861MA1999999100211MD1210061-0521MW1001OC100651OD141200651149REMSYN004BUFR
0160576870999992021022018004+28120+112780FM-12+011999999V0201171N0023199999999030000199+01351+00321101511ADDAA106999999AA212999999AA324999999AY101999AY201999IA2999+00869KA1240M+02411KA2240N+00861MA1999999100091MD1710121-0511MW1001OC100651OD141200651149REMSYN004BUFR
