0181576870999992019010100004+28117+112783FM-12+012099999V0203601N003019999999N008000199-00161-00291103971ADDGA1081+004501999GE19AGL   +99999+99999GF108991081999004501999999MA1999999102411MD1210071+9999REMSYN07657687 32458 83603 11016 21029 30241 40397 52007 88/// 333 05101 30003 92510=
0166576870999992019010103004+28117+112783FM-12+012099999V0203201N002019999999N999999999-00121-00231103981ADDAY151021AY201021GA1081+004501999GE19AGL   +99999+99999GF108991081999004501999999MD1210011+9999MW1601REMSYN05457687 41455 83202 11012 21023 40398 52001 76050 88///=
0233576870999992019010106004+28117+112783FM-12+012099999V0203401N004019999999N004500199-00081-00181103671ADDAA106001031AY161021AY251021GA1081+004501999GE19AGL   +99999+99999GF108991081999004501999999KA1240N-00191MA1999999102121MD1710301+9999MW1681REMSYN08257687 11445 83404 11008 21018 30212 40367 57030 60011 76865 88/// 333 21019 93427=
0166576870999992019010109004+28117+112783FM-12+012099999V0203401N002019999999N004800199-00101-00201103731ADDAY161021AY201021GA1081+004501999GE19AGL   +99999+99999GF108991081999004501999999MD1210061+9999MW1681REMSYN05457687 41448 83402 11010 21020 40373 52006 76860 88///=
0214576870999992019010112004+28117+112783FM-12+012099999V0203401N003019999999N003500199-00121-00191103811ADDAA106003031AY101021AY201021GA1081+004501999GE19AGL   +99999+99999GF108991081999004501999999MA1999999102261MD1210081+9999MW1101REMSYN07657687 11435 83403 11012 21019 30226 40381 52008 60031 71000 88/// 333 93430=
0106576870999992019010115004+28117+112783FM-12+012099999V0202701N00201002401WN003500199-00121-00181103891ADDGF109991999999999999999999MD1210081+9999MW1101REMSYN04857687 41/35 92702 11012 21018 40389 52008 710//=
0153576870999992019010118004+28117+112783FM-12+012099999V0203401N00301002401WN003200199-00111-00171103841ADDAY101021AY201021GF109991999999999999999999MA1999999102291MD1710051+9999MW1221REMSYN06457687 31/32 93403 11011 21017 30229 40384 57005 72200 333 11007=
0127576870999992019010121004+28117+112783FM-12+012099999V0203201N00201002401WN003400199-00101-00171103691ADDAA124004231GF109991999999999999999999MD1710151+9999MW1701REMSYN05857687 41/34 93202 11010 21017 40369 57015 770// 333 70042=
0233576870999992019010200004+28117+112783FM-12+012099999V0203201N003019999999N003100199-00061-00131103791ADDAA106001031AA224005031GA1081+004501999GE19AGL   +99999+99999GF108991081999004501999999MA1999999102241MD1210101+9999MW1601REMSYN10057687 11431 83203 11006 21013 30224 40379 52010 60011 760// 88/// 333 05201 30004 70050 92507 93431=
0166576870999992019010203004+28117+112783FM-12+012099999V0203601N002019999999N001000199-00011-00091103761ADDAY101021AY201021GA1081+004501999GE19AGL   +99999+99999GF108991081999004501999999MD1710031+9999MW1101REMSYN05457687 41410 83602 11001 21009 40376 57003 71000 88///=
0233576870999992019010206004+28117+112783FM-12+012099999V0203401N001019999999N004200199+00091-00031103431ADDAA106003031AY101021AY201021GA1081+004501999GE19AGL   +99999+99999GF108991081999004501999999KA1240N-00131MA1999999101891MD1710321+9999MW1101REMSYN08257687 11442 83401 10009 21003 30189 40343 57032 60031 71000 88/// 333 21013 93428=
0166576870999992019010209004+28117+112783FM-12+012099999V0200201N001019999999N003700199+00091-00011103431ADDAY101021AY201021GA1081+004501999GE19AGL   +99999+99999GF108991081999004501999999MD1410001+9999MW1101REMSYN05457687 41437 80201 10009 21001 40343 54000 71000 88///=
0187576870999992019010212004+28117+112783FM-12+012099999V0203401N001019999999N003700199+00071-00021103561ADDAY101021AY201021GA1081+004501999GE19AGL   +99999+99999GF108991081999004501999999MA1999999102021MD1210131+9999MW1101REMSYN06057687 31437 83401 10007 21002 30202 40356 52013 71000 88///=
0106576870999992019010215004+28117+112783FM-12+012099999V0209999C99999002401WN002300199+00071+00011103521ADDGF109991999999999999999999MD1710041+9999MW1101REMSYN04857687 31/23 90000 10007 20001 40352 57004 710//=
0153576870999992019010218004+28117+112783FM-12+012099999V0209999C99999002401WN001800199+00061+00021103491ADDAY101021AY201021GF109991999999999999999999MA1999999101951MD1710031+9999MW1101REMSYN06457687 31/18 90000 10006 20002 30195 40349 57003 71000 333 10010=
0127576870999992019010221004+28117+112783FM-12+012099999V0209999C99999002401WN002300199+00061+00021103331ADDAA124003631GF109991999999999999999999MD1710151+9999MW1101REMSYN05857687 31/23 90000 10006 20002 40333 57015 710// 333 70036=
0204576870999992019010300004+28117+112783FM-12+012099999V0209999C999999999999N001900199+00101+00071103351ADDAA124002831GA1081+004501999GE19AGL   +99999+99999GF108991081999004501999999MA1999999101821MD1210021+9999MW1101REMSYN08257687 31419 80000 10010 20007 30182 40335 52002 710// 88/// 333 05402 30017 70028=
0166576870999992019010303004+28117+112783FM-12+012099999V0201601N001019999999N008000199+00381+00151103341ADDAY101021AY201021GA1071+004501999GE19AGL   +99999+99999GF107991071999004501999999MD1710011+9999MW1101REMSYN05457687 31458 71601 10038 20015 40334 57001 71000 87///=
0182576870999992019010306004+28117+112783FM-12+012099999V0201601N002019999999N008000199+00431+00171102991ADDGA1081+004501999GE19AGL   +99999+99999GF108991081999004501999999KA1240N+00051MA1999999101471MD1710341+9999REMSYN06457687 32458 81602 10043 20017 30147 40299 57034 88/// 333 20005=
0138576870999992019010309004+28117+112783FM-12+012099999V0209999C999999999999N008000199+00451+00201102931ADDGA1081+004501999GE19AGL   +99999+99999GF108991081999004501999999MD1710061+9999REMSYN04857687 32458 80000 10045 20020 40293 57006 88///=
0204576870999992019010312004+28117+112783FM-12+012099999V0209999C999999999999N002400199+00341+00251102951ADDAA106000431AY101021AY201021GA1081+004501999GE19AGL   +99999+99999GF108991081999004501999999MA1999999101431MD1210021+9999MW1501REMSYN06657687 11424 80000 10034 20025 30143 40295 52002 69941 75000 88///=
0106576870999992019010315004+28117+112783FM-12+012099999V0202901N00101002401WN002800199+00281+00241102961ADDGF109991999999999999999999MD1210021+9999MW1601REMSYN04857687 41/28 92901 10028 20024 40296 52002 760//=
0170576870999992019010318004+28117+112783FM-12+012099999V0202901N00101002401WN004100199+00281+00241103001ADDAA106003031AY151021AY201021GF109991999999999999999999MA1999999101491MD1210041+9999MW1211REMSYN07057687 11/41 92901 10028 20024 30149 40300 52004 60031 72150 333 10048=
0127576870999992019010321004+28117+112783FM-12+012099999V0202901N00201002401WN007000199+00281+00241102911ADDAA124004731GF109991999999999999999999MD1710091+9999MW1501REMSYN05857687 41/57 92902 10028 20024 40291 57009 750// 333 70047=
0221576870999992019010400004+28117+112783FM-12+012099999V0203401N003019999999N011000199+00291+00261103081ADDAA106003031AA224006031GA1081+002501999GE19AGL   +99999+99999GF108991081999002501999999MA1999999101561MD1210161+9999MW1201REMSYN08857687 11361 83403 10029 20026 30156 40308 52016 60031 720// 88/// 333 05302 30034 70060=
0166576870999992019010403004+28117+112783FM-12+012099999V0203401N003019999999N008000199+00381+00341103241ADDAY151021AY201021GA1081+002501999GE19AGL   +99999+99999GF108991081999002501999999MD1210161+9999MW1601REMSYN05457687 41358 83403 10038 20034 40324 52016 76050 88///=
0227576870999992019010406004+28117+112783FM-12+012099999V0203201N003019999999N007000199+00411+00351102981ADDAA106002031AY151021AY201021GA1081+002501999GE19AGL   +99999+99999GF108991081999002501999999KA1240N+00281MA1999999101471MD1710251+9999MW1601REMSYN07657687 11357 83203 10041 20035 30147 40298 57025 60021 76050 88/// 333 20028=
0166576870999992019010409004+28117+112783FM-12+012099999V0203401N002019999999N002400199+00391+00351102951ADDAY101021AY201021GA1081+004501999GE19AGL   +99999+99999GF108991081999004501999999MD1710031+9999MW1101REMSYN05457687 41424 83402 10039 20035 40295 57003 71000 88///=
0204576870999992019010412004+28117+112783FM-12+012099999V0203401N003019999999N001900199+00381+00341103051ADDAA106000331AY101021AY201021GA1081+004501999GE19AGL   +99999+99999GF108991081999004501999999MA1999999101531MD1210091+9999MW1101REMSYN06657687 11419 83403 10038 20034 30153 40305 52009 69931 71000 88///=
0106576870999992019010415004+28117+112783FM-12+012099999V0203201N00401002401WN002000199+00351+00321103071ADDGF109991999999999999999999MD1210031+9999MW1501REMSYN04857687 41/20 93204 10035 20032 40307 52003 750//=
0170576870999992019010418004+28117+112783FM-12+012099999V0203401N00301002401WN001900199+00351+00311103011ADDAA106003031AY101021AY201021GF109991999999999999999999MA1999999101501MD1710061+9999MW1201REMSYN07057687 11/19 93403 10035 20031 30150 40301 57006 60031 72000 333 10043=
0127576870999992019010421004+28117+112783FM-12+012099999V0203401N00401002401WN001600199+00331+00291102901ADDAA124007731GF109991999999999999999999MD1710111+9999MW1101REMSYN05857687 41/16 93404 10033 20029 40290 57011 710// 333 70077=
0221576870999992019010500004+28117+112783FM-12+012099999V0203401N005019999999N001900199+00331+00291102961ADDAA106000831AA224006831GA1081+002501999GE19AGL   +99999+99999GF108991081999002501999999MA1999999101451MD1210061+9999MW1101REMSYN08857687 11319 83405 10033 20029 30145 40296 52006 69981 710// 88/// 333 05100 30036 70068=
0166576870999992019010503004+28117+112783FM-12+012099999V0203401N005019999999N001800199+00341+00301103091ADDAY101021AY201021GA1081+002501999GE19AGL   +99999+99999GF108991081999002501999999MD1210121+9999MW1101REMSYN05457687 41318 83405 10034 20030 40309 52012 71000 88///=
0246576870999992019010506004+28117+112783FM-12+012099999V0203401N004019999999N003100199+00401+00271102981ADDAA106000091AY101021AY201021GA1081+002501999GE19AGL   +99999+99999GF108991081999002501999999KA1240N+00321MA1999999101471MD1710101+9999MW1101REMSYN07657687 11331 83404 10040 20027 30147 40298 57010 69901 71000 88/// 333 20032=EQDQ01  00002PRCP06
0166576870999992019010509004+28117+112783FM-12+012099999V0203401N004019999999N999999999+00441+00071103051ADDAY101021AY201021GA1081+002501999GE19AGL   +99999+99999GF108991081999002501999999MD1210071+9999MW1101REMSYN05457687 31355 83404 10044 20007 40305 52007 71000 88///=
0223576870999992019010512004+28117+112783FM-12+012099999V0209999C999999999999N004900199+00391+00061103041ADDAA106000091AY101021AY201021GA1081+002501999GE19AGL   +99999+99999GF108991081999002501999999MA1999999101531MD1710011+9999MW1101REMSYN06657687 11349 80000 10039 20006 30153 40304 57001 69901 71000 88///=EQDQ01  00002PRCP06
0106576870999992019010515004+28117+112783FM-12+012099999V0203201N00301002401WN004200199+00381+00121103171ADDGF109991999999999999999999MD1210121+9999MW1101REMSYN04857687 31/42 93203 10038 20012 40317 52012 710//=
0153576870999992019010518004+28117+112783FM-12+012099999V0203601N00101002401WN004200199+00351+00021103171ADDAY101021AY201021GF109991999999999999999999MA1999999101651MD1410001+9999MW1101REMSYN06457687 31/42 93601 10035 20002 30165 40317 54000 71000 333 10048=
0127576870999992019010521004+28117+112783FM-12+012099999V0203401N00101002401WN003100199+00301+00111103001ADDAA124000431GF109991999999999999999999MD1710161+9999MW1101REMSYN05857687 31/31 93401 10030 20011 40300 57016 710// 333 70004=
0223576870999992019010600004+28117+112783FM-12+012099999V0203601N001019999999N002300199+00301+00171102981ADDAA124000091GA1081+004501999GE19AGL   +99999+99999GF108991081999004501999999MA1999999101471MD1710021+9999MW1101REMSYN08257687 31423 83601 10030 20017 30147 40298 57002 710// 88/// 333 00000 30032 79999=EQDQ01  00002PRCP24
0166576870999992019010603004+28117+112783FM-12+012099999V0203401N004019999999N003100199+00391+00181102971ADDAY101021AY201021GA1081+004501999GE19AGL   +99999+99999GF108991081999004501999999MD1710011+9999MW1101REMSYN05457687 31431 83404 10039 20018 40297 57001 71000 88///=
0210576870999992019010606004+28117+112783FM-12+012099999V0203401N003019999999N004000199+00391+00061102701ADDAY101021AY201021GA1081+008001999GE19AGL   +99999+99999GF108991081999008001999999KA1240N+00291MA1999999101191MD1710271+9999MW1101REMSYN07057687 31540 83403 10039 20006 30119 40270 57027 71000 88/// 333 20029=
0166576870999992019010609004+28117+112783FM-12+012099999V0203201N003019999999N002900199+00301+00151102651ADDAY101021AY201021GA1081+002501999GE19AGL   +99999+99999GF108991081999002501999999MD1710051+9999MW1101REMSYN05457687 41329 83203 10030 20015 40265 57005 71000 88///=
0204576870999992019010612004+28117+112783FM-12+012099999V0203401N004019999999N001600199+00261+00201102721ADDAA106000331AY101021AY201021GA1081+002501999GE19AGL   +99999+99999GF108991081999002501999999MA1999999101211MD1210071+9999MW1101REMSYN06657687 11316 83404 10026 20020 30121 40272 52007 69931 71000 88///=
0106576870999992019010615004+28117+112783FM-12+012099999V0203401N00501002401WN001200199+00271+00211102761ADDGF109991999999999999999999MD1210041+9999MW1101REMSYN04857687 41/12 93405 10027 20021 40276 52004 710//=
0153576870999992019010618004+28117+112783FM-12+012099999V0202901N00401002401WN001300199+00281+00241102771ADDAY101021AY201021GF109991999999999999999999MA1999999101261MD1210011+9999MW1101REMSYN06457687 31/13 92904 10028 20024 30126 40277 52001 71000 333 10042=
0127576870999992019010621004+28117+112783FM-12+012099999V0203201N00401002401WN001200199+00291+00261102701ADDAA124000431GF109991999999999999999999MD1710071+9999MW1601REMSYN05857687 41/12 93204 10029 20026 40270 57007 760// 333 70004=
0221576870999992019010700004+28117+112783FM-12+012099999V0203201N005019999999N001300199+00311+00281102841ADDAA106000231AA224000531GA1081+001501999GE19AGL   +99999+99999GF108991081999001501999999MA1999999101321MD1210131+9999MW1201REMSYN08857687 11213 83205 10031 20028 30132 40284 52013 69921 720// 88/// 333 05200 30030 70005=
0166576870999992019010703004+28117+112783FM-12+012099999V0203201N006019999999N001400199+00331+00301103021ADDAY101021AY201021GA1081+001501999GE19AGL   +99999+99999GF108991081999001501999999MD1210181+9999MW1101REMSYN05457687 41214 83206 10033 20030 40302 52018 71000 88///=
0227576870999992019010706004+28117+112783FM-12+012099999V0203401N004019999999N001500199+00351+00321102841ADDAA106000131AY101021AY201021GA1081+001501999GE19AGL   +99999+99999GF108991081999001501999999KA1240N+00251MA1999999101331MD1710171+9999MW1101REMSYN07657687 11215 83404 10035 20032 30133 40284 57017 69911 71000 88/// 333 20025=
0166576870999992019010709004+28117+112783FM-12+012099999V0203401N003019999999N002000199+00391+00301102901ADDAY101021AY201021GA1081+002501999GE19AGL   +99999+99999GF108991081999002501999999MD1210061+9999MW1101REMSYN05457687 31320 83403 10039 20030 40290 52006 71000 88///=
0223576870999992019010712004+28117+112783FM-12+012099999V0203401N004019999999N002200199+00431+00281103041ADDAA106000091AY101021AY201021GA1081+004501999GE19AGL   +99999+99999GF108991081999004501999999MA1999999101531MD1210141+9999MW1101REMSYN06657687 11422 83404 10043 20028 30153 40304 52014 69901 71000 88///=EQDQ01  00002PRCP06
0106576870999992019010715004+28117+112783FM-12+012099999V0203401N00501002401WN002200199+00411+00231103161ADDGF109991999999999999999999MD1210111+9999MW1101REMSYN04857687 31/22 93405 10041 20023 40316 52011 710//=
0153576870999992019010718004+28117+112783FM-12+012099999V0203401N00601002401WN002400199+00391+00181103191ADDAY101021AY201021GF109991999999999999999999MA1999999101671MD1210031+9999MW1101REMSYN06457687 31/24 93406 10039 20018 30167 40319 52003 71000 333 10043=
0127576870999992019010721004+28117+112783FM-12+012099999V0203401N00301002401WN002500199+00351+00141103091ADDAA124000231GF109991999999999999999999MD1710091+9999MW1101REMSYN05857687 31/25 93403 10035 20014 40309 57009 710// 333 70002=
0204576870999992019010800004+28117+112783FM-12+012099999V0203401N003019999999N002700199+00331+00091103151ADDAA124000131GA1081+017501999GE19AGL   +99999+99999GF108991081999017501999999MA1999999101641MD1210061+9999MW1101REMSYN08257687 31727 83403 10033 20009 30164 40315 52006 710// 88/// 333 00300 30032 70001=
0166576870999992019010803004+28117+112783FM-12+012099999V0203201N001019999999N003700199+00411+00081103231ADDAY101021AY201021GA1081+017501999GE19AGL   +99999+99999GF108991081999017501999999MD1210081+9999MW1101REMSYN05457687 31737 83201 10041 20008 40323 52008 71000 88///=
0227576870999992019010806004+28117+112783FM-12+012099999V0202901N004019999999N003000199+00291+00061103101ADDAA106000631AY151021AY201021GA1081+002501999GE19AGL   +99999+99999GF108991081999002501999999KA1240N+00291MA1999999101581MD1710141+9999MW1601REMSYN07657687 11330 82904 10029 20006 30158 40310 57014 69961 76050 88/// 333 20029=
0166576870999992019010809004+28117+112783FM-12+012099999V0203201N004019999999N002100199+00201+00111103141ADDAY151021AY201021GA1081+002501999GE19AGL   +99999+99999GF108991081999002501999999MD1210041+9999MW1601REMSYN05457687 41321 83204 10020 20011 40314 52004 76050 88///=
0204576870999992019010812004+28117+112783FM-12+012099999V0203601N003019999999N002800199+00231+00111103261ADDAA106009031AY101021AY201021GA1081+004501999GE19AGL   +99999+99999GF108991081999004501999999MA1999999101741MD1210121+9999MW1101REMSYN06657687 11428 83603 10023 20011 30174 40326 52012 60091 71000 88///=
0106576870999992019010815004+28117+112783FM-12+012099999V0203201N00201002401WN002200199+00211+00151103251ADDGF109991999999999999999999MD1710011+9999MW1201REMSYN04857687 41/22 93202 10021 20015 40325 57001 720//=
0170576870999992019010818004+28117+112783FM-12+012099999V0203401N00301002401WN001900199+00221+00181103131ADDAA106001031AY101021AY201021GF109991999999999999999999MA1999999101611MD1710121+9999MW1501REMSYN07057687 11/19 93403 10022 20018 30161 40313 57012 60011 75000 333 10042=
0127576870999992019010821004+28117+112783FM-12+012099999V0200201N00201002401WN004000199+00221+00181103021ADDAA124011831GF109991999999999999999999MD1710111+9999MW1501REMSYN05857687 41/40 90202 10022 20018 40302 57011 750// 333 70118=
0221576870999992019010900004+28117+112783FM-12+012099999V0203401N003019999999N006000199+00221+00181103091ADDAA106002031AA224012931GA1081+004501999GE19AGL   +99999+99999GF108991081999004501999999MA1999999101571MD1210071+9999MW1601REMSYN08857687 11456 83403 10022 20018 30157 40309 52007 60021 760// 88/// 333 05151 30024 70129=
0166576870999992019010903004+28117+112783FM-12+012099999V0203201N003019999999N999999999+00261+00221103121ADDAY151021AY201021GA1081+001501999GE19AGL   +99999+99999GF108991081999001501999999MD1210031+9999MW1601REMSYN05457687 41255 83203 10026 20022 40312 52003 76050 88///=
0227576870999992019010906004+28117+112783FM-12+012099999V0203601N002019999999N008000199+00281+00221102781ADDAA106007031AY101021AY201021GA1081+001501999GE19AGL   +99999+99999GF108991081999001501999999KA1240N+00191MA1999999101261MD1710341+9999MW1501REMSYN07657687 11258 83602 10028 20022 30126 40278 57034 60071 75000 88/// 333 20019=
0166576870999992019010909004+28117+112783FM-12+012099999V0203401N001019999999N012000199+00291+00251102711ADDAY151021AY201021GA1081+002501999GE19AGL   +99999+99999GF108991081999002501999999MD1710071+9999MW1601REMSYN05457687 41362 83401 10029 20025 40271 57007 76050 88///=
0204576870999992019010912004+28117+112783FM-12+012099999V0203601N002019999999N006000199+00251+00191102831ADDAA106003031AY151021AY201021GA1081+008001999GE19AGL   +99999+99999GF108991081999008001999999MA1999999101311MD1210121+9999MW1601REMSYN06657687 11556 83602 10025 20019 30131 40283 52012 60031 76050 88///=
0106576870999992019010915004+28117+112783FM-12+012099999V0203201N002019999999N999999999+00251+00211102921ADDGF109991999999999999999999MD1210091+9999MW1601REMSYN04857687 41/55 93202 10025 20021 40292 52009 760//=
0170576870999992019010918004+28117+112783FM-12+012099999V0203401N00401002401WN004500199+00241+00201102811ADDAA106002031AY161021AY201021GF109991999999999999999999MA1999999101291MD1710111+9999MW1501REMSYN07057687 11/45 93404 10024 20020 30129 40281 57011 60021 75060 333 10030=
0127576870999992019010921004+28117+112783FM-12+012099999V0203401N00401002401WN008000199+00241+00201102721ADDAA124012531GF109991999999999999999999MD1710081+9999MW1601REMSYN05857687 41/58 93404 10024 20020 40272 57008 760// 333 70125=
0221576870999992019011000004+28117+112783FM-12+012099999V0203201N004019999999N006000199+00191+00151102831ADDAA106002031AA224013131GA1081+001501999GE19AGL   +99999+99999GF108991081999001501999999MA1999999101311MD1210101+9999MW1501REMSYN08857687 11256 83204 10019 20015 30131 40283 52010 60021 750// 88/// 333 05300 30024 70131=
0166576870999992019011003004+28117+112783FM-12+012099999V0203201N004019999999N008000199+00261+00221102831ADDAY151021AY201021GA1081+002501999GE19AGL   +99999+99999GF108991081999002501999999MD1410001+9999MW1601REMSYN05457687 41358 83204 10026 20022 40283 54000 76050 88///=
0227576870999992019011006004+28117+112783FM-12+012099999V0202901N002019999999N010000199+00231+00191102531ADDAA106000831AY101021AY201021GA1081+004501999GE19AGL   +99999+99999GF108991081999004501999999KA1240N+00181MA1999999101021MD1710291+9999MW1211REMSYN07657687 11460 82902 10023 20019 30102 40253 57029 69981 72100 88/// 333 20018=
0166576870999992019011009004+28117+112783FM-12+012099999V0203201N003019999999N006000199+00211+00171102551ADDAY151021AY201021GA1081+002501999GE19AGL   +99999+99999GF108991081999002501999999MD1210021+9999MW1601REMSYN05457687 41356 83203 10021 20017 40255 52002 76050 88///=
0204576870999992019011012004+28117+112783FM-12+012099999V0203201N006019999999N004600199+00201+00161102701ADDAA106005031AY101021AY201021GA1081+002501999GE19AGL   +99999+99999GF108991081999002501999999MA1999999101181MD1210141+9999MW1101REMSYN06657687 11346 83206 10020 20016 30118 40270 52014 60051 71000 88///=
0106576870999992019011015004+28117+112783FM-12+012099999V0202901N00401002401WN004700199+00201+00161102671ADDGF109991999999999999999999MD1710031+9999MW1501REMSYN04857687 41/47 92904 10020 20016 40267 57003 750//=
0170576870999992019011018004+28117+112783FM-12+012099999V0203201N00401002401WN004900199+00201+00161102701ADDAA106000631AY151021AY201021GF109991999999999999999999MA1999999101181MD1210031+9999MW1211REMSYN07057687 11/49 93204 10020 20016 30118 40270 52003 69961 72150 333 10026=
0127576870999992019011021004+28117+112783FM-12+012099999V0203201N00401002401WN002600199+00181+00141102561ADDAA124008631GF109991999999999999999999MD1710141+9999MW1501REMSYN05857687 41/26 93204 10018 20014 40256 57014 750// 333 70086=
0221576870999992019011100004+28117+112783FM-12+012099999V0203201N004019999999N002200199+00181+00141102751ADDAA106001031AA224007031GA1081+002501999GE19AGL   +99999+99999GF108991081999002501999999MA1999999101231MD1210191+9999MW1101REMSYN08857687 11322 83204 10018 20014 30123 40275 52019 60011 710// 88/// 333 05100 30021 70070=
0166576870999992019011103004+28117+112783FM-12+012099999V0203401N003019999999N005000199+00231+00191102831ADDAY101021AY201021GA1081+002501999GE19AGL   +99999+99999GF108991081999002501999999MD1210081+9999MW1101REMSYN05457687 41350 83403 10023 20019 40283 52008 71000 88///=
0227576870999992019011106004+28117+112783FM-12+012099999V0203601N002019999999N006000199+00281+00211102491ADDAA106002031AY151021AY201021GA1081+004501999GE19AGL   +99999+99999GF108991081999004501999999KA1240N+00171MA1999999100981MD1710331+9999MW1601REMSYN07657687 11456 83602 10028 20021 30098 40249 57033 60021 76050 88/// 333 20017=
0166576870999992019011109004+28117+112783FM-12+012099999V0203401N002019999999N010000199+00351+00251102571ADDAY101021AY201021GA1081+004501999GE19AGL   +99999+99999GF108991081999004501999999MD1210081+9999MW1211REMSYN05457687 41460 83402 10035 20025 40257 52008 72100 88///=
0204576870999992019011112004+28117+112783FM-12+012099999V0209999C999999999999N999999999+00321+00231102711ADDAA106000531AY101021AY201021GA1081+004501999GE19AGL   +99999+99999GF108991081999004501999999MA1999999101191MD1210131+9999MW1101REMSYN06657687 11455 80000 10032 20023 30119 40271 52013 69951 71000 88///=
0106576870999992019011115004+28117+112783FM-12+012099999V0202901N00101000301WN000100199+00151+00111102721ADDGF109991999999999999999999MD1210011+9999MW1451REMSYN04857687 31/01 92901 10015 20011 40272 52001 745//=
0153576870999992019011118004+28117+112783FM-12+012099999V0209999C99999000301WN000100199+00001-00041102661ADDAY101021AY201021GF109991999999999999999999MA1999999101141MD1710061+9999MW1461REMSYN06457687 31/01 90000 10000 21004 30114 40266 57006 74600 333 10036=
0127576870999992019011121004+28117+112783FM-12+012099999V0209999C99999000601WN000200199-00011-00041102511ADDAA124002131GF109991999999999999999999MD1710151+9999MW1461REMSYN05857687 31/02 90000 11001 21004 40251 57015 746// 333 70021=
0160576870999992019011200004+28117+112783FM-12+012099999V0209999C99999000601WN000300199+00101+00071102681ADDAA124002031GF109991999999999999999999MA1999999101161MD1210171+9999MW1461REMSYN07657687 31/03 90000 10010 20007 30116 40268 52017 746// 333 05151 30002 70020=
0166576870999992019011203004+28117+112783FM-12+012099999V0201101N002019999999N999999999+00311+00301102701ADDAY101021AY201021GA1081+004501999GE19AGL   +99999+99999GF108991081999004501999999MD1210021+9999MW1101REMSYN05457687 31455 81102 10031 20030 40270 52002 71000 88///=
0210576870999992019011206004+28117+112783FM-12+012099999V0202701N002019999999N999999999+00411+00341102471ADDAY101021AY201021GA1081+004501999GE19AGL   +99999+99999GF108991081999004501999999KA1240N-00041MA1999999100961MD1710221+9999MW1101REMSYN07057687 31455 82702 10041 20034 30096 40247 57022 71000 88/// 333 21004=
0166576870999992019011209004+28117+112783FM-12+012099999V0203401N001019999999N999999999+00431+00311102441ADDAY101021AY201021GA1081+004501999GE19AGL   +99999+99999GF108991081999004501999999MD1710031+9999MW1101REMSYN05457687 31455 83401 10043 20031 40244 57003 71000 88///=
0187576870999992019011212004+28117+112783FM-12+012099999V0203201N004019999999N002400199+00361+00321102601ADDAY101021AY201021GA1081+004501999GE19AGL   +99999+99999GF108991081999004501999999MA1999999101091MD1210161+9999MW1101REMSYN06057687 31424 83204 10036 20032 30109 40260 52016 71000 88///=
0106576870999992019011215004+28117+112783FM-12+012099999V0203201N00301002401WN004100199+00371+00311102761ADDGF109991999999999999999999MD1210161+9999MW1211REMSYN04857687 41/41 93203 10037 20031 40276 52016 721//=
0170576870999992019011218004+28117+112783FM-12+012099999V0203401N00301002401WN003100199+00341+00301102741ADDAA106002031AY101021AY201021GF109991999999999999999999MA1999999101231MD1710021+9999MW1101REMSYN07057687 11/31 93403 10034 20030 30123 40274 57002 60021 71000 333 10046=
0127576870999992019011221004+28117+112783FM-12+012099999V0203401N00201002401WN001900199+00301+00261102671ADDAA124001631GF109991999999999999999999MD1710071+9999MW1101REMSYN05857687 31/19 93402 10030 20026 40267 57007 710// 333 70016=
0221576870999992019011300004+28117+112783FM-12+012099999V0203601N002019999999N002500199+00331+00271102801ADDAA112002032AA224001632GA1081+002501999GE19AGL   +99999+99999GF108991081999002501999999MA1999999101291MD1210131+9999MW1101REMSYN08857687 11325 83602 10033 20027 30129 40280 52013 60022 710// 88/// 333 00102 30034 70016=
0166576870999992019011303004+28117+112783FM-12+012099999V0203401N004019999999N002500199+00391+00331102831ADDAY101021AY201021GA1081+004501999GE19AGL   +99999+99999GF108991081999004501999999MD1210031+9999MW1101REMSYN05457687 31425 83404 10039 20033 40283 52003 71000 88///=
0210576870999992019011306004+28117+112783FM-12+012099999V0203401N004019999999N004600199+00521+00291102501ADDAY101021AY201021GA1081+004501999GE19AGL   +99999+99999GF108991081999004501999999KA1240N+00301MA1999999101001MD1710321+9999MW1101REMSYN07057687 31446 83404 10052 20029 30100 40250 57032 71000 88/// 333 20030=
0166576870999992019011309004+28117+112783FM-12+012099999V0203201N002019999999N004000199+00521+00341102531ADDAY151021AY201021GA1081+002501999GE19AGL   +99999+99999GF108991081999002501999999MD1210031+9999MW1601REMSYN05457687 31340 83202 10052 20034 40253 52003 76050 88///=
0204576870999992019011312004+28117+112783FM-12+012099999V0203401N002019999999N002100199+00461+00401102551ADDAA106000631AY101021AY201021GA1081+002501999GE19AGL   +99999+99999GF108991081999002501999999MA1999999101041MD1210011+9999MW1101REMSYN06657687 11321 83402 10046 20040 30104 40255 52001 69961 71000 88///=
0106576870999992019011315004+28117+112783FM-12+012099999V0203201N00101002401WN003000199+00471+00381102581ADDGF109991999999999999999999MD1210041+9999MW1101REMSYN04857687 41/30 93201 10047 20038 40258 52004 710//=
0153576870999992019011318004+28117+112783FM-12+012099999V0203401N00201002401WN002200199+00461+00401102531ADDAY101021AY201021GF109991999999999999999999MA1999999101031MD1710051+9999MW1101REMSYN06457687 31/22 93402 10046 20040 30103 40253 57005 71000 333 10054=
0127576870999992019011321004+28117+112783FM-12+012099999V0203201N00201002401WN001500199+00471+00431102431ADDAA124000631GF109991999999999999999999MD1710101+9999MW1101REMSYN05857687 31/15 93202 10047 20043 40243 57010 710// 333 70006=
0240576870999992019011400004+28117+112783FM-12+012099999V0203201N003019999999N001500199+00471+00441102451ADDAA112000091AA224000631GA1081+002501999GE19AGL   +99999+99999GF108991081999002501999999MA1999999100951MD1210021+9999MW1101REMSYN08857687 11315 83203 10047 20044 30095 40245 52002 69902 710// 88/// 333 05301 30048 70006=EQDQ01  00002PRCP12
0166576870999992019011403004+28117+112783FM-12+012099999V0203201N003019999999N001600199+00501+00471102551ADDAY101021AY201021GA1081+002501999GE19AGL   +99999+99999GF108991081999002501999999MD1210101+9999MW1101REMSYN05457687 41316 83203 10050 20047 40255 52010 71000 88///=
0227576870999992019011406004+28117+112783FM-12+012099999V0203201N004019999999N003300199+00521+00511102321ADDAA106000231AY101021AY201021GA1081+002501999GE19AGL   +99999+99999GF108991081999002501999999KA1240N+00451MA1999999100821MD1710231+9999MW1101REMSYN07657687 11333 83204 10052 20051 30082 40232 57023 69921 71000 88/// 333 20045=
0166576870999992019011409004+28117+112783FM-12+012099999V0203401N002019999999N999999999+00541+00511102411ADDAY101021AY201021GA1081+001501999GE19AGL   +99999+99999GF108991081999001501999999MD1210091+9999MW1101REMSYN05457687 41255 83402 10054 20051 40241 52009 71000 88///=
0204576870999992019011412004+28117+112783FM-12+012099999V0203201N005019999999N002900199+00521+00491102641ADDAA106001031AY101021AY201021GA1081+001501999GE19AGL   +99999+99999GF108991081999001501999999MA1999999101141MD1210231+9999MW1601REMSYN06657687 11229 83205 10052 20049 30114 40264 52023 60011 76000 88///=
0106576870999992019011415004+28117+112783FM-12+012099999V0203401N00501002401WN003600199+00501+00461102771ADDGF109991999999999999999999MD1210131+9999MW1101REMSYN04857687 41/36 93405 10050 20046 40277 52013 710//=
0170576870999992019011418004+28117+112783FM-12+012099999V0203401N00401002401WN003000199+00451+00391102761ADDAA106000631AY151021AY201021GF109991999999999999999999MA1999999101261MD1710011+9999MW1601REMSYN07057687 11/30 93404 10045 20039 30126 40276 57001 69961 76050 333 10055=
0127576870999992019011421004+28117+112783FM-12+012099999V0203401N00601002401WN002700199+00441+00381102691ADDAA124002831GF109991999999999999999999MD1710071+9999MW1211REMSYN05857687 41/27 93406 10044 20038 40269 57007 721// 333 70028=
0221576870999992019011500004+28117+112783FM-12+012099999V0203401N004019999999N004400199+00431+00331102931ADDAA106000631AA224002831GA1081+002501999GE19AGL   +99999+99999GF108991081999002501999999MA1999999101421MD1210231+9999MW1101REMSYN08857687 11344 83404 10043 20033 30142 40293 52023 69961 710// 88/// 333 00500 30043 70028=
0166576870999992019011503004+28117+112783FM-12+012099999V0203401N003019999999N003600199+00481+00391103041ADDAY151021AY201021GA1081+001501999GE19AGL   +99999+99999GF108991081999001501999999MD1210111+9999MW1601REMSYN05457687 31236 83403 10048 20039 40304 52011 76050 88///=
0227576870999992019011506004+28117+112783FM-12+012099999V0203401N005019999999N004800199+00541+00361102881ADDAA106000021AY101021AY201021GA1081+000751999GE19AGL   +99999+99999GF108991081999000751999999KA1240N+00431MA1999999101381MD1710151+9999MW1101REMSYN07657687 11148 83405 10054 20036 30138 40288 57015 69901 71000 88/// 333 20043=
0166576870999992019011509004+28117+112783FM-12+012099999V0203401N005019999999N999999999+00541+00191102991ADDAY101021AY201021GA1081+001501999GE19AGL   +99999+99999GF108991081999001501999999MD1210101+9999MW1101REMSYN05457687 31255 83405 10054 20019 40299 52010 71000 88///=
0187576870999992019011512004+28117+112783FM-12+012099999V0203401N004019999999N003600199+00401+00191103201ADDAY101021AY201021GA1081+001501999GE19AGL   +99999+99999GF108991081999001501999999MA1999999101691MD1210211+9999MW1101REMSYN06057687 31236 83404 10040 20019 30169 40320 52021 71000 88///=
0106576870999992019011515004+28117+112783FM-12+012099999V0203401N00501002401WN002700199+00261+00131103281ADDGF109991999999999999999999MD1210071+9999MW1101REMSYN04857687 41/27 93405 10026 20013 40328 52007 710//=
0170576870999992019011518004+28117+112783FM-12+012099999V0203201N00301002401WN002700199+00151+00021103181ADDAA106000331AY161021AY201021GF109991999999999999999999MA1999999101661MD1710101+9999MW1701REMSYN07057687 11/27 93203 10015 20002 30166 40318 57010 69931 77060 333 10057=
0127576870999992019011521004+28117+112783FM-12+012099999V0203201N00701002401WN003700199+00071-00071103091ADDAA124001731GF109991999999999999999999MD1710091+9999MW1701REMSYN05857687 41/37 93207 10007 21007 40309 57009 770// 333 70017=
0227576870999992019011600004+28117+112783FM-12+012099999V0203201N005019999999N002600199-00061-00121103221ADDAA106007031AA224007131GA1081+000751999GE19AGL   +99999+99999GF108991081999000751999999MA1999999101691MD1210121+9999MW1701REMSYN09457687 11126 83205 11006 21012 30169 40322 52012 60071 770// 88/// 333 00355 31001 70071 92503=
0166576870999992019011603004+28117+112783FM-12+012099999V0203401N003019999999N007000199-00021-00091103301ADDAY151021AY201021GA1081+001501999GE19AGL   +99999+99999GF108991081999001501999999MD1210081+9999MW1231REMSYN05457687 41257 83403 11002 21009 40330 52008 72350 88///=
0199576870999992019011606004+28117+112783FM-12+012099999V0203401N005019999999N007000199+00011-00121102971ADDAA106002031GA1081+001501999GE19AGL   +99999+99999GF108991081999001501999999KA1240N-00061MA1999999101441MD1710331+9999REMSYN07057687 12257 83405 10001 21012 30144 40297 57033 60021 88/// 333 21006=
0166576870999992019011609004+28117+112783FM-12+012099999V0203401N003019999999N999999999+00011-00091103051ADDAY101021AY201021GA1081+001501999GE19AGL   +99999+99999GF108991081999001501999999MD1210081+9999MW1101REMSYN05457687 41255 83403 10001 21009 40305 52008 71000 88///=
0187576870999992019011612004+28117+112783FM-12+012099999V0209999C999999999999N004700199+00031-00061103081ADDAY101021AY201021GA1081+012501999GE19AGL   +99999+99999GF108991081999012501999999MA1999999101541MD1210021+9999MW1101REMSYN06057687 31647 80000 10003 21006 30154 40308 52002 71000 88///=
0094576870999992019011615004+28117+112783FM-12+012099999V0202901N00101002401WN008000199+00061-00081103141ADDGF109991999999999999999999MD1210071+9999REMSYN04257687 32/58 92901 10006 21008 40314 52007=
0153576870999992019011618004+28117+112783FM-12+012099999V0201401N001019999999N999999999+00041-00021103031ADDAY101021AY201021GF109991999999999999999999MA1999999101501MD1710111+9999MW1101REMSYN06457687 31/55 91401 10004 21002 30150 40303 57011 71000 333 10015=
0127576870999992019011621004+28117+112783FM-12+012099999V0202901N00101002401WN000700199-00021-00061102991ADDAA124007531GF109991999999999999999999MD1710041+9999MW1451REMSYN05857687 31/07 92901 11002 21006 40299 57004 745// 333 70075=
0204576870999992019011700004+28117+112783FM-12+012099999V0202701N001019999999N003600199+00031-00011103141ADDAA124002131GA1081+001501999GE19AGL   +99999+99999GF108991081999001501999999MA1999999101611MD1210151+9999MW1101REMSYN08257687 31236 82701 10003 21001 30161 40314 52015 710// 88/// 333 05101 31003 70021=
0166576870999992019011703004+28117+112783FM-12+012099999V0201401N002019999999N999999999+00281+00211103221ADDAY101021AY201021GA1081+002501999GE19AGL   +99999+99999GF108991081999002501999999MD1210081+9999MW1101REMSYN05457687 31355 81402 10028 20021 40322 52008 71000 88///=
0182576870999992019011706004+28117+112783FM-12+012099999V0202501N001019999999N009000199+00391+00211102971ADDGA1081+004501999GE19AGL   +99999+99999GF108991081999004501999999KA1240N-00041MA1999999101451MD1710241+9999REMSYN06457687 32459 82501 10039 20021 30145 40297 57024 88/// 333 21004=
0138576870999992019011709004+28117+112783FM-12+012099999V0201801N002019999999N010000199+00431+00221102901ADDGA1081+004501999GE19AGL   +99999+99999GF108991081999004501999999MD1710071+9999REMSYN04857687 32460 81802 10043 20022 40290 57007 88///=
0159576870999992019011712004+28117+112783FM-12+012099999V0201401N001019999999N009000199+00411+00261102901ADDGA1081+004501999GE19AGL   +99999+99999GF108991081999004501999999MA1999999101381MD1410001+9999REMSYN05457687 32459 81401 10041 20026 30138 40290 54000 88///=
0094576870999992019011715004+28117+112783FM-12+012099999V0202201N00201002401WN010000199+00431+00251102871ADDGF109991999999999999999999MD1710021+9999REMSYN04257687 32/60 92202 10043 20025 40287 57002=
0125576870999992019011718004+28117+112783FM-12+012099999V0202001N00101002401WN010000199+00391+00261102711ADDGF109991999999999999999999MA1999999101201MD1710161+9999REMSYN05857687 32/60 92001 10039 20026 30120 40271 57016 333 10046=
0106576870999992019011721004+28117+112783FM-12+012099999V0201101N00201002401WN003800199+00341+00281102531ADDGF109991999999999999999999MD1710181+9999MW1101REMSYN04857687 31/38 91102 10034 20028 40253 57018 710//=
0187576870999992019011800004+28117+112783FM-12+012099999V0201401N003019999999N004800199+00371+00311102651ADDGA1081+004501999GE19AGL   +99999+99999GF108991081999004501999999MA1999999101141MD1210121+9999MW1101REMSYN07657687 31448 81403 10037 20031 30114 40265 52012 710// 88/// 333 05503 30035=
0166576870999992019011803004+28117+112783FM-12+012099999V0201601N003019999999N006000199+00481+00311102661ADDAY101021AY201021GA1081+004501999GE19AGL   +99999+99999GF108991081999004501999999MD1210021+9999MW1101REMSYN05457687 31456 81603 10048 20031 40266 52002 71000 88///=
0182576870999992019011806004+28117+112783FM-12+012099999V0201401N004019999999N007000199+00641+00391102271ADDGA1081+004501999GE19AGL   +99999+99999GF108991081999004501999999KA1240N+00331MA1999999100781MD1710381+9999REMSYN06457687 32457 81404 10064 20039 30078 40227 57038 88/// 333 20033=
0138576870999992019011809004+28117+112783FM-12+012099999V0201601N003019999999N011000199+00751+00431102131ADDGA1081+004501999GE19AGL   +99999+99999GF108991081999004501999999MD1710141+9999REMSYN04857687 32461 81603 10075 20043 40213 57014 88///=
0159576870999992019011812004+28117+112783FM-12+012099999V0209999C999999999999N012000199+00711+00481102151ADDGA1081+008001999GE19AGL   +99999+99999GF108991081999008001999999MA1999999100661MD1210021+9999REMSYN05457687 32562 80000 10071 20048 30066 40215 52002 88///=
0106576870999992019011815004+28117+112783FM-12+012099999V0209999C99999002401WN007000199+00661+00541102251ADDGF109991999999999999999999MD1210101+9999MW1101REMSYN04857687 31/57 90000 10066 20054 40225 52010 710//=
0153576870999992019011818004+28117+112783FM-12+012099999V0202901N00101002401WN006000199+00671+00551102231ADDAY101021AY201021GF109991999999999999999999MA1999999100741MD1710021+9999MW1101REMSYN06457687 31/56 92901 10067 20055 30074 40223 57002 71000 333 10078=
0127576870999992019011821004+28117+112783FM-12+012099999V0209999C99999002401WN000700199+00621+00581102161ADDAA124000731GF109991999999999999999999MD1710061+9999MW1521REMSYN05857687 41/07 90000 10062 20058 40216 57006 752// 333 70007=
0215576870999992019011900004+28117+112783FM-12+012099999V0202901N001019999999N001600199+00641+00611102311ADDAA106001031AA224001331GA1081+002501999GE19AGL   +99999+99999GF108991081999002501999999MA1999999100821MD1210141+9999MW1501REMSYN08257687 11316 82901 10064 20061 30082 40231 52014 60011 750// 88/// 333 05303 70013=
0166576870999992019011903004+28117+112783FM-12+012099999V0203201N004019999999N008000199+00661+00631102441ADDAY101021AY201021GA1081+001501999GE19AGL   +99999+99999GF108991081999001501999999MD1210131+9999MW1501REMSYN05457687 41258 83204 10066 20063 40244 52013 75000 88///=
0227576870999992019011906004+28117+112783FM-12+012099999V0203201N003019999999N004500199+00631+00601102231ADDAA106001031AY101021AY201021GA1081+001501999GE19AGL   +99999+99999GF108991081999001501999999KA1240N+00621MA1999999100741MD1710211+9999MW1201REMSYN07657687 11245 83203 10063 20060 30074 40223 57021 60011 72000 88/// 333 20062=
0166576870999992019011909004+28117+112783FM-12+012099999V0203601N002019999999N004400199+00601+00531102291ADDAY101021AY201021GA1081+001501999GE19AGL   +99999+99999GF108991081999001501999999MD1210061+9999MW1201REMSYN05457687 41244 83602 10060 20053 40229 52006 72000 88///=
0204576870999992019011912004+28117+112783FM-12+012099999V0203401N004019999999N003800199+00571+00501102491ADDAA106000131AY101021AY201021GA1081+001501999GE19AGL   +99999+99999GF108991081999001501999999MA1999999101001MD1210201+9999MW1101REMSYN06657687 11238 83404 10057 20050 30100 40249 52020 69911 71000 88///=
0106576870999992019011915004+28117+112783FM-12+012099999V0203401N00501002401WN005000199+00571+00421102731ADDGF109991999999999999999999MD1210231+9999MW1101REMSYN04857687 31/50 93405 10057 20042 40273 52023 710//=
0170576870999992019011918004+28117+112783FM-12+012099999V0203401N00601002401WN003500199+00521+00421102781ADDAA106000231AY101021AY201021GF109991999999999999999999MA1999999101281MD1210051+9999MW1211REMSYN07057687 11/35 93406 10052 20042 30128 40278 52005 69921 72100 333 10067=
0127576870999992019011921004+28117+112783FM-12+012099999V0203401N00601002401WN003600199+00511+00391102831ADDAA124002131GF109991999999999999999999MD1210051+9999MW1101REMSYN05857687 41/36 93406 10051 20039 40283 52005 710// 333 70021=
0221576870999992019012000004+28117+112783FM-12+012099999V0203401N005019999999N002400199+00341+00281103031ADDAA106004031AA224005731GA1081+000751999GE19AGL   +99999+99999GF108991081999000751999999MA1999999101521MD1210191+9999MW1601REMSYN08857687 11124 83405 10034 20028 30152 40303 52019 60041 760// 88/// 333 00753 30036 70057=
0166576870999992019012003004+28117+112783FM-12+012099999V0203401N006019999999N002200199+00431+00361103191ADDAY101021AY201021GA1081+001501999GE19AGL   +99999+99999GF108991081999001501999999MD1210161+9999MW1601REMSYN05457687 41222 83406 10043 20036 40319 52016 76000 88///=
0227576870999992019012006004+28117+112783FM-12+012099999V0203601N007019999999N004500199+00551+00281103031ADDAA106002031AY101021AY201021GA1081+002501999GE19AGL   +99999+99999GF108991081999002501999999KA1240N+00321MA1999999101531MD1710151+9999MW1101REMSYN07657687 11345 83607 10055 20028 30153 40303 57015 60021 71000 88/// 333 20032=
0166576870999992019012009004+28117+112783FM-12+012099999V0203601N005019999999N006000199+00541+00131103051ADDAY101021AY201021GA1081+002501999GE19AGL   +99999+99999GF108991081999002501999999MD1210011+9999MW1101REMSYN05457687 41356 83605 10054 20013 40305 52001 71000 88///=
0187576870999992019012012004+28117+112783FM-12+012099999V0203401N006019999999N006000199+00481+00061103221ADDAY101021AY201021GA1081+001501999GE19AGL   +99999+99999GF108991081999001501999999MA1999999101711MD1210171+9999MW1101REMSYN06057687 31256 83406 10048 20006 30171 40322 52017 71000 88///=
0106576870999992019012015004+28117+112783FM-12+012099999V0203401N00501002401WN006000199+00501+00061103291ADDGF109991999999999999999999MD1210071+9999MW1101REMSYN04857687 31/56 93405 10050 20006 40329 52007 710//=
0153576870999992019012018004+28117+112783FM-12+012099999V0203401N004019999999N999999999+00491+00121103261ADDAY101021AY201021GF109991999999999999999999MA1999999101751MD1710031+9999MW1101REMSYN06457687 31/55 93404 10049 20012 30175 40326 57003 71000 333 10056=
0127576870999992019012021004+28117+112783FM-12+012099999V0200401N00101002401WN007000199+00391-00091103021ADDAA124006031GF109991999999999999999999MD1710241+9999MW1101REMSYN05857687 31/57 90401 10039 21009 40302 57024 710// 333 70060=
0192576870999992019012100004+28117+112783FM-12+012099999V0203201N004019999999N008000199+00401-00201103281ADDAA124001831GA1081+002501999GE19AGL   +99999+99999GF108991081999002501999999MA1999999101771MD1210261+9999REMSYN07657687 32358 83204 10040 21020 30177 40328 52026 88/// 333 00301 30014 70018=
0138576870999992019012103004+28117+112783FM-12+012099999V0203201N003019999999N008000199+00491-00201103311ADDGA1081+999999999GE19AGL   +99999+99999GF108991081999999999999999MD1210031+9999REMSYN04857687 32958 83203 10049 21020 40331 52003 88///=
0182576870999992019012106004+28117+112783FM-12+012099999V0203401N004019999999N011000199+00711-00491103031ADDGA1081+999999999GE19AGL   +99999+99999GF108991081999999999999999KA1240N+00331MA1999999101531MD1710271+9999REMSYN06457687 32961 83404 10071 21049 30153 40303 57027 88/// 333 20033=
0138576870999992019012109004+28117+112783FM-12+012099999V0203401N002019999999N020000199+00831-00701102871ADDGA1061+999999999GE19AGL   +99999+99999GF106991061999999999999999MD1710161+9999REMSYN04857687 32970 63402 10083 21070 40287 57016 86///=
0159576870999992019012112004+28117+112783FM-12+012099999V0202501N001012200019N015000199+00441-00271103021ADDGA1011+999999999GE19AGL   +99999+99999GF101991011999999999999999MA1999999101511MD1210141+9999REMSYN05457687 32965 12501 10044 21027 30151 40302 52014 81///=
0106576870999992019012115004+28117+112783FM-12+012099999V0202701N00201002401WN006000199+00111-00111103061ADDGF109991999999999999999999MD1210031+9999MW1101REMSYN04857687 31/56 92702 10011 21011 40306 52003 710//=
0125576870999992019012118004+28117+112783FM-12+012099999V0202501N00101002401WN009000199+00181-00221102941ADDGF109991999999999999999999MA1999999101431MD1710111+9999REMSYN05857687 32/59 92501 10018 21022 30143 40294 57011 333 10091=
0094576870999992019012121004+28117+112783FM-12+012099999V0201401N00101002401WN008000199+00071-00221102851ADDGF109991999999999999999999MD1710091+9999REMSYN04257687 32/58 91401 10007 21022 40285 57009=
0143576870999992019012200004+28117+112783FM-12+012099999V0201101N001019999999N999999999-00021-00151102931ADDGF109991999999999999999999MA1999999101411MD1210071+9999MW1101REMSYN07057687 31/55 91101 11002 21015 30141 40293 52007 710// 333 05454 31020=
0094576870999992019012203004+28117+112783FM-12+012099999V0201801N001019999999N010000199+00751+00051103011ADDGF100995999999999999999999MD1210091+9999REMSYN04257687 32960 01801 10075 20005 40301 52009=
0138576870999992019012206004+28117+112783FM-12+012099999V0201801N002019999999N018000199+01311-00121102711ADDGF100995999999999999999999KA1240N-00061MA1999999101221MD1710281+9999REMSYN05857687 32968 01802 10131 21012 30122 40271 57028 333 21006=
0094576870999992019012209004+28117+112783FM-12+012099999V0201601N002019999999N027000199+01271-00361102531ADDGF100995999999999999999999MD1710181+9999REMSYN04257687 32977 01602 10127 21036 40253 57018=
0115576870999992019012212004+28117+112783FM-12+012099999V0203201N001019999999N018000199+00751-00281102541ADDGF100995999999999999999999MA1999999101031MD1710011+9999REMSYN04857687 32968 03201 10075 21028 30103 40254 57001=
0094576870999992019012215004+28117+112783FM-12+012099999V0203201N00101002401WN012000199+00391-00051102531ADDGF109991999999999999999999MD1410001+9999REMSYN04257687 32/62 93201 10039 21005 40253 54000=
0125576870999992019012218004+28117+112783FM-12+012099999V0201401N00201002401WN012000199+00291-00041102491ADDGF109991999999999999999999MA1999999101011MD1710021+9999REMSYN05857687 32/62 91402 10029 21004 30101 40249 57002 333 10142=
0094576870999992019012221004+28117+112783FM-12+012099999V0201101N00201002401WN010000199+00251-00171102361ADDGF109991999999999999999999MD1710131+9999REMSYN04257687 32/60 91102 10025 21017 40236 57013=
0175576870999992019012300004+28117+112783FM-12+012099999V0201401N001012200019N007000199+00321+00031102531ADDGA1011+999999999GE19AGL   +99999+99999GF101991011999999999999999MA1999999101031MD1210151+9999REMSYN07057687 32957 11401 10032 20003 30103 40253 52015 81/// 333 05403 31016=
0094576870999992019012303004+28117+112783FM-12+012099999V0201401N002019999999N012000199+00941+00131102591ADDGF100995999999999999999999MD1210071+9999REMSYN04257687 32962 01402 10094 20013 40259 52007=
0182576870999992019012306004+28117+112783FM-12+012099999V0201401N004012200019N021000199+01471+00021102271ADDGA1021+999999999GE19AGL   +99999+99999GF102991021999999999999999KA1240N+00171MA1999999100791MD1710311+9999REMSYN06457687 32971 21404 10147 20002 30079 40227 57031 82/// 333 20017=
0138576870999992019012309004+28117+112783FM-12+012099999V0201801N002012200019N030000199+01421-00361102191ADDGA1031+999999999GE19AGL   +99999+99999GF103991031999999999999999MD1710081+9999REMSYN04857687 32980 31802 10142 21036 40219 57008 83///=
0115576870999992019012312004+28117+112783FM-12+012099999V0202901N001019999999N024000199+00801-00071102271ADDGF100995999999999999999999MA1999999100781MD1210071+9999REMSYN04857687 32974 02901 10080 21007 30078 40227 52007=
0094576870999992019012315004+28117+112783FM-12+012099999V0209999C99999002401WN013000199+00611+00021102291ADDGF109991999999999999999999MD1210031+9999REMSYN04257687 32/63 90000 10061 20002 40229 52003=
0125576870999992019012318004+28117+112783FM-12+012099999V0200901N00101002401WN012000199+00471+00101102291ADDGF109991999999999999999999MA1999999100821MD1210011+9999REMSYN05857687 32/62 90901 10047 20010 30082 40229 52001 333 10155=
0094576870999992019012321004+28117+112783FM-12+012099999V0209999C99999002401WN014000199+00721+00041102201ADDGF109991999999999999999999MD1710081+9999REMSYN04257687 32/64 90000 10072 20004 40220 57008=
0175576870999992019012400004+28117+112783FM-12+012099999V0201101N001019999999N015000199+00691+00061102271ADDGA1071+999999999GE19AGL   +99999+99999GF107991071999999999999999MA1999999100791MD1210051+9999REMSYN07057687 32965 71101 10069 20006 30079 40227 52005 87/// 333 05204 30010=
0138576870999992019012403004+28117+112783FM-12+012099999V0201401N002019999999N019000199+01171+00111102341ADDGA1061+999999999GE19AGL   +99999+99999GF106991061999999999999999MD1210071+9999REMSYN04857687 32969 61402 10117 20011 40234 52007 86///=
0182576870999992019012406004+28117+112783FM-12+012099999V0201401N003019999999N029000199+01371+00041102051ADDGA1081+999999999GE19AGL   +99999+99999GF108991081999999999999999KA1240N+00431MA1999999100581MD1710281+9999REMSYN06457687 32979 81403 10137 20004 30058 40205 57028 88/// 333 20043=
0138576870999992019012409004+28117+112783FM-12+012099999V0201801N001019999999N024000199+01251+00091101971ADDGA1081+999999999GE19AGL   +99999+99999GF108991081999999999999999MD1710081+9999REMSYN04857687 32974 81801 10125 20009 40197 57008 88///=
0159576870999992019012412004+28117+112783FM-12+012099999V0203201N001019999999N017000199+01091+00271102051ADDGA1081+999999999GE19AGL   +99999+99999GF108991081999999999999999MA1999999100581MD1210081+9999REMSYN05457687 32967 83201 10109 20027 30058 40205 52008 88///=
0094576870999992019012415004+28117+112783FM-12+012099999V0203201N00101002401WN014000199+01021+00371102171ADDGF109991999999999999999999MD1210131+9999REMSYN04257687 32/64 93201 10102 20037 40217 52013=
0125576870999992019012418004+28117+112783FM-12+012099999V0202701N00201002401WN014000199+00961+00441102221ADDGF109991999999999999999999MA1999999100761MD1210051+9999REMSYN05857687 32/64 92702 10096 20044 30076 40222 52005 333 10142=
0094576870999992019012421004+28117+112783FM-12+012099999V0203401N00101002401WN014000199+01001+00331102251ADDGF109991999999999999999999MD1210031+9999REMSYN04257687 32/64 93401 10100 20033 40225 52003=
0238576870999992019012500004+28117+112783FM-12+012099999V0203201N003019999999N012000199+01011+00361102521ADDAA112000091AA224000091GA1071+017501999GE19AGL   +99999+99999GF107991071999017501999999MA1999999101051MD1210261+9999REMSYN07657687 12762 73203 10101 20036 30105 40252 52026 69902 87/// 333 00303 79999=EQDQ01  00002PRCP12Q02  00002PRCP24
0138576870999992019012503004+28117+112783FM-12+012099999V0203201N004019999999N010000199+01111+00411102731ADDGA1081+017501999GE19AGL   +99999+99999GF108991081999017501999999MD1210211+9999REMSYN04857687 32760 83204 10111 20041 40273 52021 88///=
0182576870999992019012506004+28117+112783FM-12+012099999V0203401N006019999999N008000199+01151+00421102631ADDGA1081+017501999GE19AGL   +99999+99999GF108991081999017501999999KA1240N+00931MA1999999101161MD1710101+9999REMSYN06457687 32758 83406 10115 20042 30116 40263 57010 88/// 333 20093=
0138576870999992019012509004+28117+112783FM-12+012099999V0203201N006019999999N010000199+01161+00311102751ADDGA1081+017501999GE19AGL   +99999+99999GF108991081999017501999999MD1210121+9999REMSYN04857687 32760 83206 10116 20031 40275 52012 88///=
0159576870999992019012512004+28117+112783FM-12+012099999V0203401N006019999999N010000199+01091+00251102991ADDGA1081+017501999GE19AGL   +99999+99999GF108991081999017501999999MA1999999101511MD1210231+9999REMSYN05457687 32760 83406 10109 20025 30151 40299 52023 88///=
0106576870999992019012515004+28117+112783FM-12+012099999V0203201N00501002401WN007000199+00951+00191103091ADDGF109991999999999999999999MD1210101+9999MW1051REMSYN04857687 31/57 93205 10095 20019 40309 52010 705//=
0153576870999992019012518004+28117+112783FM-12+012099999V0203401N00701002401WN007000199+00761+00031103151ADDAY101021AY201021GF109991999999999999999999MA1999999101671MD1210061+9999MW1051REMSYN06457687 31/57 93407 10076 20003 30167 40315 52006 70500 333 10120=
0106576870999992019012521004+28117+112783FM-12+012099999V0203401N00701002401WN006000199+00591+00051103131ADDGF109991999999999999999999MD1710031+9999MW1101REMSYN04857687 31/56 93407 10059 20005 40313 57003 710//=
0187576870999992019012600004+28117+112783FM-12+012099999V0203201N005019999999N006000199+00531+00091103341ADDGA1081+017501999GE19AGL   +99999+99999GF108991081999017501999999MA1999999101851MD1210211+9999MW1101REMSYN07657687 31756 83205 10053 20009 30185 40334 52021 710// 88/// 333 00855 30049=
0166576870999992019012603004+28117+112783FM-12+012099999V0203201N004019999999N007000199+00551+00051103441ADDAY101021AY201021GA1081+017501999GE19AGL   +99999+99999GF108991081999017501999999MD1210091+9999MW1101REMSYN05457687 31757 83204 10055 20005 40344 52009 71000 88///=
0210576870999992019012606004+28117+112783FM-12+012099999V0203401N005019999999N007000199+00721+00061103141ADDAY101021AY201021GA1081+017501999GE19AGL   +99999+99999GF108991081999017501999999KA1240N+00521MA1999999101641MD1710301+9999MW1101REMSYN07057687 31757 83405 10072 20006 30164 40314 57030 71000 88/// 333 20052=
0138576870999992019012609004+28117+112783FM-12+012099999V0203601N004019999999N007000199+00701+00091102991ADDGA1071+999999999GE19AGL   +99999+99999GF107991071999999999999999MD1710151+9999REMSYN04857687 32957 73604 10070 20009 40299 57015 87///=
0159576870999992019012612004+28117+112783FM-12+012099999V0203401N003019999999N007000199+00621+00091103041ADDGA1081+017501999GE19AGL   +99999+99999GF108991081999017501999999MA1999999101541MD1210051+9999REMSYN05457687 32757 83403 10062 20009 30154 40304 52005 88///=
0094576870999992019012615004+28117+112783FM-12+012099999V0203401N00401002401WN007000199+00561+00101103071ADDGF109991999999999999999999MD1210031+9999REMSYN04257687 32/57 93404 10056 20010 40307 52003=
0153576870999992019012618004+28117+112783FM-12+012099999V0203201N00401002401WN006000199+00431+00061103001ADDAY101021AY201021GF109991999999999999999999MA1999999101501MD1710071+9999MW1101REMSYN06457687 31/56 93204 10043 20006 30150 40300 57007 71000 333 10075=
0106576870999992019012621004+28117+112783FM-12+012099999V0203201N004019999999N999999999+00341+00061102861ADDGF109991999999999999999999MD1710141+9999MW1101REMSYN04857687 31/55 93204 10034 20006 40286 57014 710//=
0187576870999992019012700004+28117+112783FM-12+012099999V0202501N001019999999N999999999+00401+00121102951ADDGA1081+999999999GE19AGL   +99999+99999GF108991081999999999999999MA1999999101451MD1210091+9999MW1101REMSYN07657687 31955 82501 10040 20012 30145 40295 52009 710// 88/// 333 05451 30012=
0094576870999992019012703004+28117+112783FM-12+012099999V0201101N001019999999N007000199+00831+00081102891ADDGF100995999999999999999999MD1710051+9999REMSYN04257687 32957 01101 10083 20008 40289 57005=
0138576870999992019012706004+28117+112783FM-12+012099999V0201601N002019999999N012000199+01211+00021102481ADDGF100995999999999999999999KA1240N+00291MA1999999101001MD1710401+9999REMSYN05857687 32962 01602 10121 20002 30100 40248 57040 333 20029=
0138576870999992019012709004+28117+112783FM-12+012099999V0201401N001019999999N014000199+01221+00091102301ADDGA1071+999999999GE19AGL   +99999+99999GF107991071999999999999999MD1710181+9999REMSYN04857687 32964 71401 10122 20009 40230 57018 87///=
0187576870999992019012712004+28117+112783FM-12+012099999V0203401N004019999999N006000199+00841+00281102381ADDAY101021AY201021GA1081+022501999GE19AGL   +99999+99999GF108991081999022501999999MA1999999100891MD1210071+9999MW1101REMSYN06057687 31856 83404 10084 20028 30089 40238 52007 71000 88///=
0106576870999992019012715004+28117+112783FM-12+012099999V0202901N004019999999N999999999+00751+00341102471ADDGF109991999999999999999999MD1210101+9999MW1101REMSYN04857687 31/55 92904 10075 20034 40247 52010 710//=
0153576870999992019012718004+28117+112783FM-12+012099999V0203201N00301002401WN005000199+00661+00271102441ADDAY101021AY201021GF109991999999999999999999MA1999999100961MD1710031+9999MW1101REMSYN06457687 31/50 93203 10066 20027 30096 40244 57003 71000 333 10132=
0106576870999992019012721004+28117+112783FM-12+012099999V0203201N00401002401WN007000199+00571+00201102421ADDGF109991999999999999999999MD1710021+9999MW1101REMSYN04857687 31/57 93204 10057 20020 40242 57002 710//=
0169576870999992019012800004+28117+112783FM-12+012099999V0203401N006019999999N008000199+00541+00211102581ADDGA1081+017501999GE19AGL   +99999+99999GF108991081999017501999999MA1999999101091MD1210151+9999REMSYN06457687 32758 83406 10054 20021 30109 40258 52015 88/// 333 05401=
0138576870999992019012803004+28117+112783FM-12+012099999V0203401N004019999999N007000199+00671+00221102721ADDGA1081+017501999GE19AGL   +99999+99999GF108991081999017501999999MD1210141+9999REMSYN04857687 32757 83404 10067 20022 40272 52014 88///=
0210576870999992019012806004+28117+112783FM-12+012099999V0203201N005019999999N999999999+00661+00301102481ADDAY101021AY201021GA1081+017501999GE19AGL   +99999+99999GF108991081999017501999999KA1240N+00541MA1999999100991MD1710241+9999MW1101REMSYN07057687 31755 83205 10066 20030 30099 40248 57024 71000 88/// 333 20054=
0166576870999992019012809004+28117+112783FM-12+012099999V0203201N004019999999N999999999+00601+00191102491ADDAY101021AY201021GA1081+017501999GE19AGL   +99999+99999GF108991081999017501999999MD1210011+9999MW1101REMSYN05457687 31755 83204 10060 20019 40249 52001 71000 88///=
0187576870999992019012812004+28117+112783FM-12+012099999V0203401N004019999999N004700199+00491+00241102611ADDAY101021AY201021GA1081+017501999GE19AGL   +99999+99999GF108991081999017501999999MA1999999101111MD1210111+9999MW1101REMSYN06057687 31747 83404 10049 20024 30111 40261 52011 71000 88///=
0106576870999992019012815004+28117+112783FM-12+012099999V0203201N00401002401WN004100199+00471+00261102701ADDGF109991999999999999999999MD1210091+9999MW1101REMSYN04857687 31/41 93204 10047 20026 40270 52009 710//=
0153576870999992019012818004+28117+112783FM-12+012099999V0203601N00401002401WN004100199+00461+00261102671ADDAY101021AY201021GF109991999999999999999999MA1999999101171MD1710031+9999MW1101REMSYN06457687 31/41 93604 10046 20026 30117 40267 57003 71000 333 10083=
0106576870999992019012821004+28117+112783FM-12+012099999V0203201N00401002401WN003400199+00461+00291102561ADDGF109991999999999999999999MD1710111+9999MW1101REMSYN04857687 31/34 93204 10046 20029 40256 57011 710//=
0187576870999992019012900004+28117+112783FM-12+012099999V0203401N003019999999N003900199+00491+00321102651ADDGA1081+017501999GE19AGL   +99999+99999GF108991081999017501999999MA1999999101151MD1210091+9999MW1101REMSYN07657687 31739 83403 10049 20032 30115 40265 52009 710// 88/// 333 00151 30049=
0166576870999992019012903004+28117+112783FM-12+012099999V0203201N004019999999N004800199+00621+00351102731ADDAY101021AY201021GA1081+012501999GE19AGL   +99999+99999GF108991081999012501999999MD1210081+9999MW1101REMSYN05457687 31648 83204 10062 20035 40273 52008 71000 88///=
0210576870999992019012906004+28117+112783FM-12+012099999V0203401N003019999999N999999999+00671+00311102461ADDAY101021AY201021GA1081+008001999GE19AGL   +99999+99999GF108991081999008001999999KA1240N+00451MA1999999100971MD1710261+9999MW1101REMSYN07057687 31555 83403 10067 20031 30097 40246 57026 71000 88/// 333 20045=
0166576870999992019012909004+28117+112783FM-12+012099999V0203401N004019999999N005000199+00661+00321102401ADDAY101021AY201021GA1081+008001999GE19AGL   +99999+99999GF108991081999008001999999MD1710061+9999MW1101REMSYN05457687 31550 83404 10066 20032 40240 57006 71000 88///=
0187576870999992019012912004+28117+112783FM-12+012099999V0203201N003019999999N004600199+00601+00281102491ADDAY101021AY201021GA1081+008001999GE19AGL   +99999+99999GF108991081999008001999999MA1999999100991MD1210081+9999MW1101REMSYN06057687 31546 83203 10060 20028 30099 40249 52008 71000 88///=
0106576870999992019012915004+28117+112783FM-12+012099999V0203401N00201002401WN003900199+00571+00271102551ADDGF109991999999999999999999MD1210071+9999MW1101REMSYN04857687 31/39 93402 10057 20027 40255 52007 710//=
0153576870999992019012918004+28117+112783FM-12+012099999V0203401N00301002401WN002600199+00541+00371102461ADDAY101021AY201021GF109991999999999999999999MA1999999100971MD1710091+9999MW1101REMSYN06457687 31/26 93403 10054 20037 30097 40246 57009 71000 333 10071=
0106576870999992019012921004+28117+112783FM-12+012099999V0203201N00301002401WN002700199+00501+00351102301ADDGF109991999999999999999999MD1710161+9999MW1101REMSYN04857687 31/27 93203 10050 20035 40230 57016 710//=
0181576870999992019013000004+28117+112783FM-12+012099999V0203201N002019999999N002800199+00511+00361102381ADDGA1081+004501999GE19AGL   +99999+99999GF108991081999004501999999MA1999999100891MD1210081+9999MW1101REMSYN07057687 31428 83202 10051 20036 30089 40238 52008 710// 88/// 333 05300=
0166576870999992019013003004+28117+112783FM-12+012099999V0203401N001019999999N004200199+00731+00371102381ADDAY101021AY201021GA1081+004501999GE19AGL   +99999+99999GF108991081999004501999999MD1410001+9999MW1101REMSYN05457687 31442 83401 10073 20037 40238 54000 71000 88///=
0210576870999992019013006004+28117+112783FM-12+012099999V0203401N003019999999N999999999+00921+00441101981ADDAY101021AY201021GA1081+017501999GE19AGL   +99999+99999GF108991081999017501999999KA1240N+00501MA1999999100501MD1710391+9999MW1101REMSYN07057687 31755 83403 10092 20044 30050 40198 57039 71000 88/// 333 20050=
0166576870999992019013009004+28117+112783FM-12+012099999V0203401N005019999999N003800199+00721+00431101831ADDAY101021AY201021GA1081+017501999GE19AGL   +99999+99999GF108991081999017501999999MD1710151+9999MW1101REMSYN05457687 31738 83405 10072 20043 40183 57015 71000 88///=
0187576870999992019013012004+28117+112783FM-12+012099999V0203401N003019999999N003400199+00591+00471101881ADDAY101021AY201021GA1081+008001999GE19AGL   +99999+99999GF108991081999008001999999MA1999999100391MD1210041+9999MW1101REMSYN06057687 31534 83403 10059 20047 30039 40188 52004 71000 88///=
0106576870999992019013015004+28117+112783FM-12+012099999V0203401N00701002401WN002300199+00521+00461102171ADDGF109991999999999999999999MD1210291+9999MW1101REMSYN04857687 31/23 93407 10052 20046 40217 52029 710//=
0170576870999992019013018004+28117+112783FM-12+012099999V0203201N00801002401WN005000199+00441+00371102621ADDAA106004031AY171021AY201021GF109991999999999999999999MA1999999101131MD1210451+9999MW1621REMSYN07057687 11/50 93208 10044 20037 30113 40262 52045 60041 76270 333 10101=
0115576870999992019013021004+28117+112783FM-12+012099999V0203401N00701002401WN012000199+00251+00161102811ADDAA124005931GF109991999999999999999999MD1210181+9999REMSYN05257687 42/62 93407 10025 20016 40281 52018 333 70059=
0209576870999992019013100004+28117+112783FM-12+012099999V0203401N005019999999N012000199+00251+00091103171ADDAA106002031AA224005931GA1081+002501999GE19AGL   +99999+99999GF108991081999002501999999MA1999999101661MD1210351+9999REMSYN08257687 12362 83405 10025 20009 30166 40317 52035 60021 88/// 333 00853 30029 70059=
0138576870999992019013103004+28117+112783FM-12+012099999V0203401N006019999999N013000199+00311+00001103461ADDGA1081+004501999GE19AGL   +99999+99999GF108991081999004501999999MD1210281+9999REMSYN04857687 32463 83406 10031 20000 40346 52028 88///=
0182576870999992019013106004+28117+112783FM-12+012099999V0203601N005019999999N009000199+00361+00001103301ADDGA1081+004501999GE19AGL   +99999+99999GF108991081999004501999999KA1240N+00241MA1999999101781MD1710161+9999REMSYN06457687 32459 83605 10036 20000 30178 40330 57016 88/// 333 20024=
0138576870999992019013109004+28117+112783FM-12+012099999V0203401N003019999999N008000199+00411+00011103261ADDGA1081+004501999GE19AGL   +99999+99999GF108991081999004501999999MD1710041+9999REMSYN04857687 32458 83403 10041 20001 40326 57004 88///=
0159576870999992019013112004+28117+112783FM-12+012099999V0200201N003019999999N009000199+00391-00051103371ADDGA1081+004501999GE19AGL   +99999+99999GF108991081999004501999999MA1999999101851MD1210111+9999REMSYN05457687 32459 80203 10039 21005 30185 40337 52011 88///=
0094576870999992019013115004+28117+112783FM-12+012099999V0203401N00201002401WN010000199+00381-00121103411ADDGF109991999999999999999999MD1210041+9999REMSYN04257687 32/60 93402 10038 21012 40341 52004=
0153576870999992019013118004+28117+112783FM-12+012099999V0202901N002019999999N999999999+00171-00011103331ADDAY101021AY201021GF109991999999999999999999MA1999999101811MD1710081+9999MW1101REMSYN06457687 31/55 92902 10017 21001 30181 40333 57008 71000 333 10044=
0106576870999992019013121004+28117+112783FM-12+012099999V0202701N00101002401WN004400199+00221+00041103221ADDGF109991999999999999999999MD1710111+9999MW1101REMSYN04857687 31/44 92701 10022 20004 40322 57011 710//=
0187576870999992019020100004+28117+112783FM-12+012099999V0202701N001012200019N002400199+00071-00021103141ADDGA1021+999999999GE19AGL   +99999+99999GF102991021999999999999999MA1999999101621MD1710081+9999MW1101REMSYN07657687 31924 22701 10007 21002 30162 40314 57008 710// 82/// 333 00052 31006=
0138576870999992019020103004+28117+112783FM-12+012099999V0202701N001019999999N010000199+00531-00011103041ADDGA1071+999999999GE19AGL   +99999+99999GF107991071999999999999999MD1710091+9999REMSYN04857687 32960 72701 10053 21001 40304 57009 87///=
0182576870999992019020106004+28117+112783FM-12+012099999V0209999C999999999999N012000199+00781+00051102651ADDGA1071+008001999GE19AGL   +99999+99999GF107991071999008001999999KA1240N+00071MA1999999101151MD1710381+9999REMSYN06457687 32562 70000 10078 20005 30115 40265 57038 87/// 333 20007=
0138576870999992019020109004+28117+112783FM-12+012099999V0201401N003019999999N017000199+00811+00061102371ADDGA1071+999999999GE19AGL   +99999+99999GF107991071999999999999999MD1710281+9999REMSYN04857687 32967 71403 10081 20006 40237 57028 87///=
0159576870999992019020112004+28117+112783FM-12+012099999V0201601N003019999999N011000199+00691+00121102271ADDGA1071+999999999GE19AGL   +99999+99999GF107991071999999999999999MA1999999100771MD1710101+9999REMSYN05457687 32961 71603 10069 20012 30077 40227 57010 87///=
0094576870999992019020115004+28117+112783FM-12+012099999V0201401N00301002401WN015000199+00691+00241102151ADDGF109991999999999999999999MD1710111+9999REMSYN04257687 32/65 91403 10069 20024 40215 57011=
0125576870999992019020118004+28117+112783FM-12+012099999V0201401N00301002401WN013000199+00671+00281101941ADDGF109991999999999999999999MA1999999100461MD1710201+9999REMSYN05857687 32/63 91403 10067 20028 30046 40194 57020 333 10092=
0094576870999992019020121004+28117+112783FM-12+012099999V0201401N00401002401WN014000199+00671+00261101621ADDGF109991999999999999999999MD1710311+9999REMSYN04257687 32/64 91404 10067 20026 40162 57031=
0169576870999992019020200004+28117+112783FM-12+012099999V0201801N001019999999N014000199+00671+00281101561ADDGA1081+017501999GE19AGL   +99999+99999GF108991081999017501999999MA1999999100081MD1710071+9999REMSYN06457687 32764 81801 10067 20028 30008 40156 57007 88/// 333 06506=
0138576870999992019020203004+28117+112783FM-12+012099999V0201601N002019999999N015000199+00901+00381101501ADDGA1071+012501999GE19AGL   +99999+99999GF107991071999012501999999MD1710051+9999REMSYN04857687 32665 71602 10090 20038 40150 57005 87///=
0182576870999992019020206004+28117+112783FM-12+012099999V0201401N004019999999N024000199+01521+00671101021ADDGA1061+017501999GE19AGL   +99999+99999GF106991061999017501999999KA1240N+00661MA1999999099571MD1710461+9999REMSYN06457687 32774 61404 10152 20067 39957 40102 57046 86/// 333 20066=
0138576870999992019020209004+28117+112783FM-12+012099999V0200901N001019999999N030000199+01641+00791100771ADDGA1071+017501999GE19AGL   +99999+99999GF107991071999017501999999MD1710241+9999REMSYN04857687 32780 70901 10164 20079 40077 57024 87///=
0159576870999992019020212004+28117+112783FM-12+012099999V0202901N001012200019N030000199+01421+00881100951ADDGA1041+012501999GE19AGL   +99999+99999GF104991041999012501999999MA1999999099501MD1210171+9999REMSYN05457687 32680 42901 10142 20088 39950 40095 52017 84///=
0094576870999992019020215004+28117+112783FM-12+012099999V0203201N00801002401WN013000199+01121+00791101261ADDGF109991999999999999999999MD1210311+9999REMSYN04257687 32/63 93208 10112 20079 40126 52031=
0125576870999992019020218004+28117+112783FM-12+012099999V0203201N00601002401WN011000199+00941+00591101501ADDGF109991999999999999999999MA1999999100051MD1210241+9999REMSYN05857687 32/61 93206 10094 20059 30005 40150 52024 333 10174=
0094576870999992019020221004+28117+112783FM-12+012099999V0203201N00601002401WN009000199+00891+00551101571ADDGF109991999999999999999999MD1210071+9999REMSYN04257687 32/59 93206 10089 20055 40157 52007=
0238576870999992019020300004+28117+112783FM-12+012099999V0203201N006019999999N009000199+00911+00511101941ADDAA112000091AA224000091GA1081+001501999GE19AGL   +99999+99999GF108991081999001501999999MA1999999100481MD1210361+9999REMSYN07657687 12259 83206 10091 20051 30048 40194 52036 69902 88/// 333 00402 79999=EQDQ01  00002PRCP12Q02  00002PRCP24
0138576870999992019020303004+28117+112783FM-12+012099999V0203401N005019999999N010000199+00941+00441102291ADDGA1081+004501999GE19AGL   +99999+99999GF108991081999004501999999MD1210341+9999REMSYN04857687 32460 83405 10094 20044 40229 52034 88///=
0182576870999992019020306004+28117+112783FM-12+012099999V0203601N006019999999N013000199+01041+00121102311ADDGA1081+004501999GE19AGL   +99999+99999GF108991081999004501999999KA1240N+00861MA1999999100841MD1210021+9999REMSYN06457687 32463 83606 10104 20012 30084 40231 52002 88/// 333 20086=
0138576870999992019020309004+28117+112783FM-12+012099999V0203401N006019999999N018000199+01091-00181102331ADDGA1071+017501999GE19AGL   +99999+99999GF107991071999017501999999MD1210021+9999REMSYN04857687 32768 73406 10109 21018 40233 52002 87///=
0159576870999992019020312004+28117+112783FM-12+012099999V0203401N005019999999N018000199+00981+00071102511ADDGA1071+022501999GE19AGL   +99999+99999GF107991071999022501999999MA1999999101031MD1210171+9999REMSYN05457687 32868 73405 10098 20007 30103 40251 52017 87///=
0094576870999992019020315004+28117+112783FM-12+012099999V0203201N00201002401WN016000199+00891+00091102671ADDGF109991999999999999999999MD1210161+9999REMSYN04257687 32/66 93202 10089 20009 40267 52016=
0125576870999992019020318004+28117+112783FM-12+012099999V0203201N00301002401WN014000199+00761+00101102691ADDGF109991999999999999999999MA1999999101211MD1210021+9999REMSYN05857687 32/64 93203 10076 20010 30121 40269 52002 333 10110=
0094576870999992019020321004+28117+112783FM-12+012099999V0202701N00301002401WN012000199+00721+00091102571ADDGF109991999999999999999999MD1710121+9999REMSYN04257687 32/62 92703 10072 20009 40257 57012=
0169576870999992019020400004+28117+112783FM-12+012099999V0203401N003019999999N012000199+00741+00041102601ADDGA1081+012501999GE19AGL   +99999+99999GF108991081999012501999999MA1999999101121MD1210031+9999REMSYN06457687 32662 83403 10074 20004 30112 40260 52003 88/// 333 00652=
0166576870999992019020403004+28117+112783FM-12+012099999V0203401N004019999999N012000199+00821+00091102681ADDAY151021AY201021GA1081+017501999GE19AGL   +99999+99999GF108991081999017501999999MD1210081+9999MW1211REMSYN05457687 31762 83404 10082 20009 40268 52008 72150 88///=
0182576870999992019020406004+28117+112783FM-12+012099999V0203401N003019999999N011000199+00921+00141102341ADDGA1081+017501999GE19AGL   +99999+99999GF108991081999017501999999KA1240N+00701MA1999999100861MD1710341+9999REMSYN06457687 32761 83403 10092 20014 30086 40234 57034 88/// 333 20070=
0138576870999992019020409004+28117+112783FM-12+012099999V0203401N003019999999N009000199+00811+00261102231ADDGA1081+017501999GE19AGL   +99999+99999GF108991081999017501999999MD1710111+9999REMSYN04857687 32759 83403 10081 20026 40223 57011 88///=
0204576870999992019020412004+28117+112783FM-12+012099999V0202901N001019999999N002700199+00651+00511102311ADDAA106000831AY101021AY201021GA1081+004501999GE19AGL   +99999+99999GF108991081999004501999999MA1999999100821MD1210071+9999MW1601REMSYN06657687 11427 82901 10065 20051 30082 40231 52007 69981 76000 88///=
0106576870999992019020415004+28117+112783FM-12+012099999V0209999C99999002401WN000700199+00671+00611102311ADDGF109991999999999999999999MD1210011+9999MW1451REMSYN04857687 41/07 90000 10067 20061 40231 52001 745//=
0170576870999992019020418004+28117+112783FM-12+012099999V0200701N00101001201WN000500199+00641+00581102131ADDAA106001031AY141021AY201021GF109991999999999999999999MA1999999100651MD1710181+9999MW1451REMSYN07057687 11/05 90701 10064 20058 30065 40213 57018 60011 74540 333 10098=
0127576870999992019020421004+28117+112783FM-12+012099999V0200201N00101002401WN002200199+00621+00561101991ADDAA124002631GF109991999999999999999999MD1710141+9999MW1601REMSYN05857687 41/22 90201 10062 20056 40199 57014 760// 333 70026=
0215576870999992019020500004+28117+112783FM-12+012099999V0209999C999999999999N000300199+00631+00591102031ADDAA106008031AA224010131GA1081+000751999GE19AGL   +99999+99999GF108991081999000751999999MA1999999100551MD1210041+9999MW1601REMSYN08257687 11103 80000 10063 20059 30055 40203 52004 60081 760// 88/// 333 05651 70101=
0166576870999992019020503004+28117+112783FM-12+012099999V0201601N001019999999N000900199+00731+00691102001ADDAY161021AY251021GA1081+004501999GE19AGL   +99999+99999GF108991081999004501999999MD1710031+9999MW1281REMSYN05457687 41409 81601 10073 20069 40200 57003 72865 88///=
0199576870999992019020506004+28117+112783FM-12+012099999V0201601N003019999999N008000199+01061+00851101701ADDAA106004031GA1081+017501999GE19AGL   +99999+99999GF108991081999017501999999KA1240N+00581MA1999999100231MD1710291+9999REMSYN07057687 12758 81603 10106 20085 30023 40170 57029 60041 88/// 333 20058=
0138576870999992019020509004+28117+112783FM-12+012099999V0201401N004012200019N014000199+01161+00791101511ADDGA1011+999999999GE19AGL   +99999+99999GF101991011999999999999999MD1710181+9999REMSYN04857687 32964 11404 10116 20079 40151 57018 81///=
0143576870999992019020512004+28117+112783FM-12+012099999V0201101N00401002401WN003300199+00861+00771101521ADDAY101021AY201021GF109991999999999999999999MA1999999100051MD1410001+9999MW1101REMSYN05457687 31/33 91104 10086 20077 30005 40152 54000 71000=
0106576870999992019020515004+28117+112783FM-12+012099999V0201401N00401002401WN001700199+00751+00691101591ADDGF109991999999999999999999MD1210071+9999MW1101REMSYN04857687 31/17 91404 10075 20069 40159 52007 710//=
0153576870999992019020518004+28117+112783FM-12+012099999V0209999C99999001201WN000600199+00781+00741101431ADDAY101021AY201021GF109991999999999999999999MA1999999099971MD1710151+9999MW1461REMSYN06457687 31/06 90000 10078 20074 39997 40143 57015 74600 333 10122=
0127576870999992019020521004+28117+112783FM-12+012099999V0201401N00201000301WN000100199+00841+00811101181ADDAA124011031GF109991999999999999999999MD1710241+9999MW1461REMSYN05857687 31/01 91402 10084 20081 40118 57024 746// 333 70110=
0198576870999992019020600004+28117+112783FM-12+012099999V0201401N004019999999N000200199+00921+00891101181ADDAA124003531GA1081+001501999GE19AGL   +99999+99999GF108991081999001501999999MA1999999099721MD1710011+9999MW1461REMSYN07657687 31202 81404 10092 20089 39972 40118 57001 746// 88/// 333 05803 70035=
0166576870999992019020603004+28117+112783FM-12+012099999V0201401N004019999999N001800199+01111+01091101041ADDAY101021AY201021GA1081+004501999GE19AGL   +99999+99999GF108991081999004501999999MD1710141+9999MW1281REMSYN05457687 31418 81404 10111 20109 40104 57014 72800 88///=
0138576870999992019020606004+28117+112783FM-12+012099999V0201401N003019999999N020000199+02091+01341100611ADDGF100995999999999999999999KA1240N+00711MA1999999099191MD1710391+9999REMSYN05857687 32970 01403 10209 20134 39919 40061 57039 333 20071=
0138576870999992019020609004+28117+112783FM-12+012099999V0203201N004019999999N028000199+01981+01331100591ADDGA1061+017501999GE19AGL   +99999+99999GF106991061999017501999999MD1710021+9999REMSYN04857687 32778 63204 10198 20133 40059 57002 86///=
0187576870999992019020612004+28117+112783FM-12+012099999V0202901N006019999999N999999999+01261+01101101051ADDAY101021AY201021GA1081+017501999GE19AGL   +99999+99999GF108991081999017501999999MA1999999099601MD1210431+9999MW1101REMSYN06057687 31755 82906 10126 20110 39960 40105 52043 71000 88///=
0106576870999992019020615004+28117+112783FM-12+012099999V0203201N00601002401WN003800199+01041+00931101431ADDGF109991999999999999999999MD1210381+9999MW1101REMSYN04857687 31/38 93206 10104 20093 40143 52038 710//=
0153576870999992019020618004+28117+112783FM-12+012099999V0203201N003019999999N999999999+00961+00871101601ADDAY101021AY201021GF109991999999999999999999MA1999999100171MD1210191+9999MW1101REMSYN06457687 31/55 93203 10096 20087 30017 40160 52019 71000 333 10231=
0106576870999992019020621004+28117+112783FM-12+012099999V0203601N00601002401WN003600199+00861+00751101711ADDGF109991999999999999999999MD1210101+9999MW1101REMSYN04857687 31/36 93606 10086 20075 40171 52010 710//=
0250576870999992019020700004+28117+112783FM-12+012099999V0203401N005019999999N004400199+00851+00701101901ADDAA112000091AA224000091GA1081+004501999GE19AGL   +99999+99999GF108991081999004501999999MA1999999100441MD1210171+9999MW1101REMSYN08257687 11444 83405 10085 20070 30044 40190 52017 69902 710// 88/// 333 00751 79999=EQDQ01  00002PRCP12Q02  00002PRCP24
0166576870999992019020703004+28117+112783FM-12+012099999V0203401N007019999999N004600199+00771+00551102061ADDAY101021AY201021GA1081+002501999GE19AGL   +99999+99999GF108991081999002501999999MD1210151+9999MW1101REMSYN05457687 31346 83407 10077 20055 40206 52015 71000 88///=
0227576870999992019020706004+28117+112783FM-12+012099999V0203201N005019999999N003100199+00491+00391101961ADDAA106000331AY151021AY201021GA1081+001501999GE19AGL   +99999+99999GF108991081999001501999999KA1240N+00491MA1999999100481MD1710111+9999MW1211REMSYN07657687 11231 83205 10049 20039 30048 40196 57011 69931 72150 88/// 333 20049=
0166576870999992019020709004+28117+112783FM-12+012099999V0203401N004019999999N004700199+00331+00261102041ADDAY101021AY201021GA1081+001501999GE19AGL   +99999+99999GF108991081999001501999999MD1210071+9999MW1101REMSYN05457687 41247 83404 10033 20026 40204 52007 71000 88///=
0204576870999992019020712004+28117+112783FM-12+012099999V0203201N003019999999N999999999+00281+00211102191ADDAA106000931AY101021AY201021GA1081+001501999GE19AGL   +99999+99999GF108991081999001501999999MA1999999100701MD1210151+9999MW1201REMSYN06657687 11255 83203 10028 20021 30070 40219 52015 69991 72000 88///=
0106576870999992019020715004+28117+112783FM-12+012099999V0203401N006019999999N999999999+00191+00121102461ADDGF109991999999999999999999MD1210261+9999MW1101REMSYN04857687 41/55 93406 10019 20012 40246 52026 710//=
0170576870999992019020718004+28117+112783FM-12+012099999V0203401N00801002401WN007000199+00141+00081102461ADDAA106000731AY101021AY201021GF109991999999999999999999MA1999999100951MD1710011+9999MW1101REMSYN07057687 11/57 93408 10014 20008 30095 40246 57001 69971 71000 333 10096=
0115576870999992019020721004+28117+112783FM-12+012099999V0203601N00601002401WN008000199+00141+00071102351ADDAA124002131GF109991999999999999999999MD1710111+9999REMSYN05257687 42/58 93606 10014 20007 40235 57011 333 70021=
0221576870999992019020800004+28117+112783FM-12+012099999V0203401N006019999999N005000199+00151+00091102371ADDAA106000531AA224002431GA1081+000751999GE19AGL   +99999+99999GF108991081999000751999999MA1999999100861MD1210021+9999MW1601REMSYN08857687 11150 83406 10015 20009 30086 40237 52002 69951 760// 88/// 333 00457 30020 70024=
0166576870999992019020803004+28117+112783FM-12+012099999V0203401N005019999999N999999999+00181+00121102411ADDAY101021AY201021GA1081+002501999GE19AGL   +99999+99999GF108991081999002501999999MD1210041+9999MW1101REMSYN05457687 41355 83405 10018 20012 40241 52004 71000 88///=
0199576870999992019020806004+28117+112783FM-12+012099999V0203401N005019999999N008000199+00171+00111102191ADDAA106000931GA1081+002501999GE19AGL   +99999+99999GF108991081999002501999999KA1240N+00131MA1999999100681MD1710221+9999REMSYN07057687 12358 83405 10017 20011 30068 40219 57022 69991 88/// 333 20013=
0138576870999992019020809004+28117+112783FM-12+012099999V0203401N005019999999N009000199+00131+00061102211ADDGA1081+002501999GE19AGL   +99999+99999GF108991081999002501999999MD1210021+9999REMSYN04857687 42359 83405 10013 20006 40221 52002 88///=
0204576870999992019020812004+28117+112783FM-12+012099999V0203601N008019999999N007000199+00091+00021102471ADDAA106000631AY101021AY201021GA1081+001501999GE19AGL   +99999+99999GF108991081999001501999999MA1999999100951MD1210251+9999MW1101REMSYN06657687 11257 83608 10009 20002 30095 40247 52025 69961 71000 88///=
0094576870999992019020815004+28117+112783FM-12+012099999V0203401N00801002401WN009000199+00031-00041102661ADDGF109991999999999999999999MD1210191+9999REMSYN04257687 42/59 93408 10003 21004 40266 52019=
0142576870999992019020818004+28117+112783FM-12+012099999V0203401N00601002401WN009000199+00011-00051102731ADDAA106000231GF109991999999999999999999MA1999999101211MD1210071+9999REMSYN06457687 12/59 93406 10001 21005 30121 40273 52007 69921 333 10020=
0127576870999992019020821004+28117+112783FM-12+012099999V0203401N00601002401WN006000199-00031-00111102661ADDAA124002031GF109991999999999999999999MD1710081+9999MW1101REMSYN05857687 31/56 93406 11003 21011 40266 57008 710// 333 70020=
0227576870999992019020900004+28117+112783FM-12+012099999V0203401N003019999999N006000199-00031-00101102921ADDAA112000231AA224001731GA1081+001501999GE19AGL   +99999+99999GF108991081999001501999999MA1999999101391MD1210261+9999MW1101REMSYN09457687 11256 83403 11003 21010 30139 40292 52026 69922 710// 88/// 333 00552 30002 70017 93427=
0138576870999992019020903004+28117+112783FM-12+012099999V0203401N005019999999N007000199+00001-00071103011ADDGA1081+002501999GE19AGL   +99999+99999GF108991081999002501999999MD1210091+9999REMSYN04857687 32357 83405 10000 21007 40301 52009 88///=
0233576870999992019020906004+28117+112783FM-12+012099999V0203401N003019999999N006000199+00001-00071102861ADDAA106000431AY101021AY201021GA1081+002501999GE19AGL   +99999+99999GF108991081999002501999999KA1240N-00041MA1999999101331MD1710151+9999MW1101REMSYN08257687 11356 83403 10000 21007 30133 40286 57015 69941 71000 88/// 333 21004 93427=
0138576870999992019020909004+28117+112783FM-12+012099999V0203401N003019999999N008000199+00021-00051102811ADDGA1081+002501999GE19AGL   +99999+99999GF108991081999002501999999MD1710051+9999REMSYN04857687 42358 83403 10002 21005 40281 57005 88///=
0214576870999992019020912004+28117+112783FM-12+012099999V0203401N004019999999N999999999+00041-00021102911ADDAA106000231AY151021AY201021GA1081+001501999GE19AGL   +99999+99999GF108991081999001501999999MA1999999101381MD1210101+9999MW1211REMSYN07657687 11255 83404 10004 21002 30138 40291 52010 69921 72150 88/// 333 93427=
0106576870999992019020915004+28117+112783FM-12+012099999V0203401N00501002401WN004200199+00081+00041102971ADDGF109991999999999999999999MD1210061+9999MW1101REMSYN04857687 41/42 93405 10008 20004 40297 52006 710//=
0170576870999992019020918004+28117+112783FM-12+012099999V0203401N005019999999N999999999+00061+00021102871ADDAA106000931AY101021AY201021GF109991999999999999999999MA1999999101341MD1710101+9999MW1101REMSYN07057687 11/55 93405 10006 20002 30134 40287 57010 69991 71000 333 10009=
0127576870999992019020921004+28117+112783FM-12+012099999V0203201N00301002401WN007000199-00011-00051102801ADDAA124001931GF109991999999999999999999MD1710071+9999MW1501REMSYN05857687 41/57 93203 11001 21005 40280 57007 750// 333 70019=
0227576870999992019021000004+28117+112783FM-12+012099999V0203401N006019999999N007000199-00041-00101103081ADDAA106000731AA224002231GA1081+001501999GE19AGL   +99999+99999GF108991081999001501999999MA1999999101551MD1210281+9999MW1101REMSYN09457687 11257 83406 11004 21010 30155 40308 52028 69971 710// 88/// 333 00200 30003 70022 93427=
0138576870999992019021003004+28117+112783FM-12+012099999V0203201N003019999999N012000199-00041-00111103311ADDGA1081+002501999GE19AGL   +99999+99999GF108991081999002501999999MD1210221+9999REMSYN04857687 42362 83203 11004 21011 40331 52022 88///=
0216576870999992019021006004+28117+112783FM-12+012099999V0203401N005019999999N008000199-00041-00141103251ADDAY151021AY201021GA1081+001501999GE19AGL   +99999+99999GF108991081999001501999999KA1240N-00051MA1999999101711MD1710061+9999MW1211REMSYN07657687 31258 83405 11004 21014 30171 40325 57006 72150 88/// 333 21005 93427=
0138576870999992019021009004+28117+112783FM-12+012099999V0203401N006019999999N007000199-00041-00141103381ADDGA1081+001501999GE19AGL   +99999+99999GF108991081999001501999999MD1210131+9999REMSYN04857687 32257 83406 11004 21014 40338 52013 88///=
0214576870999992019021012004+28117+112783FM-12+012099999V0203401N005019999999N004900199-00051-00121103561ADDAA106000021AY151021AY201021GA1081+002501999GE19AGL   +99999+99999GF108991081999002501999999MA1999999102021MD1210181+9999MW1601REMSYN07657687 11349 83405 11005 21012 30202 40356 52018 69901 76050 88/// 333 93429=
0106576870999992019021015004+28117+112783FM-12+012099999V0203201N00301002401WN001900199-00071-00131103641ADDGF109991999999999999999999MD1210071+9999MW1211REMSYN04857687 31/19 93203 11007 21013 40364 52007 721//=
0153576870999992019021018004+28117+112783FM-12+012099999V0203401N00301002401WN002400199-00081-00141103571ADDAY101021AY201021GF109991999999999999999999MA1999999102021MD1710071+9999MW1501REMSYN06457687 31/24 93403 11008 21014 30202 40357 57007 75000 333 10006=
0127576870999992019021021004+28117+112783FM-12+012099999V0203401N00401002401WN002400199-00081-00141103381ADDAA124000331GF109991999999999999999999MD1710181+9999MW1101REMSYN05857687 31/24 93404 11008 21014 40338 57018 710// 333 70003=
0227576870999992019021100004+28117+112783FM-12+012099999V0203401N002019999999N003000199-00061-00121103461ADDAA106000231AA224000231GA1081+002501999GE19AGL   +99999+99999GF108991081999002501999999MA1999999101921MD1210081+9999MW1101REMSYN09457687 11330 83402 11006 21012 30192 40346 52008 69921 710// 88/// 333 00400 30001 70002 93429=
0166576870999992019021103004+28117+112783FM-12+012099999V0203401N001019999999N004100199+00001-00061103481ADDAY101021AY201021GA1081+002501999GE19AGL   +99999+99999GF108991081999002501999999MD1210021+9999MW1101REMSYN05457687 41341 83401 10000 21006 40348 52002 71000 88///=
0227576870999992019021106004+28117+112783FM-12+012099999V0209999C999999999999N004100199+00071+00001103191ADDAA106001031AY101021AY201021GA1081+002501999GE19AGL   +99999+99999GF108991081999002501999999KA1240N-00091MA1999999101651MD1710291+9999MW1101REMSYN07657687 11341 80000 10007 20000 30165 40319 57029 60011 71000 88/// 333 21009=
0166576870999992019021109004+28117+112783FM-12+012099999V0209999C999999999999N003000199+00051-00011103081ADDAY101021AY201021GA1081+001501999GE19AGL   +99999+99999GF108991081999001501999999MD1710111+9999MW1101REMSYN05457687 41230 80000 10005 21001 40308 57011 71000 88///=
0223576870999992019021112004+28117+112783FM-12+012099999V0209999C999999999999N003400199+00071+00011103051ADDAA106000091AY101021AY201021GA1081+001501999GE19AGL   +99999+99999GF108991081999001501999999MA1999999101521MD1710021+9999MW1101REMSYN06657687 11234 80000 10007 20001 30152 40305 57002 69901 71000 88///=EQDQ01  00002PRCP06
0106576870999992019021115004+28117+112783FM-12+012099999V0209999C99999002401WN003400199+00111+00051103051ADDGF109991999999999999999999MD1410001+9999MW1101REMSYN04857687 31/34 90000 10011 20005 40305 54000 710//=
0153576870999992019021118004+28117+112783FM-12+012099999V0209999C99999002401WN002600199+00131+00091102931ADDAY101021AY201021GF109991999999999999999999MA1999999101401MD1710121+9999MW1101REMSYN06457687 31/26 90000 10013 20009 30140 40293 57012 71000 333 10014=
0127576870999992019021121004+28117+112783FM-12+012099999V0209999C99999001201WN000500199+00161+00121102781ADDAA124001531GF109991999999999999999999MD1710141+9999MW1451REMSYN05857687 31/05 90000 10016 20012 40278 57014 745// 333 70015=
0240576870999992019021200004+28117+112783FM-12+012099999V0209999C999999999999N000500199+00181+00141102831ADDAA112000091AA224001331GA1081+001501999GE19AGL   +99999+99999GF108991081999001501999999MA1999999101311MD1210051+9999MW1461REMSYN08857687 11205 80000 10018 20014 30131 40283 52005 69902 746// 88/// 333 05602 30022 70013=EQDQ01  00002PRCP12
0166576870999992019021203004+28117+112783FM-12+012099999V0203401N003019999999N001500199+00231+00191102971ADDAY101021AY201021GA1081+001501999GE19AGL   +99999+99999GF108991081999001501999999MD1210141+9999MW1101REMSYN05457687 31215 83403 10023 20019 40297 52014 71000 88///=
0227576870999992019021206004+28117+112783FM-12+012099999V0203401N003019999999N004200199+00311+00271102821ADDAA106000231AY101021AY201021GA1081+001501999GE19AGL   +99999+99999GF108991081999001501999999KA1240N+00041MA1999999101301MD1710151+9999MW1101REMSYN07657687 11242 83403 10031 20027 30130 40282 57015 69921 71000 88/// 333 20004=
0138576870999992019021209004+28117+112783FM-12+012099999V0203401N003019999999N007000199+00301+00261102941ADDGA1081+001501999GE19AGL   +99999+99999GF108991081999001501999999MD1210121+9999REMSYN04857687 42257 83403 10030 20026 40294 52012 88///=
0204576870999992019021212004+28117+112783FM-12+012099999V0203601N003019999999N015000199+00321+00281103161ADDAA106000331AY101021AY201021GA1081+001501999GE19AGL   +99999+99999GF108991081999001501999999MA1999999101641MD1210221+9999MW1211REMSYN06657687 11265 83603 10032 20028 30164 40316 52022 69931 72100 88///=
0094576870999992019021215004+28117+112783FM-12+012099999V0203401N00401002401WN014000199+00311+00251103261ADDGF109991999999999999999999MD1210101+9999REMSYN04257687 42/64 93404 10031 20025 40326 52010=
0153576870999992019021218004+28117+112783FM-12+012099999V0203401N00501002401WN004500199+00261+00201103191ADDAY101021AY201021GF109991999999999999999999MA1999999101671MD1710071+9999MW1101REMSYN06457687 31/45 93405 10026 20020 30167 40319 57007 71000 333 10032=
0127576870999992019021221004+28117+112783FM-12+012099999V0203201N00401002401WN004500199+00241+00181103031ADDAA124000531GF109991999999999999999999MD1710161+9999MW1211REMSYN05857687 31/45 93204 10024 20018 40303 57016 721// 333 70005=
0221576870999992019021300004+28117+112783FM-12+012099999V0203401N003019999999N004100199+00251+00211103071ADDAA106000131AA224000631GA1081+000751999GE19AGL   +99999+99999GF108991081999000751999999MA1999999101551MD1210041+9999MW1211REMSYN08857687 11141 83403 10025 20021 30155 40307 52004 69911 721// 88/// 333 00201 30029 70006=
0166576870999992019021303004+28117+112783FM-12+012099999V0203201N003019999999N004000199+00271+00231103051ADDAY161021AY201021GA1081+001501999GE19AGL   +99999+99999GF108991081999001501999999MD1710021+9999MW1501REMSYN05457687 41240 83203 10027 20023 40305 57002 75060 88///=
0227576870999992019021306004+28117+112783FM-12+012099999V0203401N003019999999N004500199+00281+00241102781ADDAA106000731AY101021AY201021GA1081+001501999GE19AGL   +99999+99999GF108991081999001501999999KA1240N+00241MA1999999101261MD1710271+9999MW1101REMSYN07657687 11245 83403 10028 20024 30126 40278 57027 69971 71000 88/// 333 20024=
0138576870999992019021309004+28117+112783FM-12+012099999V0203401N004019999999N007000199+00281+00241102691ADDGA1081+001501999GE19AGL   +99999+99999GF108991081999001501999999MD1710081+9999REMSYN04857687 42257 83404 10028 20024 40269 57008 88///=
0204576870999992019021312004+28117+112783FM-12+012099999V0203201N003019999999N004900199+00231+00191102921ADDAA106000331AY101021AY201021GA1081+001501999GE19AGL   +99999+99999GF108991081999001501999999MA1999999101401MD1210221+9999MW1101REMSYN06657687 11249 83203 10023 20019 30140 40292 52022 69931 71000 88///=
0106576870999992019021315004+28117+112783FM-12+012099999V0203201N00301002401WN006000199+00221+00181102961ADDGF109991999999999999999999MD1210041+9999MW1101REMSYN04857687 41/56 93203 10022 20018 40296 52004 710//=
0170576870999992019021318004+28117+112783FM-12+012099999V0203201N00201002401WN003200199+00211+00171102871ADDAA106000131AY101021AY201021GF109991999999999999999999MA1999999101351MD1710091+9999MW1101REMSYN07057687 11/32 93202 10021 20017 30135 40287 57009 69911 71000 333 10030=
0127576870999992019021321004+28117+112783FM-12+012099999V0203601N00201002401WN003000199+00221+00181102821ADDAA124001231GF109991999999999999999999MD1710051+9999MW1101REMSYN05857687 31/30 93602 10022 20018 40282 57005 710// 333 70012=
0221576870999992019021400004+28117+112783FM-12+012099999V0203401N003019999999N000800199+00241+00201102851ADDAA112000131AA224001131GA1081+000751999GE19AGL   +99999+99999GF108991081999000751999999MA1999999101331MD1210031+9999MW1101REMSYN08857687 11108 83403 10024 20020 30133 40285 52003 69912 710// 88/// 333 05200 30027 70011=
0166576870999992019021403004+28117+112783FM-12+012099999V0203401N003019999999N000600199+00281+00251102891ADDAY101021AY201021GA1081+000751999GE19AGL   +99999+99999GF108991081999000751999999MD1210041+9999MW1461REMSYN05457687 31106 83403 10028 20025 40289 52004 74600 88///=
0227576870999992019021406004+28117+112783FM-12+012099999V0203401N002019999999N007000199+00311+00281102651ADDAA106000021AY101021AY201021GA1081+001501999GE19AGL   +99999+99999GF108991081999001501999999KA1240N+00211MA1999999101141MD1710231+9999MW1201REMSYN07657687 11257 83402 10031 20028 30114 40265 57023 69901 72000 88/// 333 20021=
0166576870999992019021409004+28117+112783FM-12+012099999V0203201N003019999999N004500199+00301+00271102621ADDAY101021AY201021GA1081+000751999GE19AGL   +99999+99999GF108991081999000751999999MD1710031+9999MW1211REMSYN05457687 41145 83203 10030 20027 40262 57003 72100 88///=
0204576870999992019021412004+28117+112783FM-12+012099999V0203401N003019999999N004200199+00291+00251102821ADDAA106000531AY101021AY201021GA1081+001501999GE19AGL   +99999+99999GF108991081999001501999999MA1999999101301MD1210191+9999MW1101REMSYN06657687 11242 83403 10029 20025 30130 40282 52019 69951 71000 88///=
0106576870999992019021415004+28117+112783FM-12+012099999V0203601N003019999999N999999999+00251+00211102901ADDGF109991999999999999999999MD1210081+9999MW1101REMSYN04857687 41/55 93603 10025 20021 40290 52008 710//=
0170576870999992019021418004+28117+112783FM-12+012099999V0203401N003019999999N999999999+00231+00191102821ADDAA106000431AY101021AY201021GF109991999999999999999999MA1999999101301MD1710081+9999MW1101REMSYN07057687 11/55 93403 10023 20019 30130 40282 57008 69941 71000 333 10032=
0127576870999992019021421004+28117+112783FM-12+012099999V0203401N00401002401WN012000199+00171+00131102691ADDAA124001931GF109991999999999999999999MD1710131+9999MW1211REMSYN05857687 41/62 93404 10017 20013 40269 57013 721// 333 70019=
0221576870999992019021500004+28117+112783FM-12+012099999V0203401N004019999999N007000199+00161+00121102851ADDAA106006031AA224007331GA1081+001501999GE19AGL   +99999+99999GF108991081999001501999999MA1999999101331MD1210161+9999MW1621REMSYN08857687 11257 83404 10016 20012 30133 40285 52016 60061 762// 88/// 333 00051 30019 70073=
0166576870999992019021503004+28117+112783FM-12+012099999V0203401N003019999999N006000199+00181+00141102901ADDAY151021AY201021GA1081+001501999GE19AGL   +99999+99999GF108991081999001501999999MD1210051+9999MW1601REMSYN05457687 41256 83403 10018 20014 40290 52005 76050 88///=
0227576870999992019021506004+28117+112783FM-12+012099999V0203401N003019999999N007000199+00221+00181102691ADDAA106002031AY151021AY201021GA1081+001501999GE19AGL   +99999+99999GF108991081999001501999999KA1240N+00151MA1999999101171MD1710211+9999MW1211REMSYN07657687 11257 83403 10022 20018 30117 40269 57021 60021 72150 88/// 333 20015=
0166576870999992019021509004+28117+112783FM-12+012099999V0203401N002019999999N007000199+00231+00171102581ADDAY151021AY201021GA1081+001501999GE19AGL   +99999+99999GF108991081999001501999999MD1710111+9999MW1211REMSYN05457687 41257 83402 10023 20017 40258 57011 72150 88///=
0204576870999992019021512004+28117+112783FM-12+012099999V0203401N002019999999N004100199+00241+00201102781ADDAA106000631AY151021AY201021GA1081+000751999GE19AGL   +99999+99999GF108991081999000751999999MA1999999101261MD1210201+9999MW1601REMSYN06657687 11141 83402 10024 20020 30126 40278 52020 69961 76050 88///=
0106576870999992019021515004+28117+112783FM-12+012099999V0203401N00301002401WN008000199+00261+00221102841ADDGF109991999999999999999999MD1210061+9999MW1601REMSYN04857687 41/58 93403 10026 20022 40284 52006 760//=
0170576870999992019021518004+28117+112783FM-12+012099999V0203201N00301002401WN003600199+00241+00201102801ADDAA106000931AY101021AY201021GF109991999999999999999999MA1999999101281MD1710041+9999MW1101REMSYN07057687 11/36 93203 10024 20020 30128 40280 57004 69991 71000 333 10026=
0127576870999992019021521004+28117+112783FM-12+012099999V0202701N00101002401WN003800199+00231+00191102731ADDAA124009131GF109991999999999999999999MD1710071+9999MW1101REMSYN05857687 41/38 92701 10023 20019 40273 57007 710// 333 70091=
0221576870999992019021600004+28117+112783FM-12+012099999V0203401N003019999999N999999999+00241+00201102831ADDAA106001031AA224004631GA1081+000751999GE19AGL   +99999+99999GF108991081999000751999999MA1999999101311MD1210101+9999MW1211REMSYN08857687 11155 83403 10024 20020 30131 40283 52010 60011 721// 88/// 333 00001 30026 70046=
0166576870999992019021603004+28117+112783FM-12+012099999V0203401N004019999999N008000199+00271+00231102911ADDAY161021AY261021GA1081+001501999GE19AGL   +99999+99999GF108991081999001501999999MD1210081+9999MW1601REMSYN05457687 41258 83404 10027 20023 40291 52008 76066 88///=
0227576870999992019021606004+28117+112783FM-12+012099999V0203401N004019999999N006000199+00281+00241102661ADDAA106000731AY161021AY261021GA1081+001501999GE19AGL   +99999+99999GF108991081999001501999999KA1240N+00211MA1999999101151MD1710241+9999MW1601REMSYN07657687 11256 83404 10028 20024 30115 40266 57024 69971 76066 88/// 333 20021=
0166576870999992019021609004+28117+112783FM-12+012099999V0203401N004019999999N006000199+00301+00261102531ADDAY161021AY261021GA1081+001501999GE19AGL   +99999+99999GF108991081999001501999999MD1710131+9999MW1601REMSYN05457687 41256 83404 10030 20026 40253 57013 76066 88///=
0204576870999992019021612004+28117+112783FM-12+012099999V0203401N005019999999N999999999+00301+00261102671ADDAA106000831AY161021AY261021GA1081+000751999GE19AGL   +99999+99999GF108991081999000751999999MA1999999101161MD1210141+9999MW1601REMSYN06657687 11155 83405 10030 20026 30116 40267 52014 69981 76066 88///=
0106576870999992019021615004+28117+112783FM-12+012099999V0203401N00401002401WN002000199+00291+00251102811ADDGF109991999999999999999999MD1210131+9999MW1211REMSYN04857687 41/20 93404 10029 20025 40281 52013 721//=
0170576870999992019021618004+28117+112783FM-12+012099999V0203401N00401002401WN001300199+00191+00161102701ADDAA106000531AY101021AY201021GF109991999999999999999999MA1999999101181MD1710111+9999MW1101REMSYN07057687 11/13 93404 10019 20016 30118 40270 57011 69951 71000 333 10031=
